:020000040800F2
:10000000301200208D020008F57A0008056B000808
:10001000857A0008D11500089D81000800000000C5
:100020000000000000000000000000004D7D0008FE
:10003000ED19000800000000F77A00084F7D000865
:10004000A7020008A7020008A7020008A7020008EC
:10005000A7020008A7020008A7020008A7020008DC
:10006000A7020008A7020008A7020008A7020008CC
:10007000A7020008A7020008A7020008A7020008BC
:10008000A7020008A7020008A7020008A7020008AC
:10009000A7020008A7020008A7020008A70200089C
:1000A000A7020008A7020008A7020008A70200088C
:1000B000A7020008A7020008A7020008A70200087C
:1000C000A7020008A7020008A7020008A70200086C
:1000D000A7020008A7020008A7020008A70200085C
:1000E000A7020008A7020008A7020008A70200084C
:1000F000A7020008A7020008A7020008A70200083C
:10010000A7020008A7020008A7020008A70200082B
:10011000A7020008A7020008017E0008A702000845
:10012000A7020008A7020008A7020008A70200080B
:10013000A7020008A7020008A7020008A7020008FB
:10014000A7020008A7020008A7020008A7020008EB
:10015000A7020008A7020008A7020008A7020008DB
:10016000A7020008A7020008A7020008A7020008CB
:10017000A7020008A7020008A7020008000000006C
:10018000A7020008A7020008A7020008A7020008AB
:10019000A7020008A7020008A7020008A70200089B
:1001A00075730008A7020008CD18000800F002F8D7
:1001B00000F043F80AA090E8000C82448344AAF1BE
:1001C0000107DA4501D100F038F8AFF2090EBAE8BC
:1001D0000F0013F0010F18BFFB1A43F0010318477B
:1001E0004461010064610100103A24BF78C878C1FD
:1001F000FAD8520724BF30C830C144BF04680C602D
:10020000704700000023002400250026103A28BF74
:1002100078C1FBD8520728BF30C148BF0B60704778
:10022000642900F00781002070471FB508F083FBA8
:1002300000F0EDF91FBD10B510BD00F0C4FA114675
:10024000FFF7F3FF08F066F900F0E2FA03B4FFF7F6
:10025000F2FF03BC00F0EAFA0B49D1F800C04A688B
:100260005CF8043B1068184442F8040B8C4528BF26
:10027000A1F1DC0C8A4228BFA1F1DC02C1F800C068
:100280004A6020F000407047C40B002009488047B6
:1002900009480047FEE7FEE7FEE7FEE7FEE7FEE768
:1002A000FEE7FEE7FEE7FEE704480549054A064B80
:1002B00070470000F17D0008AD010008300C0020FF
:1002C00030120020300E0020300E002053EA020CC5
:1002D00000F069802DE9F04B4FF00006002B1FBFA6
:1002E000B3FA83F503FA05F424FA05F65E4012BF6B
:1002F0001643B2FA82F502FA05F4C5F120051EBFD5
:1003000022FA05FC44EA0C04203556EA044C4FEA74
:10031000144418BF641C4FF000084FF000099042CD
:1003200071EB030C39D3002919BFB1FA81F701FA37
:1003300007F6B0FA80F700FA07F6C7F120071EBFEC
:1003400020FA07FC46EA0C062037B6FBF4FCA7EBC4
:100350000507103F07F01F0BCBF120060CFA0BFB33
:100360002CFA06F644BFB3460026202FA4BF5E46F3
:100370004FF0000B5BEA060C08BF4FF0010B19EBC6
:100380000B09ABFB027C48EB0608C01B06FB02CC4A
:100390000BFB03CC71EB0C01C1E70B460246414657
:1003A0004846BDE8F08B13B54FF000004FF0000158
:1003B000AFF30080BDE81C40704700000FB41CB5CF
:1003C000074B06AA7B4469460090059800F0E3F9C4
:1003D0000020694600F0F2F91CBC5DF814FB000037
:1003E000F503000070B5044685690068C10601D5B3
:1003F000302600E02026C00707D070BDD4E90121D7
:1004000030469047206A401C20626D1EF6D570BDB4
:1004100070B5044685690078C00707D170BDD4E97E
:10042000012120209047206A401C20626D1EF6D5D5
:1004300070BD00002DE9F0410646002410687529C2
:10044000314616A510D0AFF30080002802DA4042F2
:1004500013A507E031688A0701D512A502E0490714
:1004600004D511A5012401E0AFF3008000210A2288
:1004700006F1240709E0B0FBF2FCB0FBF2F302FB4B
:100480001C00303078541846491C0028F3D123460C
:100490002A463046BDE8F04100F01EB900000000D9
:1004A0002D0000002B000000200000002DE9F05F6F
:1004B000894604464FF0000ADFF824B1FB44C0F837
:1004C00020A02046E168884700287DD0252806D056
:1004D000D4E901219047206A401C2062F1E7002501
:1004E0005F462046E16888472028064607DB312E14
:1004F00005D2B81910F8200C08B10543F1E7A80798
:1005000001D525F00405C4F81CA00027C4F818A0E4
:100510002A2E09D0304607F097FE38B304EB87083F
:10052000303EC8F8186019E059F8041B204604EB67
:1005300087029161E1688847012F064618D1E0697A
:10054000002820DA25F020051DE0D8F8180000EB7F
:10055000800006EB40003038C8F818002046E168FB
:100560008847064607F070FE0028EED1012F0AD01A
:100570002E2E08D12046E16888477F1C0646022FB0
:1005800045F02005C4DBA069002803DA404245F0AD
:100590000105A061E80701D025F01005A6B1A6F17C
:1005A0004100192802D8203645F400654A463146F4
:1005B000204625604D46FFF733FE60B1012807D085
:1005C000ED1D25F0070000E007E000F1080978E7DD
:1005D00005F1040975E730467AE7206ABDE8F09F27
:1005E000505E01000B4910B5A1F17C020A4CC2E932
:1005F0003712372106E000EB104342F82130074B59
:1006000000FB03400B1EA1F10101F4DC10BD012031
:10061000E8E70000640B0020E119D666CD0D01006B
:1006200010B5203AC0F00B80B1E81850203AA0E88D
:100630001850B1E81850A0E81850BFF4F5AF5FEAC1
:10064000027C24BFB1E81850A0E8185044BF18C974
:1006500018C0BDE810405FEA827C24BF51F8043B1B
:1006600040F8043B08BF7047D20728BF31F8023B6F
:1006700048BF11F8012B28BF20F8023B48BF00F803
:10068000012B70474FF0000200B513469446964682
:10069000203922BFA0E80C50A0E80C50B1F1200195
:1006A000BFF4F7AF090728BFA0E80C5048BF0CC043
:1006B0005DF804EB890028BF40F8042B08BF7047A1
:1006C00048BF20F8022B11F0804F18BF00F8012B13
:1006D00070477047704770472DE9F0470D469946BF
:1006E0009246044600F124080168880604D5E069B2
:1006F00021F01001216000E00120A84201DD471B2C
:1007000000E00027A1697A1902EB0900081AA0612C
:100710002078C00602D42046FFF764FE002608E0D9
:10072000D4E901211AF806009047206A401C761C83
:1007300020624E45F4DB2078C0060AD52046FFF73C
:1007400051FE06E0D4E9012130209047206A401C88
:100750002062381EA7F10107F4DC07E0D4E901218B
:1007600018F805009047206A401C2062281EA5F159
:100770000105F3DC2046FFF74BFE2078000602D58A
:100780000220BDE8F0870120FBE7000001694A1C58
:1007900002610878704700B58FB0CDE901310021C2
:1007A000059105497944CDE9031011466846FFF7E4
:1007B0007DFE0FB000BD0000E5FFFFFF0A6802F8F4
:1007C000010B0A607047754600F02CF8AE46050034
:1007D0006946534620F00700854618B020B5FFF75C
:1007E00063FDBDE820404FF000064FF000074FF0DA
:1007F00000084FF0000B21F00701AC46ACE8C0093F
:10080000ACE8C009ACE8C009ACE8C0098D46704747
:1008100010B50446AFF300802046BDE81040FFF756
:1008200015BD000000487047CC0B0020014918207E
:10083000ABBEFEE7260002007047000010B504467C
:100840004B48416821F4403141604168626811437E
:1008500041602068416821F48071416020684168EE
:10086000226941EA022141602068416821F040711B
:10087000416020684168A268114341602068816836
:1008800021F40061816020688168E2681143816021
:10089000A06A6FF07061C8422068816821F07061C1
:1008A0008160206881680CD0A26A11438160206851
:1008B000816821F04051816020688168E26A1143BB
:1008C00001E021F0405181602068816821F002013F
:1008D000816020688168227E41EA4201816094F84B
:1008E000200000283FD0606A401E072804D94FF43A
:1008F000F56120A007F0AFFC2068416841F4006179
:1009000041602068416821F460414160206841688D
:10091000264B626A03EB4232114341602068C16A90
:1009200021F47001C1622068C16AA28B204B03EBE5
:1009300002521143C1622068816821F40071816014
:100940002068816894F8302041EA42218160206863
:10095000816821F48061816020688168626941EA70
:100960008221816010BD2068416821F40061D4E7D4
:10097000002301402E2E2F447269766572732F5327
:10098000544D3332463478785F48414C5F44726945
:100990007665722F5372632F73746D3332663478B9
:1009A000785F68616C5F6164632E630000E0FFFF45
:1009B0000000F0FF7CB5054600F0C2FA044600F0E6
:1009C000B9FA02460020CDE900050748074B006848
:1009D00000EB800101EBC00103EB81012346C96DEF
:1009E00001F0CCFB7CBD00006000002098080020D6
:1009F0000A4B30B41B6803EB4304094B03EB84033D
:100A00009B68DD881C689B88DB1DDB08203A13FB94
:100A100002F205FB024230BC01F074B86000002015
:100A2000B0090020034840688068002800D00047D3
:100A300070470000600000202DE9F04704460027C1
:100A400099468A461546B846104601E008F1010865
:100A500010F8011B0029F9D100F06CFA254A264E46
:100A60004B461168B9F1010F01EB410106EB810121
:100A700089688988B0FBF1F002D0022B0BD105E028
:100A8000A0EB0800484304EB500003E0A0EB080093
:100A900000FB014084B2904600F04CFA0146D8F8C1
:100AA000000000EB400006EB80008068808807FBB8
:100AB0001011814213D3012012E051462046FFF766
:100AC00097FFD8F800007F1C00EB400006EB800089
:100AD000BFB280686D1C8088204484B2DCE70020AF
:100AE0002A780AB1012100E000210842E5D1BDE8E1
:100AF000F087000060000020B00900202DE9FF5FB2
:100B0000824603208946A0EB42080025144678E07F
:100B10003E4E3F4FA9EB040B30681FFA8BF100EB00
:100B2000400057F820200AEB0500039080B200F047
:100B3000FBF830681FFA8BF100EB400057F82020DB
:100B4000AAEB0500029080B200F0EEF83068A9EB45
:100B5000050B00EB40001FFA8BF157F820200AEB41
:100B60000400019080B200F0DFF830681FFA8BF1CA
:100B700000EB400057F82020AAEB0400009080B260
:100B800000F0D2F8306809EB040B00EB40001FFACC
:100B90008BF157F82020039880B200F0C5F8306838
:100BA0001FFA8BF100EB400057F82020029880B22A
:100BB00000F0BAF8306809EB050B00EB40001FFAB3
:100BC0008BF157F82020019880B200F0ADF8306822
:100BD0001FFA8BF100EB400057F82020009880B2FC
:100BE00000F0A2F8B8F1000F04DA08EB850000F17C
:100BF000060805E0291B08EB810000F10A08641EC5
:100C00006D1CA54284D9BDE8FF9F00006000002054
:100C1000B00900207CB514460D46064600F08AF95E
:100C200000FB05610C480D4B006800EB800202EBF5
:100C3000C00203EB820203F58C73D26D02EB8101DB
:100C400000EB400253F822200023CDE900320123BB
:100C5000224601F093FA7CBD600000209808002035
:100C60002DE9FE4F0027141A002C00DC841A0FFA1D
:100C700084F85C1A002C00DCCC1A0FFA84FC06B253
:100C80000DB24FF0FF34824203D30120824601901F
:100C900001E0A24601948B4203D3012081460090DB
:100CA00001E0A1460094E0454FF0000008DB8146DA
:100CB000019008EBD870C3464410CDF808C02BE073
:100CC000824600200090E3460CEBDC70CDF80880F3
:100CD0004410D84620E012481249006800EB40005A
:100CE00051F82020A9B2B0B200F01EF802982044BA
:100CF00004B25C4508DBA4EB0B0004B2019830445D
:100D000006B20098284405B206EB0A0006B205EBCD
:100D100009007F1C05B23FB24745DCDDBDE8FE8F10
:100D200060000020B009002070B514460D4606464C
:100D300000F000F9074905FB0060096801EB81023A
:100D400002EBC101044A02EB8101C96D41F8204068
:100D500070BD000060000020980800202DE9F041DF
:100D60001C4616460D460746FFF754FF281981B268
:100D700032463846FFF74EFF22462946384600F0F5
:100D800009F8B81922462946BDE8F04180B200F0C2
:100D900001B800007CB516460C46054600F0CAF8BE
:100DA00000FB04500E4D296801EB810202EBC101EA
:100DB0000C4A02EB8101C96D01EB800400F0BAF826
:100DC0002D68094A05EB4501401E52F821103346B3
:100DD000CDE9000101222146284601F0CFF97CBD72
:100DE0006000002098080020B00900202DE9F74F8E
:100DF000DFF8B4900F4690460321D9F80000A1EB2C
:100E00004806DFF8A8A000EB400182B00024154698
:100E10005AF8210000F0DCF94FF6FF7B31E08DB18C
:100E2000381981B202980BEA4502401B00900192EA
:100E300080B2FFF7EFFE381B81B2DDE9000280B21D
:100E4000FFF7E8FE8CB1781B81B202980BEA4402EE
:100E5000001B0090019280B2FFF7DCFE781981B28E
:100E6000DDE9000280B2FFF7D5FE002E03DA06EBC3
:100E70008406B61D04E0601B06EB80066D1E0A3674
:100E8000641CAC42CBD9D9F8000000EB40015AF801
:100E9000210000F09DF9029805B042463946BDE8B0
:100EA000F04FFFF72BBE000060000020B0090020CB
:100EB0002DE9FC47164C8046164F2068994600EBFA
:100EC000400016460D4657F8200000F081F900F06A
:100ED00031F8216800FB058001EB810202EBC101C2
:100EE000A7F58C7202EB8101C96D01EB800500F062
:100EF00021F8811B20684B4600EB400257F8222066
:100F0000CDE900123246294601F038F9BDE8FC87E8
:100F100060000020B009002004480549006800EB8B
:100F2000400001EB800080687047000060000020F6
:100F3000B009002001484068806A00476000002036
:100F400001484068C06A00476000002070B5214C2D
:100F50001F4800252060092060610120A0611D203C
:100F6000E0610320206240F20D10606240F2431005
:100F7000A06240F21710E06240F24710206384F84C
:100F8000365084F8345004F1E80084F835500821D4
:100F90000160C021016104218161C903416203F044
:100FA000C7FC6560A560E560256100F059F8204642
:100FB00003F0D0F90949084848600068804700F00C
:100FC00025F90648083000F0F5F8002070BD000053
:100FD0000068014098080020D00000206000002038
:100FE00070B58EB000240E4605460094FFF7A2FFB0
:100FF000CDE90104FFF7A4FF0996CDE90304FF2022
:10100000CDE905048DF830408DF831408DF832403F
:101010004FF4C060079007200890FFF78BFF0A90FD
:10102000FFF78EFF0B902A4669460A4803F054F8F2
:10103000094905EB450001EB8002631E5360074B35
:1010400093604FF07F4241F82020024803F004F9FA
:101050000EB070BD98080020B00900206800002084
:1010600030B5434887B00021026842F080620260D8
:10107000006800F0806005903D481438026842F432
:1010800000020260026802F400020592026842F067
:1010900001020260026802F001020592026842F059
:1010A00002020260026802F002020592026842F047
:1010B00004020260026802F004020592026842F033
:1010C00008020260026802F008020592026842F01B
:1010D00020020260026802F020020592026842F0DB
:1010E00040020260006800F04000059041F65800A0
:1010F00000900220CDE9010103900E200490694682
:101100001C4802F017F94FF470601B4C00906946C0
:10111000204602F00FF94FF4986000906946174896
:1011200002F008F9482000906946154802F002F9DB
:10113000201500906946134802F0FCF84FF40C604B
:10114000114D00906946284602F0F4F80320009003
:10115000092004906946204602F0ECF84FF4A050B4
:1011600000906946284602F0E5F807B030BD00005F
:1011700044380240000002400004024000080240DF
:10118000000C0240001402400018024001490860AF
:1011900070470000600000200449054A096801EB1F
:1011A000410102EB810148607047000060000020AF
:1011B000B00900200449054A096801EB410102EB2E
:1011C000810188607047000060000020B0090020A5
:1011D0000349044A096801EB410142F821007047C4
:1011E00060000020B009002070B514460D46064688
:1011F000FFF792FEC088234670432A46BDE8704040
:10120000801C81B20020FFF717BC000070B51B489E
:1012100019490423016000F13401022207248B6084
:10122000C1E90024C1E903424A618A611021C0E991
:1012300003314021416101260024C0E901644FF4DB
:10124000C071C0E906149102C0E9081489008162E6
:10125000214600F05BF809490848343104F0C6F92A
:10126000074D08B12E7000E02C7040F26A5000F07B
:1012700009F8287870BD0000400100A0880A00200D
:10128000900000202DE9F84F1F4C0025012608276B
:101290000095C4E90067C4E9026582464FF6FF790C
:1012A00021464A46A1F1500004F0DAF9012001F08C
:1012B000B5FE0220C4E90007C4E9026521464A469A
:1012C000A1F1500004F0CCF903204FF00408E560D0
:1012D00084E8810121464A46A1F1500004F0C0F99A
:1012E0004FF40C700090C4E90260C4E90087214605
:1012F0004A46A1F1500004F0B3F95146A4F1500060
:10130000BDE8F84F04F095B9D80A002030B587B091
:1013100005007DD04D480024016841F001010160C5
:1013200000684A4900F0010008390590086840F457
:1013300080000860086800F480000590086840F0AC
:1013400002000860086800F002000590086840F09C
:1013500004000860086800F004000590086840F088
:1013600008000860086800F008000590086840F070
:1013700010000860086800F010000590086840F050
:1013800020000860086800F020000590086840F020
:10139000400008600868694600F04000059002209F
:1013A000CDE9024001900C20049060200090284874
:1013B00001F0C0FF012000906946264801F0BAFF05
:1013C0004CF2037000906946234801F0B3FF4FF6DA
:1013D000837000906946214801F0ACFF4FF63F0052
:1013E000009069461E4801F0A5FF48F233100090B6
:1013F00069461C4801F09EFF1B498020C1E901405D
:101400008000C8604000086180004861800000E002
:101410001AE0C1E90604C000C1E908040320C1E9DB
:101420000A0412480C630860296308468D6301F0C2
:10143000EFFB0D4801F082FC00220F21382003F061
:10144000AFF9382003F07AF907B030BD38380240E0
:101450000004024000080240000C0240001002405C
:101460000014024000180240C80900201064024025
:101470007CB52A4C0546E0680169822088472880AF
:10148000002849D0E06801AA69464369822098474C
:10149000BDF804000B21A0F5B47080B2ADF80400D3
:1014A000B0FBF1F020B16188884201D9491E88B2B1
:1014B000BDF8001040F6B832ADF80400914202D8F1
:1014C000A1F61E7101E0A1F6D8614942ADF8001005
:1014D00089B20F22B1FBF2F121B12288914201D9E8
:1014E000521E91B2ADF8001062688BB2934201D9DE
:1014F0008A1A00E0521A93B2A268904201D9821A65
:1015000000E0121A92B21A44052A01D9C4E9011066
:10151000A08868802089A8807CBD000094000020FD
:1015200070B50B4D0B4C01262880698061688220C4
:101530008847A0F50061113908D1EC6000262168C8
:1015400082208847E868C16882208847304670BD9D
:1015500094000020A400002070B51C48FFF788FF0D
:101560001A4D2888002830D005F10804A988A078F1
:10157000A0F245125242914227D8A0F21D104042DB
:10158000814222DB60782178421869888A421CD324
:1015900081421AD34FF07F4000F082FB20786988A7
:1015A000F022A2EB5002914202D3C0F1EB0006E020
:1015B000B1EB500F01D8022001E0A1EB50006070A8
:1015C0006068BDE8704000F06BBB70BD1800002083
:1015D000FEE700002DE9F05F0027DFF8E8B26AE1DE
:1015E00007EB47050BEB8504217900297ED1002606
:1015F0003BF825104A1DED2A02D34FF0FF3303E0DC
:101600004B1F032B01DC012363716088431D9E4641
:10161000B3F58F7F02D9FF23A3712CE0431F032B67
:1016200029DCA9490879012801D92279F2B1487841
:101630004FF07F46401E48703046FFF7C9FD618875
:101640003BF825000522FFF7D1FB002005F07AFDCD
:10165000304600F025FB05F0B1FD9B482030406886
:1016600000F01EFB012006F09AFDD2E0012222715B
:10167000401E0871CDE0934B06EB860AB43313F895
:101680002A30002B20D1DFF83C8208F1B40808EBA7
:101690008A09B9F80830984217D3B9F804C09C44B5
:1016A000844512D3B9F80600B9F80230491F034443
:1016B0008B4205DB814203DB6079404260711AE0B6
:1016C000934266D38242F7D263E0B9F80620914292
:1016D0005FD3B9F802C062448A425AD3B9F8041001
:1016E000401F194481420ADB984200E0E1E006DB3A
:1016F000A0794042A071012108F82A1009E0714543
:1017000047D39E4545D3A0794042A071012008F8F7
:101710002A00DFF8B4814FF07F4098F80510491E89
:1017200088F80510FFF754FDD9F81010D8F8140008
:101730000144C8F81410B9F80430B9F80220B9F817
:101740000810B9F80600FFF7B3FB98F8000006226E
:1017500000EB8001C900B1FBF2F1C1F1280298F859
:1017600005108A4215D198F80410801C891C88F84D
:10177000041088F80000801EC0B205F0E3FC98F861
:101780000000002100EB40020BEB820000F8141D6A
:1017900001734D486188203001F1050C8278944531
:1017A00018D302F10F08C44514D84278007802EB30
:1017B000000C3BF825000146401F844501DB9042A8
:1017C00004DA491D8C451FD391421DD360794042F4
:1017D000607119E03BF8253040785B1D834213D3DC
:1017E000DFF8E08008F1B40808EB8A0CBCF802C00E
:1017F0006044984208D302F10F00491F814203DC84
:10180000914201DB0120A071761CF6B2282EFFF474
:10181000EFAE01F059FF00EE100ADFF8AC80B8EE31
:10182000400A88ED040AFFF797FE4FF07F494846CB
:10183000FFF7CEFC5E4661883BF825000522FFF7E6
:10184000D5FA608894F906100844608036F82500BF
:1018500094F90510084426F82500207908B1484677
:1018600001E04FF0FF30FFF7B3FC618836F8250048
:101870000522FFF7BBFA0925444601E0FFF76CFE9D
:1018800001F022FF00EE100AD4ED040A2079B8EE30
:10189000400AA17870EE600A10FB01F0B5FBF0F091
:1018A00000EE100AB8EE400AF4EEC00AF1EE10FAAB
:1018B000E4D97F1CFFB2044800788742FFF490AE61
:1018C000BDE8F09F0801002000000020014800F062
:1018D0009DBF00004C050020F0B50468059E656CB6
:1018E00046EA034305F040451D4365640368DA6337
:1018F0004268B2F5403F02D00068C160F0BD01F41B
:101900007F4201F47F0C866801F07F4301F47F077A
:1019100001F47F45CCB242EA0C02BEB1012E16D0D2
:1019200001F47F02D20CC1F3C401022E11D0032EA8
:1019300014D0190F3A0D2D0B23092C0144EA022271
:1019400042EA01321A4300688263F0BD1A4322431F
:10195000F9E7AB0A5B0143EAC22206E0DB0FEC0ABF
:10196000640144EA822242EAC3320A43EBE7000000
:1019700001681823CAB2103AB2FBF3F2054B6FF3B9
:101980000901032A9B5CC36500D9091D81650846CE
:10199000704700004089000810B5014600208B699F
:1019A0008A6A4FF0C07453B1B3F5005F15D072B1BD
:1019B000012A0CD0022A0AD0032A09D104E01AB164
:1019C000012A06D0022A03D1C96AC90100D5012023
:1019D00010BDC96AA142FAD010BD002AF7D0012A71
:1019E000F2D0022AF3D0032AF3D010BD70470000D2
:1019F0002DE9F05F012500203B49DFF8F0A02E46DD
:101A000048710746814688464FF0140B98F8051038
:101A1000491C88F8051007EB87010AEB8104082DA3
:101A2000A4F804B00AF82190E56025D2DFE805F0BB
:101A3000240406181A1D20222D4800E02D48FFF727
:101A4000C7FBC6F1F0003C2819DA6080E680A08868
:101A500068436D1CC0F591702081EDB201261FE036
:101A60002548ECE76FF0FF00E9E74FF0FF20E6E7DD
:101A70002248E4E72248E2E76FF4FE00DFE7FEF7E2
:101A8000EBFB1E2190FBF1F201FB12001E30608087
:101A9000E6803044C6B2A0886843C0F591702081CA
:101AA0006088A38802465843C5F10C0148430A21C7
:101AB00090FBF1F020612189E088FFF7F9F94FF000
:101AC000FF30FFF785FBA0882189401E83B2608824
:101AD000401E82B2E088FFF741F97F1CFFB2282F39
:101AE00094D3BDE8F09F000000000020BC0100205E
:101AF0008080FFFF0000FFFF00A5FFFFFF0000FF49
:101B0000800080FF2DE9F74F6348884682B0006867
:101B1000002500EB4001614800EB8100806884886B
:101B2000C688E01D009020F00700001B00F0FF0BAE
:101B3000ABE00098C1080498082901FB050063D2B6
:101B4000DFE801F06204070C162033490178002019
:101B50000BE0008840BAC117814624E00178427842
:101B6000090441EA0221807809E08946824630E092
:101B70000188827849BA0904C07841EA0221014308
:101B8000C817F2E7427801788378120641EAE271D9
:101B90001B041A4341EAE371C37800791B021A431C
:101BA00041EAE3712DE08A4613E0018883784ABA5E
:101BB0001B06194642EAE372C3781B04194342EA42
:101BC000E372037940791B02194342EAE37A41EA5E
:101BD0000009002752E001784278090441EA022115
:101BE000827803791143C2781B04120641EAE2713C
:101BF0001A4341EAE371437980791B021A4341EAAF
:101C0000E37142EA0009CEE70188827849BA090403
:101C100041EA0221C2784379114302791B0412067A
:101C200041EAE2711A4341EAE3718379C0791B0208
:101C30001A4341EAE371E4E7E11B59440120491EDC
:101C40008840C11700EA090001EA0A010843124866
:101C5000006800EB4001114802D050F8212002E05A
:101C600000EB81004268C8F59F7081B20298384449
:101C7000C0F1EE0080B2FFF757F87F1CA742DBD31C
:101C800008F101001FFA80F86D1CB542FFF451AF56
:101C900005B0BDE8F08F000060000020B009002012
:101CA00070B50B4D064600243046FFF791FA15F843
:101CB00034000D23801E82B205EBC4008178407889
:101CC000FFF7F6F8641C14F0FF04EDD070BD0000BF
:101CD0002000002072B6FEE770B5054657480C4656
:101CE000854204D04FF4946155A006F0B4FA206800
:101CF00030B1012804D040F2A14151A006F0ABFA66
:101D0000606850B1012808D0022806D0032804D00A
:101D100040F2A2414AA006F09EFAA06840B1042811
:101D200006D0082804D040F2A34145A006F093FA5B
:101D3000E06840B1102806D0202804D040F2A44129
:101D40003FA006F088FA206930B1402804D040F264
:101D5000A5413BA006F07FFA606980280AD0B0F563
:101D6000807F07D0B0F5C07F04D040F2A64134A0F8
:101D700006F071FAA06938B1B0F5007F04D040F2E6
:101D8000A7412FA006F067FAE06950B1B0F5006FE7
:101D900007D0B0F5406F04D04FF4956128A006F04D
:101DA0005AFA206A38B1B0F5805F04D040F2A941F8
:101DB00023A006F050FA606A50B1B0F5005F07D07A
:101DC000B0F5804F04D040F2AA411DA006F043FABE
:101DD0002068D8B1D4E907010843616A2A6822F46F
:101DE000F842114308432860D4E901010843D4E9CB
:101DF00003121143084361690843A16908436968F4
:101E00006FF30E0108436860002070BDD4E9010142
:101E10000843D4E903121143084361690843A169E7
:101E20000843E1690843216A0843616A0843296855
:101E30006FF30E0108432860E6E70000400100A0B0
:101E40002E2E2F447269766572732F53544D3332A0
:101E5000463478785F48414C5F4472697665722FEA
:101E60005372632F73746D3332663478785F6C6CA1
:101E70005F666D632E63000070B504460C480D4626
:101E8000844204D04FF4B1610AA006F0E4F9B5F53C
:101E9000005F04D340F2895106A006F0DCF96069C6
:101EA00043F6FE71884340EA45006061002070BD42
:101EB000400100A02E2E2F447269766572732F5355
:101EC000544D3332463478785F48414C5F447269F0
:101ED0007665722F5372632F73746D333266347864
:101EE000785F6C6C5F666D632E63000070B50546AD
:101EF0002F4816460C46854204D040F262512DA070
:101F000006F0A9F9216881B101290ED002290CD06F
:101F100003290AD0042908D0052906D0062904D0AF
:101F200040F2635123A006F096F96068102808D0AB
:101F3000082806D0182804D040F264511DA006F0ED
:101F40008AF9A068401E0E2804D940F2655119A0F4
:101F500006F081F9E068B0F5005F04D340F2665105
:101F600014A006F078F9D4E900010843A1686FF0E5
:101F70001F0202EB4111E26841EA4221084329694C
:101F80006FF315010843286101F09EFB044609E048
:101F9000701C07D026B101F097FB001BB04201D99D
:101FA000032070BDA8698006F2D4002070BD000037
:101FB000400100A02E2E2F447269766572732F5354
:101FC000544D3332463478785F48414C5F447269EF
:101FD0007665722F5372632F73746D333266347863
:101FE000785F6C6C5F666D632E6300002DE9F05FB7
:101FF0000546514817460C46854204D040F2DF4161
:102000004EA006F028F92068401E0F2804D94FF48E
:102010009C614AA006F01FF96068401E0F2804D991
:1020200040F2E14145A006F016F9A068401E0F28D5
:1020300004D940F2E24141A006F00DF9E068401EEB
:102040000F2804D940F2E3413CA006F004F92069CE
:10205000401E0F2804D940F2E44138A006F0FBF8F6
:102060006069401E0F2804D940F2E54133A006F014
:10207000F2F8A069401E0F2804D940F2E6412FA0D3
:1020800006F0E9F86FF00F066FF0FF084FEA063A26
:102090004FEA06494FF07F4B6FB3012F04D040F257
:1020A000E74126A006F0D7F8E068A28A000309EB12
:1020B0000251A0F580500843A9682E4A11400843F8
:1020C000A860D4E9000106EB0111401EA268084394
:1020D00008EB0221228A08430AEB0241227E0843D0
:1020E0000BEB02610843E96801F070410843E860C6
:1020F0000020BDE8F09FD4E9000106EB0111401E6D
:10210000A268084308EB022108431B4AE16802EB7E
:102110000131228A08430AEB0241A28A084309EBF3
:102120000251227E08430BEB02610843A96801F0CB
:1021300070410843A860DBE7400100A02E2E2F4429
:102140007269766572732F53544D33324634787802
:102150005F48414C5F4472697665722F5372632FFA
:1021600073746D3332663478785F6C6C5F666D6360
:102170002E630000FF0F0FFF00F0FFFF2DE9F84373
:102180000E460746DDE90818124815464FF440325E
:1021900042600022C0E902210F491C46016000F0A4
:1021A000C5FB002814D139460A4800F081FA0028FE
:1021B0000ED12B46324641460648009400F0D8FC2A
:1021C000002805D1BDE8F8430A21024800F048BCC8
:1021D000BDE8F8834009002000B00240F8B50027B0
:1021E000054600970868664E0C46122806D9B0428C
:1021F00004D040F28B6163A006F02DF86068401EA9
:102200000F2804D940F28C615EA006F024F8A06883
:1022100090B1012810D002280ED003280CD0042839
:102220000AD0052808D0062806D0072804D040F296
:102230008D6154A006F00FF895F83C00012819D0E4
:10224000012085F83C00206807212A68092813D955
:10225000D3680A3800EB400081408B43D36021787B
:10226000A0680A3901EB410188402968CA68104317
:10227000C86010E00220F8BD136900EB4000814007
:102280008B4313612078A16800EB400081402868EF
:1022900002691143016160681F21072813D22A686F
:1022A000536B401E00EB800081408B4353632179C8
:1022B0002088491E80B201EB8101884029684A6B61
:1022C0001043486327E02A680D2812D2136BC01F01
:1022D00000EB800081408B43136321792088C91F64
:1022E00080B201EB8101884029680A6B10430863C2
:1022F00011E0D36A0D3800EB800081408B43D3623C
:10230000217920880D3980B201EB8101884029684C
:10231000CA6A1043C8622A492A6828488A420AD1F0
:102320002268122A07D1426822F400024260426801
:1023300042F4800242602A688A421CD12168B1427C
:1023400001D0112917D1416821F480014160416811
:1023500041F4000141602068B0420CD119481A498B
:102360000068B0FBF1F000EB8000400000E0401E90
:1023700000900028FBD185F83C700020F8BD0000DB
:10238000120000102E2E2F447269766572732F533F
:10239000544D3332463478785F48414C5F4472691B
:1023A0007665722F5372632F73746D33326634788F
:1023B000785F68616C5F6164632E63000023014095
:1023C000002001404400002040420F002DE9F0476A
:1023D00004004FF000057DD07249206888420AD081
:1023E0007149884207D07149884204D04FF4A171E5
:1023F0006FA005F030FF606868B1B0F5803F0AD08B
:10240000B0F5003F07D0B0F5403F04D040F2431193
:1024100067A005F020FFA0684FF080774FF00078AC
:102420004FF0407950B1B84208D0404506D04845F9
:1024300004D04FF4A2715EA005F00DFF206930B109
:10244000012804D040F2451159A005F004FF207E78
:1024500030B1012804D04FF4A37155A005F0FBFE64
:10246000614EA06A80B3B8422ED040452CD048457A
:102470002AD0B0F1806F27D0B0F1A06F24D0B0F196
:10248000C06F21D0B0F1E06F1ED0B0F1006F1BD053
:10249000B0F1106F18D0B0F1206F15D0B0F1306FDF
:1024A00012D0B0F1406F0FD0B0F1506F0CD0B0F13E
:1024B000606F09D0B0F1706F06D0B04204D040F226
:1024C00047113BA005F0C7FEE06848B1B0F5006FCA
:1024D00006D000E043E04FF4A47135A005F0BBFE48
:1024E000E069401E0F2804D940F2491130A005F0E0
:1024F000B2FE94F8300030B1012804D04FF4A57139
:102500002BA005F0A8FE6069012807D030B1022891
:1025100004D040F24B1126A005F09DFE94F8200057
:1025200030B1012804D04FF4A67121A005F093FE2C
:10253000A06AB0420FD0E06A68B1B0F1805F0AD003
:10254000B0F1005F07D0B0F1405F04D04FF4A87144
:1025500017A005F080FE206C002618B108E00120CD
:10256000BDE8F087204600F041F8666484F83C60DE
:10257000206CC00610D4206C20F4885040F002007B
:1025800020642046FEF75AF96664206C20F00200B1
:1025900040F00100206400E0012584F83C602846FA
:1025A000DEE7000000200140002101400022014040
:1025B0002E2E2F447269766572732F53544D333229
:1025C000463478785F48414C5F4472697665722F73
:1025D0005372632F73746D3332663478785F686139
:1025E0006C5F6164632E63000100000F08B5006832
:1025F0000649884208D10648016841F480710160AB
:10260000006800F48070009008BD000000200140C8
:102610004438024010B504000AD00B4920688842B3
:1026200003D0682109A005F016FE607910B106E01C
:10263000012010BD00202071204600F023F8012069
:102640006071002010BD0000003002402E2E2F448B
:102650007269766572732F53544D333246347878ED
:102660005F48414C5F4472697665722F5372632FE5
:1026700073746D3332663478785F68616C5F63724F
:10268000632E630008B500680649884208D10648F1
:10269000016841F480510160006800F480500090AE
:1026A00008BD000000300240303802407047000092
:1026B00070B50E00054606D0012E04D04FF4D96146
:1026C00042A005F0C8FD05EB0614A069B0F5804FE7
:1026D00004D340F2C9613DA005F0BDFD6868B0F5C6
:1026E000403F27D0E069C0B1012816D0022814D09D
:1026F000032812D0042810D005280ED006280CD0AC
:1027000007280AD0082808D0092806D00A2804D0AB
:1027100040F2CC612DA005F09EFD686850B1206AA2
:1027200040B1012806D0022804D040F2CF6127A092
:1027300005F091FD95F83800012822D0012385F895
:102740003830022085F83900218CE069183440EADD
:1027500001422D490A2816D0092814D0207B42EACC
:102760000060002E2E6813D0F2698A430243F261A2
:1027700029682068086160680A281BD0092819D0D8
:102780001DE0022070BDE06800F07F401043E8E7E4
:10279000726A8A43024372622968206888616068AD
:1027A0000A2801D009280AD1E068296820F07F4072
:1027B000886204E0E068296820F07F40086285F8BC
:1027C0003930002085F8380070BD00002E2E2F44CF
:1027D0007269766572732F53544D3332463478786C
:1027E0005F48414C5F4472697665722F5372632F64
:1027F00073746D3332663478785F68616C5F646DD2
:102800006132642E630000000F0003FF2DE9F047E2
:102810000446006846680568F1074FF004084FF069
:1028200000074FF0010914D0E90512D5016821F421
:1028300080710160E06B40F00100E0632168C1F845
:10284000089084F8398084F83870616909B12046AD
:102850008847B00615D5A80413D52068016821F46F
:1028600000510160216820208860E06B40F0020088
:10287000E06384F8398084F83870616909B12046D2
:102880008847300715D5280513D52068016821F43D
:1028900000610160216808208860E06B40F004005E
:1028A000E06384F8398084F83870616909B12046A2
:1028B000884770070CD568050AD52068016821F49F
:1028C000806101602168C1F80880204600F0A8F806
:1028D000B00713D5A80511D52068016821F400714F
:1028E0000160216802208860E06BE06384F8399021
:1028F00084F83870216909B120468847F00612D55E
:10290000E80410D52068016821F480510160216835
:1029100010208860E06BE06384F8399084F83870A8
:102920002046FFF7C3FEBDE8F087000070B5040045
:1029300031D02B492068884203D0F72129A005F027
:102940008AFC606860B1B0F5803F09D0B0F5003F07
:1029500006D0B0F5403F03D0F82122A005F07BFC63
:10296000A06858B1012809D0022807D0032805D053
:10297000042803D0F9211BA005F06DFCE068B0F538
:10298000804F03D3FA2117A005F065FC94F83900B5
:10299000002510B106E0012070BD84F838502046B3
:1029A00000F040F8022084F839002068016862686D
:1029B00021F44031114301602068416BA26821F08D
:1029C0000701114341632068016CE2686FF30D0158
:1029D00011430164E563012084F83900002070BDD3
:1029E00000B002402E2E2F447269766572732F5309
:1029F000544D3332463478785F48414C5F447269B5
:102A00007665722F5372632F73746D333266347828
:102A1000785F68616C5F646D6132642E63000000F2
:102A20007047000008B500680B49884212D10B4876
:102A3000016841F4000101600068002200F4000018
:102A4000009005215A2001F0ABFEBDE808405A2055
:102A500001F074BE08BD000000B0024030380240F2
:102A60002DE9F84300260446009600680D460068EC
:102A70004FF00407C0074FF0030825D000F024FEF4
:102A800081461DE04068009010F0210F0FD00098A3
:102A9000800603D5E06B40F00200E0630098C007B9
:102AA00003D0E06B40F00100E063212034E0681CBB
:102AB00006D000F009FEA0EB0900A8424DD8A5B34E
:102AC000206841688907DDD52068C169406A01F046
:102AD000200100F02000084335D000F0F5FD8146CC
:102AE0002DE04068009010F0290F1FD000980007DB
:102AF00003D5E06B40F00400E0630098800603D546
:102B0000E06B40F00200E0630098C00703D0E06B88
:102B100040F00100E06329202168886084F8397062
:102B200084F838600120BDE8F88316E0681C06D000
:102B300000F0CAFDA0EB0900A8420ED86DB12068D4
:102B40004168C906CDD5216812208860012084F82B
:102B5000390084F838600020E5E754F83C0F40F075
:102B6000200044F8040984F8018026700320DAE785
:102B70002DE9F8431E46089D174688460446B5F5DC
:102B8000803F04D34FF4287112A005F064FBB6F522
:102B9000804F04D340F2A1210EA005F05CFB94F815
:102BA0003800012814D0012084F83800022084F86D
:102BB000390033463A46414620460095FEF78CFEE2
:102BC0002068016841F0010101600020BDE8F88340
:102BD0000220FBE72E2E2F447269766572732F5305
:102BE000544D3332463478785F48414C5F447269C3
:102BF0007665722F5372632F73746D333266347837
:102C0000785F68616C5F646D6132642E6300000000
:102C100070B5040070D094F8350002286AD03749A6
:102C2000206888423FD03549183188423BD033492B
:102C30003031884237D031494831884233D02F492A
:102C4000603188422FD02D49783188422BD02B49D2
:102C50009031884227D02949A831884223D0284979
:102C6000884220D02649183188421CD0244930316E
:102C7000884218D022494831884214D02049603116
:102C8000884210D01E49783188420CD01C499031BE
:102C9000884208D01A49A831884204D040F247112E
:102CA00018A005F0D8FA2068016821F00101016040
:102CB00020680025056020684560206885602068E0
:102CC000C560206805612168212048612046FEF723
:102CD0004FFEE56325646564A564E564256594F8A5
:102CE0005C203F2191408160656584F8355084F80F
:102CF0003450002070BDFFE70120FBE71060024068
:102D0000106402402E2E2F447269766572732F5321
:102D1000544D3332463478785F48414C5F44726991
:102D20007665722F5372632F73746D333266347805
:102D3000785F68616C5F646D612E63002DE9F0411E
:102D4000044600F0C1FC0546002C7CD0A249206856
:102D500088423ED0A049183188423AD09E4930314D
:102D6000884236D09C494831884232D09A496031F5
:102D700088422ED09849783188422AD0964990319D
:102D8000884226D09449A831884222D0934988426B
:102D90001FD09249183188421BD090493031884267
:102DA00017D08E494831884213D08C49603188420F
:102DB0000FD08A49783188420BD0884990318842B7
:102DC00007D08649A831884203D0B72184A005F0F6
:102DD00042FA6068C0B1B0F1007F15D0B0F1806FE9
:102DE00012D0B0F1C06F0FD0B0F1006F0CD0B0F1C5
:102DF000206F09D0B0F1406F06D0B0F1606F03D002
:102E0000B82177A005F027FAA06838B1402805D08E
:102E1000802803D0B92172A005F01DFAE068B0F552
:102E2000007F04D018B1BA216DA005F014FA206912
:102E3000B0F5806F04D018B1BB2169A005F00BFA82
:102E4000606958B100E071E0B0F5006F06D0B0F5F0
:102E5000805F03D0BC2162A005F0FDF9A06948B1F4
:102E6000B0F5005F06D0B0F5804F03D0BD215CA067
:102E700005F0F1F9E06940B1B0F5807F05D0202878
:102E800003D0BE2156A005F0E6F9206A60B1B0F586
:102E9000803F09D0B0F5003F06D0B0F5403F03D0E9
:102EA000BF214FA005F0D7F9606A002832D004286E
:102EB00006D0C0214AA005F0CEF9606A002829D0CA
:102EC000A06A48B1012807D0022805D0032803D002
:102ED000C52143A005F0BFF9E06A60B1B0F5000F6D
:102EE00009D0B0F1807F06D0B0F1C07F03D0C621F9
:102EF0003BA005F0B0F9206B60B1B0F5001F09D020
:102F0000B0F5800F06D0B0F5C00F03D0C72134A0B4
:102F100005F0A1F9022084F83500002684F8346019
:102F20002068016821F0010101600EE00120BDE888
:102F3000F08100BF00F0C8FB401B052805D9202008
:102F40006065032084F83500F1E720680068C00759
:102F5000F0D12268116830480140D4E901031843D8
:102F6000D4E903352B43184363691843A369184315
:102F7000E3691843236A18430843616A042903D1AB
:102F8000D4E90B1319430843106020684069656A4F
:102F900020F0070029460543012704290CD1A06A27
:102FA0000543E06A40B12046FEF7F6FC20B1402020
:102FB000606584F83570B9E7206845612046FEF702
:102FC000D7FC94F85C203F2191408160666584F8CD
:102FD00035700020ABE70000106002401064024032
:102FE0002E2E2F447269766572732F53544D3332EF
:102FF000463478785F48414C5F4472697665722F39
:103000005372632F73746D3332663478785F6861FE
:103010006C5F646D612E63003F8010F070B50446F4
:1030200000F052FB0546601C02D0044800780444BE
:1030300000F04AFB401BA042FAD370BD38000020CC
:103040002DE9F04186B014216846FDF71BFB2B48A3
:10305000016800294FD14FF00108C0F800802848CE
:103060000024016841F0010101600068022500F0C0
:10307000010005904FF63F00CDE9000502AA0326A6
:103080000C2782E8D00069461E4800F053F902AAD6
:10309000694682E8D000CDE900851B4800F04AF976
:1030A00048F23310CDE9000502AA694682E8D00053
:1030B000164800F03FF94FF68370CDE9000502AAEB
:1030C000694682E8D000124800F034F94CF20370EF
:1030D000CDE9000502AA694682E8D0000D4800F05B
:1030E00029F96020CDE9000502AA694682E8D000EE
:1030F000094800F01FF906B0BDE8F081300000205B
:103100003838024000140240000802400018024013
:1031100000100240000C0240000402402DE9F05F64
:10312000DFF8A091DFF8A0B10E460446484521D053
:103130005C451FD0654884421CD06548844219D044
:103140006448844216D06448844213D06348844261
:1031500010D0634884420DD0624884420AD062484D
:10316000844207D06148844204D04FF4977160A034
:1031700005F071F8002001234FF00F0A03FA00F167
:1031800006EA01058D427DD1684A20F00307174405
:10319000D7F8088882074FEA127C0AFA0CFE0EEA7A
:1031A00008024C4502D14FF000083EE05C4502D1D8
:1031B0004FF0010839E0DFF81481444502D14FF0A7
:1031C000020832E0DFF80881444502D14FF00308DD
:1031D0002BE0DFF80081444502D14FF0040824E0E1
:1031E000DFF8F480444502D14FF005081DE0DFF818
:1031F000EC80444502D14FF0060816E0DFF8E0808D
:10320000444502D14FF007080FE0DFF8D88044456D
:1032100002D14FF0080808E0DFF8CC80444502D125
:103220004FF0090801E04FF00A0808FA0CF8904541
:1032300022D13F4AD2F800C02CEA050CC2F800C0E7
:10324000121DD2F800C02CEA050CC2F800C0384AA2
:103250000C32D2F800C02CEA050CC2F800C0121FD4
:10326000D2F800C02CEA050CC2F800C0D7F8085804
:1032700025EA0E05C7F80858256847000322BA401A
:10328000954300E017E02560C50804EB8505D5F8F7
:1032900020C047074FEAD7680AFA08F72CEA070C5C
:1032A000C5F820C0E5689543E56065688D436560B5
:1032B000A1689143A160401C1028FFF45FAFBDE8F6
:1032C000F09F00000000024000040240000802409D
:1032D000000C02400010024000140240001802409E
:1032E000001C02400020024000240240002802404E
:1032F0002E2E2F447269766572732F53544D3332DC
:10330000463478785F48414C5F4472697665722F25
:103310005372632F73746D3332663478785F6861EB
:103320006C5F6770696F2E63000000000030014021
:10333000003C01402DE9F84FDFF8ACB20D460446E1
:10334000584521D0A94884421ED0A94884421BD0A8
:10335000A848844218D0A848844215D0A74884427F
:1033600012D0A74884420FD0A64884420CD0A64869
:10337000844209D0A548844206D0A548844203D09F
:10338000AC21A4A004F067FF28680104090C01D057
:10339000000C03D0AD219FA004F05DFF6868F8B178
:1033A00001281DD011281BD0022819D0122817D0AF
:1033B000B0F5881F14D0B0F5041F11D0B0F5441F2C
:1033C0000ED0B0F5901F0BD0B0F5081F08D0B0F5A7
:1033D000481F05D0032803D0AE218EA004F03BFF88
:1033E00000264FF0010A4FF0030900BF0AFA06F069
:1033F0002F688046074047457ED1287900F00300BA
:10340000012801D002281DD1E86848B1012807D061
:10341000022805D0032803D0C0217EA004F01BFFA2
:10342000A068720009FA02F18843E96891400143FB
:10343000A1606068297920EA0800C1F30011B14059
:10344000014361602879C043800712D0A86838B171
:10345000012805D0022803D0D1216EA004F0FBFE84
:10346000E168720009FA02F08143A86890400843BD
:10347000E060287900F00300022830D1286908B301
:1034800009281FD001281DD002281BD0032819D0DD
:10349000042817D0052815D0062813D0072811D0E6
:1034A00008280FD00A280DD00B280BD00C2809D0E3
:1034B0000D2807D00F2805D00E2803D0DE2155A0F7
:1034C00004F0C9FEF00804EB8002106A7107CB0E0D
:1034D0000F2199408843296999400143116220686E
:1034E000720009FA02F18843297901F00301914041
:1034F00001432160686800E06FE010F4403F6CD049
:103500005348016841F480410160006826F00301DE
:1035100000F4804000904F480A18D2F80808B1071C
:103520000B0F0F21994088435C4501D100212DE00C
:103530002E498C4201D1012128E02D498C4201D134
:10354000022123E02B498C4201D103211EE02A49AC
:103550008C4201D1042119E028498C4201D1052176
:1035600014E027498C4201D106210FE025498C4205
:1035700001D107210AE024498C4201D1082105E04C
:1035800022498C4201D1092100E00A2199400143DE
:10359000C2F80818304908686A68B843D20200D5F2
:1035A000384308602C49091D08686A68B8439202CC
:1035B00000D5384308602849091F08686A68B8437D
:1035C000920300D5384308602349083908686A68BF
:1035D000B843D20300D538430860761C102EFFF4A0
:1035E00005AFBDE8F88F0000000002400004024073
:1035F00000080240000C024000100240001402408B
:1036000000180240001C024000200240002402403A
:10361000002802402E2E2F447269766572732F5354
:10362000544D3332463478785F48414C5F44726978
:103630007665722F5372632F73746D3332663478EC
:10364000785F68616C5F6770696F2E6300000000CF
:103650004438024000300140083C014070B5154636
:103660000C00064604D140F29D1108A004F0F3FDC1
:1036700045B1012D04D04FF4CF7104A004F0EBFD4F
:10368000B46170BD2004B06170BD00002E2E2F44C7
:103690007269766572732F53544D3332463478789D
:1036A0005F48414C5F4472697665722F5372632F95
:1036B00073746D3332663478785F68616C5F6770FD
:1036C000696F2E63000000000148806870470000A9
:1036D0003800002070B50D46044600681A4988423B
:1036E00009D01A49884206D01949884203D05B2183
:1036F00018A004F0B0FD2DB1102D03D05C2115A051
:1037000004F0A9FD94F83D00202801D0022070BDEE
:10371000242084F83D002068016821F00101016047
:103720002068416A21F0100141622068416A294302
:1037300041622068016841F001010160202084F8A5
:103740003D00002070BD00000054004000580040C3
:10375000005C00402E2E2F447269766572732F53E1
:10376000544D3332463478785F48414C5F44726937
:103770007665722F5372632F73746D3332663478AB
:10378000785F68616C5F6932635F65782E63000003
:1037900070B50D46044600681849884209D018499A
:1037A000884206D01749884203D0832116A004F02E
:1037B00052FD0F2D03D9842113A004F04CFD94F881
:1037C0003D00202801D0022070BD242084F83D0057
:1037D0002068016821F0010101602168486A20F039
:1037E0000F00284380B248622068016841F001015F
:1037F0000160202084F83D00002070BD005400408E
:1038000000580040005C00402E2E2F4472697665FF
:1038100072732F53544D3332463478785F48414C9D
:103820005F4472697665722F5372632F73746D33C0
:1038300032663478785F68616C5F6932635F65789F
:103840002E63000010B5040022D01249206888427F
:103850000AD01149884207D01049884204D040F26A
:1038600039210FA004F0F7FC242084F83D002068E3
:10387000016821F001010160204600F059FB0020A1
:10388000206484F83D0044F8300FA073207310BD0D
:10389000012010BD0054004000580040005C004072
:1038A0002E2E2F447269766572732F53544D333226
:1038B000463478785F48414C5F4472697665722F70
:1038C0005372632F73746D3332663478785F686136
:1038D0006C5F6932632E630090F83D007047000012
:1038E00070B504007DD08A49206888420AD0894991
:1038F000884207D08849884204D040F2C91187A085
:1039000004F0A9FC60689349401E884204D94FF432
:10391000E57182A004F09FFCA0684FF4804530B1AF
:10392000A84204D040F2CB117CA004F094FCE068E3
:10393000800A04D04FF4E67178A004F08CFC206972
:10394000A84207D0B0F5404F04D040F2CD1173A08B
:1039500004F081FC606930B1012804D04FF4E771B4
:103960006EA004F078FCA06930F0FE0004D040F2B4
:10397000CF116AA004F06FFCE06930B1402804D098
:103980004FF4E87165A004F066FC206A30B180282D
:1039900004D040F2D11161A004F05DFC94F83D0028
:1039A000002520B984F83C50204600F0DFFA24209E
:1039B00084F83D002068016821F001010160206861
:1039C000016841F4004101602068016821F4004170
:1039D000016001F067FB604A6168914202D85F496B
:1039E00001E002E05E49884201D2012070BD5D49DC
:1039F0002368B0FBF1F15E6826F03F060E435E607F
:103A00006368934206D94FF4967359434FF47A731F
:103A1000B1FBF3F12368491C1E6A26F03F063143CF
:103A200019626168914210D84900401EB0FBF1F262
:103A3000521CC2F30B02042A01D2042022E0B0FB84
:103A4000F1F0401CC0F30B001CE0A368F3B301EBE2
:103A5000C10202EB0116421EB2FBF6F2521C42F406
:103A60008042120549D093B301EBC10202EB011170
:103A7000401EB0FBF1F0401CC0F30B0040F480404E
:103A800040F400402168CA694CF6FF739A43104322
:103A9000C861D4E9071001432068026822F0C0021F
:103AA00011430160D4E9030101432068826848F2B0
:103AB000FF339A4311438160D4E90501084321682B
:103AC000CA6822F0FF021043C86001E00EE016E071
:103AD0002068016841F0010101602564202084F81C
:103AE0003D00256384F83E50002070BD01EB410687
:103AF000421EB2FBF6F2521CB3E70120C2E701EB13
:103B00004101401EB0FBF1F0401CC0F30B00B7E7D1
:103B10000054004000580040005C00402E2E2F440E
:103B20007269766572732F53544D33324634787808
:103B30005F48414C5F4472697665722F5372632F00
:103B400073746D3332663478785F68616C5F6932A4
:103B5000632E63007F1A0600A086010080841E0089
:103B600000093D0040420F002DE9FF4F83B01F4682
:103B7000DDE911A893460446DDF84090FFF7A4FD67
:103B80000546012F06D0102F04D040F6482178A01A
:103B900004F061FB94F83D00202870D11923012224
:103BA00081492046009503F0C3F80028F5D194F828
:103BB0003C00012863D0012084F83C0020680168A3
:103BC000C90703D1016841F0010101602068016863
:103BD00021F400610160222084F83D00402084F837
:103BE0003E0000262664C4F82490A4F82AA0608D24
:103BF00020856E48E062CDE900853B465A46204666
:103C0000049902F097FF002879D1208DD0B10128C6
:103C100021D00228206824D0416980690090208D3D
:103C2000032866D801282BD06149022843464FF06B
:103C30000002009557D00F46204603F079F800287F
:103C40005DD13AE02068416981690091016841F4E1
:103C5000007101607DE02068016821F480610160ED
:103C6000F0E7016821F4806101602068016841F497
:103C700000610160206841698069009069E075E039
:103C80002A464146204603F0F9F888BB54E02068F4
:103C9000016841F40071016020680069616A087080
:103CA000606A401C6062218D491E2185618D491E1C
:103CB000618521680969017042E02068016821F48A
:103CC0008061016020680069616A0870606A401C58
:103CD0006062208D401E2085608D401E60854346B9
:103CE000002239460095204603F022F800B9CEE7BD
:103CF00005E02A464146204603F0C0F818B10120ED
:103D000007B0BDE8F08F20680069616A0870606ADA
:103D1000401C6062208D401E81B22185608D401E56
:103D2000608520684269D243520712D4032903D127
:103D3000016821F48061016020680069616A08708F
:103D4000606A401C6062208D401E2085608D401E90
:103D50006085208D00287FF462AF202084F83D002C
:103D600084F83E6084F83C600020C9E70220C7E781
:103D70002E2E2F447269766572732F53544D333251
:103D8000463478785F48414C5F4472697665722F9B
:103D90005372632F73746D3332663478785F686161
:103DA0006C5F6932632E6300020010000000FFFFA9
:103DB000040001002DE9FF4F83B01F46DDE911A883
:103DC00093460446DDF84090FFF77EFC0546012F40
:103DD00006D0102F04D040F6CD1145A004F03BFAD8
:103DE00094F83D0020287DD1192301224E49204618
:103DF000009502F09DFF002877D194F83C0001283F
:103E000073D0012084F83C0020680168C90703D101
:103E1000016841F0010101602068016821F400613E
:103E20000160212084F83D00402084F83E000026F7
:103E30002664C4F82490A4F82AA0608D20853B480D
:103E4000E062CDE900853B465A462046049902F0DF
:103E5000EFFE70B930E02A464146204603F046F8AE
:103E600058B1206C042804D12068016841F4007125
:103E70000160012007B0BDE8F08F606A216800781A
:103E80000861606A401C6062218D491E89B22185EB
:103E9000628D521E628522685369DB435B070BD437
:103EA00069B100781061606A401C6062208D401E1C
:103EB0002085608D401E6085208D0028CBD12A464C
:103EC0004146204602F008FF0028CAD154F83D0BB5
:103ED000016841F400710160202004F81E09E677B2
:103EE000667700E001E00020C4E70220C2E700009E
:103EF0002E2E2F447269766572732F53544D3332D0
:103F0000463478785F48414C5F4472697665722F19
:103F10005372632F73746D3332663478785F6861DF
:103F20006C5F6932632E6300020010000000FFFF27
:103F300010B50068094988420FD10948016821F489
:103F40000001016041150748FFF7E8F8BDE810409F
:103F50004FF480710448FFF7E1B810BD005C0040E9
:103F6000403802400008024000000240F0B587B02F
:103F7000044614216846FCF785FB1C4920688842EA
:103F800031D11B480024016841F00401016001683F
:103F900001F004010591016841F001010160006830
:103FA000122500F0010005904FF4007001268DE805
:103FB00061000427CDE9034769460E48FFF7BAF9C7
:103FC00030028DE86100CDE9034769460A48FFF7F2
:103FD000B1F907481030016841F400010160006840
:103FE00000F40000059007B0F0BD0000005C004048
:103FF0003038024000080240000002400248816858
:104000000278114481607047380000200B4810B5D9
:10401000016841F400710160016841F48061016050
:10402000016841F480710160032000F009FC0F2059
:1040300000F006F800F06AFB002010BD003C0240D2
:1040400030B505461F4887B00024016841F01001D3
:104050000160006806A900F01000009001A801F0BE
:1040600001F80498A8B101F01DF840001649174A5C
:10407000B0FBF1F11648491E026040F2E732C0E998
:104080000324C0E90114846102F030F8040003D075
:1040900015E001F007F8E9E70D4802F005F9040022
:1040A0000DD1362000F04AFB102D07D20022294600
:1040B000362000F075FB0748056000E0012407B0DA
:1040C000204630BD4038024040420F000010004002
:1040D000A40700203C0000202DE9F04116460C46C4
:1040E0000546022A04D340F242314CA004F0B3F852
:1040F00020684FF48057B84204D340F2433147A0C0
:1041000004F0A9F860684FF48038404504D34FF4B8
:10411000517142A004F09FF8A068B84204D340F265
:1041200045313EA004F097F8E068404504D340F2E2
:1041300046313AA004F08FF8206990B1012810D0E0
:1041400002280ED003280CD004280AD0052808D055
:10415000062806D0072804D040F247312FA004F0EB
:104160007AF86069FF2804D94FF452712BA004F04B
:1041700072F8A069FF2804D940F2493127A004F061
:104180006AF8E069B0F5806F07D0B0F5C06F04D071
:1041900040F24A3121A004F05EF8206A052806D0DA
:1041A000072804D040F24B311CA004F054F8A06A58
:1041B000B0F5005F04D34FF4537118A004F04BF82E
:1041C000E06AB0F5006F04D340F24D3113A004F063
:1041D00042F895F8A00001281ED0012785F8A070AC
:1041E000022085F8A10006EB860000EBC60005EB77
:1041F0008000342221463830FCF712FA324621463C
:10420000284603F0BDF82868476285F8A1700020B1
:1042100085F8A000BDE8F0810220FBE72E2E2F4498
:104220007269766572732F53544D33324634787801
:104230005F48414C5F4472697665722F5372632FF9
:1042400073746D3332663478785F68616C5F6C7458
:1042500064632E630000000090F8A01001290ED0C6
:10426000012100F8A01F02224270064A136843F49D
:1042700080331360417000210170084670470220AE
:10428000704700001868014070472DE9F04104466E
:104290000068856B466B69074FF004084FF0000714
:1042A00015D5710713D5416B21F0040141632168D5
:1042B000C1F83C80D4F8A41041F00101C4F8A41066
:1042C00084F8A18084F8A0702046FFF7DDFFA807DE
:1042D00016D5B00714D52068416B21F00201416367
:1042E00021680220C863D4F8A40040F00200C4F89A
:1042F000A40084F8A18084F8A0702046FFF7C4FFD2
:1043000005EA0600C0074FF001080ED02068416B97
:1043100021F0010141632168C1F83C8084F8A1804B
:1043200084F8A070204600F017F9280710D5300750
:104330000ED52068416B21F00801416321680820F7
:10434000C86384F8A18084F8A070204600F0DCF9EE
:10435000BDE8F08170B504006CD06E4920688842D9
:1043600003D0E7216CA003F076FF60694FF480551D
:10437000A84203D3E82168A003F06DFFA0694FF4C1
:104380000066B04203D3E92163A003F064FFE06953
:10439000A84203D3EA2160A003F05DFF206AB04287
:1043A00003D3EB215CA003F056FFA06AB04203D315
:1043B000EC2159A003F04FFF606AA84203D3ED211E
:1043C00055A003F048FF206BB04203D3EE2152A06A
:1043D00003F041FFE06AA84203D3EF214EA003F0AF
:1043E0003AFF606830B1B0F1004F03D0F0214AA02D
:1043F00003F031FFA06830B1B0F1804F03D0F1215C
:1044000045A003F028FFE06830B1B0F1005F03D0B1
:10441000F22141A003F01FFF206930B1B0F1805FAD
:1044200003D0F3213CA003F016FF94F8A10000256F
:1044300010B106E0012070BD84F8A050204600F0C5
:104440008DF8022084F8A1002068816921F0704174
:104450008161D4E901010843D4E9031211430843FF
:1044600021688A691043886121688A683948024056
:104470008A60A18A0B0421688A68A66932431A43BC
:104480008A602168CA680240CA60A18B0B04216857
:10449000CA68266A32431A43CA6021680A69024020
:1044A0000A61A18C0B0421680A69A66A32431A4387
:1044B0000A6121684A6902404A61A08D21680204AC
:1044C0004869236B18431043486194F8350021680C
:1044D000020294F83600CB6A03F07F43CB62216876
:1044E000CB6A94F8346042EA004033430343CB6222
:1044F0002068416B41F0060141632068816941F009
:1045000001018161C4F8A450012084F8A1000020B9
:1045100070BD0000006801402E2E2F447269766540
:1045200072732F53544D3332463478785F48414C80
:104530005F4472697665722F5372632F73746D33A3
:1045400032663478785F68616C5F6C7464632E6384
:104550000000000000F800F0704700002DE9F04175
:1045600092B0044614216846FCF78CF8302105A867
:10457000FCF788F85C49206888427DD108200590C6
:104580003C20099005200B904FF480300E9005A838
:1045900000F0CEF908B1FDF79DFB544800240168F6
:1045A00041F080610160006800F0806011904F4828
:1045B0001438016841F020010160016801F0200118
:1045C0001191016841F001010160016801F00101F0
:1045D0001191016841F002010160016801F00201DE
:1045E0001191016841F040010160016801F0400152
:1045F0001191016841F004010160016801F00401BA
:104600001191016841F0080101600068022500F085
:10461000080011904FF480600090CDE901540E26FF
:10462000CDE9034669463248FEF784FE41F658005C
:104630000090CDE90154CDE9034669462D48FEF7C7
:1046400079FE03200090CDE901540927DFF8A88006
:10465000CDE9034769464046FEF76CFE4FF47060B3
:104660000090CDE90154CDE9034669464046FEF786
:1046700061FE4FF40C6000E032E00090CDE901549F
:10468000DFF87880CDE9034669464046FEF752FEE2
:104690004FF498600090CDE90154CDE90346694696
:1046A0001748FEF747FE48200090CDE90154CDE9B8
:1046B000034669461348FEF73DFE4FF4A0500090B4
:1046C000CDE90154CDE9034769464046FEF732FE85
:1046D00000220521582000F063F8582000F02EF841
:1046E00012B0BDE8F081000000680140443802408B
:1046F0000014024000000240000402400018024082
:1047000000080240000C0240704700000A4808B54B
:10471000016841F480410160006800F4804000902D
:104720000548001F016841F080510160006800F0F9
:104730008050009008BD00004438024010B50400CD
:1047400003D5BC2107A003F086FD002C09DB04F093
:104750001F01012088406109890001F1E021C1F8B1
:10476000000110BD2E2E2F447269766572732F538F
:10477000544D3332463478785F48414C5F44726917
:104780007665722F5372632F73746D33326634788B
:10479000785F68616C5F636F727465782E63000088
:1047A00070B515460C460646102A03D3A82114A05E
:1047B00003F051FD102C03D3A92111A003F04BFDF0
:1047C0001E480068C0F30223C3F107022046042AF2
:1047D00000D90422191D072901D2002300E0DB1EA5
:1047E000012404FA02F1491E014099409C40641ED4
:1047F0002C4021433046BDE8704003F015BD000059
:104800002E2E2F447269766572732F53544D3332B6
:10481000463478785F48414C5F4472697665722F00
:104820005372632F73746D3332663478785F6861C6
:104830006C5F636F727465782E6300000CED00E0AE
:1048400010B5044607280BD0062C09D0052C07D03C
:10485000042C05D0032C03D0902108A003F0FBFC0E
:10486000154904F0070208684FF6FF03184040EAB4
:104870000220124A1043086010BD00002E2E2F4463
:104880007269766572732F53544D3332463478789B
:104890005F48414C5F4472697665722F5372632F93
:1048A00073746D3332663478785F68616C5F636F00
:1048B000727465782E6300000CED00E00000FA05CC
:1048C0002DE9F8431748016841F080510160006804
:1048D000154F00F08050012600903E64FEF7F4FE74
:1048E00005464FF47A78114C05E000BFFEF7ECFE68
:1048F000401B40450DD86068C003F7D57E64FEF7C5
:10490000E3FE0546464607E0FEF7DEFE401BB042EA
:1049100002D90320BDE8F88360688003F4D5002045
:10492000F8E700004038024000000E4200700040EE
:104930002DE9F84F04460068401E7E2804D940F651
:104940008901F2A003F087FC2068DFF8FCA3FF4E8A
:10495000FF4DC1074FF4BF7B4FF001094FF0000836
:1049600003D1810701D440067ED5606832385845AE
:1049700004D940F69401E5A003F06DFCCAF8688004
:10498000FEF7A2FE074604E0FEF79EFEC01B0228CB
:104990007ED828680001F7D42078EE4FC0070ED0EB
:1049A000A068801E052804D940F6AA01D7A003F00C
:1049B00052FC6068217A800140EA017038602078FA
:1049C000800723D5E068801E0D2804D940F6B70182
:1049D000CEA003F040FCE069401E1F2804D940F639
:1049E000B801CAA003F037FC38686168227B8901EE
:1049F000C0F3027041EA026141EA00703860306839
:104A0000E16920F01F00491E08433060207840060D
:104A10001AD5E068801E0D2804D940F6C901BBA054
:104A200003F019FCA068801E052804D940F6CA01CD
:104A3000B6A003F010FC6068217B800140EA0160B1
:104A4000217A40EA01703860CAF86890FEF73CFEAF
:104A5000074606E008E000BFFEF736FEC01B02284E
:104A600096D828680001F7D52068410701D40007CF
:104A700077D520693238584504D940F6E801A3A01B
:104A800003F0E9FBCAF87080FEF71EFE074606E059
:104A9000EBE000BFFEF718FEC01B0228E0D8286834
:104AA000C0438000F6D52078AB4F400726D560691B
:104AB000801E0D2804D940F6FD0194A003F0CBFB25
:104AC000206A401E1F2804D940F6FE018FA003F083
:104AD000C2FB38682169227D8901C0F3027041EA76
:104AE000026141EA007038603068216A6FF0FF02AD
:104AF00020F4F85002EB01210843306020780007D1
:104B000029D5A069801E052804D940F60D117FA083
:104B100003F0A1FB606A68B1B0F5803F0AD0B0F540
:104B2000003F07D0B0F5403F04D040F60E1177A00B
:104B300003F091FB38682169C0F30360890141EA01
:104B40000060217E40EA017038603068616A20F4BC
:104B5000403008433060CAF87090FEF7B5FD064655
:104B600005E008E0FEF7B0FD801B02287DD828682C
:104B7000C0438000F6D42078800677D5A06AB0F5CF
:104B8000807F61D0B0F5007F5ED0744988425BD0F1
:104B90007349884258D07349884255D07249884237
:104BA00052D0724988424FD0714988424CD07149E5
:104BB000884249D07049884246D07049884243D0E3
:104BC0006F49884240D06F4988423DD06E49884243
:104BD0003AD06E49884237D06D49884234D06D4909
:104BE000884231D06C4988422ED06C4988422BD003
:104BF0006B49884228D06B49884225D06A4988424F
:104C000022D06A4988421FD0694988421CD069492C
:104C1000884219D06849884216D06849884213D022
:104C20006749884210D0674988420DD0664988425A
:104C30000AD06649884207D06549884204D040F6C8
:104C40002D1132A003F007FB414846464030016871
:104C500041F08051016000685E4D00F0805000908E
:104C6000286840F48070286001E02EE044E0FEF700
:104C70002BFD074605E000BFFEF726FDC01B0228FE
:104C800023D82868C005F7D5324D143D286810F4A4
:104C9000407020D0218D01F4407181421BD02868E2
:104CA0004D4920F44070C1F800900E6028602868DB
:104CB000C00710D0FEF708FD064641F2883707E02E
:104CC000FEF702FD801BB84202D90320BDE8F88F31
:104CD00028688007F4D5A16A1D48C1F30122083075
:104CE000032A7ED0016821F4F81101602868218D23
:104CF000C1F30B01084328602078C00604D537496A
:104D000094F82C00C1F8E0010020DFE72E2E2F449C
:104D10007269766572732F53544D33324634787806
:104D20005F48414C5F4472697665722F5372632FFE
:104D300073746D3332663478785F68616C5F726368
:104D4000635F65782E630000000047428C380240A4
:104D500000380240843802408838024000030200D4
:104D60000003030000030400000305000003060025
:104D700000030700000308000003090000030A0005
:104D800000030B0000030C0000030D0000030E00E5
:104D900000030F00000310000003110000031200C5
:104DA00000031300000314000003150000031600A5
:104DB00000031700000318000003190000031A0085
:104DC00000031B0000031C0000031D0000031E0065
:104DD00000031F0000700040400E47420010474291
:104DE000FFE70268034B22F4F81219400A430260FD
:104DF0007CE70000FFFCFF0F2DE9F0470C460500A3
:104E00007ED02868401E0E2804D940F25A2182A084
:104E100003F021FA14B3012C20D0022C1ED0032C55
:104E20001CD0042C1AD0052C18D0062C16D0072C18
:104E300014D0082C12D0092C10D00A2C0ED00B2C18
:104E40000CD00C2C0AD00D2C08D00E2C06D00F2C18
:104E500004D040F25B2170A003F0FDF9DFF8F0818F
:104E6000D8F80000E7B200F00F00A04207D288F89F
:104E70000070D8F8000000F00F00A04240D1286870
:104E8000744E810729D5400703D5306840F4E050BF
:104E900030602878000703D5306840F46040306007
:104EA000A868A0B1802812D0902810D0A0280ED0D9
:104EB000B0280CD0C0280AD0D02808D0E02806D0CE
:104EC000F02804D040F27E2153A003F0C4F93068EA
:104ED000A96820F0F000084330602878C00743D06C
:104EE000DFF870916868A9F1080998B1012822D00B
:104EF000022824D0032822D040F2852146A000E0D9
:104F00003FE003F0A8F96868012814D0022816D001
:104F1000032814D0D9F800008007002831DA30685F
:104F2000696820F0030008433060FEF7CDFB81463E
:104F300041F2883A11E0D9F800008003EDE7D9F892
:104F400000008001E9E700BFFEF7BEFBA0EB09010E
:104F5000514502D90320BDE8F0873068696800F048
:104F60000C00B0EB810FEFD1D8F80010404601F0F3
:104F70000F01A14207D90770006800F00F00A0429E
:104F800001D00120E7E728784FF4805440074FF420
:104F9000A0574FF4C0584FF4E05914D5E86860B1F9
:104FA000A0420AD0B84208D0404506D0484504D0B7
:104FB00040F2C32118A003F04EF93068E96820F4EC
:104FC000E050084330602878000715D5286960B1A3
:104FD000A0420AD0B84208D0404506D0484504D087
:104FE00040F2CA210CA003F036F93068296920F498
:104FF000604040EAC100306000F074F83168164A41
:10500000C1F30311515CC84014490860144800689A
:10501000FFF716F800209EE72E2E2F447269766562
:1050200072732F53544D3332463478785F48414C75
:105030005F4472697665722F5372632F73746D3398
:1050400032663478785F68616C5F7263632E6300E8
:10505000003C024008380240488900084400002013
:105060003C0000200F2202600C4A136803F0030387
:105070004360136803F0F0038360136803F4E053A4
:10508000C36012684FF4E05303EAD202026104489D
:10509000006800F00F000860704700000838024008
:1050A000003C02400448054900680968044AC1F30D
:1050B0008221515CC84070474400002008380240FB
:1050C000588900080448054900680968044AC1F382
:1050D0004231515CC840704744000020083802400B
:1050E00058890008154810B5006810F00C021448E3
:1050F00013D04110042A0FD0082A0ED10F4C241FC0
:105100002268236802F03F025B0207D52068C0F3E3
:105110008810A0FB010106E0084610BD2168C1F31C
:105120008811A1FB00010023FBF7D0F82168C1F32F
:105130000141491C4900B0FBF1F010BD08380240A4
:105140000024F4002DE9F84F04007DD020680F28DA
:1051500003D9E621F7A003F07EF82078DFF80C945D
:10516000C007A9F1040555D060684FF480364FF4AC
:10517000A02738B1B04205D0B84203D0EB21EDA052
:1051800003F069F8F948001D0168C1F381010129A4
:1051900008D00068C0F3810002280AD1D9F80000C5
:1051A000400206D52868800334D560680028CCD03A
:1051B00030E06068B04203D1286840F480300CE0F1
:1051C000B842286803D140F480202860F4E720F436
:1051D00080302860286820F480202860606860B1F2
:1051E000FEF772FA064604E0FEF76EFA801B6428AA
:1051F0007ED828688003F7D50CE0FEF765FA0646EE
:1052000005E000BFFEF760FA801B6428F0D828682C
:105210008003F7D42078DFF8588380074FF0000A26
:1052200056D5E06830B1012804D040F21D11C1A06C
:1052300003F011F820691F2804D94FF48F71BDA025
:1052400003F009F8C94800E092E0001D016811F080
:105250000C0F08D00068C0F38100022810D1D9F8E3
:10526000000040020CD42868800702D5E0680128BD
:105270007ED12868216920F0F80040EAC10017E0DB
:10528000E068B8B10120C8F80000FEF71DFA064634
:1052900005E000BFFEF718FA801B0228A8D828688E
:1052A0008007F7D5286820F0F801206941EAC0009E
:1052B00028600DE0C8F800A0FEF706FA064604E0F4
:1052C000FEF702FA801B022892D828688007F7D4DC
:1052D000207800072ED5A54EA64F60697036D0B154
:1052E000012808D04FF4AF7192A002F0B4FF00E0A3
:1052F0004BE1606978B101203860FEF7E5F90746B7
:1053000005E000BFFEF7E0F9C01B0228C6D83068F0
:105310008007F7D50EE0C7F800A0FEF7D5F90746DD
:1053200005E000BFFEF7D0F9C01B0228B6D83068F0
:105330008007F7D42078400776D5A068002740B1D1
:10534000012806D0052804D04FF4C57179A002F0D9
:1053500082FFDFF818B20BF13C0BDBF80000C00055
:105360000DD4DBF8001041F08051CBF8001000E0C4
:1053700038E1DBF80000012700F0805000907E4EFD
:105380003068C00511D4306840F480703060FEF79A
:105390009BF9009006E000BFFEF796F90099401ACD
:1053A000022891D83068C005F6D5704EA0686C36DA
:1053B00001280FD00528306810D020F0010030609F
:1053C000306820F004003060A068B8B1FEF77CF9C6
:1053D00000900FE0306840F00100F4E740F0040076
:1053E0003060F7E7FEF770F90099411A41F2883012
:1053F00081428BD830688007F4D50EE0FEF764F95F
:10540000009007E0FEF760F90099411A41F28830F8
:1054100081428BD830688007F4D42FB1DBF80010BC
:1054200021F08051CBF80010A069002876D0012827
:1054300009D0022807D040F2CD113EA002F00BFFA8
:10544000A0690028F2D04948001D0068C0F381001F
:105450000228A0696DD0022805D0C8F860A0FEF728
:1054600033F9044694E0E06938B1B0F5800F04D018
:105470004FF4EB712FA002F0EEFE206A801E3D2853
:1054800004D940F2D7112BA002F0E5FE606A323851
:10549000B0F5BF7F04D94FF4EC7126A002F0DBFE1B
:1054A000A06A02280AD0042808D0062806D00828B6
:1054B00004D040F2D9111FA002F0CDFEE06A801E98
:1054C0000D2804D94FF4ED711AA002F0C4FE47462E
:1054D000C8F860A0FEF7F8F8064604E0FEF7F4F816
:1054E000801B022851D828688001F7D4D4E907012D
:1054F0000843A16A214A490802EB0141626A41EA74
:105500008211084394F82C1040EA0161C9F8001098
:1055100001203866FEF7D8F8044606E064E000BFD4
:10552000FEF7D2F8001B02282FD828688001F7D593
:105530005AE031E02E2E2F447269766572732F5334
:10554000544D3332463478785F48414C5F44726939
:105550007665722F5372632F73746D3332663478AD
:10556000785F68616C5F7263632E63000438024089
:1055700000004742800E4742007000400000FFFFDD
:10558000FEF7A2F8001B022802D90320BDE8F88F1D
:1055900028688001F4D427E00128F7D0D9F800006A
:1055A000E26900F4800191421CD1226A00F03F01BF
:1055B000914217D147F6C071626A0140B1EB821F78
:1055C00010D1A26A4FF0FF3300F4403103EB5202D6
:1055D000B1EB024F06D194F82C1000F07060B0EBE4
:1055E000016F01D00120D1E70020CFE770B50D4653
:1055F000040003D094F82C0010B107E0012070BD26
:10560000002084F82D00204600F011F8022084F8D4
:105610002C00211D2068FCF75FFBD4E9000229461D
:10562000FCF7E4FC012084F82C00002070BDFDF79D
:1056300007BD10B5044690F82C00022804D094F859
:105640002C00012801D0012010BD022084F82C007C
:105650002068FCF711FC012084F82C00002010BD0C
:1056600070B5044690F82C000D46022804D001289D
:1056700003D0052801D0012070BD022084F82C0041
:105680002068FCF733FC2868022805D05FF0010091
:1056900084F82C00002070BD0520F9E710B5040047
:1056A00029D016492068884213D01549884210D065
:1056B000144988420DD0144988420AD013498842BF
:1056C00007D01349884204D04FF4DF7111A002F0D3
:1056D000C2FD022084F851002068016821F04001D9
:1056E0000160204600F06AF90020606584F85100EE
:1056F00084F8500010BD012010BD000000300140B2
:1057000000380040003C004000340140005001409F
:10571000005401402E2E2F447269766572732F5308
:10572000544D3332463478785F48414C5F44726957
:105730007665722F5372632F73746D3332663478CB
:10574000785F68616C5F7370692E630090F8510038
:105750007047000070B504007ED0844920688842FC
:1057600013D08349884210D0824988420DD08249A3
:1057700088420AD08149884207D08149884204D0B2
:105780004FF4A0717FA002F066FD60684FF482764E
:1057900030B1B04204D040F241117AA002F05BFD7A
:1057A000A06850B1B0F5806F07D0B0F5004F04D0BD
:1057B0004FF4A17173A002F04EFDE068B0F5006FE8
:1057C00005D020B140F243116EA002F044FDA06963
:1057D000B0F5007F08D038B1B0F5802F04D04FF479
:1057E000A27168A002F037FDE06990B1082810D0DE
:1057F00010280ED018280CD020280AD0282808D02D
:10580000302806D0382804D040F245115DA002F0BF
:1058100022FD206A30B1802804D04FF4A37159A032
:1058200002F019FD606A002548B3102806D040F246
:10583000471154A002F00FFD606A00B3E069A0B107
:10584000082812D0102810D018280ED020280CD0EC
:1058500028280AD0302800E00FE006D0382804D0ED
:1058600040F2591147A002F0F6FC25616561A5627E
:1058700094F85100002830D034E0012070BD206938
:1058800030B1022804D04FF4A5713EA002F0E3FC31
:10589000606930B1012804D040F24B1139A002F008
:1058A000DAFC6068B04216D1E0690028DFD0082831
:1058B000DDD01028DBD01828D9D02028D7D0282830
:1058C000D5D03028D3D03828D1D040F24F112DA0D8
:1058D00002F0C1FCCBE7E561C9E784F850502046EF
:1058E00000F082F8022084F851002068016821F05D
:1058F00040010160A088218900F4827001F4044114
:105900000843A18901F400610843217C01F00201F0
:105910000843217D01F001010843218B01F400714E
:105920000843217F01F03801084394F8201001F06A
:1059300080010843218D01F400510843216808606B
:10594000A069042101EA104094F8241001F010012C
:105950000843216848602068C16921F40061C16181
:105960006565012084F85100002070BD00300140C1
:1059700000380040003C004000340140005001402D
:10598000005401402E2E2F447269766572732F5396
:10599000544D3332463478785F48414C5F447269E5
:1059A0007665722F5372632F73746D333266347859
:1059B000785F68616C5F7370692E630000680749E7
:1059C000884209D10648016821F4801101604FF432
:1059D00060710448FDF7A2BB704700000050014011
:1059E000443802400014024010B586B00446142129
:1059F0006846FAF747FE13492068884220D11248CA
:105A00000021026842F480120260006800F48010F5
:105A100005900D481438026842F0200202600068C8
:105A200000F0200005904FF4607000900220CDE956
:105A300001010520CDE9031069460448FDF77AFC11
:105A400006B010BD0050014044380240001402402E
:105A50002DE9F84F044690F85100984616460F4637
:105A60000025012801D0022598E060684FF0040B62
:105A7000B0F5827F01D1A068F8B194F850000128F8
:105A800026D04FF0010984F85090FDF71DFE8246A4
:105A9000002F7FD0002E7DD084F851B000206065AB
:105AA000A763A687E6872063A086E08620646064FB
:105AB000A068B0F5004F0DD016E084F851B0134641
:105AC0000A462046CDF8008000F04CF9BDE8F88F7A
:105AD0000220FBE72068016821F040010160206896
