:020000040800F2
:10000000500D0020650200086F790008BF6E0008DF
:100010006D790008F11D0008DD8000080000000077
:10002000000000000000000000000000F97B000854
:10003000151F000800000000717900080D7C000801
:100040007F0200087F0200087F0200087F0200088C
:100050007F0200087F0200087F0200087F0200087C
:100060007F0200087F0200087F0200087F0200086C
:100070007F0200087F0200087F0200087F0200085C
:100080007F0200087F0200087F0200087F0200084C
:100090007F0200087F0200087F0200087F0200083C
:1000A0007F0200087F0200087F0200087F0200082C
:1000B0007F0200087F0200087F0200087F0200081C
:1000C0007F0200087F0200087F0200087F0200080C
:1000D0007F020008D18000087F0200087F0200082C
:1000E0007F0200087F0200087F0200087F020008EC
:1000F0007F0200087F0200087F0200087F020008DC
:100100007F0200087F0200087F0200087F020008CB
:100110007F0200087F020008C17C00087F020008FF
:100120007F0200087F0200087F0200087F020008AB
:100130007F0200087F0200087F0200087F0200089B
:100140007F0200087F0200087F0200087F0200088B
:100150007F0200087F0200087F0200087F0200087B
:100160007F0200087F0200087F0200087F0200086B
:100170007F0200087F0200087F02000800000000E4
:100180007F0200087F0200087F0200087F0200084B
:100190007F0200087F0200087F0200087F0200083B
:1001A000AD7200087F020008F51D000800F002F89B
:1001B00000F049F80AA090E8000C82448344AAF1B8
:1001C0000107DA4501D100F03EF8AFF2090EBAE8B6
:1001D0000F0013F0010F18BFFB1A43F0010318477B
:1001E00084B80000A4B80000103A24BF78C878C1D1
:1001F000FAD8520724BF30C830C144BF04680C602D
:10020000704700000023002400250026103A28BF74
:1002100078C1FBD8520728BF30C148BF0B60704778
:10022000662909F09A83002070471FB509F08BFBFF
:1002300000F0E0FB04000020002108F071FEE06007
:100240001FBD10B510BD00F0D9FC1146FFF7EDFF42
:1002500008F058FD00F0F7FC03B4FFF7F2FF03BC11
:1002600000F03AFD0948804709480047FEE7FEE7ED
:10027000FEE7FEE7FEE7FEE7FEE7FEE7FEE7FEE756
:1002800004480549054A064B70470000B17C000848
:10029000AD01000850070020500D0020500900203B
:1002A0005009002053EA020C00F069802DE9F04B60
:1002B0004FF00006002B1FBFB3FA83F503FA05F4D5
:1002C00024FA05F65E4012BF1643B2FA82F502FA2E
:1002D00005F4C5F120051EBF22FA05FC44EA0C0412
:1002E000203556EA044C4FEA144418BF641C4FF002
:1002F00000084FF00009904271EB030C39D300293C
:1003000019BFB1FA81F701FA07F6B0FA80F700FADF
:1003100007F6C7F120071EBF20FA07FC46EA0C06C5
:100320002037B6FBF4FCA7EB0507103F07F01F0BC7
:10033000CBF120060CFA0BFB2CFA06F644BFB346B1
:100340000026202FA4BF5E464FF0000B5BEA060C90
:1003500008BF4FF0010B19EB0B09ABFB027C48EB1C
:100360000608C01B06FB02CC0BFB03CC71EB0C0197
:10037000C1E70B46024641464846BDE8F08B13B53F
:100380004FF000004FF00001AFF30080BDE81C40CB
:10039000704700000FB41CB5074B06AA7B446946A2
:1003A0000090059800F00DFB0020694600F01CFB52
:1003B0001CBC5DF814FB0000490600002DE9F04765
:1003C0004FF0000A89460446C0F820A02046E168A4
:1003D0008847002876D0252806D0D4E90121904707
:1003E000206A401C2062F1E7E1682046002588472A
:1003F000C4F81CA006460027C4F818A02A2E09D06D
:10040000304608F00DFB38B304EB8708303EC8F8DF
:10041000186019E059F8041B204604EB870291612B
:10042000E1688847012F064618D1E069002820DAE4
:1004300025F020051DE0D8F8180000EB800006EB41
:1004400040003038C8F818002046E1688847064662
:1004500008F0E6FA0028EED1012F0AD02E2E08D19E
:100460002046E16888477F1C0646022F45F020059C
:10047000C4DBA069002803DA404245F00105A06111
:10048000E80701D025F01005B6B1A6F14100192802
:1004900002D8203645F400654A463146204625609C
:1004A0004D46FFF7BDFE58B1012806D0ED1D25F0E1
:1004B000070000F1080989E704E005F1040985E770
:1004C00030468AE7206ABDE8F08710B5203AC0F0D0
:1004D0000B80B1E81850203AA0E81850B1E8185045
:1004E000A0E81850BFF4F5AF5FEA027C24BFB1E882
:1004F0001850A0E8185044BF18C918C0BDE81040F3
:100500005FEA827C24BF51F8043B40F8043B08BFFB
:100510007047D20728BF31F8023B48BF11F8012BC2
:1005200028BF20F8023B48BF00F8012B70474FF06E
:10053000000200B5134694469646203922BFA0E833
:100540000C50A0E80C50B1F12001BFF4F7AF09073F
:1005500028BFA0E80C5048BF0CC05DF804EB890030
:1005600028BF40F8042B08BF704748BF20F8022B73
:1005700011F0804F18BF00F8012B7047704770478B
:10058000704710B500F03AFA006810BD10B5044687
:1005900000F034FA046010BD70472DE9FF4F0C469F
:1005A0001E464FF0FF378BB0D2E90001DDF86080C6
:1005B0000A908A46C1F30A5505B93D46002108460E
:1005C0004FF00000BAF1000F00F4400005DA00EB34
:1005D00080004FF4400101EA50004FEA9059B9F110
:1005E000010F00DDB9460A9850EA4A000ED044F6E1
:1005F0001050A5F2FF3545432F14B8F1000F1ED05F
:100600007542291E1EDDC9F100021CE0B8F1010F80
:100610004FF0000001D0302103E0F24305E0215407
:10062000401CB042FBDB30460022002121540B99D4
:10063000C1F80880C1E900200FB0BDE8F08FBD1BF4
:100640006D1CDEE74A4600DA694206A800F060FA4F
:1006500006AB93E8070003AB83E8070050460A990E
:1006600000F041FB8DE80700A0F500501F38009016
:100670000398002D0ADD42F21F014A460844002378
:1006800003A90390684600F0AAFD09E0A0F5005018
:100690004A461F38002303A90390684600F0B4FDC2
:1006A0008DE807000004000C03D04FF0FF30410834
:1006B00000E01046B8F1000F03D00022009215466A
:1006C0001EE0751E05D400F09DF9303262556D1E96
:1006D000F9D5B3460122084302D000227F1C04E072
:1006E0002078302801D100227F1E002A099784D06B
:1006F0001DE0112D07DA00F085F9303262556D1CCE
:1007000050EA0102F5D1084302D00098C8B10EE0CA
:100710000021681E05E0235C625C63542254401E85
:10072000491C8142F7DBAB46A81B401E0990002004
:1007300004F80B000B98099AC0F80880C0E9002B58
:100740007AE711264FF0000857E72DE9F04F884669
:100750000446D21D22F0070191B0D1E90001CDE994
:100760000A0107F0BCFC02460B98C00F01D02D20F7
:1007700007E02068810701D52B2002E0202101EA53
:10078000C000032A099001D0072A05DB0346414631
:10079000204600F07DF90BE12078800601D5E06964
:1007A00000E00620B8F1650F814606D0B8F1660F6B
:1007B00018D0B8F1670F70D131E00020B9F1110FF6
:1007C000009001DB112301E009F101030AAA01A94C
:1007D0000CA8FFF7E2FEDDE90C70002609F1010527
:1007E000834647E001204B4600904FF000470AAA9D
:1007F00001A90CA8FFF7D1FEDDE90DB00C995D460B
:10080000002610B909F101000D18B9EB050003D459
:10081000C0F1FF3609F10105A5EB09002BE0B9F1A4
:10082000010F01DA4FF001090020B9F1110F00901A
:10083000484601DD112300E003460AAA01A90CA8DD
:10084000FFF7ABFEDDE90C704D46002683462078AD
:1008500000070AD4AB4500DA5D4601A8012D04DD8E
:10086000411911F8011C302907D04F4502DA17F160
:10087000040F04DA012082460FE06D1EEEE7002F20
:1008800002DCED1B3E4403E0781CA84200DD7D1C29
:10089000B81B00F1010A4FF000472078000703D48D
:1008A000AA4501DB4FF0FF3A0021B7F1004F0DF1EF
:1008B00043088DF8431024D002202B23002F01DAA7
:1008C0007F422D230A21021EA0F1010000DC5FB14E
:1008D00097FBF1FC97FBF1F201FB1C7C17460CF136
:1008E000300C08F801CDEEE7A8F101000370218873
:1008F000090501D5452100E06521A0F1010800F8B6
:10090000011C09980FA9A1EB0807FF1D00B10120E8
:10091000411901EBEA70A1693844081A401EA06130
:100920002078C00602D42046AFF30080099828B191
:10093000D4E901219047206A401C20622078C0063B
:1009400022D52046AFF300801EE0002E04DBB34525
:1009500002DD01A8805D00E03020D4E9012190474C
:10096000206A401C2062761CAAF101005FEA000A9E
:100970000AD100F03FF8C0680168405CD4E9012169
:100980009047206A401C2062281EA5F10105DCDC8E
:1009900007E0D4E9012118F8010B9047206A401CB8
:1009A0002062381EA7F10107F3DC2046AFF3008078
:1009B000032011B041E6000001694A1C0261087879
:1009C000704700B58FB0CDE901310021059105498F
:1009D0007944CDE9031011466846FFF7EFFC0FB0EC
:1009E00000BD0000E5FFFFFF0A6802F8010B0A6086
:1009F00070470000004870470C070020004870470F
:100A0000EC06002030B5B0F10A024FEA900E71F109
:100A100000034EEA817EB0EB0E0061EB91014FEADC
:100A2000101E4EEA017E10EB0E0041EB11114FEA51
:100A3000102E4EEA016E10EB0E0041EB11214FEA31
:100A4000104E4EEA014E10EB0E0041EB11414018E2
:100A500041F100014FEAD00040EA41704FEAD10174
:100A600010EB80054FEA810444EA907444EB0104E2
:100A70006D1944EB0404521BA3414FF0000348BF1F
:100A80000A3200D530BD401C41F1000130BD0000EC
:100A90002DE9F0411F46044603260168072A01F4A8
:100AA000006004DB08B116A505E016A503E008B157
:100AB00015A500E015A521F010002060A069C01E5A
:100AC000A0610FB1401EA0612046AFF300804FB17E
:100AD000D4E9012138469047206A401C2062C01C9E
:100AE000206206E0206AFAE7D4E9012115F8010B3B
:100AF0009047761EF8D22046AFF30080BDE8F08123
:100B00004E414E006E616E00494E4600696E6600B1
:100B10002DE9F047814616468AB0354878440DC81D
:100B20008DE80D0032487844801C03AC0DC884E881
:100B30000D0041F69B300844372190FBF1F290FB09
:100B4000F1F5A5F1800501FB12041B3C02D56442BE
:100B5000012000E00020DFF898A080460027FA443A
:100B6000AAF1BE0A0EE0E0070AD03246684607EB5B
:100B7000470101230AEB810100F046FB8DE80700E5
:100B800064107F1C002CEED1194F7F44AE3F19E05A
:100B9000E80715D007EB04100DF1180A90E80E00D5
:100BA0008AE80E00C068F04201D1981908903246D8
:100BB000012306A903A800F027FB03AB83E8070085
:100BC0006D10641C002DE3D14FF0010332466946DD
:100BD000B8F1000F03A802D000F001FB01E000F023
:100BE00013FBC9E90001C9F808200AB0BDE8F08785
:100BF0002CAF000000487047EC0600207546FFF758
:100C0000F9FFAE4605006946534620F007008546C9
:100C100018B020B5FFF734FBBDE820404FF00006C8
:100C20004FF000074FF000084FF0000B21F00701D4
:100C3000AC46ACE8C009ACE8C009ACE8C009ACE817
:100C4000C0098D46704710B50446AFF300802046BA
:100C5000BDE81040FFF700BB4FF0013C50F8042BFB
:100C600051F8043B9A4221D1A2EB0C03934313EABF
:100C7000CC1317D150F8042B51F8043B9A4215D1EC
:100C8000A2EB0C03934313EACC130BD150F8042BC3
:100C900051F8043B9A4209D1A2EB0C03934313EAA7
:100CA000CC13DBD04FF00000704700BFD01A01BA60
:100CB000B1FA81F101F0180122FA01F0CB40C1F143
:100CC0002001DBB2C0B2C01A2CFA01F3D11A914351
:100CD00011EAC311E6D1704701491820ABBEFEE707
:100CE0002600020070475FEA400C08BF91F0000F39
:100CF0004FEA8C234FEAC12243EA51514FEA1C507C
:100D000018BF00F5F0404FEA300018BF41F0004135
:100D10005FEA6C5C00F02980BCF1FF3F08BF40F047
:100D200080407047130C06BF12044FF0100C4FF0B8
:100D3000000C130E04BF12020CF1080C130F04BFB9
:100D400012010CF1040C930F04BF92000CF1020C81
:100D5000D30F04BF52000CF1010C11464FF00002FA
:100D6000A0F11F00A0EB0C00704711F0004F08BF6E
:100D7000704731F000413FF4D5AF0B0C06BF0904BA
:100D80004FF0100C4FF0000C0B0E04BF09020CF1D9
:100D9000080C0B0F04BF09010CF1040C8B0F04BFEE
:100DA00089000CF1020CCB0F04BF49000CF1010CBF
:100DB000CCF12003A0EB0C0022FA03F302FA0CF2B0
:100DC00041EA030100F10100704720F07F4C80EA06
:100DD000030023F07F47ACEB070303F57C5300F0DF
:100DE000004003F1FF032DE980494FEA154B09B498
:100DF0004FEA144325EA0B4E24EA03480FF2042677
:100E000006EB132749083E785FEA320203FB0667C8
:100E1000C7F5000707FB06F64FEA54374FEAD646F8
:100E200006F1020607FB066CCCF1005C4FEA1C479A
:100E30002CEA074C07FB06F40CFB06F504EB154601
:100E40004FEA961634BF00204FF000404FEAD137EA
:100E500006FB07FC4FEA1C4C0CFB0BF7D21B03FBF9
:100E60000CF761EB07010CFB0EF7B0EB074072EBE0
:100E700017420CFB08F734BFA2EB0742B2EB074264
:100E800061EB17414FEA0C444FEA910706FB07FC60
:100E90004FEA1C4C0CFB0BF7B0EBC74072EB573220
:100EA00003FB0CF734BFA2EBC742B2EBC74261EBC6
:100EB00057310CFB0EF7B0EBC70072EB57720CFB0F
:100EC00008F734BFA2EBC702B2EBC70261EB577160
:100ED000039F4FEA816141EA921104EBCC044FEA8F
:100EE000D1374FEA826206FB07FC42EA90124FEAD2
:100EF00080604FEA1C4C0CFB0BF7D21B03FB0CF77A
:100F000061EB07010CFB0EF7B0EB074072EB1742E9
:100F10000CFB08F734BFA2EB0742B2EB074261EBD0
:100F200017414FEA8C554FEA910704EB9C2406FBCE
:100F300007FC4FEA1C4C0CFB0BF7B0EBC74072EB05
:100F4000573203FB0CF734BFA2EBC742B2EBC742E8
:100F500061EB57310CFB0EF7B0EBC70072EB577229
:100F60000CFB08F734BFA2EBC702B2EBC70261EB80
:100F7000577115EB4C254FEA816141EA92114FEA16
:100F800082624FEAD13742EA901206FB07FC44F135
:100F900000044FEA80604FEA1C4C0CFB0BF7D21B9D
:100FA00003FB0CF761EB07010CFB0EF7B0EB0740FE
:100FB00072EB17420CFB08F734BFA2EB0742B2EB0F
:100FC000074261EB174115EB1C154FEA813141EAED
:100FD00092414FEA823242EA90424FEA80304FEA31
:100FE0000C7644F1000448EA03434EEA0B484FF004
:100FF000000EB2EB080C71EB030724BF62463946C2
:101000004EEB0E0E4FF0000B0018524149414BEBD6
:101010000B0BB2EB080C71EB03077BF1000B24BF49
:10102000624639464EEB0E0E4FF0000B001852414F
:1010300049414BEB0B0BB2EB080C71EB03077BF157
:10104000000B24BF624639464EEB0E0E51EA0207F2
:1010500018BF46F0010616EB0E7655F1000254F16A
:10106000000103D5BDE88901BDE80088BDE889011C
:10107000BDE80048B619524141EB0101A3F101035B
:10108000704780807F7E7D7C7B7A797877767675F5
:101090007473727171706F6E6E6D6C6C6B6A6A696D
:1010A0006868676666656464636362616160605F07
:1010B0005F5E5E5D5D5C5C5B5B5A5A595958585780
:1010C00057565655555554545353525252515150E8
:1010D00050504F4F4F4E4E4D4D4D4C4C4C4B4B4B3B
:1010E0004A4A4A4949494848484747474746464681
:1010F00045454544444444434343434242424241BC
:101100004141002B9C4630D477002BD01CB54FEAD0
:10111000370703B44FF010004FF01001BAF1000F81
:1011200006D0BCF1000FDCBF40F0080040F0080121
:101130004FF000000FBCBDE810400BF1010BBBF1FC
:10114000010F08BF5FEA170722BF12F1010211F178
:1011500001014FF0004143F1000300F0004043EA79
:1011600000007047F9D35708D0E746EA064613F166
:10117000400F4FEA16461FDD13F1200FDFBF164365
:101180000A46002120335B42BED0C3F1200746EA65
:10119000064602FA07F74FEA164646EA0706C3F183
:1011A000200722FA03F201FA07F721FA03F14FF0C0
:1011B000000342EA0702A7E746EA020646EA0646B5
:1011C0004FEA164646EA0106BCBF46EA0646360C1A
:1011D0004FF000034FF000024FF0000194E72DE9BB
:1011E000804C9A46934670B491E8380007C831EABB
:1011F000400C48BF34EA430C03D5FFF7E6FDFFF788
:1012000080FFF0BCBDE8008C2DE9804C9A469346E7
:1012100070B491E8380007C810F0804F08BF13F091
:10122000804F03D100F005F8FFF76BFFF0BCBDE87D
:10123000008C20F07F4780EA030023F07F4C07EB0F
:101240000C03A3F57C5300F00040A3F1FE0392F0E1
:10125000000F00F0B38095F0000F00F077802DE9CB
:1012600001494FEA11404FEA144621EA004800FBC9
:1012700006FC24EA064708FB06F607FB08F800FB15
:1012800007F718EB06484CEB164C4FEA124B18EBDD
:1012900007484FEA15464CEB174022EA0B4E0BFB72
:1012A00006FC25EA06470EFB06F607FB0EFE0BFBC7
:1012B00007F71EEB064E4CEB164C4FF000061EEBEC
:1012C000074E4CEB174B18EB0B0840F1000018EBE6
:1012D0000E0B58EB000840F100008F1A4FF0000190
:1012E0003CBFC943661B14BFB5EB040C00213CBFD7
:1012F000C943F61B4FEA17444EEA8E0E27EA04450F
:101300004FEA1C4704FB07622CEA074C05FB07F772
:101310000CFB05F604FB0CFC16EB074642EB1742F0
:1013200016EB0C4642EB1C421BEB060658EB020286
:10133000414146EA9E0601D5BDE80189B6195241F0
:1013400041EB0101A3F10103BDE801894FEA144516
:101350004FEA114724EA054621EA074C05FB07F44A
:1013600006FB07F70CFB06F105FB0CFC11EB074134
:1013700044EB17444FEA124711EB0C4144EB1C4479
:1013800022EA074C05FB07F206FB07F70CFB06F603
:1013900005FB0CFC16EB074642EB174216EB0C461E
:1013A00042EB1C456A1854F1000148BF7047B6195A
:1013B000524141EB0101A3F10103704795F0000F89
:1013C00037D04FEA11424FEA144721EA024624EA95
:1013D000074C02FB07F106FB07F70CFB06F402FBC8
:1013E0000CFC14EB074441EB17414FEA154714EB93
:1013F0000C4441EB1C4125EA074C02FB07F506FBB8
:1014000007F70CFB06F602FB0CFC16EB074645EB58
:10141000174516EB0C4645EB1C42121951F1000121
:1014200048BF7047B619524141EB0101A3F10103D6
:1014300070474FEA14454FEA114724EA054621EA6E
:10144000074C05FB07F106FB07F70CFB06F24FF014
:10145000000605FB0CFC12EB074241EB174112EBB7
:101460000C4251EB1C4148BF7047921841EB0101FF
:10147000A3F101037047000010B504464B484168D2
:1014800021F4403141604168626811434160206845
:10149000416821F48071416020684168226941EA15
:1014A000022141602068416821F04071416020685C
:1014B0004168A268114341602068816821F400619D
:1014C000816020688168E26811438160A06A6FF0E2
:1014D0007061C8422068816821F070618160206875
:1014E00081680CD0A26A114381602068816821F074
:1014F0004051816020688168E26A114301E021F077
:10150000405181602068816821F00201816020687B
:101510008168227E41EA4201816094F8200000281F
:101520003FD0606A401E072804D94FF4F56120A01F
:1015300007F07DFA2068416841F40061416020684D
:10154000416821F46041416020684168264B626A2D
:1015500003EB4232114341602068C16A21F47001FB
:10156000C1622068C16AA28B204B03EB0252114377
:10157000C1622068816821F40071816020688168FF
:1015800094F8302041EA422181602068816821F48A
:101590008061816020688168626941EA822181609E
:1015A00010BD2068416821F40061D4E700230140A8
:1015B0002E2E2F447269766572732F53544D333239
:1015C000463478785F48414C5F4472697665722F83
:1015D0005372632F73746D3332663478785F686149
:1015E0006C5F6164632E630000E0FFFF0000F0FFAA
:1015F00003490968096B002900D0084770470000BB
:101600006400002070B50E4C01250026A0688047BC
:10161000D32803D0A0688047D4280ED1094D41F2C9
:101620003F002C60216888472868816A30468847D7
:101630002868C16A102088470025284670BD000030
:10164000A00000206400002003480068C068002853
:1016500000D0004770470000640000207CB50546BC
:1016600000F040F9044600F037F902460020CDE9C9
:1016700000050748074B006800EB800101EBC00143
:1016800003EB81012346C96D00F068FF7CBD0000BB
:10169000480000209C0400200A4B30B41B6803EB78
:1016A0004304094B03EB84039B68DD881C689B881B
:1016B000DB1DDB08203A13FB02F205FB024230BCC3
:1016C00000F02ABC48000020B40500200348406810
:1016D0008068002800D000477047000048000020C4
:1016E0002DE9F0470446002799468A461546B84634
:1016F000104601E008F1010810F8011B0029F9D19A
:1017000000F0EAF8254A264E4B461168B9F1010F60
:1017100001EB410106EB810189688988B0FBF1F09A
:1017200002D0022B0BD105E0A0EB0800484304EBEC
:10173000500003E0A0EB080000FB014084B290469B
:1017400000F0CAF80146D8F8000000EB400006EBB4
:1017500080008068808807FB1011814213D301202C
:1017600012E051462046FFF797FFD8F800007F1C93
:1017700000EB400006EB8000BFB280686D1C8088E3
:10178000204484B2DCE700202A780AB1012100E07D
:1017900000210842E5D1BDE8F087000048000020A4
:1017A000B405002010B50A46034600F087F8C0884B
:1017B000BDE81040584381B203230020FFF790BFDB
:1017C0002DE9FE4F0027141A002C00DC841A0FFAB2
:1017D00084F85C1A002C00DCCC1A0FFA84FC06B2E8
:1017E0000DB24FF0FF34824203D3012082460190B4
:1017F00001E0A24601948B4203D301208146009070
:1018000001E0A1460094E0454FF0000008DB81466E
:10181000019008EBD870C3464410CDF808C02BE007
:10182000824600200090E3460CEBDC70CDF8088087
:101830004410D84620E012481249006800EB4000EE
:1018400051F82020A9B2B0B200F01EF8029820444E
:1018500004B25C4508DBA4EB0B0004B201983044F1
:1018600006B20098284405B206EB0A0006B205EB62
:1018700009007F1C05B23FB24745DCDDBDE8FE8FA5
:1018800048000020B405002070B514460D460646F9
:1018900000F022F8074905FB0060096801EB8102AE
:1018A00002EBC101044A02EB8101C96D41F82040FD
:1018B00070BD0000480000209C0400200448054939
:1018C000006800EB400001EB80008068704700007A
:1018D00048000020B405002001484068806A0047A5
:1018E0004800002001484068C06A004748000020C6
:1018F00070B5214C1F48002520600920606101203F
:10190000A0611D20E0610320206240F20D106062A2
:1019100040F24310A06240F21710E06240F247101C
:10192000206384F8365084F8345004F1E80084F8D9
:10193000355008210160C021016104218161C90382
:10194000416203F075F86560A560E560256100F00F
:1019500059F8204602F07EFD0949084848600068B1
:10196000804700F013F90648083000F0F5F8002031
:1019700070BD0000006801409C0400206800002049
:101980004800002070B58EB000240E460546009435
:10199000FFF7A2FFCDE90104FFF7A4FF0996CDE907
:1019A0000304FF20CDE905048DF830408DF8314067
:1019B0008DF832404FF4C060079007200890FFF781
:1019C0008BFF0A90FFF78EFF0B902A4669460A4864
:1019D00002F002FC094905EB450001EB8002631EA1
:1019E0005360074B93604FF07F4241F8202002483C
:1019F00002F0B2FC0EB070BD9C040020B4050020C3
:101A00005000002030B5434887B00021026842F002
:101A100080620260006800F0806005903D481438E4
:101A2000026842F400020260026802F400020592B9
:101A3000026842F001020260026802F001020592AF
:101A4000026842F002020260026802F0020205929D
:101A5000026842F004020260026802F00402059289
:101A6000026842F008020260026802F00802059271
:101A7000026842F020020260026802F02002059231
:101A8000026842F040020260006800F040000590E9
:101A900041F6580000900220CDE9010103900E208C
:101AA000049069461C4801F015FF4FF470601B4C10
:101AB00000906946204601F00DFF4FF498600090B9
:101AC0006946174801F006FF48200090694615480E
:101AD00001F000FF201500906946134801F0FAFE5E
:101AE0004FF40C60114D00906946284601F0F2FE5B
:101AF00003200090092004906946204601F0EAFE88
:101B00004FF4A05000906946284601F0E3FE07B06C
:101B100030BD000044380240000002400004024092
:101B200000080240000C024000140240001802406D
:101B30000149086070470000480000200449054A38
:101B4000096801EB410102EB810148607047000028
:101B500048000020B40500200449054A096801EB4B
:101B6000410102EB810188607047000048000020BD
:101B7000B40500200349044A096801EB410142F819
:101B80002100704748000020B405002070B51B48B4
:101B900019490423016000F13401022207248B60FB
:101BA000C1E90024C1E903424A618A611021C0E908
:101BB00003314021416101260024C0E901644FF452
:101BC000C071C0E906149102C0E90814890081625D
:101BD000214600F05BF809490848343103F086FDDE
:101BE000074D08B12E7000E02C7040F26A5000F0F2
:101BF00009F8287870BD0000400100A08C06002084
:101C0000600000202DE9F84F1F4C00250126082711
:101C10000095C4E90067C4E9026582464FF6FF7982
:101C200021464A46A1F1500003F09AFD012001F03F
:101C3000C5FC0220C4E90007C4E9026521464A4602
:101C4000A1F1500003F08CFD03204FF00408E56083
:101C500084E8810121464A46A1F1500003F080FD4D
:101C60004FF40C700090C4E90260C4E9008721467B
:101C70004A46A1F1500003F073FD5146A4F1500013
:101C8000BDE8F84F03F055BDDC06002030B587B045
:101C900005007DD04D480024016841F0010101603C
:101CA00000684A4900F0010008390590086840F4CE
:101CB00080000860086800F480000590086840F023
:101CC00002000860086800F002000590086840F013
:101CD00004000860086800F004000590086840F0FF
:101CE00008000860086800F008000590086840F0E7
:101CF00010000860086800F010000590086840F0C7
:101D000020000860086800F020000590086840F096
:101D1000400008600868694600F040000590022015
:101D2000CDE9024001900C200490602000902848EA
:101D300001F0D0FD012000906946264801F0CAFD5F
:101D40004CF2037000906946234801F0C3FD4FF642
:101D5000837000906946214801F0BCFD4FF63F00BA
:101D6000009069461E4801F0B5FD48F2331000901E
:101D700069461C4801F0AEFD1B498020C1E90140C5
:101D80008000C8604000086180004861800000E079
:101D90001AE0C1E90604C000C1E908040320C1E952
:101DA0000A0412480C630860296308468D6301F039
:101DB000FFF90D4801F092FA00220F21382002F0BD
:101DC0006FFD382002F03AFD07B030BD38380240D0
:101DD0000004024000080240000C024000100240D3
:101DE0000014024000180240CC050020106402409C
:101DF000FEE70000014800F07DBF00005001002018
:101E0000F0B50468059E656C46EA034305F040455D
:101E10001D4365640368DA634268B2F5403F02D04F
:101E20000068C160F0BD01F47F4201F47F0C866858
:101E300001F07F4301F47F0701F47F45CCB242EA11
:101E40000C02BEB1012E16D001F47F02D20CC1F3F8
:101E5000C401022E11D0032E14D0190F3A0D2D0BF0
:101E600023092C0144EA022242EA01321A430068A3
:101E70008263F0BD1A432243F9E7AB0A5B0143EAF0
:101E8000C22206E0DB0FEC0A640144EA822242EA45
:101E9000C3320A43EBE7000001681823CAB2103AC4
:101EA000B2FBF3F2054B6FF30901032A9B5CC36598
:101EB00000D9091D81650846704700005E99000839
:101EC00010B5014600208B698A6A4FF0C07453B187
:101ED000B3F5005F15D072B1012A0CD0022A0AD0E6
:101EE000032A09D104E01AB1012A06D0022A03D13B
:101EF000C96AC90100D5012010BDC96AA142FAD042
:101F000010BD002AF7D0012AF2D0022AF3D0032A0A
:101F1000F3D010BD704700002DE9F74F63488846A5
:101F200082B00068002500EB4001614800EB8100B1
:101F300080688488C688E01D009020F00700001BA0
:101F400000F0FF0BABE00098C1080498082901FBE2
:101F5000050063D2DFE801F06204070C1620334964
:101F6000017800200BE0008840BAC117814624E0C8
:101F700001784278090441EA0221807809E0894623
:101F8000824630E00188827849BA0904C07841EA83
:101F900002210143C817F2E74278017883781206DC
:101FA00041EAE2711B041A4341EAE371C378007904
:101FB0001B021A4341EAE3712DE08A4613E00188CF
:101FC00083784ABA1B06194642EAE372C3781B04B7
:101FD000194342EAE372037940791B02194342EA4A
:101FE000E37A41EA0009002752E0017842780904C7
:101FF00041EA0221827803791143C2781B04120658
:1020000041EAE2711A4341EAE371437980791B02A4
:102010001A4341EAE37142EA0009CEE70188827877
:1020200049BA090441EA0221C2784379114302798D
:102030001B04120641EAE2711A4341EAE371837913
:10204000C0791B021A4341EAE371E4E7E11B5944FA
:102050000120491E8840C11700EA090001EA0A016F
:1020600008431248006800EB4001114802D050F8C4
:10207000212002E000EB81004268C8F59F7081B228
:1020800002983844C0F1EE0080B2FFF7FDFB7F1CE0
:10209000A742DBD308F101001FFA80F86D1CB5429E
:1020A000FFF451AF05B0BDE8F08F000048000020FC
:1020B000B405002072B6FEE770B5054657480C46D9
:1020C000854204D04FF4946155A006F0B0FC20681E
:1020D00030B1012804D040F2A14151A006F0A7FC84
:1020E000606850B1012808D0022806D0032804D027
:1020F00040F2A2414AA006F09AFCA06840B1042830
:1021000006D0082804D040F2A34145A006F08FFC79
:10211000E06840B1102806D0202804D040F2A44145
:102120003FA006F084FC206930B1402804D040F282
:10213000A5413BA006F07BFC606980280AD0B0F581
:10214000807F07D0B0F5C07F04D040F2A64134A014
:1021500006F06DFCA06938B1B0F5007F04D040F204
:10216000A7412FA006F063FCE06950B1B0F5006F05
:1021700007D0B0F5406F04D04FF4956128A006F069
:1021800056FC206A38B1B0F5805F04D040F2A94116
:1021900023A006F04CFC606A50B1B0F5005F07D098
:1021A000B0F5804F04D040F2AA411DA006F03FFCDC
:1021B0002068D8B1D4E907010843616A2A6822F48B
:1021C000F842114308432860D4E901010843D4E9E7
:1021D00003121143084361690843A1690843696810
:1021E0006FF30E0108436860002070BDD4E901015F
:1021F0000843D4E903121143084361690843A16904
:102200000843E1690843216A0843616A0843296871
:102210006FF30E0108432860E6E70000400100A0CC
:102220002E2E2F447269766572732F53544D3332BC
:10223000463478785F48414C5F4472697665722F06
:102240005372632F73746D3332663478785F6C6CBD
:102250005F666D632E63000070B504460C480D4642
:10226000844204D04FF4B1610AA006F0E0FBB5F55A
:10227000005F04D340F2895106A006F0D8FB6069E4
:1022800043F6FE71884340EA45006061002070BD5E
:10229000400100A02E2E2F447269766572732F5371
:1022A000544D3332463478785F48414C5F4472690C
:1022B0007665722F5372632F73746D333266347880
:1022C000785F6C6C5F666D632E63000070B50546C9
:1022D0002F4816460C46854204D040F262512DA08C
:1022E00006F0A5FB216881B101290ED002290CD08E
:1022F00003290AD0042908D0052906D0062904D0CC
:1023000040F2635123A006F092FB6068102808D0C9
:10231000082806D0182804D040F264511DA006F009
:1023200086FBA068401E0E2804D940F2655119A012
:1023300006F07DFBE068B0F5005F04D340F2665123
:1023400014A006F074FBD4E900010843A1686FF003
:102350001F0202EB4111E26841EA42210843296968
:102360006FF315010843286101F07EFC044609E083
:10237000701C07D026B101F077FC001BB04201D9D8
:10238000032070BDA8698006F2D4002070BD000053
:10239000400100A02E2E2F447269766572732F5370
:1023A000544D3332463478785F48414C5F4472690B
:1023B0007665722F5372632F73746D33326634787F
:1023C000785F6C6C5F666D632E6300002DE9F05FD3
:1023D0000546514817460C46854204D040F2DF417D
:1023E0004EA006F024FB2068401E0F2804D94FF4AD
:1023F0009C614AA006F01BFB6068401E0F2804D9B0
:1024000040F2E14145A006F012FBA068401E0F28F3
:1024100004D940F2E24141A006F009FBE068401E09
:102420000F2804D940F2E3413CA006F000FB2069EC
:10243000401E0F2804D940F2E44138A006F0F7FA14
:102440006069401E0F2804D940F2E54133A006F030
:10245000EEFAA069401E0F2804D940F2E6412FA0F1
:1024600006F0E5FA6FF00F066FF0FF084FEA063A44
:102470004FEA06494FF07F4B6FB3012F04D040F273
:10248000E74126A006F0D3FAE068A28A000309EB30
:102490000251A0F580500843A9682E4A1140084314
:1024A000A860D4E9000106EB0111401EA2680843B0
:1024B00008EB0221228A08430AEB0241227E0843EC
:1024C0000BEB02610843E96801F070410843E860E2
:1024D0000020BDE8F09FD4E9000106EB0111401E89
:1024E000A268084308EB022108431B4AE16802EB9B
:1024F0000131228A08430AEB0241A28A084309EB10
:102500000251227E08430BEB02610843A96801F0E7
:1025100070410843A860DBE7400100A02E2E2F4445
:102520007269766572732F53544D3332463478781E
:102530005F48414C5F4472697665722F5372632F16
:1025400073746D3332663478785F6C6C5F666D637C
:102550002E630000FF0F0FFF00F0FFFF2DE9F8438F
:102560000E460746DDE90818124815464FF440327A
:1025700042600022C0E902210F491C46016000F0C0
:1025800049FC002814D139460A4800F005FB002810
:102590000ED12B46324641460648009400F05CFDC1
:1025A000002805D1BDE8F8430A21024800F0CCBC60
:1025B000BDE8F8834405002000B00240F0B5184C97
:1025C00087B00025206840F00400206020680226C3
:1025D00000F00400009605900120CDE90105114F9F
:1025E00003906946384601F075F901220221384608
:1025F00001F004FB206840F0010020602068CDE974
:10260000025600F0010005900620CDE9000569465C
:10261000054801F05FF905F077FA07B0F0BD00005A
:102620003038024000080240000002402DE9F0412D
:1026300014460546012A02D941F0C00601E041F0E6
:1026400080060D4F00220221384601F0D7FA3046AD
:1026500005F0BAFA06E0002005F0B6FA641E05F8A7
:10266000010BA4B2002CF6D13846BDE8F04101229E
:10267000022101F0C3BA0000000802402DE9F04138
:10268000144605460E46012A01D941F040060C4F7A
:1026900000220221384601F0B1FA304605F094FAE2
:1026A00005E0287805F090FA641EA4B26D1C002C99
:1026B000F7D13846BDE8F0410122022101F09EBA6F
:1026C00000080240F8B50027054600970868664EE6
:1026D0000C46122806D9B04204D040F28B6163A0A8
:1026E00006F0A5F96068401E0F2804D940F28C61FD
:1026F0005EA006F09CF9A06890B1012810D00228D5
:102700000ED003280CD004280AD0052808D00628AB
:1027100006D0072804D040F28D6154A006F087F956
:1027200095F83C00012819D0012085F83C0020686C
:1027300007212A68092813D9D3680A3800EB40001A
:1027400081408B43D3602178A0680A3901EB4101B5
:1027500088402968CA681043C86010E00220F8BDAC
:10276000136900EB400081408B4313612078A1681E
:1027700000EB4000814028680269114301616068F4
:102780001F21072813D22A68536B401E00EB8000DC
:1027900081408B43536321792088491E80B201EB2D
:1027A0008101884029684A6B1043486327E02A6802
:1027B0000D2812D2136BC01F00EB800081408B43A9
:1027C000136321792088C91F80B201EB8101884001
:1027D00029680A6B1043086311E0D36A0D3800EBD7
:1027E000800081408B43D362217920880D3980B2EB
:1027F00001EB810188402968CA6A1043C8622A49EE
:102800002A6828488A420AD12268122A07D14268D7
:1028100022F400024260426842F4800242602A6868
:102820008A421CD12168B14201D0112917D14168D7
:1028300021F480014160416841F400014160206859
:10284000B0420CD119481A490068B0FBF1F000EB16
:102850008000400000E0401E00900028FBD185F879
:102860003C700020F8BD0000120000102E2E2F44F6
:102870007269766572732F53544D333246347878CB
:102880005F48414C5F4472697665722F5372632FC3
:1028900073746D3332663478785F68616C5F61643D
:1028A000632E630000230140002001402C00002023
:1028B00040420F002DE9F04704004FF000057DD0A5
:1028C0007249206888420AD07149884207D071490C
:1028D000884204D04FF4A1716FA006F0A8F8606898
:1028E00068B1B0F5803F0AD0B0F5003F07D0B0F531
:1028F000403F04D040F2431167A006F098F8A0686A
:102900004FF080774FF000784FF0407950B1B842E7
:1029100008D0404506D0484504D04FF4A2715EA0CF
:1029200006F085F8206930B1012804D040F2451145
:1029300059A006F07CF8207E30B1012804D04FF475
:10294000A37155A006F073F8614EA06A80B3B84237
:102950002ED040452CD048452AD0B0F1806F27D0EA
:10296000B0F1A06F24D0B0F1C06F21D0B0F1E06F12
:102970001ED0B0F1006F1BD0B0F1106F18D0B0F1C5
:10298000206F15D0B0F1306F12D0B0F1406F0FD082
:10299000B0F1506F0CD0B0F1606F09D0B0F1706F32
:1029A00006D0B04204D040F247113BA006F03FF8F9
:1029B000E06848B1B0F5006F06D000E043E04FF4A6
:1029C000A47135A006F033F8E069401E0F2804D941
:1029D00040F2491130A006F02AF894F8300030B1E6
:1029E000012804D04FF4A5712BA006F020F86069EF
:1029F000012807D030B1022804D040F24B1126A0A4
:102A000006F015F894F8200030B1012804D04FF4F6
:102A1000A67121A006F00BF8A06AB0420FD0E06AC0
:102A200068B1B0F1805F0AD0B0F1005F07D0B0F1BB
:102A3000405F04D04FF4A87117A005F0F8FF206C98
:102A4000002618B108E00120BDE8F087204600F01C
:102A500041F8666484F83C60206CC00610D4206C99
:102A600020F4885040F0020020642046FEF704FD68
:102A70006664206C20F0020040F00100206400E059
:102A8000012584F83C602846DEE700000020014074
:102A900000210140002201402E2E2F4472697665EC
:102AA00072732F53544D3332463478785F48414C1B
:102AB0005F4472697665722F5372632F73746D333E
:102AC00032663478785F68616C5F6164632E63009E
:102AD0000100000F08B500680649884208D1064881
:102AE000016841F480710160006800F4807000901A
:102AF00008BD0000002001404438024010B5040029
:102B00000AD00B492068884203D0682109A005F04B
:102B10008EFF607910B106E0012010BD0020207109
:102B2000204600F023F801206071002010BD000055
:102B3000003002402E2E2F447269766572732F5337
:102B4000544D3332463478785F48414C5F44726963
:102B50007665722F5372632F73746D3332663478D7
:102B6000785F68616C5F6372632E630008B500680C
:102B70000649884208D10648016841F48051016045
:102B8000006800F48050009008BD00000030024052
:102B9000303802407047000070B50E00054606D080
:102BA000012E04D04FF4D96142A005F040FF05EB9F
:102BB0000614A069B0F5804F04D340F2C9613DA06E
:102BC00005F035FF6868B0F5403F27D0E069C0B137
:102BD000012816D0022814D0032812D0042810D0BF
:102BE00005280ED006280CD007280AD0082808D0BF
:102BF000092806D00A2804D040F2CC612DA005F0A7
:102C000016FF686850B1206A40B1012806D002283A
:102C100004D040F2CF6127A005F009FF95F83800F5
:102C2000012822D0012385F83830022085F83900A8
:102C3000218CE069183440EA01422D490A2816D057
:102C4000092814D0207B42EA0060002E2E6813D0A1
:102C5000F2698A430243F26129682068086160686A
:102C60000A281BD0092819D01DE0022070BDE06899
:102C700000F07F401043E8E7726A8A4302437262C1
:102C800029682068886160680A2801D009280AD16B
:102C9000E068296820F07F40886204E0E0682968E5
:102CA00020F07F40086285F83930002085F8380030
:102CB00070BD00002E2E2F447269766572732F53FB
:102CC000544D3332463478785F48414C5F447269E2
:102CD0007665722F5372632F73746D333266347856
:102CE000785F68616C5F646D6132642E6300000020
:102CF0000F0003FF2DE9F0470446006846680568A9
:102D0000F1074FF004084FF000074FF0010914D00D
:102D1000E90512D5016821F480710160E06B40F093
:102D20000100E0632168C1F8089084F8398084F8D4
:102D30003870616909B120468847B00615D5A804E6
:102D400013D52068016821F400510160216820201A
:102D50008860E06B40F00200E06384F8398084F81A
:102D60003870616909B120468847300715D52805B4
:102D700013D52068016821F40061016021680820F2
:102D80008860E06B40F00400E06384F8398084F8E8
:102D90003870616909B12046884770070CD568050D
:102DA0000AD52068016821F4806101602168C1F8BA
:102DB0000880204600F0A8F8B00713D5A80511D563
:102DC0002068016821F40071016021680220886098
:102DD000E06BE06384F8399084F83870216909B1B8
:102DE00020468847F00612D5E80410D5206801680F
:102DF00021F480510160216810208860E06BE0635D
:102E000084F8399084F838702046FFF7C3FEBDE897
:102E1000F087000070B5040031D02B49206888424B
:102E200003D0F72129A005F002FE606860B1B0F57B
:102E3000803F09D0B0F5003F06D0B0F5403F03D049
:102E4000F82122A005F0F3FDA06858B1012809D0AF
:102E5000022807D0032805D0042803D0F9211BA09D
:102E600005F0E5FDE068B0F5804F03D3FA2117A027
:102E700005F0DDFD94F83900002510B106E00120D1
:102E800070BD84F83850204600F040F8022084F8E5
:102E9000390020680168626821F440311143016003
:102EA0002068416BA26821F007011143416320684B
:102EB000016CE2686FF30D0111430164E5630120C9
:102EC00084F83900002070BD00B002402E2E2F443F
:102ED0007269766572732F53544D33324634787865
:102EE0005F48414C5F4472697665722F5372632F5D
:102EF00073746D3332663478785F68616C5F646DCB
:102F00006132642E630000007047000008B500685D
:102F10000B49884212D10B48016841F4000101605D
:102F20000068002200F40000009005215A2001F002
:102F3000B7FCBDE808405A2001F080BC08BD000085
:102F400000B00240303802402DE9F8430026044624
:102F5000009600680D4600684FF00407C0074FF068
:102F6000030825D000F080FE81461DE040680090F7
:102F700010F0210F0FD00098800603D5E06B40F0D1
:102F80000200E0630098C00703D0E06B40F001004E
:102F9000E063212034E0681C06D000F065FEA0EB61
:102FA0000900A8424DD8A5B3206841688907DDD53E
:102FB0002068C169406A01F0200100F02000084348
:102FC00035D000F051FE81462DE04068009010F0B1
:102FD000290F1FD00098000703D5E06B40F00400D4
:102FE000E0630098800603D5E06B40F00200E063E8
:102FF0000098C00703D0E06B40F00100E063292097
:103000002168886084F8397084F838600120BDE850
:10301000F88316E0681C06D000F026FEA0EB09003D
:10302000A8420ED86DB120684168C906CDD5216887
:1030300012208860012084F8390084F8386000206C
:10304000E5E754F83C0F40F0200044F8040984F808
:10305000018026700320DAE72DE9F8431E46089D1B
:10306000174688460446B5F5803F04D34FF42871CF
:1030700012A005F0DCFCB6F5804F04D340F2A1218C
:103080000EA005F0D4FC94F83800012814D00120DB
:1030900084F83800022084F8390033463A46414625
:1030A00020460095FEF7ACFE2068016841F0010162
:1030B00001600020BDE8F8830220FBE72E2E2F449C
:1030C0007269766572732F53544D33324634787873
:1030D0005F48414C5F4472697665722F5372632F6B
:1030E00073746D3332663478785F68616C5F646DD9
:1030F0006132642E630000002DE9F0410446876DC3
:1031000000F0B2FD064694F835000025022806D0EE
:103110008020606584F834500120BDE8F08120688B
:10312000016821F0160101602068416921F08001E9
:103130004161206C08B9A06C20B12068016821F0C1
:10314000080101602068016821F0010101600CE0C4
:1031500000F08AFD801B052807D920206065032028
:1031600084F8350084F83450D7E720680068C00739
:10317000EED194F85C103F208840B860012084F8BC
:10318000350084F834500020C7E790F83510022944
:1031900003D08021416501207047052180F835105A
:1031A0000068016821F00101016000207047000003
:1031B00070B5040070D094F8350002286AD0374901
:1031C000206888423FD03549183188423BD0334986
:1031D0003031884237D031494831884233D02F4985
:1031E000603188422FD02D49783188422BD02B492D
:1031F0009031884227D02949A831884223D02849D4
:10320000884220D02649183188421CD024493031C8
:10321000884218D022494831884214D02049603170
:10322000884210D01E49783188420CD01C49903118
:10323000884208D01A49A831884204D040F2471188
:1032400018A005F0F4FB2068016821F0010101607D
:10325000206800250560206845602068856020683A
:10326000C560206805612168212048612046FEF77D
:1032700013FEE56325646564A564E564256594F83B
:103280005C203F2191408160656584F8355084F869
:103290003450002070BDFFE70120FBE710600240C2
:1032A000106402402E2E2F447269766572732F537C
:1032B000544D3332463478785F48414C5F447269EC
:1032C0007665722F5372632F73746D333266347860
:1032D000785F68616C5F646D612E63002DE9F04179
:1032E000044600F0C1FC0546002C7CD0A2492068B1
:1032F00088423ED0A049183188423AD09E493031A8
:10330000884236D09C494831884232D09A4960314F
:1033100088422ED09849783188422AD096499031F7
:10332000884226D09449A831884222D093498842C5
:103330001FD09249183188421BD0904930318842C1
:1033400017D08E494831884213D08C496031884269
:103350000FD08A49783188420BD088499031884211
:1033600007D08649A831884203D0B72184A005F050
:103370005EFB6068C0B1B0F1007F15D0B0F1806F26
:1033800012D0B0F1C06F0FD0B0F1006F0CD0B0F11F
:10339000206F09D0B0F1406F06D0B0F1606F03D05C
:1033A000B82177A005F043FBA06838B1402805D0CC
:1033B000802803D0B92172A005F039FBE068B0F590
:1033C000007F04D018B1BA216DA005F030FB206950
:1033D000B0F5806F04D018B1BB2169A005F027FBC0
:1033E000606958B100E071E0B0F5006F06D0B0F54B
:1033F000805F03D0BC2162A005F019FBA06948B131
:10340000B0F5005F06D0B0F5804F03D0BD215CA0C1
:1034100005F00DFBE06940B1B0F5807F05D02028B4
:1034200003D0BE2156A005F002FB206A60B1B0F5C2
:10343000803F09D0B0F5003F06D0B0F5403F03D043
:10344000BF214FA005F0F3FA606A002832D00428AB
:1034500006D0C0214AA005F0EAFA606A002829D007
:10346000A06A48B1012807D0022805D0032803D05C
:10347000C52143A005F0DBFAE06A60B1B0F5000FAA
:1034800009D0B0F1807F06D0B0F1C07F03D0C62153
:103490003BA005F0CCFA206B60B1B0F5001F09D05D
:1034A000B0F5800F06D0B0F5C00F03D0C72134A00F
:1034B00005F0BDFA022084F83500002684F8346057
:1034C0002068016821F0010101600EE00120BDE8E3
:1034D000F08100BF00F0C8FB401B052805D9202063
:1034E0006065032084F83500F1E720680068C007B4
:1034F000F0D12268116830480140D4E90103184333
:10350000D4E903352B43184363691843A36918436F
:10351000E3691843236A18430843616A042903D105
:10352000D4E90B1319430843106020684069656AA9
:1035300020F0070029460543012704290CD1A06A81
:103540000543E06A40B12046FEF7BAFC20B14020B6
:10355000606584F83570B9E7206845612046FEF75C
:103560009BFC94F85C203F2191408160666584F863
:1035700035700020ABE7000010600240106402408C
:103580002E2E2F447269766572732F53544D333249
:10359000463478785F48414C5F4472697665722F93
:1035A0005372632F73746D3332663478785F686159
:1035B0006C5F646D612E63003F8010F070B504464F
:1035C00000F052FB0546601C02D004480078044419
:1035D00000F04AFB401BA042FAD370BD200000203F
:1035E0002DE9F04186B014216846FCF7A0FF2B4876
:1035F000016800294FD14FF00108C0F80080284829
:103600000024016841F0010101600068022500F01A
:10361000010005904FF63F00CDE9000502AA032600
:103620000C2782E8D00069461E4800F053F902AA30
:10363000694682E8D000CDE900851B4800F04AF9D0
:1036400048F23310CDE9000502AA694682E8D000AD
:10365000164800F03FF94FF68370CDE9000502AA45
:10366000694682E8D000124800F034F94CF2037049
:10367000CDE9000502AA694682E8D0000D4800F0B5
:1036800029F96020CDE9000502AA694682E8D00048
:10369000094800F01FF906B0BDE8F08118000020CD
:1036A000383802400014024000080240001802406E
:1036B00000100240000C0240000402402DE9F05FBF
:1036C000DFF8A091DFF8A0B10E460446484521D0AE
:1036D0005C451FD0654884421CD06548844219D09F
:1036E0006448844216D06448844213D063488442BC
:1036F00010D0634884420DD0624884420AD06248A8
:10370000844207D06148844204D04FF4977160A08E
:1037100005F08DF9002001234FF00F0A03FA00F1A4
:1037200006EA01058D427DD1684A20F0030717445F
:10373000D7F8088882074FEA127C0AFA0CFE0EEAD4
:1037400008024C4502D14FF000083EE05C4502D132
:103750004FF0010839E0DFF81481444502D14FF001
:10376000020832E0DFF80881444502D14FF0030837
:103770002BE0DFF80081444502D14FF0040824E03B
:10378000DFF8F480444502D14FF005081DE0DFF872
:10379000EC80444502D14FF0060816E0DFF8E080E7
:1037A000444502D14FF007080FE0DFF8D8804445C8
:1037B00002D14FF0080808E0DFF8CC80444502D180
:1037C0004FF0090801E04FF00A0808FA0CF890459C
:1037D00022D13F4AD2F800C02CEA050CC2F800C042
:1037E000121DD2F800C02CEA050CC2F800C0384AFD
:1037F0000C32D2F800C02CEA050CC2F800C0121F2F
:10380000D2F800C02CEA050CC2F800C0D7F808585E
:1038100025EA0E05C7F80858256847000322BA4074
:10382000954300E017E02560C50804EB8505D5F851
:1038300020C047074FEAD7680AFA08F72CEA070CB6
:10384000C5F820C0E5689543E56065688D4365600F
:10385000A1689143A160401C1028FFF45FAFBDE850
:10386000F09F0000000002400004024000080240F7
:10387000000C0240001002400014024000180240F8
:10388000001C0240002002400024024000280240A8
:103890002E2E2F447269766572732F53544D333236
:1038A000463478785F48414C5F4472697665722F80
:1038B0005372632F73746D3332663478785F686146
:1038C0006C5F6770696F2E6300000000003001407C
:1038D000003C01402DE9F84FDFF8ACB20D4604463C
:1038E000584521D0A94884421ED0A94884421BD003
:1038F000A848844218D0A848844215D0A7488442DA
:1039000012D0A74884420FD0A64884420CD0A648C3
:10391000844209D0A548844206D0A548844203D0F9
:10392000AC21A4A005F083F828680104090C01D09B
:10393000000C03D0AD219FA005F079F86868F8B1BC
:1039400001281DD011281BD0022819D0122817D009
:10395000B0F5881F14D0B0F5041F11D0B0F5441F86
:103960000ED0B0F5901F0BD0B0F5081F08D0B0F501
:10397000481F05D0032803D0AE218EA005F057F8CC
:1039800000264FF0010A4FF0030900BF0AFA06F0C3
:103990002F688046074047457ED1287900F0030014
:1039A000012801D002281DD1E86848B1012807D0BC
:1039B000022805D0032803D0C0217EA005F037F8E7
:1039C000A068720009FA02F18843E9689140014356
:1039D000A1606068297920EA0800C1F30011B140B4
:1039E000014361602879C043800712D0A86838B1CC
:1039F000012805D0022803D0D1216EA005F017F8C8
:103A0000E168720009FA02F08143A8689040084317
:103A1000E060287900F00300022830D1286908B35B
:103A200009281FD001281DD002281BD0032819D037
:103A3000042817D0052815D0062813D0072811D040
:103A400008280FD00A280DD00B280BD00C2809D03D
:103A50000D2807D00F2805D00E2803D0DE2155A051
:103A600004F0E5FFF00804EB8002106A7107CB0E4A
:103A70000F219940884329699940014311622068C8
:103A8000720009FA02F18843297901F0030191409B
:103A900001432160686800E06FE010F4403F6CD0A3
:103AA0005348016841F480410160006826F0030139
:103AB00000F4804000904F480A18D2F80808B10777
:103AC0000B0F0F21994088435C4501D100212DE067
:103AD0002E498C4201D1012128E02D498C4201D18F
:103AE000022123E02B498C4201D103211EE02A4907
:103AF0008C4201D1042119E028498C4201D10521D1
:103B000014E027498C4201D106210FE025498C425F
:103B100001D107210AE024498C4201D1082105E0A6
:103B200022498C4201D1092100E00A219940014338
:103B3000C2F80818304908686A68B843D20200D54C
:103B4000384308602C49091D08686A68B843920226
:103B500000D5384308602849091F08686A68B843D7
:103B6000920300D5384308602349083908686A6819
:103B7000B843D20300D538430860761C102EFFF4FA
:103B800005AFBDE8F88F00000000024000040240CD
:103B900000080240000C02400010024000140240E5
:103BA00000180240001C0240002002400024024095
:103BB000002802402E2E2F447269766572732F53AF
:103BC000544D3332463478785F48414C5F447269D3
:103BD0007665722F5372632F73746D333266347847
:103BE000785F68616C5F6770696F2E63000000002A
:103BF0004438024000300140083C014070B5154691
:103C00000C00064604D140F29D1108A004F00FFFFD
:103C100045B1012D04D04FF4CF7104A004F007FF8B
:103C2000B46170BD2004B06170BD00002E2E2F4421
:103C30007269766572732F53544D333246347878F7
:103C40005F48414C5F4472697665722F5372632FEF
:103C500073746D3332663478785F68616C5F677057
:103C6000696F2E6300000000014880687047000003
:103C70002000002070B50D46044600681A498842AD
:103C800009D01A49884206D01949884203D05B21DD
:103C900018A004F0CCFE2DB1102D03D05C2115A08E
:103CA00004F0C5FE94F83D00202801D0022070BD2C
:103CB000242084F83D002068016821F001010160A2
:103CC0002068416A21F0100141622068416A29435D
:103CD00041622068016841F001010160202084F800
:103CE0003D00002070BD000000540040005800401E
:103CF000005C00402E2E2F447269766572732F533C
:103D0000544D3332463478785F48414C5F44726991
:103D10007665722F5372632F73746D333266347805
:103D2000785F68616C5F6932635F65782E6300005D
:103D300070B50D46044600681849884209D01849F4
:103D4000884206D01749884203D0832116A004F088
:103D50006EFE0F2D03D9842113A004F068FE94F8A1
:103D60003D00202801D0022070BD242084F83D00B1
:103D70002068016821F0010101602168486A20F093
:103D80000F00284380B248622068016841F00101B9
:103D90000160202084F83D00002070BD00540040E8
:103DA00000580040005C00402E2E2F44726976655A
:103DB00072732F53544D3332463478785F48414CF8
:103DC0005F4472697665722F5372632F73746D331B
:103DD00032663478785F68616C5F6932635F6578FA
:103DE0002E63000070B504007DD08A4920688842A7
:103DF0000AD08949884207D08849884204D040F2D5
:103E0000C91187A004F013FE60689349401E8842E0
:103E100004D94FF4E57182A004F009FEA0684FF4C4
:103E2000804530B1A84204D040F2CB117CA004F010
:103E3000FEFDE068800A04D04FF4E67178A004F03B
:103E4000F6FD2069A84207D0B0F5404F04D040F2FB
:103E5000CD1173A004F0EBFD606930B1012804D0EE
:103E60004FF4E7716EA004F0E2FDA06930F0FE00AF
:103E700004D040F2CF116AA004F0D9FDE06930B15E
:103E8000402804D04FF4E87165A004F0D0FD206A0A
:103E900030B1802804D040F2D11161A004F0C7FDF8
:103EA00094F83D00002520B984F83C50204600F0ED
:103EB000DDF8242084F83D002068016821F001012C
:103EC00001602068016841F40041016020680168D8
:103ED00021F40041016001F065F9604A6168914296
:103EE00002D85F4901E002E05E49884201D2012028
:103EF00070BD5D492368B0FBF1F15E6826F03F06B6
:103F00000E435E606368934206D94FF4967359433B
:103F10004FF47A73B1FBF3F12368491C1E6A26F053
:103F20003F06314319626168914210D84900401E32
:103F3000B0FBF1F2521CC2F30B02042A01D204209E
:103F400022E0B0FBF1F0401CC0F30B001CE0A368C2
:103F5000F3B301EBC10202EB0116421EB2FBF6F213
:103F6000521C42F48042120549D093B301EBC102C6
:103F700002EB0111401EB0FBF1F0401CC0F30B003E
:103F800040F4804040F400402168CA694CF6FF7359
:103F90009A431043C861D4E90710014320680268BE
:103FA00022F0C00211430160D4E9030101432068FB
:103FB000826848F2FF339A4311438160D4E90501D6
:103FC00008432168CA6822F0FF021043C86001E07C
:103FD0000EE016E02068016841F0010101602564EF
:103FE000202084F83D00256384F83E50002070BDF9
:103FF00001EB4106421EB2FBF6F2521CB3E7012070
:10400000C2E701EB4101401EB0FBF1F0401CC0F3E0
:104010000B00B7E70054004000580040005C00402F
:104020002E2E2F447269766572732F53544D33329E
:10403000463478785F48414C5F4472697665722FE8
:104040005372632F73746D3332663478785F6861AE
:104050006C5F6932632E63007F1A0600A086010040
:1040600080841E0000093D0040420F00F0B587B07B
:10407000044614216846FCF75AFA1C492068884215
:1040800031D11B480024016841F00401016001683E
:1040900001F004010591016841F00101016000682F
:1040A000122500F0010005904FF4007001268DE804
:1040B00061000427CDE9034769460E48FFF70AFC73
:1040C00030028DE86100CDE9034769460A48FFF7F1
:1040D00001FC07481030016841F4000101600068EC
:1040E00000F40000059007B0F0BD0000005C004047
:1040F0003038024000080240000002400248816857
:104100000278114481607047200000200B4810B5F0
:10411000016841F400710160016841F4806101604F
:10412000016841F480710160032000F009FC0F2058
:1041300000F006F800F06AFB002010BD003C0240D1
:1041400030B505461F4887B00024016841F01001D2
:104150000160006806A900F01000009001A801F0BD
:1041600001F80498A8B101F01DF840001649174A5B
:10417000B0FBF1F11648491E026040F2E732C0E997
:104180000324C0E90114846102F030F8040003D074
:1041900015E001F007F8E9E70D4802F005F9040021
:1041A0000DD1362000F04AFB102D07D200222946FF
:1041B000362000F075FB0748056000E0012407B0D9
:1041C000204630BD4038024040420F000010004001
:1041D000A8030020240000202DE9F04116460C46DB
:1041E0000546022A04D340F242314CA004F01FFCE1
:1041F00020684FF48057B84204D340F2433147A0BF
:1042000004F015FC60684FF48038404504D34FF447
:10421000517142A004F00BFCA068B84204D340F2F4
:1042200045313EA004F003FCE068404504D340F271
:1042300046313AA004F0FBFB206990B1012810D070
:1042400002280ED003280CD004280AD0052808D054
:10425000062806D0072804D040F247312FA004F0EA
:10426000E6FB6069FF2804D94FF452712BA004F0DB
:10427000DEFBA069FF2804D940F2493127A004F0F1
:10428000D6FBE069B0F5806F07D0B0F5C06F04D001
:1042900040F24A3121A004F0CAFB206A052806D06A
:1042A000072804D040F24B311CA004F0C0FBA06AE8
:1042B000B0F5005F04D34FF4537118A004F0B7FBBE
:1042C000E06AB0F5006F04D340F24D3113A004F062
:1042D000AEFB95F8A00001281ED0012785F8A0703C
:1042E000022085F8A10006EB860000EBC60005EB76
:1042F0008000342221463830FCF7E7F83246214668
:10430000284602F0D9FF2868476285F8A17000208E
:1043100085F8A000BDE8F0810220FBE72E2E2F4497
:104320007269766572732F53544D33324634787800
:104330005F48414C5F4472697665722F5372632FF8
:1043400073746D3332663478785F68616C5F6C7457
:1043500064632E630000000090F8A01001290ED0C5
:10436000012100F8A01F02224270064A136843F49C
:1043700080331360417000210170084670470220AD
:10438000704700001868014070472DE9F04104466D
:104390000068856B466B69074FF004084FF0000713
:1043A00015D5710713D5416B21F0040141632168D4
:1043B000C1F83C80D4F8A41041F00101C4F8A41065
:1043C00084F8A18084F8A0702046FFF7DDFFA807DD
:1043D00016D5B00714D52068416B21F00201416366
:1043E00021680220C863D4F8A40040F00200C4F899
:1043F000A40084F8A18084F8A0702046FFF7C4FFD1
:1044000005EA0600C0074FF001080ED02068416B96
:1044100021F0010141632168C1F83C8084F8A1804A
:1044200084F8A070204600F017F9280710D530074F
:104430000ED52068416B21F00801416321680820F6
:10444000C86384F8A18084F8A070204600F0DCF9ED
:10445000BDE8F08170B504006CD06E4920688842D8
:1044600003D0E7216CA004F0E2FA60694FF48055B4
:10447000A84203D3E82168A004F0D9FAA0694FF458
:104480000066B04203D3E92163A004F0D0FAE069EA
:10449000A84203D3EA2160A004F0C9FA206AB0421E
:1044A00003D3EB215CA004F0C2FAA06AB04203D3AC
:1044B000EC2159A004F0BBFA606AA84203D3ED21B5
:1044C00055A004F0B4FA206BB04203D3EE2152A001
:1044D00004F0ADFAE06AA84203D3EF214EA004F045
:1044E000A6FA606830B1B0F1004F03D0F0214AA0C5
:1044F00004F09DFAA06830B1B0F1804F03D0F121F3
:1045000045A004F094FAE06830B1B0F1005F03D048
:10451000F22141A004F08BFA206930B1B0F1805F44
:1045200003D0F3213CA004F082FA94F8A100002506
:1045300010B106E0012070BD84F8A050204600F0C4
:104540008DF8022084F8A1002068816921F0704173
:104550008161D4E901010843D4E9031211430843FE
:1045600021688A691043886121688A683948024055
:104570008A60A18A0B0421688A68A66932431A43BB
:104580008A602168CA680240CA60A18B0B04216856
:10459000CA68266A32431A43CA6021680A6902401F
:1045A0000A61A18C0B0421680A69A66A32431A4386
:1045B0000A6121684A6902404A61A08D21680204AB
:1045C0004869236B18431043486194F8350021680B
:1045D000020294F83600CB6A03F07F43CB62216875
:1045E000CB6A94F8346042EA004033430343CB6221
:1045F0002068416B41F0060141632068816941F008
:1046000001018161C4F8A450012084F8A1000020B8
:1046100070BD0000006801402E2E2F44726976653F
:1046200072732F53544D3332463478785F48414C7F
:104630005F4472697665722F5372632F73746D33A2
:1046400032663478785F68616C5F6C7464632E6383
:104650000000000000F800F0704700002DE9F04174
:1046600092B0044614216846FBF761FF302105A88B
:10467000FBF75DFF5C49206888427DD108200590EA
:104680003C20099005200B904FF480300E9005A837
:1046900000F0CEF908B1FDF70DFD54480024016883
:1046A00041F080610160006800F0806011904F4827
:1046B0001438016841F020010160016801F0200117
:1046C0001191016841F001010160016801F00101EF
:1046D0001191016841F002010160016801F00201DD
:1046E0001191016841F040010160016801F0400151
:1046F0001191016841F004010160016801F00401B9
:104700001191016841F0080101600068022500F084
:10471000080011904FF480600090CDE901540E26FE
:10472000CDE9034669463248FFF7D4F841F6580010
:104730000090CDE90154CDE9034669462D48FFF7C5
:10474000C9F803200090CDE901540927DFF8A880BB
:10475000CDE9034769464046FFF7BCF84FF4706067
:104760000090CDE90154CDE9034669464046FFF784
:10477000B1F84FF40C6000E032E00090CDE9015454
:10478000DFF87880CDE9034669464046FFF7A2F896
:104790004FF498600090CDE90154CDE90346694695
:1047A0001748FFF797F848200090CDE90154CDE96C
:1047B000034669461348FFF78DF84FF4A050009068
:1047C000CDE90154CDE9034769464046FFF782F839
:1047D00000220521582000F063F8582000F02EF840
:1047E00012B0BDE8F081000000680140443802408A
:1047F0000014024000000240000402400018024081
:1048000000080240000C0240704700000A4808B54A
:10481000016841F480410160006800F4804000902C
:104820000548001F016841F080510160006800F0F8
:104830008050009008BD00004438024010B50400CC
:1048400003D5BC2107A004F0F2F8002C09DB04F02A
:104850001F01012088406109890001F1E021C1F8B0
:10486000000110BD2E2E2F447269766572732F538E
:10487000544D3332463478785F48414C5F44726916
:104880007665722F5372632F73746D33326634788A
:10489000785F68616C5F636F727465782E63000087
:1048A00070B515460C460646102A03D3A82114A05D
:1048B00004F0BDF8102C03D3A92111A004F0B7F81F
:1048C0001E480068C0F30223C3F107022046042AF1
:1048D00000D90422191D072901D2002300E0DB1EA4
:1048E000012404FA02F1491E014099409C40641ED3
:1048F0002C4021433046BDE8704003F008BC000066
:104900002E2E2F447269766572732F53544D3332B5
:10491000463478785F48414C5F4472697665722FFF
:104920005372632F73746D3332663478785F6861C5
:104930006C5F636F727465782E6300000CED00E0AD
:1049400010B5044607280BD0062C09D0052C07D03B
:10495000042C05D0032C03D0902108A004F067F8A4
:10496000154904F0070208684FF6FF03184040EAB3
:104970000220124A1043086010BD00002E2E2F4462
:104980007269766572732F53544D3332463478789A
:104990005F48414C5F4472697665722F5372632F92
:1049A00073746D3332663478785F68616C5F636FFF
:1049B000727465782E6300000CED00E00000FA05CB
:1049C0002DE9F8431748016841F080510160006803
:1049D000154F00F08050012600903E64FFF744F927
:1049E00005464FF47A78114C05E000BFFFF73CF91B
:1049F000401B40450DD86068C003F7D57E64FFF7C3
:104A000033F90546464607E0FFF72EF9401BB04252
:104A100002D90320BDE8F88360688003F4D5002044
:104A2000F8E700004038024000000E4200700040ED
:104A30002DE9F84F04460068401E7E2804D940F650
:104A40008901F2A003F0F3FF2068DFF8FCA3FF4E1A
:104A5000FF4DC1074FF4BF7B4FF001094FF0000835
:104A600003D1810701D440067ED5606832385845AD
:104A700004D940F69401E5A003F0D9FFCAF8688094
:104A8000FFF7F2F8074604E0FFF7EEF8C01B022834
:104A90007ED828680001F7D42078EE4FC0070ED0EA
:104AA000A068801E052804D940F6AA01D7A003F00B
:104AB000BEFF6068217A800140EA0170386020788A
:104AC000800723D5E068801E0D2804D940F6B70181
:104AD000CEA003F0ACFFE069401E1F2804D940F6C9
:104AE000B801CAA003F0A3FF38686168227B89017E
:104AF000C0F3027041EA026141EA00703860306838
:104B0000E16920F01F00491E08433060207840060C
:104B10001AD5E068801E0D2804D940F6C901BBA053
:104B200003F085FFA068801E052804D940F6CA015D
:104B3000B6A003F07CFF6068217B800140EA016041
:104B4000217A40EA01703860CAF86890FFF78CF863
:104B5000074606E008E000BFFFF786F8C01B022802
:104B600096D828680001F7D52068410701D40007CE
:104B700077D520693238584504D940F6E801A3A01A
:104B800003F055FFCAF87080FFF76EF8074606E09D
:104B9000EBE000BFFFF768F8C01B0228E0D82868E8
:104BA000C0438000F6D52078AB4F400726D560691A
:104BB000801E0D2804D940F6FD0194A003F037FFB4
:104BC000206A401E1F2804D940F6FE018FA003F082
:104BD0002EFF38682169227D8901C0F3027041EA05
:104BE000026141EA007038603068216A6FF0FF02AC
:104BF00020F4F85002EB01210843306020780007D0
:104C000029D5A069801E052804D940F60D117FA082
:104C100003F00DFF606A68B1B0F5803F0AD0B0F5CF
:104C2000003F07D0B0F5403F04D040F60E1177A00A
:104C300003F0FDFE38682169C0F30360890141EA91
:104C40000060217E40EA017038603068616A20F4BB
:104C5000403008433060CAF87090FFF705F8064608
:104C600005E008E0FFF700F8801B02287DD82868DF
:104C7000C0438000F6D42078800677D5A06AB0F5CE
:104C8000807F61D0B0F5007F5ED0744988425BD0F0
:104C90007349884258D07349884255D07249884236
:104CA00052D0724988424FD0714988424CD07149E4
:104CB000884249D07049884246D07049884243D0E2
:104CC0006F49884240D06F4988423DD06E49884242
:104CD0003AD06E49884237D06D49884234D06D4908
:104CE000884231D06C4988422ED06C4988422BD002
:104CF0006B49884228D06B49884225D06A4988424E
:104D000022D06A4988421FD0694988421CD069492B
:104D1000884219D06849884216D06849884213D021
:104D20006749884210D0674988420DD06649884259
:104D30000AD06649884207D06549884204D040F6C7
:104D40002D1132A003F073FE414846464030016801
:104D500041F08051016000685E4D00F0805000908D
:104D6000286840F48070286001E02EE044E0FEF7FF
:104D70007BFF074605E000BFFEF776FFC01B022859
:104D800023D82868C005F7D5324D143D286810F4A3
:104D9000407020D0218D01F4407181421BD02868E1
:104DA0004D4920F44070C1F800900E6028602868DA
:104DB000C00710D0FEF758FF064641F2883707E0DB
:104DC000FEF752FF801BB84202D90320BDE8F88FDE
:104DD00028688007F4D5A16A1D48C1F30122083074
:104DE000032A7ED0016821F4F81101602868218D22
:104DF000C1F30B01084328602078C00604D5374969
:104E000094F82C00C1F8E0010020DFE72E2E2F449B
:104E10007269766572732F53544D33324634787805
:104E20005F48414C5F4472697665722F5372632FFD
:104E300073746D3332663478785F68616C5F726367
:104E4000635F65782E630000000047428C380240A3
:104E500000380240843802408838024000030200D3
:104E60000003030000030400000305000003060024
:104E700000030700000308000003090000030A0004
:104E800000030B0000030C0000030D0000030E00E4
:104E900000030F00000310000003110000031200C4
:104EA00000031300000314000003150000031600A4
:104EB00000031700000318000003190000031A0084
:104EC00000031B0000031C0000031D0000031E0064
:104ED00000031F0000700040400E47420010474290
:104EE000FFE70268034B22F4F81219400A430260FC
:104EF0007CE70000FFFCFF0F2DE9F0470C460500A2
:104F00007ED02868401E0E2804D940F25A2182A083
:104F100003F08DFD14B3012C20D0022C1ED0032CE5
:104F20001CD0042C1AD0052C18D0062C16D0072C17
:104F300014D0082C12D0092C10D00A2C0ED00B2C17
:104F40000CD00C2C0AD00D2C08D00E2C06D00F2C17
:104F500004D040F25B2170A003F069FDDFF8F0811E
:104F6000D8F80000E7B200F00F00A04207D288F89E
:104F70000070D8F8000000F00F00A04240D128686F
:104F8000744E810729D5400703D5306840F4E050BE
:104F900030602878000703D5306840F46040306006
:104FA000A868A0B1802812D0902810D0A0280ED0D8
:104FB000B0280CD0C0280AD0D02808D0E02806D0CD
:104FC000F02804D040F27E2153A003F030FD306879
:104FD000A96820F0F000084330602878C00743D06B
:104FE000DFF870916868A9F1080998B1012822D00A
:104FF000022824D0032822D040F2852146A000E0D8
:105000003FE003F014FD6868012814D0022816D090
:10501000032814D0D9F800008007002831DA30685E
:10502000696820F0030008433060FEF71DFE8146EA
:1050300041F2883A11E0D9F800008003EDE7D9F891
:1050400000008001E9E700BFFEF70EFEA0EB0901BA
:10505000514502D90320BDE8F0873068696800F047
:105060000C00B0EB810FEFD1D8F80010404601F0F2
:105070000F01A14207D90770006800F00F00A0429D
:1050800001D00120E7E728784FF4805440074FF41F
:10509000A0574FF4C0584FF4E05914D5E86860B1F8
:1050A000A0420AD0B84208D0404506D0484504D0B6
:1050B00040F2C32118A003F0BAFC3068E96820F47C
:1050C000E050084330602878000715D5286960B1A2
:1050D000A0420AD0B84208D0404506D0484504D086
:1050E00040F2CA210CA003F0A2FC3068296920F428
:1050F000604040EAC100306000F074F83168164A40
:10510000C1F30311515CC840144908601448006899
:10511000FFF716F800209EE72E2E2F447269766561
:1051200072732F53544D3332463478785F48414C74
:105130005F4472697665722F5372632F73746D3397
:1051400032663478785F68616C5F7263632E6300E7
:10515000003C024008380240669900082C000020FC
:10516000240000200F2202600C4A136803F003039E
:105170004360136803F0F0038360136803F4E053A3
:10518000C36012684FF4E05303EAD202026104489C
:10519000006800F00F000860704700000838024007
:1051A000003C02400448054900680968044AC1F30C
:1051B0008221515CC84070472C0000200838024012
:1051C000769900080448054900680968044AC1F353
:1051D0004231515CC84070472C0000200838024022
:1051E00076990008154810B5006810F00C021448B4
:1051F00013D04110042A0FD0082A0ED10F4C241FBF
:105200002268236802F03F025B0207D52068C0F3E2
:105210008810A0FB010106E0084610BD2168C1F31B
:105220008811A1FB00010023FBF73CF82168C1F3C2
:105230000141491C4900B0FBF1F010BD08380240A3
:105240000024F4002DE9F84F04007DD020680F28D9
:1052500003D9E621F7A003F0EAFB2078DFF80C94ED
:10526000C007A9F1040555D060684FF480364FF4AB
:10527000A02738B1B04205D0B84203D0EB21EDA051
:1052800003F0D5FBF948001D0168C1F38101012934
:1052900008D00068C0F3810002280AD1D9F80000C4
:1052A000400206D52868800334D560680028CCD039
:1052B00030E06068B04203D1286840F480300CE0F0
:1052C000B842286803D140F480202860F4E720F435
:1052D00080302860286820F480202860606860B1F1
:1052E000FEF7C2FC064604E0FEF7BEFC801B642805
:1052F0007ED828688003F7D50CE0FEF7B5FC06469B
:1053000005E000BFFEF7B0FC801B6428F0D82868D9
:105310008003F7D42078DFF8588380074FF0000A25
:1053200056D5E06830B1012804D040F21D11C1A06B
:1053300003F07DFB20691F2804D94FF48F71BDA0B5
:1053400003F075FBC94800E092E0001D016811F010
:105350000C0F08D00068C0F38100022810D1D9F8E2
:10536000000040020CD42868800702D5E0680128BC
:105370007ED12868216920F0F80040EAC10017E0DA
:10538000E068B8B10120C8F80000FEF76DFC0646E1
:1053900005E000BFFEF768FC801B0228A8D828683B
:1053A0008007F7D5286820F0F801206941EAC0009D
:1053B00028600DE0C8F800A0FEF756FC064604E0A1
:1053C000FEF752FC801B022892D828688007F7D489
:1053D000207800072ED5A54EA64F60697036D0B153
:1053E000012808D04FF4AF7192A003F020FB00E039
:1053F0004BE1606978B101203860FEF735FC074663
:1054000005E000BFFEF730FCC01B0228C6D830689C
:105410008007F7D50EE0C7F800A0FEF725FC074689
:1054200005E000BFFEF720FCC01B0228B6D830689C
:105430008007F7D42078400776D5A068002740B1D0
:10544000012806D0052804D04FF4C57179A003F0D7
:10545000EEFADFF818B20BF13C0BDBF80000C000ED
:105460000DD4DBF8001041F08051CBF8001000E0C3
:1054700038E1DBF80000012700F0805000907E4EFC
:105480003068C00511D4306840F480703060FEF799
:10549000EBFB009006E000BFFEF7E6FB0099401A28
:1054A000022891D83068C005F6D5704EA0686C36D9
:1054B00001280FD00528306810D020F0010030609E
:1054C000306820F004003060A068B8B1FEF7CCFB73
:1054D00000900FE0306840F00100F4E740F0040075
:1054E0003060F7E7FEF7C0FB0099411A41F28830BF
:1054F00081428BD830688007F4D50EE0FEF7B4FB0C
:10550000009007E0FEF7B0FB0099411A41F28830A5
:1055100081428BD830688007F4D42FB1DBF80010BB
:1055200021F08051CBF80010A069002876D0012826
:1055300009D0022807D040F2CD113EA003F077FA3F
:10554000A0690028F2D04948001D0068C0F381001E
:105550000228A0696DD0022805D0C8F860A0FEF727
:1055600083FB044694E0E06938B1B0F5800F04D0C5
:105570004FF4EB712FA003F05AFA206A801E3D28E9
:1055800004D940F2D7112BA003F051FA606A3238E7
:10559000B0F5BF7F04D94FF4EC7126A003F047FAB1
:1055A000A06A02280AD0042808D0062806D00828B5
:1055B00004D040F2D9111FA003F039FAE06A801E2E
:1055C0000D2804D94FF4ED711AA003F030FA4746C4
:1055D000C8F860A0FEF748FB064604E0FEF744FB6F
:1055E000801B022851D828688001F7D4D4E907012C
:1055F0000843A16A214A490802EB0141626A41EA73
:105600008211084394F82C1040EA0161C9F8001097
:1056100001203866FEF728FB044606E064E000BF80
:10562000FEF722FB001B02282FD828688001F7D53F
:105630005AE031E02E2E2F447269766572732F5333
:10564000544D3332463478785F48414C5F44726938
:105650007665722F5372632F73746D3332663478AC
:10566000785F68616C5F7263632E63000438024088
:1056700000004742800E4742007000400000FFFFDC
:10568000FEF7F2FA001B022802D90320BDE8F88FCA
:1056900028688001F4D427E00128F7D0D9F8000069
:1056A000E26900F4800191421CD1226A00F03F01BE
:1056B000914217D147F6C071626A0140B1EB821F77
:1056C00010D1A26A4FF0FF3300F4403103EB5202D5
:1056D000B1EB024F06D194F82C1000F07060B0EBE3
:1056E000016F01D00120D1E70020CFE770B50D4652
:1056F000040003D094F82C0010B107E0012070BD25
:10570000002084F82D00204600F011F8022084F8D3
:105710002C00211D2068FCF7CFFCD4E900022946AB
:10572000FCF754FE012084F82C00002070BDFDF72A
:1057300057BF10B5044690F82C00022804D094F806
:105740002C00012801D0012010BD022084F82C007B
:105750002068FCF781FD012084F82C00002010BD9A
:1057600070B5044690F82C000D46022804D001289C
:1057700003D0052801D0012070BD022084F82C0040
:105780002068FCF7A3FD2868022805D05FF001001F
:1057900084F82C00002070BD0520F9E710B5040046
:1057A00029D016492068884213D01549884210D064
:1057B000144988420DD0144988420AD013498842BE
:1057C00007D01349884204D04FF4DF7111A003F0D1
:1057D0002EF9022084F851002068016821F0400170
:1057E0000160204600F06AF90020606584F85100ED
:1057F00084F8500010BD012010BD000000300140B1
:1058000000380040003C004000340140005001409E
:10581000005401402E2E2F447269766572732F5307
:10582000544D3332463478785F48414C5F44726956
:105830007665722F5372632F73746D3332663478CA
:10584000785F68616C5F7370692E630090F8510037
:105850007047000070B504007ED0844920688842FB
:1058600013D08349884210D0824988420DD08249A2
:1058700088420AD08149884207D08149884204D0B1
:105880004FF4A0717FA003F0D2F860684FF48276E5
:1058900030B1B04204D040F241117AA003F0C7F811
:1058A000A06850B1B0F5806F07D0B0F5004F04D0BC
:1058B0004FF4A17173A003F0BAF8E068B0F5006F7F
:1058C00005D020B140F243116EA003F0B0F8A069FA
:1058D000B0F5007F08D038B1B0F5802F04D04FF478
:1058E000A27168A003F0A3F8E06990B1082810D075
:1058F00010280ED018280CD020280AD0282808D02C
:10590000302806D0382804D040F245115DA003F0BD
:105910008EF8206A30B1802804D04FF4A37159A0CA
:1059200003F085F8606A002548B3102806D040F2DD
:10593000471154A003F07BF8606A00B3E069A0B19E
:10594000082812D0102810D018280ED020280CD0EB
:1059500028280AD0302800E00FE006D0382804D0EC
:1059600040F2591147A003F062F825616561A56214
:1059700094F85100002830D034E0012070BD206937
:1059800030B1022804D04FF4A5713EA003F04FF8C7
:10599000606930B1012804D040F24B1139A003F006
:1059A00046F86068B04216D1E0690028DFD00828C8
:1059B000DDD01028DBD01828D9D02028D7D028282F
:1059C000D5D03028D3D03828D1D040F24F112DA0D7
:1059D00003F02DF8CBE7E561C9E784F85050204685
:1059E00000F082F8022084F851002068016821F05C
:1059F00040010160A088218900F4827001F4044113
:105A00000843A18901F400610843217C01F00201EF
:105A10000843217D01F001010843218B01F400714D
:105A20000843217F01F03801084394F8201001F069
:105A300080010843218D01F400510843216808606A
:105A4000A069042101EA104094F8241001F010012B
:105A50000843216848602068C16921F40061C16180
:105A60006565012084F85100002070BD00300140C0
:105A700000380040003C004000340140005001402C
:105A8000005401402E2E2F447269766572732F5395
:105A9000544D3332463478785F48414C5F447269E4
:105AA0007665722F5372632F73746D333266347858
:105AB000785F68616C5F7370692E630000680749E6
:105AC000884209D10648016821F4801101604FF431
:105AD00060710448FDF7F2BD7047000000500140BE
