:020000040800F2
:10000000400D00206D0200088B7E00080170000882
:10001000897E0008811E0008898400080000000015
:10002000000000000000000000000000E580000863
:10003000A51F0008000000008D7E0008E780000872
:10004000870200088702000887020008870200086C
:10005000870200088702000887020008870200085C
:10006000870200088702000887020008870200084C
:10007000870200088702000887020008870200083C
:10008000870200088702000887020008870200082C
:10009000870200088702000887020008870200081C
:1000A000870200088702000887020008870200080C
:1000B00087020008870200088702000887020008FC
:1000C00087020008870200088702000887020008EC
:1000D00087020008870200088702000887020008DC
:1000E00087020008870200088702000887020008CC
:1000F00087020008870200088702000887020008BC
:1001000087020008870200088702000887020008AB
:10011000870200088702000899810008870200080A
:10012000870200088702000887020008870200088B
:10013000870200088702000887020008870200087B
:10014000870200088702000887020008870200086B
:10015000870200088702000887020008870200085B
:10016000870200088702000887020008870200084B
:1001700087020008870200088702000800000000CC
:10018000870200088702000887020008870200082B
:10019000870200088702000887020008870200081B
:1001A000C977000887020008851E000800F002F8E1
:1001B00000F04CF80AA090E8000C82448344AAF1B5
:1001C0000107DA4501D100F041F8AFF2090EBAE8B3
:1001D0000F0013F0010F18BFFB1A43F0010318477B
:1001E00088C00000A8C00000103A24BF78C878C1B9
:1001F000FAD8520724BF30C830C144BF04680C602D
:10020000704700000023002400250026103A28BF74
:1002100078C1FBD8520728BF30C148BF0B60704778
:10022000662908F04B85642900F0F48000207047AF
:100230001FB508F03EFD00F0A7FC040000200021DF
:1002400008F0AAFCE0601FBD10B510BD00F09CFDD9
:100250001146FFF7EDFF08F0A5FA00F0BAFD03B470
:10026000FFF7F2FF03BC00F0FDFD000009488047E6
:1002700009480047FEE7FEE7FEE7FEE7FEE7FEE788
:10028000FEE7FEE7FEE7FEE704480549054A064BA0
:100290007047000089810008AD0100084007002078
:1002A000400D0020400900204009002053EA020CC4
:1002B00000F069802DE9F04B4FF00006002B1FBFC6
:1002C000B3FA83F503FA05F424FA05F65E4012BF8B
:1002D0001643B2FA82F502FA05F4C5F120051EBFF5
:1002E00022FA05FC44EA0C04203556EA044C4FEA95
:1002F000144418BF641C4FF000084FF000099042EE
:1003000071EB030C39D3002919BFB1FA81F701FA57
:1003100007F6B0FA80F700FA07F6C7F120071EBF0C
:1003200020FA07FC46EA0C062037B6FBF4FCA7EBE4
:100330000507103F07F01F0BCBF120060CFA0BFB53
:100340002CFA06F644BFB3460026202FA4BF5E4613
:100350004FF0000B5BEA060C08BF4FF0010B19EBE6
:100360000B09ABFB027C48EB0608C01B06FB02CC6A
:100370000BFB03CC71EB0C01C1E70B460246414677
:100380004846BDE8F08B13B54FF000004FF0000178
:10039000AFF30080BDE81C40704700000FB41CB5EF
:1003A000074B06AA7B4469460090059800F0D3FBF2
:1003B0000020694600F0E2FB1CBC5DF814FB000065
:1003C000D507000070B5044685690068C10601D5EF
:1003D000302600E02026C00707D070BDD4E90121F7
:1003E00030469047206A401C20626D1EF6D570BDD5
:1003F00070B5044685690078C00707D170BDD4E99F
:10040000012120209047206A401C20626D1EF6D5F5
:1004100070BD00002DE9F0410646002410687529E2
:10042000314616A510D0AFF30080002802DA404212
:1004300013A507E031688A0701D512A502E0490734
:1004400004D511A5012401E0AFF3008000210A22A8
:1004500006F1240709E0B0FBF2FCB0FBF2F302FB6B
:100460001C00303078541846491C0028F3D123462C
:100470002A463046BDE8F04100F000B90000000017
:100480002D0000002B000000200000002DE9F05F8F
:10049000894604464FF0000ADFF824B1FB44C0F857
:1004A00020A02046E168884700287DD0252806D076
:1004B000D4E901219047206A401C2062F1E7002521
:1004C0005F462046E16888472028064607DB312E34
:1004D00005D2B81910F8200C08B10543F1E7A807B8
:1004E00001D525F00405C4F81CA00027C4F818A005
:1004F0002A2E09D0304607F0F0FF38B304EB870806
:10050000303EC8F8186019E059F8041B204604EB87
:1005100087029161E1688847012F064618D1E0699A
:10052000002820DA25F020051DE0D8F8180000EB9F
:10053000800006EB40003038C8F818002046E1681B
:100540008847064607F0C9FF0028EED1012F0AD0E0
:100550002E2E08D12046E16888477F1C0646022FD0
:1005600045F02005C4DBA069002803DA404245F0CD
:100570000105A061E80701D025F01005A6B1A6F19C
:100580004100192802D8203645F400654A46314614
:10059000204625604D46FFF743FE60B1012807D095
:1005A000ED1D25F0070000E007E000F1080978E7FD
:1005B00005F1040975E730467AE7206ABDE8F09F47
:1005C00020BD000010B5203AC0F00B80B1E81850F3
:1005D000203AA0E81850B1E81850A0E81850BFF42D
:1005E000F5AF5FEA027C24BFB1E81850A0E81850CC
:1005F00044BF18C918C0BDE810405FEA827C24BF20
:1006000051F8043B40F8043B08BF7047D20728BFAD
:1006100031F8023B48BF11F8012B28BF20F8023BFC
:1006200048BF00F8012B70474FF0000200B5134699
:1006300094469646203922BFA0E80C50A0E80C5002
:10064000B1F12001BFF4F7AF090728BFA0E80C50B3
:1006500048BF0CC05DF804EB890028BF40F8042BAC
:1006600008BF704748BF20F8022B11F0804F18BF19
:1006700000F8012B70477047704770472DE9F0472D
:100680000D4699469246044600F124080168880602
:1006900004D5E06921F01001216000E00120A842AA
:1006A00001DD471B00E00027A1697A1902EB090070
:1006B000081AA0612078C00602D42046FFF782FE07
:1006C000002608E0D4E901211AF806009047206AC4
:1006D000401C761C20624E45F4DB2078C0060AD50B
:1006E0002046FFF76FFE06E0D4E901213020904755
:1006F000206A401C2062381EA7F10107F4DC07E0E5
:10070000D4E9012118F805009047206A401C2062B6
:10071000281EA5F10105F3DC2046FFF769FE2078CD
:10072000000602D50220BDE8F0870120FBE77047F4
:100730002DE9FF4F0C461E464FF0FF378BB0D2E934
:100740000001DDF860800A908A46C1F30A5505B9B8
:100750003D46002108464FF00000BAF1000F00F4BA
:10076000400005DA00EB80004FF4400101EA500040
:100770004FEA9059B9F1010F00DDB9460A9850EAE5
:100780004A000ED044F61050A5F2FF3545432F1411
:10079000B8F1000F1ED07542291E1EDDC9F10002FE
:1007A0001CE0B8F1010F4FF0000001D0302103E050
:1007B000F24305E02154401CB042FBDB30460022EE
:1007C000002121540B99C1F80880C1E900200FB025
:1007D000BDE8F08FBD1B6D1CDEE74A4600DA6942BA
:1007E00006A800F05BFA06AB93E8070003AB83E8CA
:1007F000070050460A9900F03CFB8DE80700A0F581
:1008000000501F3800900398002D0ADD42F21F01AE
:100810004A460844002303A90390684600F0A5FD5A
:1008200009E0A0F500504A461F38002303A90390B1
:10083000684600F0AFFD8DE807000004000C03D00F
:100840004FF0FF30410800E01046B8F1000F03D030
:100850000022009215461EE0751E05D400F098F99E
:10086000303262556D1EF9D5B3460122084302D0DD
:1008700000227F1C04E02078302801D100227F1E56
:10088000002A099784D01DE0112D07DA00F080F9C5
:10089000303262556D1C50EA0102F5D1084302D096
:1008A0000098C8B10EE00021681E05E0235C625C80
:1008B00063542254401E491C8142F7DBAB46A81BFF
:1008C000401E0990002004F80B000B98099AC0F80C
:1008D0000880C0E9002B7AE711264FF0000857E79F
:1008E0002DE9F04F88460446D21D22F0070191B051
:1008F000D1E90001CDE90A0107F0C7FD02460B98D6
:10090000C00F01D02D2007E02068810701D52B20E2
:1009100002E0202101EAC000032A099001D0072A41
:1009200005DB03464146204600F078F90BE12078CC
:10093000800601D5E06900E00620B8F1650F814628
:1009400006D0B8F1660F18D0B8F1670F70D131E05A
:100950000020B9F1110F009001DB112301E009F132
:1009600001030AAA01A90CA8FFF7E2FEDDE90C7059
:10097000002609F10105834647E001204B4600901F
:100980004FF000470AAA01A90CA8FFF7D1FEDDE944
:100990000DB00C995D46002610B909F101000D1843
:1009A000B9EB050003D4C0F1FF3609F10105A5EB51
:1009B00009002BE0B9F1010F01DA4FF00109002025
:1009C000B9F1110F0090484601DD112300E0034604
:1009D0000AAA01A90CA8FFF7ABFEDDE90C704D4691
:1009E00000268346207800070AD4AB4500DA5D462E
:1009F00001A8012D04DD411911F8011C302907D08F
:100A00004F4502DA17F1040F04DA012082460FE0A5
:100A10006D1EEEE7002F02DCED1B3E4403E0781C68
:100A2000A84200DD7D1CB81B00F1010A4FF0004711
:100A30002078000703D4AA4501DB4FF0FF3A0021DC
:100A4000B7F1004F0DF143088DF8431024D0022078
:100A50002B23002F01DA7F422D230A21021EA0F151
:100A6000010000DC5FB197FBF1FC97FBF1F201FBA9
:100A70001C7C17460CF1300C08F801CDEEE7A8F10C
:100A8000010003702188090501D5452100E0652199
:100A9000A0F1010800F8011C09980FA9A1EB0807B3
:100AA000FF1D00B10120411901EBEA70A169384432
:100AB000081A401EA0612078C00602D42046FFF725
:100AC00081FC099828B1D4E901219047206A401C93
:100AD00020622078C00622D52046FFF773FC1EE076
:100AE000002E04DBB34502DD01A8805D00E030206C
:100AF000D4E901219047206A401C2062761CAAF1AB
:100B000001005FEA000A0AD100F03EF8C0680168FF
:100B1000405CD4E901219047206A401C2062281ED5
:100B2000A5F10105DCDC07E0D4E9012118F8010B8F
:100B30009047206A401C2062381EA7F10107F3DCB1
:100B40002046FFF755FC032011B041E601694A1C1D
:100B500002610878704700B58FB0CDE901310021FE
:100B6000059105497944CDE9031011466846FFF720
:100B70008DFC0FB000BD0000E5FFFFFF0A6802F822
:100B8000010B0A607047000000487047FC06002017
:100B900030B5B0F10A024FEA900E71F100034EEA4F
:100BA000817EB0EB0E0061EB91014FEA101E4EEA20
:100BB000017E10EB0E0041EB11114FEA102E4EEAB0
:100BC000016E10EB0E0041EB11214FEA104E4EEA80
:100BD000014E10EB0E0041EB1141401841F10001B4
:100BE0004FEAD00040EA41704FEAD10110EB800596
:100BF0004FEA810444EA907444EB01046D1944EB1C
:100C00000404521BA3414FF0000348BF0A3200D531
:100C100030BD401C41F1000130BD00002DE9F04124
:100C20001F46044603260168072A01F4006004DB1E
:100C300008B116A505E016A503E008B115A500E06A
:100C400015A521F010002060A069C01EA0610FB1A1
:100C5000401EA0612046FFF7B5FB4FB1D4E901214A
:100C600038469047206A401C2062C01C206206E083
:100C7000206AFAE7D4E9012115F8010B9047761EA6
:100C8000F8D22046FFF7B4FBBDE8F0814E414E009C
:100C90006E616E00494E4600696E66002DE9F047B0
:100CA000814616468AB0354878440DC88DE80D0057
:100CB00032487844801C03AC0DC884E80D0041F62E
:100CC0009B300844372190FBF1F290FBF1F5A5F140
:100CD000800501FB12041B3C02D56442012000E0A8
:100CE0000020DFF898A080460027FA44AAF1BE0A47
:100CF0000EE0E0070AD03246684607EB47010123C1
:100D00000AEB810100F046FB8DE8070064107F1CB0
:100D1000002CEED1194F7F44AE3F19E0E80715D003
:100D200007EB04100DF1180A90E80E008AE80E0097
:100D3000C068F04201D1981908903246012306A9F3
:100D400003A800F027FB03AB83E807006D10641CC9
:100D5000002DE3D14FF0010332466946B8F1000F90
:100D600003A802D000F001FB01E000F013FBC9E989
:100D70000001C9F808200AB0BDE8F087A4B500005A
:100D800000487047DC0600207546FFF7F9FFAE46C5
:100D900005006946534620F00700854618B020B587
:100DA000FFF772FABDE820404FF000064FF0000751
:100DB0004FF000084FF0000B21F00701AC46ACE803
:100DC000C009ACE8C009ACE8C009ACE8C0098D4670
:100DD000704710B50446AFF300802046BDE81040D0
:100DE000FFF73DBA4FF0013C50F8042B51F8043B9B
:100DF0009A4221D1A2EB0C03934313EACC1317D1EF
:100E000050F8042B51F8043B9A4215D1A2EB0C0385
:100E1000934313EACC130BD150F8042B51F8043B45
:100E20009A4209D1A2EB0C03934313EACC13DBD013
:100E30004FF00000704700BFD01A01BAB1FA81F13B
:100E400001F0180122FA01F0CB40C1F12001DBB220
:100E5000C0B2C01A2CFA01F3D11A914311EAC3119E
:100E6000E6D1704701491820ABBEFEE7260002001C
:100E700070475FEA400C08BF91F0000F4FEA8C23E7
:100E80004FEAC12243EA51514FEA1C5018BF00F506
:100E9000F0404FEA300018BF41F000415FEA6C5C5F
:100EA00000F02980BCF1FF3F08BF40F08040704750
:100EB000130C06BF12044FF0100C4FF0000C130E71
:100EC00004BF12020CF1080C130F04BF12010CF145
:100ED000040C930F04BF92000CF1020CD30F04BF5B
:100EE00052000CF1010C11464FF00002A0F11F005E
:100EF000A0EB0C00704711F0004F08BF704731F0B5
:100F000000413FF4D5AF0B0C06BF09044FF0100CA5
:100F10004FF0000C0B0E04BF09020CF1080C0B0F74
:100F200004BF09010CF1040C8B0F04BF89000CF104
:100F3000020CCB0F04BF49000CF1010CCCF12003D3
:100F4000A0EB0C0022FA03F302FA0CF241EA0301CF
:100F500000F10100704720F07F4C80EA030023F08D
:100F60007F47ACEB070303F57C5300F0004003F12F
:100F7000FF032DE980494FEA154B09B44FEA1443AA
:100F800025EA0B4E24EA03480FF2042606EB13274A
:100F900049083E785FEA320203FB0667C7F500079F
:100FA00007FB06F64FEA54374FEAD64606F102062B
:100FB00007FB066CCCF1005C4FEA1C472CEA074C9F
:100FC00007FB06F40CFB06F504EB15464FEA9616F4
:100FD00034BF00204FF000404FEAD13706FB07FC3A
:100FE0004FEA1C4C0CFB0BF7D21B03FB0CF761EB1D
:100FF00007010CFB0EF7B0EB074072EB17420CFB3E
:1010000008F734BFA2EB0742B2EB074261EB17418E
:101010004FEA0C444FEA910706FB07FC4FEA1C4CD1
:101020000CFB0BF7B0EBC74072EB573203FB0CF72E
:1010300034BFA2EBC742B2EBC74261EB57310CFBA6
:101040000EF7B0EBC70072EB57720CFB08F734BF1A
:10105000A2EBC702B2EBC70261EB5771039F4FEAE5
:10106000816141EA921104EBCC044FEAD1374FEA97
:10107000826206FB07FC42EA90124FEA80604FEA68
:101080001C4C0CFB0BF7D21B03FB0CF761EB0701AD
:101090000CFB0EF7B0EB074072EB17420CFB08F7A6
:1010A00034BFA2EB0742B2EB074261EB17414FEAB4
:1010B0008C554FEA910704EB9C2406FB07FC4FEA92
:1010C0001C4C0CFB0BF7B0EBC74072EB573203FB29
:1010D0000CF734BFA2EBC742B2EBC74261EB57310A
:1010E0000CFB0EF7B0EBC70072EB57720CFB08F766
:1010F00034BFA2EBC702B2EBC70261EB577115EB2D
:101100004C254FEA816141EA92114FEA82624FEA2F
:10111000D13742EA901206FB07FC44F100044FEA83
:1011200080604FEA1C4C0CFB0BF7D21B03FB0CF747
:1011300061EB07010CFB0EF7B0EB074072EB1742B7
:101140000CFB08F734BFA2EB0742B2EB074261EB9E
:10115000174115EB1C154FEA813141EA92414FEAE4
:10116000823242EA90424FEA80304FEA0C7644F1F4
:10117000000448EA03434EEA0B484FF0000EB2EB7E
:10118000080C71EB030724BF624639464EEB0E0E86
:101190004FF0000B0018524149414BEB0B0BB2EBE7
:1011A000080C71EB03077BF1000B24BF6246394644
:1011B0004EEB0E0E4FF0000B0018524149414BEB25
:1011C0000B0BB2EB080C71EB03077BF1000B24BF98
:1011D000624639464EEB0E0E51EA020718BF46F042
:1011E000010616EB0E7655F1000254F1000103D50D
:1011F000BDE88901BDE80088BDE88901BDE8004877
:10120000B619524141EB0101A3F1010370478080FF
:101210007F7E7D7C7B7A7978777676757473727150
:1012200071706F6E6E6D6C6C6B6A6A696868676608
:1012300066656464636362616160605F5F5E5E5D9A
:101240005D5C5C5B5B5A5A5959585857575656550E
:1012500055555454535352525251515050504F4F70
:101260004F4E4E4D4D4D4C4C4C4B4B4B4A4A4A49C0
:101270004949484848474747474646464545454403
:101280004444444343434342424242414141002B90
:101290009C4630D477002BD01CB54FEA370703B4F7
:1012A0004FF010004FF01001BAF1000F06D0BCF162
:1012B000000FDCBF40F0080040F008014FF00000D4
:1012C0000FBCBDE810400BF1010BBBF1010F08BFD3
:1012D0005FEA170722BF12F1010211F101014FF07D
:1012E000004143F1000300F0004043EA0000704772
:1012F000F9D35708D0E746EA064613F1400F4FEA04
:1013000016461FDD13F1200FDFBF16430A460021EA
:1013100020335B42BED0C3F1200746EA064602FAFC
:1013200007F74FEA164646EA0706C3F1200722FAF6
:1013300003F201FA07F721FA03F14FF0000342EA42
:101340000702A7E746EA020646EA06464FEA1646BD
:1013500046EA0106BCBF46EA0646360C4FF00003DB
:101360004FF000024FF0000194E72DE9804C9A46BF
:10137000934670B491E8380007C831EA400C48BF82
:1013800034EA430C03D5FFF7E6FDFFF780FFF0BC1E
:10139000BDE8008C2DE9804C9A46934670B491E8E4
:1013A000380007C810F0804F08BF13F0804F03D1FA
:1013B00000F005F8FFF76BFFF0BCBDE8008C20F0F3
:1013C0007F4780EA030023F07F4C07EB0C03A3F573
:1013D0007C5300F00040A3F1FE0392F0000F00F0F8
:1013E000B38095F0000F00F077802DE901494FEAB6
:1013F00011404FEA144621EA004800FB06FC24EAAB
:10140000064708FB06F607FB08F800FB07F718EB92
:1014100006484CEB164C4FEA124B18EB07484FEAC4
:1014200015464CEB174022EA0B4E0BFB06FC25EA57
:1014300006470EFB06F607FB0EFE0BFB07F71EEB3F
:10144000064E4CEB164C4FF000061EEB074E4CEBD5
:10145000174B18EB0B0840F1000018EB0E0B58EB84
:10146000000840F100008F1A4FF000013CBFC94353
:10147000661B14BFB5EB040C00213CBFC943F61B2F
:101480004FEA17444EEA8E0E27EA04454FEA1C47FE
:1014900004FB07622CEA074C05FB07F70CFB05F67B
:1014A00004FB0CFC16EB074642EB174216EB0C460E
:1014B00042EB1C421BEB060658EB0202414146EA96
:1014C0009E0601D5BDE80189B619524141EB0101E3
:1014D000A3F10103BDE801894FEA14454FEA114722
:1014E00024EA054621EA074C05FB07F406FB07F74B
:1014F0000CFB06F105FB0CFC11EB074144EB174418
:101500004FEA124711EB0C4144EB1C4422EA074C12
:1015100005FB07F206FB07F70CFB06F605FB0CFCC8
:1015200016EB074642EB174216EB0C4642EB1C4506
:101530006A1854F1000148BF7047B619524141EB97
:101540000101A3F10103704795F0000F37D04FEA76
:1015500011424FEA144721EA024624EA074C02FBF3
:1015600007F106FB07F70CFB06F402FB0CFC14EB7F
:10157000074441EB17414FEA154714EB0C4441EB8C
:101580001C4125EA074C02FB07F506FB07F70CFB9D
:1015900006F602FB0CFC16EB074645EB174516EB6F
:1015A0000C4645EB1C42121951F1000148BF70472F
:1015B000B619524141EB0101A3F1010370474FEA13
:1015C00014454FEA114724EA054621EA074C05FB7A
:1015D00007F106FB07F70CFB06F24FF0000605FBD0
:1015E0000CFC12EB074241EB174112EB0C4251EBA2
:1015F0001C4148BF7047921841EB0101A3F1010360
:101600007047000010B504464B48416821F4403152
:10161000416041686268114341602068416821F47B
:101620008071416020684168226941EA022141607D
:101630002068416821F04071416020684168A268DB
:10164000114341602068816821F400618160206855
:101650008168E26811438160A06A6FF07061C842DE
:101660002068816821F070618160206881680CD0F9
:10167000A26A114381602068816821F04051816035
:1016800020688168E26A114301E021F040518160E5
:101690002068816821F00201816020688168227ED3
:1016A00041EA4201816094F8200000283FD0606A3E
:1016B000401E072804D94FF4F56120A006F014FF5E
:1016C0002068416841F4006141602068416821F46C
:1016D0006041416020684168264B626A03EB4232F8
:1016E000114341602068C16A21F47001C162206821
:1016F000C16AA28B204B03EB02521143C1622068E6
:10170000816821F4007181602068816894F830203C
:1017100041EA422181602068816821F48061816012
:1017200020688168626941EA8221816010BD206879
:10173000416821F40061D4E7002301402E2E2F449C
:101740007269766572732F53544D3332463478780C
:101750005F48414C5F4472697665722F5372632F04
:1017600073746D3332663478785F68616C5F61647E
:10177000632E630000E0FFFF0000F0FF7CB505462C
:1017800000F0DCF8044600F0D3F802460020CDE972
:1017900000050748074B006800EB800101EBC00122
:1017A00003EB81012346C96D00F0ACFE7CBD000057
:1017B000400000208C0400200A4B30B41B6803EB6F
:1017C0004304094B03EB84039B68DD881C689B88FA
:1017D000DB1DDB08203A13FB02F205FB024230BCA2
:1017E00000F0E2BB40000020A40500200348406850
:1017F0008068002800D000477047000040000020AB
:101800002DE9F0470446002799468A461546B84612
:10181000104601E008F1010810F8011B0029F9D178
:1018200000F086F8254A264E4B461168B9F1010FA3
:1018300001EB410106EB810189688988B0FBF1F079
:1018400002D0022B0BD105E0A0EB0800484304EBCB
:10185000500003E0A0EB080000FB014084B290467A
:1018600000F066F80146D8F8000000EB400006EBF7
:1018700080008068808807FB101189B2814213D3F1
:10188000012012E051462046FFF796FFD8F80000ED
:101890007F1C00EB400006EB8000BFB280686D1C2F
:1018A0008088204484B2DBE700202A780AB1012135
:1018B00000E000210842E5D1BDE8F08740000020AB
:1018C000A405002010B50A46034600F023F8C0889E
:1018D000BDE81040584381B203230020FFF790BFBA
:1018E00070B514460D46064600F022F8074905FB80
:1018F0000060096801EB810202EBC101044A02EBBE
:101900008101C96D41F8204070BD000040000020F9
:101910008C04002004480549006800EB400001EBFE
:10192000800080687047000040000020A40500206F
:1019300001484068806A0047400000200148406834
:10194000C06A00474000002070B5214C1F480025A8
:101950002060092060610120A0611D20E06103205A
:10196000206240F20D10606240F24310A06240F22B
:101970001710E06240F24710206384F8365084F874
:10198000345004F1E80084F8355008210160C0218A
:10199000016104218161C903416203F047FA656076
:1019A000A560E560256100F059F8204602F050FF7F
:1019B0000949084848600068804700F013F9064864
:1019C000083000F0F5F8002070BD0000006801400C
:1019D0008C040020980000204000002070B58EB0DC
:1019E00000240E4605460094FFF7A2FFCDE901044E
:1019F000FFF7A4FF0996CDE90304FF20CDE9050414
:101A00008DF830408DF831408DF832404FF4C06091
:101A1000079007200890FFF78BFF0A90FFF78EFFD3
:101A20000B902A4669460A4802F0D4FD094905EBA5
:101A3000450001EB8002631E5360074B93604FF03B
:101A40007F4241F82020024802F084FE0EB070BDB3
:101A50008C040020A40500204800002030B5434835
:101A600087B00021026842F080620260006800F0E6
:101A7000806005903D481438026842F4000202601C
:101A8000026802F400020592026842F0010202605C
:101A9000026802F001020592026842F0020202604E
:101AA000026802F002020592026842F0040202603B
:101AB000026802F004020592026842F00802026025
:101AC000026802F008020592026842F020020260F9
:101AD000026802F020020592026842F040020260B1
:101AE000006800F04000059041F658000090022088
:101AF000CDE9010103900E20049069461C4801F0D5
:101B000097FE4FF470601B4C00906946204601F030
:101B10008FFE4FF4986000906946174801F088FEE8
:101B2000482000906946154801F082FE201500907B
:101B30006946134801F07CFE4FF40C60114D009093
:101B40006946284601F074FE0320009009200490A5
:101B50006946204601F06CFE4FF4A05000906946A3
:101B6000284601F065FE07B030BD00004438024051
:101B7000000002400004024000080240000C024045
:101B8000001402400018024001490860704700003C
:101B9000400000200449054A096801EB410102EBBD
:101BA000810148607047000040000020A40500202B
:101BB0000449054A096801EB410102EB8101886093
:101BC0007047000040000020A40500200349044A9B
:101BD000096801EB410142F82100704740000020F4
:101BE000A405002070B51B4819490423016000F1C9
:101BF0003401022207248B60C1E90024C1E90342B9
:101C00004A618A611021C0E9033140214161012606
:101C10000024C0E901644FF4C071C0E906149102C8
:101C2000C0E9081489008162214600F05BF8094987
:101C30000848343103F058FF074D08B12E7000E01A
:101C40002C7040F26A5000F009F8287870BD00004E
:101C5000400100A07C060020580000202DE9F84F2C
:101C60001F4C0025012608270095C4E90067C4E938
:101C7000026582464FF6FF7921464A46A1F150009F
:101C800003F06CFF012001F047FC0220C4E90007CB
:101C9000C4E9026521464A46A1F1500003F05EFF07
:101CA00003204FF00408E56084E8810121464A469C
:101CB000A1F1500003F052FF4FF40C700090C4E902
:101CC0000260C4E9008721464A46A1F1500003F0B2
:101CD00045FF5146A4F15000BDE8F84F03F027BF7F
:101CE000CC06002030B587B005007DD04D480024DB
:101CF000016841F00101016000684A4900F00100FB
:101D000008390590086840F480000860086800F40D
:101D100080000590086840F002000860086800F044
:101D200002000590086840F004000860086800F0B0
:101D300004000590086840F008000860086800F09A
:101D400008000590086840F010000860086800F07E
:101D500010000590086840F020000860086800F056
:101D600020000590086840F0400008600868694657
:101D700000F0400005900220CDE9024001900C20C7
:101D8000049060200090284801F052FD012000904E
:101D90006946264801F04CFD4CF2037000906946FC
:101DA000234801F045FD4FF68370009069462148B5
:101DB00001F03EFD4FF63F00009069461E4801F0DD
:101DC00037FD48F23310009069461C4801F030FDA1
:101DD0001B498020C1E901408000C86040000861C3
:101DE00080004861800000E01AE0C1E90604C000FC
:101DF000C1E908040320C1E90A0412480C63086021
:101E0000296308468D6301F081F90D4801F014FA49
:101E100000220F21382002F041FF382002F00CFF91
:101E200007B030BD383802400004024000080240CC
:101E3000000C024000100240001402400018024052
:101E4000BC0500201064024070B50B4D0B4C012600
:101E500028806980616882208847A0F50061113977
:101E600008D1EC600026216882208847E868C168B4
:101E700082208847304670BD5C0000206C00002046
:101E8000FEE70000014800F03FBF000040010020D5
:101E9000F0B50468059E656C46EA034305F04045CD
:101EA0001D4365640368DA634268B2F5403F02D0BF
:101EB0000068C160F0BD01F47F4201F47F0C8668C8
:101EC00001F07F4301F47F0701F47F45CCB242EA81
:101ED0000C02BEB1012E16D001F47F02D20CC1F368
:101EE000C401022E11D0032E14D0190F3A0D2D0B60
:101EF00023092C0144EA022242EA01321A43006813
:101F00008263F0BD1A432243F9E7AB0A5B0143EA5F
:101F1000C22206E0DB0FEC0A640144EA822242EAB4
:101F2000C3320A43EBE7000001681823CAB2103A33
:101F3000B2FBF3F2054B6FF30901032A9B5CC36507
:101F400000D9091D8165084670470000C08C000853
:101F500010B5014600208B698A6A4FF0C07453B1F6
:101F6000B3F5005F15D072B1012A0CD0022A0AD055
:101F7000032A09D104E01AB1012A06D0022A03D1AA
:101F8000C96AC90100D5012010BDC96AA142FAD0B1
:101F900010BD002AF7D0012AF2D0022AF3D0032A7A
:101FA000F3D010BD704700002DE9F74FDFF8A4A073
:101FB0000026DAF8000000EB4001274800EB810022
:101FC00080688588C788E81D834620F00700401B8D
:101FD00000F0FF093AE000BF4FEADB010298012957
:101FE00001FB06000BD002290BD0017842780904CE
:101FF000807841EA022141EA000800241FE00078CD
:1020000001E0008840BA8046F7E7291B49440120D7
:10201000491E884010EA080FDAF8000000EB400182
:102020000D4802D050F8212002E000EB8100426808
:1020300000980199204480B2FFF752FC641CAC4226
:10204000E3D30198401C80B2761C0190BE42C3D3FA
:10205000BDE8FE8F40000020A405002072B6FEE718
:1020600070B5054657480C46854204D04FF494613C
:1020700055A006F039FA206830B1012804D040F2AA
:10208000A14151A006F030FA606850B1012808D093
:10209000022806D0032804D040F2A2414AA006F04C
:1020A00023FAA06840B1042806D0082804D040F2E2
:1020B000A34145A006F018FAE06840B1102806D008
:1020C000202804D040F2A4413FA006F00DFA206978
:1020D00030B1402804D040F2A5413BA006F004FAFC
:1020E000606980280AD0B0F5807F07D0B0F5C07F46
:1020F00004D040F2A64134A006F0F6F9A06938B148
:10210000B0F5007F04D040F2A7412FA006F0ECF913
:10211000E06950B1B0F5006F07D0B0F5406F04D062
:102120004FF4956128A006F0DFF9206A38B1B0F5C8
:10213000805F04D040F2A94123A006F0D5F9606A7F
:1021400050B1B0F5005F07D0B0F5804F04D040F239
:10215000AA411DA006F0C8F92068D8B1D4E907014A
:102160000843616A2A6822F4F84211430843286050
:10217000D4E901010843D4E903121143084361691A
:102180000843A169084369686FF30E01084368605A
:10219000002070BDD4E901010843D4E903121143C2
:1021A000084361690843A1690843E1690843216A5A
:1021B0000843616A084329686FF30E0108432860E9
:1021C000E6E70000400100A02E2E2F4472697665DC
:1021D00072732F53544D3332463478785F48414CF4
:1021E0005F4472697665722F5372632F73746D3317
:1021F00032663478785F6C6C5F666D632E630000C6
:1022000070B504460C480D46844204D04FF4B161C9
:102210000AA006F069F9B5F5005F04D340F28951D0
:1022200006A006F061F9606943F6FE71884340EA52
:1022300045006061002070BD400100A02E2E2F449B
:102240007269766572732F53544D33324634787801
:102250005F48414C5F4472697665722F5372632FF9
:1022600073746D3332663478785F6C6C5F666D635F
:102270002E63000070B505462F4816460C46854271
:1022800004D040F262512DA006F02EF9216881B1F0
:1022900001290ED002290CD003290AD0042908D024
:1022A000052906D0062904D040F2635123A006F088
:1022B0001BF96068102808D0082806D0182804D018
:1022C00040F264511DA006F00FF9A068401E0E28D0
:1022D00004D940F2655119A006F006F9E068B0F59E
:1022E000005F04D340F2665114A006F0FDF8D4E973
:1022F00000010843A1686FF01F0202EB4111E26880
:1023000041EA4221084329696FF315010843286116
:1023100001F058FC044609E0701C07D026B101F01A
:1023200051FC001BB04201D9032070BDA869800692
:10233000F2D4002070BD0000400100A02E2E2F44DA
:102340007269766572732F53544D33324634787800
:102350005F48414C5F4472697665722F5372632FF8
:1023600073746D3332663478785F6C6C5F666D635E
:102370002E6300002DE9F05F0546514817460C46D4
:10238000854204D040F2DF414EA006F0ADF820684F
:10239000401E0F2804D94FF49C614AA006F0A4F80F
:1023A0006068401E0F2804D940F2E14145A006F0C4
:1023B0009BF8A068401E0F2804D940F2E24141A0DA
:1023C00006F092F8E068401E0F2804D940F2E3417D
:1023D0003CA006F089F82069401E0F2804D940F27D
:1023E000E44138A006F080F86069401E0F2804D947
:1023F00040F2E54133A006F077F8A069401E0F28AF
:1024000004D940F2E6412FA006F06EF86FF00F06F7
:102410006FF0FF084FEA063A4FEA06494FF07F4B4C
:102420006FB3012F04D040F2E74126A006F05CF81C
:10243000E068A28A000309EB0251A0F5805008432E
:10244000A9682E4A11400843A860D4E9000106EBB0
:102450000111401EA268084308EB0221228A0843AA
:102460000AEB0241227E08430BEB02610843E96854
:1024700001F070410843E8600020BDE8F09FD4E916
:10248000000106EB0111401EA268084308EB02217F
:1024900008431B4AE16802EB0131228A08430AEB38
:1024A0000241A28A084309EB0251227E08430BEB4A
:1024B00002610843A96801F070410843A860DBE7A6
:1024C000400100A02E2E2F447269766572732F533F
:1024D000544D3332463478785F48414C5F447269DA
:1024E0007665722F5372632F73746D33326634784E
:1024F000785F6C6C5F666D632E630000FF0F0FFFEB
:1025000000F0FFFF2DE9F8430E460746DDE9081805
:10251000124815464FF4403242600022C0E90221C1
:102520000F491C46016000F07FFC002814D1394699
:102530000A4800F03BFB00280ED12B4632464146AC
:102540000648009400F092FD002805D1BDE8F8434C
:102550000A21024800F002BDBDE8F88334050020DE
:1025600000B00240F8B50027054600970868664E9F
:102570000C46122806D9B04204D040F28B6163A009
:1025800005F0B2FF6068401E0F2804D940F28C614C
:102590005EA005F0A9FFA06890B1012810D0022824
:1025A0000ED003280CD004280AD0052808D006280D
:1025B00006D0072804D040F28D6154A005F094FFA6
:1025C00095F83C00012819D0012085F83C002068CE
:1025D00007212A68092813D9D3680A3800EB40007C
:1025E00081408B43D3602178A0680A3901EB410117
:1025F00088402968CA681043C86010E00220F8BD0E
:10260000136900EB400081408B4313612078A1687F
:1026100000EB400081402868026911430161606855
:102620001F21072813D22A68536B401E00EB80003D
:1026300081408B43536321792088491E80B201EB8E
:102640008101884029684A6B1043486327E02A6863
:102650000D2812D2136BC01F00EB800081408B430A
:10266000136321792088C91F80B201EB8101884062
:1026700029680A6B1043086311E0D36A0D3800EB38
:10268000800081408B43D362217920880D3980B24C
:1026900001EB810188402968CA6A1043C8622A494F
:1026A0002A6828488A420AD12268122A07D1426839
:1026B00022F400024260426842F4800242602A68CA
:1026C0008A421CD12168B14201D0112917D1416839
:1026D00021F480014160416841F4000141602068BB
:1026E000B0420CD119481A490068B0FBF1F000EB78
:1026F0008000400000E0401E00900028FBD185F8DB
:102700003C700020F8BD0000120000102E2E2F4457
:102710007269766572732F53544D3332463478782C
:102720005F48414C5F4472697665722F5372632F24
:1027300073746D3332663478785F68616C5F61649E
:10274000632E63000023014000200140240000208C
:1027500040420F00006C70470068C06C704700007A
:102760002DE9F04704004FF000057DD07249206844
:1027700088420AD07149884207D07149884204D002
:102780004FF4A1716FA005F0AFFE606868B1B0F5BD
:10279000803F0AD0B0F5003F07D0B0F5403F04D0ED
:1027A00040F2431167A005F09FFEA0684FF08077CC
:1027B0004FF000784FF0407950B1B84208D0404512
:1027C00006D0484504D04FF4A2715EA005F08CFEFF
:1027D000206930B1012804D040F2451159A005F01C
:1027E00083FE207E30B1012804D04FF4A37155A0A0
:1027F00005F07AFE614EA06A80B3B8422ED0404503
:102800002CD048452AD0B0F1806F27D0B0F1A06F0E
:1028100024D0B0F1C06F21D0B0F1E06F1ED0B0F184
:10282000006F1BD0B0F1106F18D0B0F1206F15D031
:10283000B0F1306F12D0B0F1406F0FD0B0F1506FE7
:102840000CD0B0F1606F09D0B0F1706F06D0B0421B
:1028500004D040F247113BA005F046FEE06848B1C5
:10286000B0F5006F06D000E043E04FF4A47135A04E
:1028700005F03AFEE069401E0F2804D940F24911E4
:1028800030A005F031FE94F8300030B1012804D0BA
:102890004FF4A5712BA005F027FE6069012807D031
:1028A00030B1022804D040F24B1126A005F01CFEE6
:1028B00094F8200030B1012804D04FF4A67121A073
:1028C00005F012FEA06AB0420FD0E06A68B1B0F124
:1028D000805F0AD0B0F1005F07D0B0F1405F04D054
:1028E0004FF4A87117A005F0FFFD206C002618B169
:1028F00008E00120BDE8F087204600F041F866645A
:1029000084F83C60206CC00610D4206C20F4885001
:1029100040F0020020642046FEF774FE6664206CDE
:1029200020F0020040F00100206400E0012584F85E
:102930003C602846DEE70000002001400021014005
:10294000002201402E2E2F447269766572732F5338
:10295000544D3332463478785F48414C5F44726955
:102960007665722F5372632F73746D3332663478C9
:10297000785F68616C5F6164632E63000100000F23
:1029800008B500680649884208D10648016841F444
:1029900080710160006800F48070009008BD000044
:1029A000002001404438024038B500250446009517
:1029B000007E30B1012804D040F2D22140A005F0C1
:1029C00093FDE06A68B1B0F1805F0AD0B0F1005FBA
:1029D00007D0B0F1405F04D040F2D32138A005F019
:1029E00083FD94F83C00012807D0012084F83C00C6
:1029F00020688168C90702D011E0022038BD8168D3
:102A000041F0010181603C483C490068B0FBF1F0B5
:102A100000EB400000E0401E00900028FBD1206841
:102A20008168C90742D0216C40F20162914341F4B0
:102A3000807121644168490505D5216C21F400515C
:102A400041F480512164216CC90404D5616C21F0EA
:102A50000601616400E0656484F83C5028496FF029
:102A60002202026048682749C006206806D08842D2
:102A700024D1816811F0405F13D01FE08842F8D064
:102A8000214A904203D1D1F80423D206F1D01F4A43
:102A9000904213D1D1F8041301F01F011029E8D39B
:102AA0000CE0816841F08041816007E0206C40F0DB
:102AB00010002064606C40F001006064002038BDAC
:102AC0002E2E2F447269766572732F53544D333214
:102AD000463478785F48414C5F4472697665722F5E
:102AE0005372632F73746D3332663478785F686124
:102AF0006C5F6164632E63002400002040420F007D
:102B0000002301400020014000210140002201403B
:102B100010B504000AD00B492068884203D0682110
:102B200009A005F0E1FC607910B106E0012010BDBC
:102B300000202071204600F023F801206071002061
:102B400010BD0000003002402E2E2F4472697665C1
:102B500072732F53544D3332463478785F48414C6A
:102B60005F4472697665722F5372632F73746D338D
:102B700032663478785F68616C5F6372632E6300DD
:102B800008B500680649884208D10648016841F442
:102B900080510160006800F48050009008BD000082
:102BA00000300240303802407047000070B50E001F
:102BB000054606D0012E04D04FF4D96142A005F09D
:102BC00093FC05EB0614A069B0F5804F04D340F2E6
:102BD000C9613DA005F088FC6868B0F5403F27D08A
:102BE000E069C0B1012816D0022814D0032812D001
:102BF000042810D005280ED006280CD007280AD0AB
:102C0000082808D0092806D00A2804D040F2CC6150
:102C10002DA005F069FC686850B1206A40B1012818
:102C200006D0022804D040F2CF6127A005F05CFC5A
:102C300095F83800012822D0012385F83830022089
:102C400085F83900218CE069183440EA01422D49A9
:102C50000A2816D0092814D0207B42EA0060002EF2
:102C60002E6813D0F2698A430243F2612968206812
:102C7000086160680A281BD0092819D01DE00220CD
:102C800070BDE06800F07F401043E8E7726A8A4355
:102C90000243726229682068886160680A2801D04E
:102CA00009280AD1E068296820F07F40886204E0A2
:102CB000E068296820F07F40086285F839300020FC
:102CC00085F8380070BD00002E2E2F44726976659D
:102CD00072732F53544D3332463478785F48414CE9
:102CE0005F4472697665722F5372632F73746D330C
:102CF00032663478785F68616C5F646D6132642E2F
:102D0000630000000F0003FF2DE9F0470446006850
:102D100046680568F1074FF004084FF000074FF0D0
:102D2000010914D0E90512D5016821F48071016010
:102D3000E06B40F00100E0632168C1F8089084F87E
:102D4000398084F83870616909B120468847B00637
:102D500015D5A80413D52068016821F4005101603D
:102D6000216820208860E06B40F00200E06384F876
:102D7000398084F83870616909B120468847300786
:102D800015D5280513D52068016821F4006101607C
:102D9000216808208860E06B40F00400E06384F85C
:102DA000398084F83870616909B120468847700716
:102DB0000CD568050AD52068016821F4806101609E
:102DC0002168C1F80880204600F0A8F8B00713D5A4
:102DD000A80511D52068016821F4007101602168FF
:102DE00002208860E06BE06384F8399084F83870E2
:102DF000216909B120468847F00612D5E80410D5AC
:102E00002068016821F480510160216810208860E9
:102E1000E06BE06384F8399084F838702046FFF75F
:102E2000C3FEBDE8F087000070B5040031D02B4927
:102E30002068884203D0F72129A005F055FB60687F
:102E400060B1B0F5803F09D0B0F5003F06D0B0F5D5
:102E5000403F03D0F82122A005F046FBA06858B1FE
:102E6000012809D0022807D0032805D0042803D060
:102E7000F9211BA005F038FBE068B0F5804F03D3C3
:102E8000FA2117A005F030FB94F83900002510B1A5
:102E900006E0012070BD84F83850204600F040F86C
:102EA000022084F8390020680168626821F440310A
:102EB000114301602068416BA26821F007011143B2
:102EC00041632068016CE2686FF30D0111430164F6
:102ED000E563012084F83900002070BD00B0024095
:102EE0002E2E2F447269766572732F53544D3332F0
:102EF000463478785F48414C5F4472697665722F3A
:102F00005372632F73746D3332663478785F6861FF
:102F10006C5F646D6132642E6300000070470000D6
:102F200008B500680B49884212D10B48016841F48A
:102F3000000101600068002200F4000000900521FB
:102F40005A2001F0ABFEBDE808405A2001F074BEE3
:102F500008BD000000B00240303802402DE9F843BF
:102F600000260446009600680D4600684FF00407EE
:102F7000C0074FF0030825D000F024FE81461DE075
:102F80004068009010F0210F0FD00098800603D504
:102F9000E06B40F00200E0630098C00703D0E06BF4
:102FA00040F00100E063212034E0681C06D000F00E
:102FB00009FEA0EB0900A8424DD8A5B320684168DE
:102FC0008907DDD52068C169406A01F0200100F061
:102FD0002000084335D000F0F5FD81462DE0406823
:102FE000009010F0290F1FD00098000703D5E06B68
:102FF00040F00400E0630098800603D5E06B40F0E9
:103000000200E0630098C00703D0E06B40F00100CD
:10301000E06329202168886084F8397084F838607A
:103020000120BDE8F88316E0681C06D000F0CAFD58
:10303000A0EB0900A8420ED86DB120684168C9060E
:10304000CDD5216812208860012084F8390084F8E9
:1030500038600020E5E754F83C0F40F0200044F8C9
:10306000040984F8018026700320DAE72DE9F8438B
:103070001E46089D174688460446B5F5803F04D392
:103080004FF4287112A005F02FFAB6F5804F04D343
:1030900040F2A1210EA005F027FA94F8380001288B
:1030A00014D0012084F83800022084F83900334617
:1030B0003A46414620460095FEF7EAFE2068016840
:1030C00041F0010101600020BDE8F8830220FBE728
:1030D0002E2E2F447269766572732F53544D3332FE
:1030E000463478785F48414C5F4472697665722F48
:1030F0005372632F73746D3332663478785F68610E
:103100006C5F646D6132642E6300000070B5040072
:1031100070D094F8350002286AD037492068884278
:103120003FD03549183188423BD03349303188424D
:1031300037D031494831884233D02F4960318842F5
:103140002FD02D49783188422BD02B49903188429D
:1031500027D02949A831884223D02849884220D045
:103160002649183188421CD024493031884218D071
:1031700022494831884214D020496031884210D019
:103180001E49783188420CD01C499031884208D0C1
:103190001A49A831884204D040F2471118A005F01E
:1031A000A3F92068016821F0010101602068002571
:1031B000056020684560206885602068C5602068DB
:1031C00005612168212048612046FEF7ADFEE563D8
:1031D00025646564A564E564256594F85C203F2159
:1031E00091408160656584F8355084F83450002042
:1031F00070BDFFE70120FBE7106002401064024051
:103200002E2E2F447269766572732F53544D3332CC
:10321000463478785F48414C5F4472697665722F16
:103220005372632F73746D3332663478785F6861DC
:103230006C5F646D612E63002DE9F041044600F07F
:10324000C1FC0546002C7CD0A249206888423ED0B3
:10325000A049183188423AD09E493031884236D050
:103260009C494831884232D09A49603188422ED0F8
:103270009849783188422AD096499031884226D0A0
:103280009449A831884222D0934988421FD092495C
:10329000183188421BD090493031884217D08E496E
:1032A0004831884213D08C49603188420FD08A4916
:1032B000783188420BD088499031884207D08649BE
:1032C000A831884203D0B72184A005F00DF96068C9
:1032D000C0B1B0F1007F15D0B0F1806F12D0B0F165
:1032E000C06F0FD0B0F1006F0CD0B0F1206F09D0DB
:1032F000B0F1406F06D0B0F1606F03D0B82177A075
:1033000005F0F2F8A06838B1402805D0802803D035
:10331000B92172A005F0E8F8E068B0F5007F04D0AC
:1033200018B1BA216DA005F0DFF82069B0F5806F03
:1033300004D018B1BB2169A005F0D6F8606958B176
:1033400000E071E0B0F5006F06D0B0F5805F03D00B
:10335000BC2162A005F0C8F8A06948B1B0F5005FD3
:1033600006D0B0F5804F03D0BD215CA005F0BCF8BD
:10337000E06940B1B0F5807F05D0202803D0BE21A0
:1033800056A005F0B1F8206A60B1B0F5803F09D0D1
:10339000B0F5003F06D0B0F5403F03D0BF214FA0AD
:1033A00005F0A2F8606A002832D0042806D0C021B7
:1033B0004AA005F099F8606A002829D0A06A48B1AF
:1033C000012807D0022805D0032803D0C52143A037
:1033D00005F08AF8E06A60B1B0F5000F09D0B0F1ED
:1033E000807F06D0B0F1C07F03D0C6213BA005F09E
:1033F0007BF8206B60B1B0F5001F09D0B0F5800FED
:1034000006D0B0F5C00F03D0C72134A005F06CF88A
:10341000022084F83500002684F8346020680168B2
:1034200021F0010101600EE00120BDE8F08100BF44
:1034300000F0C8FB401B052805D92020606503204B
:1034400084F83500F1E720680068C007F0D12268F1
:10345000116830480140D4E901031843D4E9033529
:103460002B43184363691843A3691843E36918435E
:10347000236A18430843616A042903D1D4E90B1372
:1034800019430843106020684069656A20F007000E
:1034900029460543012704290CD1A06A0543E06AA7
:1034A00040B12046FEF754FD20B14020606584F80D
:1034B0003570B9E7206845612046FEF735FD94F880
:1034C0005C203F2191408160666584F83570002062
:1034D000ABE7000010600240106402402E2E2F4423
:1034E0007269766572732F53544D3332463478784F
:1034F0005F48414C5F4472697665722F5372632F47
:1035000073746D3332663478785F68616C5F646DB4
:10351000612E63003F8010F070B5044600F052FB4E
:103520000546601C02D004480078044400F04AFBC1
:10353000401BA042FAD370BD180000202DE9F041D5
:1035400086B014216846FDF76FF82B480168002902
:103550004FD14FF00108C0F80080284800240168CE
:1035600041F0010101600068022500F001000590B2
:103570004FF63F00CDE9000502AA03260C2782E89A
:10358000D00069461E4800F053F902AA694682E855
:10359000D000CDE900851B4800F04AF948F233100D
:1035A000CDE9000502AA694682E8D000164800F07D
:1035B0003FF94FF68370CDE9000502AA694682E81B
:1035C000D000124800F034F94CF20370CDE9000548
:1035D00002AA694682E8D0000D4800F029F960206F
:1035E000CDE9000502AA694682E8D000094800F04A
:1035F0001FF906B0BDE8F081100000203838024005
:10360000001402400008024000180240001002406E
:10361000000C0240000402402DE9F05FDFF8A091A9
:10362000DFF8A0B10E460446484521D05C451FD0C6
:10363000654884421CD06548844219D0644884425D
:1036400016D06448844213D06348844210D0634843
:1036500084420DD0624884420AD06248844207D036
:103660006148844204D04FF4977160A004F03CFF9D
:10367000002001234FF00F0A03FA00F106EA0105CA
:103680008D427DD1684A20F003071744D7F8088897
:1036900082074FEA127C0AFA0CFE0EEA08024C4539
:1036A00002D14FF000083EE05C4502D14FF0010826
:1036B00039E0DFF81481444502D14FF0020832E0CE
:1036C000DFF80881444502D14FF003082BE0DFF812
:1036D0000081444502D14FF0040824E0DFF8F48073
:1036E000444502D14FF005081DE0DFF8EC80444569
:1036F00002D14FF0060816E0DFF8E080444502D121
:103700004FF007080FE0DFF8D880444502D14FF0B2
:10371000080808E0DFF8CC80444502D14FF00908E2
:1037200001E04FF00A0808FA0CF8904522D13F4A10
:10373000D2F800C02CEA050CC2F800C0121DD2F865
:1037400000C02CEA050CC2F800C0384A0C32D2F88E
:1037500000C02CEA050CC2F800C0121FD2F800C04D
:103760002CEA050CC2F800C0D7F8085825EA0E0567
:10377000C7F80858256847000322BA40954300E07F
:1037800017E02560C50804EB8505D5F820C047077C
:103790004FEAD7680AFA08F72CEA070CC5F820C0E8
:1037A000E5689543E56065688D436560A168914370
:1037B000A160401C1028FFF45FAFBDE8F09F00003F
:1037C000000002400004024000080240000C0240D9
:1037D000001002400014024000180240001C024089
:1037E0000020024000240240002802402E2E2F44D8
:1037F0007269766572732F53544D3332463478783C
:103800005F48414C5F4472697665722F5372632F33
:1038100073746D3332663478785F68616C5F67709B
:10382000696F2E630000000000300140003C014041
:103830002DE9F84FDFF8ACB20D460446584521D0CB
:10384000A94884421ED0A94884421BD0A84884427B
:1038500018D0A848844215D0A748844212D0A7485F
:1038600084420FD0A64884420CD0A648844209D096
:10387000A548844206D0A548844203D0AC21A4A028
:1038800004F032FE28680104090C01D0000C03D0BA
:10389000AD219FA004F028FE6868F8B101281DD072
:1038A00011281BD0022819D0122817D0B0F5881F74
:1038B00014D0B0F5041F11D0B0F5441F0ED0B0F5F0
:1038C000901F0BD0B0F5081F08D0B0F5481F05D0E9
:1038D000032803D0AE218EA004F006FE00264FF090
:1038E000010A4FF0030900BF0AFA06F02F6880466C
:1038F000074047457ED1287900F00300012801D018
:1039000002281DD1E86848B1012807D0022805D057
:10391000032803D0C0217EA004F0E6FDA068720059
:1039200009FA02F18843E96891400143A1606068A7
:10393000297920EA0800C1F30011B1400143616018
:103940002879C043800712D0A86838B1012805D073
:10395000022803D0D1216EA004F0C6FDE1687200F8
:1039600009FA02F08143A86890400843E060287992
:1039700000F00300022830D1286908B309281FD0BD
:1039800001281DD002281BD0032819D0042817D0E5
:10399000052815D0062813D0072811D008280FD0E5
:1039A0000A280DD00B280BD00C2809D00D2807D0E1
:1039B0000F2805D00E2803D0DE2155A004F094FD79
:1039C000F00804EB8002106A7107CB0E0F219940BA
:1039D000884329699940014311622068720009FAFD
:1039E00002F18843297901F00301914001432160EC
:1039F000686800E06FE010F4403F6CD05348016805
:103A000041F480410160006826F0030100F4804029
:103A100000904F480A18D2F80808B1070B0F0F2181
:103A2000994088435C4501D100212DE02E498C420C
:103A300001D1012128E02D498C4201D1022123E04E
:103A40002B498C4201D103211EE02A498C4201D12D
:103A5000042119E028498C4201D1052114E02749AD
:103A60008C4201D106210FE025498C4201D107216A
:103A70000AE024498C4201D1082105E022498C4208
:103A800001D1092100E00A2199400143C2F8081838
:103A9000304908686A68B843D20200D538430860E4
:103AA0002C49091D08686A68B843920200D538435A
:103AB00008602849091F08686A68B843920300D55E
:103AC000384308602349083908686A68B843D20354
:103AD00000D538430860761C102EFFF405AFBDE812
:103AE000F88F00000000024000040240000802407D
:103AF000000C024000100240001402400018024076
:103B0000001C024000200240002402400028024025
:103B10002E2E2F447269766572732F53544D3332B3
:103B2000463478785F48414C5F4472697665722FFD
:103B30005372632F73746D3332663478785F6861C3
:103B40006C5F6770696F2E630000000044380240AC
:103B500000300140083C014070B515460C00064697
:103B600004D140F29D1108A004F0BEFC45B1012D26
:103B700004D04FF4CF7104A004F0B6FCB46170BD62
:103B80002004B06170BD00002E2E2F44726976654E
:103B900072732F53544D3332463478785F48414C1A
:103BA0005F4472697665722F5372632F73746D333D
:103BB00032663478785F68616C5F6770696F2E6316
:103BC00000000000014880687047000018000020D5
:103BD00070B50D46044600681A49884209D01A4952
:103BE000884206D01949884203D05B2118A004F00E
:103BF0007BFC2DB1102D03D05C2115A004F074FCCA
:103C000094F83D00202801D0022070BD242084F8C3
:103C10003D002068016821F0010101602068416ACF
:103C200021F0100141622068416A29434162206805
:103C3000016841F001010160202084F83D0000206E
:103C400070BD00000054004000580040005C00407F
:103C50002E2E2F447269766572732F53544D333272
:103C6000463478785F48414C5F4472697665722FBC
:103C70005372632F73746D3332663478785F686182
:103C80006C5F6932635F65782E63000070B50D4626
:103C9000044600681849884209D01849884206D06D
:103CA0001749884203D0832116A004F01DFC0F2D74
:103CB00003D9842113A004F017FC94F83D002028B8
:103CC00001D0022070BD242084F83D0020680168E6
:103CD00021F0010101602168486A20F00F002843AB
:103CE00080B248622068016841F001010160202033
:103CF00084F83D00002070BD005400400058004092
:103D0000005C00402E2E2F447269766572732F532B
:103D1000544D3332463478785F48414C5F44726981
:103D20007665722F5372632F73746D3332663478F5
:103D3000785F68616C5F6932635F65782E6300004D
:103D400010B5040022D01249206888420AD01149D7
:103D5000884207D01049884204D040F239210FA090
:103D600004F0C2FB242084F83D002068016821F0A3
:103D700001010160204600F059FB0020206484F816
:103D80003D0044F8300FA073207310BD012010BD1A
:103D90000054004000580040005C00402E2E2F448C
:103DA0007269766572732F53544D33324634787886
:103DB0005F48414C5F4472697665722F5372632F7E
:103DC00073746D3332663478785F68616C5F693222
:103DD000632E630090F83D007047000070B504004A
:103DE0007DD08A49206888420AD08949884207D014
:103DF0008849884204D040F2C91187A004F074FBBE
:103E000060689349401E884204D94FF4E57182A04E
:103E100004F06AFBA0684FF4804530B1A84204D09A
:103E200040F2CB117CA004F05FFBE068800A04D074
:103E30004FF4E67178A004F057FB2069A84207D040
:103E4000B0F5404F04D040F2CD1173A004F04CFB0C
:103E5000606930B1012804D04FF4E7716EA004F01E
:103E600043FBA06930F0FE0004D040F2CF116AA0FD
:103E700004F03AFBE06930B1402804D04FF4E87117
:103E800065A004F031FB206A30B1802804D040F2F4
:103E9000D11161A004F028FB94F83D00002520B961
:103EA00084F83C50204600F0DFFA242084F83D00DE
:103EB0002068016821F0010101602068016841F477
:103EC000004101602068016821F40041016001F0B7
:103ED00067FB604A6168914202D85F4901E002E0F5
:103EE0005E49884201D2012070BD5D492368B0FB64
:103EF000F1F15E6826F03F060E435E606368934210
:103F000006D94FF4967359434FF47A73B1FBF3F12A
:103F10002368491C1E6A26F03F0631431962616816
:103F2000914210D84900401EB0FBF1F2521CC2F37E
:103F30000B02042A01D2042022E0B0FBF1F0401C65
:103F4000C0F30B001CE0A368F3B301EBC10202EB6A
:103F50000116421EB2FBF6F2521C42F480421205D8
:103F600049D093B301EBC10202EB0111401EB0FB3B
:103F7000F1F0401CC0F30B0040F4804040F40040DE
:103F80002168CA694CF6FF739A431043C861D4E9AB
:103F9000071001432068026822F0C002114301604B
:103FA000D4E9030101432068826848F2FF339A4351
:103FB00011438160D4E9050108432168CA6822F0F1
:103FC000FF021043C86001E00EE016E020680168BF
:103FD00041F0010101602564202084F83D00256343
:103FE00084F83E50002070BD01EB4106421EB2FB3A
:103FF000F6F2521CB3E70120C2E701EB4101401E7B
:10400000B0FBF1F0401CC0F30B00B7E700540040D8
:1040100000580040005C00402E2E2F4472697665E7
:1040200072732F53544D3332463478785F48414C85
:104030005F4472697665722F5372632F73746D33A8
:1040400032663478785F68616C5F6932632E630032
:104050007F1A0600A086010080841E0000093D0032
:1040600040420F002DE9FF4F83B01F46DDE911A844
:1040700093460446DDF84090FFF7A4FD0546012F66
:1040800006D0102F04D040F6482178A004F02CFA76
:1040900094F83D00202870D119230122814920463F
:1040A000009503F0C3F80028F5D194F83C000128EE
:1040B00063D0012084F83C0020680168C90703D15F
:1040C000016841F0010101602068016821F400618C
:1040D0000160222084F83D00402084F83E00002644
:1040E0002664C4F82490A4F82AA0608D20856E4828
:1040F000E062CDE900853B465A462046049902F02D
:1041000097FF002879D1208DD0B1012821D0022835
:10411000206824D0416980690090208D032866D8EA
:1041200001282BD06149022843464FF00002009538
:1041300057D00F46204603F079F800285DD13AE0C9
:104140002068416981690091016841F40071016052
:104150007DE02068016821F480610160F0E701687A
:1041600021F4806101602068016841F40061016010
:10417000206841698069009069E075E02A464146FF
:10418000204603F0F9F888BB54E02068016841F448
:104190000071016020680069616A0870606A401CF3
:1041A0006062218D491E2185618D491E61852168CE
:1041B0000969017042E02068016821F480610160B2
:1041C00020680069616A0870606A401C6062208D26
:1041D000401E2085608D401E608543460022394682
:1041E0000095204603F022F800B9CEE705E02A4604
:1041F0004146204603F0C0F818B1012007B0BDE8E1
:10420000F08F20680069616A0870606A401C606213
:10421000208D401E81B22185608D401E6085206802
:104220004269D243520712D4032903D1016821F411
:104230008061016020680069616A0870606A401CE2
:104240006062208D401E2085608D401E6085208D1F
:1042500000287FF462AF202084F83D0084F83E609F
:1042600084F83C600020C9E70220C7E72E2E2F44C7
:104270007269766572732F53544D333246347878B1
:104280005F48414C5F4472697665722F5372632FA9
:1042900073746D3332663478785F68616C5F69324D
:1042A000632E6300020010000000FFFF0400010005
:1042B0002DE9FF4F83B01F46DDE911A89346044660
:1042C000DDF84090FFF77EFC0546012F06D0102F49
:1042D00004D040F6CD1145A004F006F994F83D0055
:1042E00020287DD1192301224E492046009502F055
:1042F0009DFF002877D194F83C00012873D001205D
:1043000084F83C0020680168C90703D1016841F0C6
:10431000010101602068016821F400610160212031
:1043200084F83D00402084F83E0000262664C4F84E
:104330002490A4F82AA0608D20853B48E062CDE956
:1043400000853B465A462046049902F0EFFE70B9BC
:1043500030E02A464146204603F046F858B1206C2A
:10436000042804D12068016841F400710160012033
:1043700007B0BDE8F08F606A216800780861606A64
:10438000401C6062218D491E89B22185628D521EBA
:10439000628522685369DB435B070BD469B10078FF
:1043A0001061606A401C6062208D401E2085608D17
:1043B000401E6085208D0028CBD12A4641462046EC
:1043C00002F008FF0028CAD154F83D0B016841F4FF
:1043D00000710160202004F81E09E677667700E08E
:1043E00001E00020C4E70220C2E700002E2E2F4487
:1043F0007269766572732F53544D33324634787830
:104400005F48414C5F4472697665722F5372632F27
:1044100073746D3332663478785F68616C5F6932CB
:10442000632E6300020010000000FFFF10B500685B
:10443000094988420FD10948016821F4000101604F
:1044400041150748FFF7E8F8BDE810404FF48071C8
:104450000448FFF7E1B810BD005C0040403802405E
:104460000008024000000240F0B587B00446142165
:104470006846FCF7D9F81C492068884231D11B48AE
:104480000024016841F004010160016801F00401A9
:104490000591016841F0010101600068122500F0FA
:1044A000010005904FF4007001268DE8610004279B
:1044B000CDE9034769460E48FFF7BAF930028DE8A7
:1044C0006100CDE9034769460A48FFF7B1F907489B
:1044D0001030016841F400010160006800F4000040
:1044E000059007B0F0BD0000005C0040303802408D
:1044F000000802400000024002488168027811442E
:1045000081607047180000200B4810B5016841F425
:1045100000710160016841F480610160016841F44B
:1045200080710160032000F009FC0F2000F006F804
:1045300000F06AFB002010BD003C024030B505468B
:104540001F4887B00024016841F010010160006835
:1045500006A900F01000009001A801F001F80498ED
:10456000A8B101F01DF840001649174AB0FBF1F15F
:104570001648491E026040F2E732C0E90324C0E950
:104580000114846102F030F8040003D015E001F05A
:1045900007F8E9E70D4802F005F904000DD13620CF
:1045A00000F04AFB102D07D200222946362000F0E9
:1045B00075FB0748056000E0012407B0204630BDC8
:1045C0004038024040420F00001000409803002095
:1045D0001C0000202DE9F04116460C460546022A33
:1045E00004D340F242314CA003F07EFF20684FF428
:1045F0008057B84204D340F2433147A003F074FF20
:1046000060684FF48038404504D34FF4517142A0A4
:1046100003F06AFFA068B84204D340F245313EA0DF
:1046200003F062FFE068404504D340F246313AA00F
:1046300003F05AFF206990B1012810D002280ED053
:1046400003280CD004280AD0052808D0062806D054
:10465000072804D040F247312FA003F045FF6069DE
:10466000FF2804D94FF452712BA003F03DFFA0693D
:10467000FF2804D940F2493127A003F035FFE06953
:10468000B0F5806F07D0B0F5C06F04D040F24A316A
:1046900021A003F029FF206A052806D0072804D0AE
:1046A00040F24B311CA003F01FFFA06AB0F5005F81
:1046B00004D34FF4537118A003F016FFE06AB0F56D
:1046C000006F04D340F24D3113A003F00DFF95F8B5
:1046D000A00001281ED0012785F8A070022085F8CF
:1046E000A10006EB860000EBC60005EB800034223B
:1046F00021463830FBF766FF32462146284603F054
:1047000069F82868476285F8A170002085F8A00044
:10471000BDE8F0810220FBE72E2E2F4472697665FA
:1047200072732F53544D3332463478785F48414C7E
:104730005F4472697665722F5372632F73746D33A1
:1047400032663478785F68616C5F6C7464632E6382
:104750000000000090F8A01001290ED0012100F8FF
:10476000A01F02224270064A136843F4803313608C
:104770004170002101700846704702207047000018
:104780001868014070472DE9F04104460068856BC8
:10479000466B69074FF004084FF0000715D5710705
:1047A00013D5416B21F0040141632168C1F83C80BD
:1047B000D4F8A41041F00101C4F8A41084F8A18039
:1047C00084F8A0702046FFF7DDFFA80716D5B007D4
:1047D00014D52068416B21F0020141632168022059
:1047E000C863D4F8A40040F00200C4F8A40084F820
:1047F000A18084F8A0702046FFF7C4FF05EA0600F8
:10480000C0074FF001080ED02068416B21F0010174
:1048100041632168C1F83C8084F8A18084F8A070CD
:10482000204600F017F9280710D530070ED520686C
:10483000416B21F00801416321680820C86384F8B6
:10484000A18084F8A070204600F0DCF9BDE8F0817A
:1048500070B504006CD06E492068884203D0E7210F
:104860006CA003F041FE60694FF48055A84203D369
:10487000E82168A003F038FEA0694FF40066B0425A
:1048800003D3E92163A003F02FFEE069A84203D31C
:10489000EA2160A003F028FE206AB04203D3EB2196
:1048A0005CA003F021FEA06AB04203D3EC2159A022
:1048B00003F01AFE606AA84203D3ED2155A003F06D
:1048C00013FE206BB04203D3EE2152A003F00CFE86
:1048D000E06AA84203D3EF214EA003F005FE606812
:1048E00030B1B0F1004F03D0F0214AA003F0FCFD3D
:1048F000A06830B1B0F1804F03D0F12145A003F0A2
:10490000F3FDE06830B1B0F1005F03D0F22141A0C7
:1049100003F0EAFD206930B1B0F1805F03D0F321EC
:104920003CA003F0E1FD94F8A100002510B106E0E1
:10493000012070BD84F8A050204600F08DF80220C0
:1049400084F8A1002068816921F070418161D4E977
:1049500001010843D4E903121143084321688A691D
:104960001043886121688A68394802408A60A18AB8
:104970000B0421688A68A66932431A438A60216859
:10498000CA680240CA60A18B0B042168CA68266A03
:1049900032431A43CA6021680A6902400A61A18C45
:1049A0000B0421680A69A66A32431A430A61216826
:1049B0004A6902404A61A08D216802044869236B5C
:1049C00018431043486194F835002168020294F8B6
:1049D0003600CB6A03F07F43CB622168CB6A94F840
:1049E000346042EA004033430343CB622068416BAA
:1049F00041F0060141632068816941F00101816154
:104A0000C4F8A450012084F8A100002070BD00006B
:104A1000006801402E2E2F447269766572732F5301
:104A2000544D3332463478785F48414C5F44726964
:104A30007665722F5372632F73746D3332663478D8
:104A4000785F68616C5F6C7464632E6300000000C3
:104A500000F800F0704700002DE9F04192B00446E4
:104A600014216846FBF7E0FD302105A8FBF7DCFDCB
:104A70005C49206888427DD1082005903C2009903F
:104A800005200B904FF480300E9005A800F0CEF971
:104A900008B1FDF7E3FA54480024016841F0806151
:104AA0000160006800F0806011904F481438016880
:104AB00041F020010160016801F0200111910168BD
:104AC00041F001010160016801F0010111910168EB
:104AD00041F002010160016801F0020111910168D9
:104AE00041F040010160016801F04001119101684D
:104AF00041F004010160016801F0040111910168B5
:104B000041F0080101600068022500F008001190E2
:104B10004FF480600090CDE901540E26CDE90346A4
:104B200069463248FEF784FE41F658000090CDE910
:104B30000154CDE9034669462D48FEF779FE03206E
:104B40000090CDE901540927DFF8A880CDE903479B
:104B500069464046FEF76CFE4FF470600090CDE968
:104B60000154CDE9034669464046FEF761FE4FF425
:104B70000C6000E032E00090CDE90154DFF878806D
:104B8000CDE9034669464046FEF752FE4FF4986071
:104B90000090CDE90154CDE9034669461748FEF778
:104BA00047FE48200090CDE90154CDE9034669460F
:104BB0001348FEF73DFE4FF4A0500090CDE901549C
:104BC000CDE9034769464046FEF732FE0022052143
:104BD000582000F063F8582000F02EF812B0BDE81D
:104BE000F081000000680140443802400014024097
:104BF0000000024000040240001802400008024089
:104C0000000C0240704700000A4808B5016841F4F2
:104C100080410160006800F4804000900548001F5A
:104C2000016841F080510160006800F08050009000
:104C300008BD00004438024010B5040003D5BC2173
:104C400007A003F051FC002C09DB04F01F01012038
:104C500088406109890001F1E021C1F8000110BD1F
:104C60002E2E2F447269766572732F53544D333252
:104C7000463478785F48414C5F4472697665722F9C
:104C80005372632F73746D3332663478785F686162
:104C90006C5F636F727465782E63000070B51546A3
:104CA0000C460646102A03D3A82114A003F01CFCCE
:104CB000102C03D3A92111A003F016FC1E48006894
:104CC000C0F30223C3F107022046042A00D90422BC
:104CD000191D072901D2002300E0DB1E012404FA7C
:104CE00002F1491E014099409C40641E2C40214322
:104CF0003046BDE8704003F0E0BB00002E2E2F448C
:104D00007269766572732F53544D33324634787816
:104D10005F48414C5F4472697665722F5372632F0E
:104D200073746D3332663478785F68616C5F636F7B
:104D3000727465782E6300000CED00E010B5044637
:104D400007280BD0062C09D0052C07D0042C05D041
:104D5000032C03D0902108A003F0C6FB154904F0F2
:104D6000070208684FF6FF03184040EA0220124A83
:104D70001043086010BD00002E2E2F447269766526
:104D800072732F53544D3332463478785F48414C18
:104D90005F4472697665722F5372632F73746D333B
:104DA00032663478785F68616C5F636F72746578BF
:104DB0002E6300000CED00E00000FA052DE9F84339
:104DC0001748016841F0805101600068154F00F0FC
:104DD0008050012600903E64FEF7F4FE05464FF435
:104DE0007A78114C05E000BFFEF7ECFE401B404511
:104DF0000DD86068C003F7D57E64FEF7E3FE054674
:104E0000464607E0FEF7DEFE401BB04202D9032013
:104E1000BDE8F88360688003F4D50020F8E700005F
:104E20004038024000000E42007000402DE9F84F6B
:104E300004460068401E7E2804D940F68901F2A08D
:104E400003F052FB2068DFF8FCA3FF4EFF4DC107C3
:104E50004FF4BF7B4FF001094FF0000803D18107E9
:104E600001D440067ED560683238584504D940F6F2
:104E70009401E5A003F038FBCAF86880FEF7A2FEB3
:104E8000074604E0FEF79EFEC01B02287ED8286875
:104E90000001F7D42078EE4FC0070ED0A068801E26
:104EA000052804D940F6AA01D7A003F01DFB6068CD
:104EB000217A800140EA017038602078800723D58C
:104EC000E068801E0D2804D940F6B701CEA003F09B
:104ED0000BFBE069401E1F2804D940F6B801CAA0A8
:104EE00003F002FB38686168227B8901C0F302701D
:104EF00041EA026141EA007038603068E16920F0FF
:104F00001F00491E08433060207840061AD5E0682B
:104F1000801E0D2804D940F6C901BBA003F0E4FAB5
:104F2000A068801E052804D940F6CA01B6A003F087
:104F3000DBFA6068217B800140EA0160217A40EA67
:104F400001703860CAF86890FEF73CFE074606E03C
:104F500008E000BFFEF736FEC01B022896D828687E
:104F60000001F7D52068410701D4000777D52069F3
:104F70003238584504D940F6E801A3A003F0B4FA4A
:104F8000CAF87080FEF71EFE074606E0EBE000BFA1
:104F9000FEF718FEC01B0228E0D82868C043800036
:104FA000F6D52078AB4F400726D56069801E0D28C6
:104FB00004D940F6FD0194A003F096FA206A401E41
:104FC0001F2804D940F6FE018FA003F08DFA38683F
:104FD0002169227D8901C0F3027041EA026141EA40
:104FE000007038603068216A6FF0FF0220F4F850DA
:104FF00002EB0121084330602078000729D5A06921
:10500000801E052804D940F60D117FA003F06CFA2C
:10501000606A68B1B0F5803F0AD0B0F5003F07D0B4
:10502000B0F5403F04D040F60E1177A003F05CFAD3
:1050300038682169C0F30360890141EA0060217E7C
:1050400040EA017038603068616A20F440300843FB
:105050003060CAF87090FEF7B5FD064605E008E03E
:10506000FEF7B0FD801B02287DD82868C043800071
:10507000F6D42078800677D5A06AB0F5807F61D01D
:10508000B0F5007F5ED0744988425BD07349884296
:1050900058D07349884255D07249884252D07249DB
:1050A00088424FD0714988424CD07149884249D0DA
:1050B0007049884246D07049884243D06F4988423F
:1050C00040D06F4988423DD06E4988423AD06E49FF
:1050D000884237D06D49884234D06D49884231D0FA
:1050E0006C4988422ED06C4988422BD06B4988424B
:1050F00028D06B49884225D06A49884222D06A4923
:1051000088421FD0694988421CD06949884219D019
:105110006849884216D06849884213D06749884256
:1051200010D0674988420DD0664988420AD0664946
:10513000884207D06549884204D040F62D1132A03C
:1051400003F0D2F9414846464030016841F08051B1
:10515000016000685E4D00F080500090286840F4C7
:105160008070286001E02EE044E0FEF72BFD07464A
:1051700005E000BFFEF726FDC01B022823D82868E3
:10518000C005F7D5324D143D286810F4407020D08A
:10519000218D01F4407181421BD028684D4920F4D3
:1051A0004070C1F800900E6028602868C00710D0D9
:1051B000FEF708FD064641F2883707E0FEF702FDDC
:1051C000801BB84202D90320BDE8F88F2868800709
:1051D000F4D5A16A1D48C1F301220830032A7ED00C
:1051E000016821F4F81101602868218DC1F30B01D9
:1051F000084328602078C00604D5374994F82C006D
:10520000C1F8E0010020DFE72E2E2F447269766599
:1052100072732F53544D3332463478785F48414C83
:105220005F4472697665722F5372632F73746D33A6
:1052300032663478785F68616C5F7263635F65784B
:105240002E630000000047428C38024000380240C4
:105250008438024088380240000302000003030043
:10526000000304000003050000030600000307001C
:10527000000308000003090000030A0000030B00FC
:1052800000030C0000030D0000030E0000030F00DC
:1052900000031000000311000003120000031300BC
:1052A000000314000003150000031600000317009C
:1052B000000318000003190000031A0000031B007C
:1052C00000031C0000031D0000031E0000031F005C
:1052D00000700040400E474200104742FFE702685E
:1052E000034B22F4F81219400A4302607CE70000E5
:1052F000FFFCFF0F2DE9F0470C4605007ED0286823
:10530000401E0E2804D940F25A2182A003F0ECF886
:1053100014B3012C20D0022C1ED0032C1CD0042C42
:105320001AD0052C18D0062C16D0072C14D0082C17
:1053300012D0092C10D00A2C0ED00B2C0CD00C2C17
:105340000AD00D2C08D00E2C06D00F2C04D040F221
:105350005B2170A003F0C8F8DFF8F081D8F80000F6
:10536000E7B200F00F00A04207D288F80070D8F82A
:10537000000000F00F00A04240D12868744E810761
:1053800029D5400703D5306840F4E05030602878D4
:10539000000703D5306840F460403060A868A0B1D1
:1053A000802812D0902810D0A0280ED0B0280CD081
:1053B000C0280AD0D02808D0E02806D0F02804D091
:1053C00040F27E2153A003F08FF83068A96820F0E6
:1053D000F000084330602878C00743D0DFF87091B0
:1053E0006868A9F1080998B1012822D0022824D0C0
:1053F000032822D040F2852146A000E03FE003F0E0
:1054000073F86868012814D0022816D0032814D035
:10541000D9F800008007002831DA3068696820F088
:10542000030008433060FEF7CDFB814641F2883A25
:1054300011E0D9F800008003EDE7D9F80000800101
:10544000E9E700BFFEF7BEFBA0EB0901514502D919
:105450000320BDE8F0873068696800F00C00B0EB0D
:10546000810FEFD1D8F80010404601F00F01A142A2
:1054700007D90770006800F00F00A04201D001209A
:10548000E7E728784FF4805440074FF4A0574FF4D3
:10549000C0584FF4E05914D5E86860B1A0420AD072
:1054A000B84208D0404506D0484504D040F2C32158
:1054B00018A003F019F83068E96820F4E0500843B8
:1054C00030602878000715D5286960B1A0420AD05D
:1054D000B84208D0404506D0484504D040F2CA2121
:1054E0000CA003F001F83068296920F4604040EA1C
:1054F000C100306000F074F83168164AC1F303113E
:10550000515CC8401449086014480068FFF716F859
:1055100000209EE72E2E2F447269766572732F53FA
:10552000544D3332463478785F48414C5F44726959
:105530007665722F5372632F73746D3332663478CD
:10554000785F68616C5F7263632E6300003C0240A9
:1055500008380240C88C0008240000201C000020ED
:105560000F2202600C4A136803F0030343601368C0
:1055700003F0F0038360136803F4E053C360126820
:105580004FF4E05303EAD20202610448006800F0DD
:105590000F0008607047000008380240003C0240DD
:1055A0000448054900680968044AC1F38221515C36
:1055B000C84070472400002008380240D88C0008FA
:1055C0000448054900680968044AC1F34231515C46
:1055D000C84070472400002008380240D88C0008DA
:1055E000154810B5006810F00C02144813D0411093
:1055F000042A0FD0082A0ED10F4C241F22682368DA
:1056000002F03F025B0207D52068C0F38810A0FBC0
:10561000010106E0084610BD2168C1F38811A1FB15
:1056200000010023FAF742FE2168C1F30141491C41
:105630004900B0FBF1F010BD083802400024F4002E
:105640002DE9F84F04007DD020680F2803D9E6210A
:10565000F7A002F049FF2078DFF80C94C007A9F109
:10566000040555D060684FF480364FF4A02738B158
:10567000B04205D0B84203D0EB21EDA002F034FFD8
:10568000F948001D0168C1F38101012908D00068B3
:10569000C0F3810002280AD1D9F80000400206D5E3
:1056A0002868800334D560680028CCD030E060687A
:1056B000B04203D1286840F480300CE0B84228683A
:1056C00003D140F480202860F4E720F48030286083
:1056D000286820F480202860606860B1FEF772FAC4
:1056E000064604E0FEF76EFA801B64287ED8286820
:1056F0008003F7D50CE0FEF765FA064605E000BF2B
:10570000FEF760FA801B6428F0D828688003F7D47D
:105710002078DFF8588380074FF0000A56D5E068FC
:1057200030B1012804D040F21D11C1A002F0DCFE0E
:1057300020691F2804D94FF48F71BDA002F0D4FE58
:10574000C94800E092E0001D016811F00C0F08D07C
:105750000068C0F38100022810D1D9F8000040028F
:105760000CD42868800702D5E06801287ED128681B
:10577000216920F0F80040EAC10017E0E068B8B104
:105780000120C8F80000FEF71DFA064605E000BF3C
:10579000FEF718FA801B0228A8D828688007F7D5DA
:1057A000286820F0F801206941EAC00028600DE077
:1057B000C8F800A0FEF706FA064604E0FEF702FA73
:1057C000801B022892D828688007F7D42078000729
:1057D0002ED5A54EA64F60697036D0B1012808D0ED
:1057E0004FF4AF7192A002F07FFE00E04BE16069E0
:1057F00078B101203860FEF7E5F9074605E000BF03
:10580000FEF7E0F9C01B0228C6D830688007F7D53C
:105810000EE0C7F800A0FEF7D5F9074605E000BF87
:10582000FEF7D0F9C01B0228B6D830688007F7D43D
:105830002078400776D5A068002740B1012806D01F
:10584000052804D04FF4C57179A002F04DFEDFF8B1
:1058500018B20BF13C0BDBF80000C0000DD4DBF8F4
:10586000001041F08051CBF8001000E038E1DBF887
:105870000000012700F0805000907E4E3068C00587
:1058800011D4306840F480703060FEF79BF90090CE
:1058900006E000BFFEF796F90099401A022891D859
:1058A0003068C005F6D5704EA0686C3601280FD060
:1058B0000528306810D020F001003060306820F0FA
:1058C00004003060A068B8B1FEF77CF900900FE0EA
:1058D000306840F00100F4E740F004003060F7E782
:1058E000FEF770F90099411A41F2883081428BD855
:1058F00030688007F4D50EE0FEF764F9009007E009
:10590000FEF760F90099411A41F2883081428BD844
:1059100030688007F4D42FB1DBF8001021F08051FB
:10592000CBF80010A069002876D0012809D0022801
:1059300007D040F2CD113EA002F0D6FDA0690028AC
:10594000F2D04948001D0068C0F381000228A06918
:105950006DD0022805D0C8F860A0FEF733F90446E0
:1059600094E0E06938B1B0F5800F04D04FF4EB71EA
:105970002FA002F0B9FD206A801E3D2804D940F214
:10598000D7112BA002F0B0FD606A3238B0F5BF7FAE
:1059900004D94FF4EC7126A002F0A6FDA06A0228FB
:1059A0000AD0042808D0062806D0082804D040F2DF
:1059B000D9111FA002F098FDE06A801E0D2804D9BD
:1059C0004FF4ED711AA002F08FFD4746C8F860A0B1
:1059D000FEF7F8F8064604E0FEF7F4F8801B02280C
:1059E00051D828688001F7D4D4E907010843A16A97
:1059F000214A490802EB0141626A41EA82110843E7
:105A000094F82C1040EA0161C9F8001001203866B2
:105A1000FEF7D8F8044606E064E000BFFEF7D2F8CF
:105A2000001B02282FD828688001F7D55AE031E002
:105A30002E2E2F447269766572732F53544D333274
:105A4000463478785F48414C5F4472697665722FBE
:105A50005372632F73746D3332663478785F686184
:105A60006C5F7263632E630004380240000047429B
:105A7000800E4742007000400000FFFFFEF7A2F8D2
:105A8000001B022802D90320BDE8F88F2868800196
:105A9000F4D427E00128F7D0D9F80000E26900F437
:105AA000800191421CD1226A00F03F01914217D13E
:105AB00047F6C071626A0140B1EB821F10D1A26A41
:105AC0004FF0FF3300F4403103EB5202B1EB024FD1
:105AD00006D194F82C1000F07060B0EB016F01D08B
