:020000040800F2
:10000000680600204D020008A50300089D030008B3
:10001000A1030008070300083104000800000000E5
:10002000000000000000000000000000C9030008FC
:100030000B03000800000000A7030008CB03000822
:1000400067020008670200086702000867020008EC
:1000500067020008670200086702000867020008DC
:1000600067020008670200086702000867020008CC
:1000700067020008670200086702000867020008BC
:1000800067020008670200086702000867020008AC
:10009000670200086702000867020008670200089C
:1000A000670200086702000867020008670200088C
:1000B000670200086702000867020008670200087C
:1000C000670200086702000867020008670200086C
:1000D000670200086702000867020008670200085C
:1000E000670200086702000867020008670200084C
:1000F000670200086702000867020008670200083C
:10010000670200086702000867020008670200082B
:10011000670200086702000867020008670200081B
:10012000670200086702000867020008670200080B
:1001300067020008670200086702000867020008FB
:1001400067020008670200086702000867020008EB
:1001500067020008670200086702000867020008DB
:1001600067020008670200086702000867020008CB
:1001700067020008670200086702000867020008BB
:1001800067020008670200086702000867020008AB
:10019000670200086702000867020008670200089B
:1001A00067020008670200086702000800F002F812
:1001B00000F03CF80AA090E8000C82448344AAF1C5
:1001C0000107DA4501D100F031F8AFF2090EBAE8C3
:1001D0000F0013F0010F18BFFB1A43F0010318477B
:1001E000D8020000F8020000103A24BF78C878C195
:1001F000FAD8520724BF30C830C144BF04680C602D
:10020000704700000023002400250026103A28BF74
:1002100078C1FBD8520728BF30C148BF0B60704778
:100220001FB500F043F91FBD10B510BD00F031F847
:100230001146FFF7F5FF00F0FDF800F04FF803B4AA
:10024000FFF7F2FF03BC00F057F8000009488047B1
:1002500009480047FEE7FEE7FEE7FEE7FEE7FEE7A8
:10026000FEE7FEE7FEE7FEE704480549054A064BC0
:1002700070470000CD030008AD01000868000020B1
:10028000680600206802002068020020704770475E
:100290007047754600F02CF8AE4605006946534697
:1002A00020F00700854618B020B5FFF7DDFFBDE858
:1002B00020404FF000064FF000074FF000084FF0CD
:1002C000000B21F00701AC46ACE8C009ACE8C0095E
:1002D000ACE8C009ACE8C0098D46704710B50446CB
:1002E000AFF300802046BDE81040FFF7A8BF000034
:1002F000004870470800002001491820ABBEFEE707
:1003000026000200704700BFFEE77047F0B50A46BE
:1003100000210023002400BF3DE0012505FA01F380
:10032000156805EA03049C4234D105684F00032692
:10033000BE40B543056015794E00B54006683543AB
:1003400005601579012D02D01579022D16D1856829
:100350004F000326BE40B543856055794E00B54039
:10036000866835438560456801268E40B543456003
:10037000456896798E40B6B235434560C5684F00F2
:100380000326BE40B543C560D5794E00B540C6686A
:100390003543C560491C1029BFD3F0BD00BFFEE73F
:1003A00000BFFEE77047704729B1064A1268024352
:1003B000044B1A6004E0034A12688243014B1A603E
:1003C000704700003038024070477047144800689A
:1003D00040F47000124908601248006840F00100C3
:1003E0001049086000200F49083108600D48006876
:1003F0000D4908400B4908600C48091D0860081F9A
:10040000006820F48020091F0860002005490C3195
:1004100008604FF0006002498039086070470000B2
:1004200088ED00E000380240FFFFF6FE10300024A7
:1004300000BFFEE701214020FFF7B6FF012108467B
:10044000FFF7B2FF4FF4C040154908600120087162
:1004500000208871012048710020C8711148FFF701
:1004600055FF01200E49086000200871C8710E4830
:10047000FFF74CFF13E04FF400500A491831088091
:100480000948006900F0010020B14FF48040891C48
:10049000088004E04FF48040024918310880EAE700
:1004A0000000002000180240000002404FF04070A1
:1004B000E1EE100A70470000D80400080000002098
:1004C00008000000E8010008E0040008080000201F
:1004D00060060000040200080000000000000000A8
:04000005080001AD41
:00000001FF
