:020000040800F2
:10000000880600204D020008BD040008B504000861
:10001000B9040008070300082906000800000000D2
:100020000000000000000000000000007D05000846
:100030000B0300080000000039050008C105000896
:1000400067020008670200086702000867020008EC
:10005000670200086702000835030008670200080D
:1000600067020008670200086702000867020008CC
:1000700067020008670200086702000867020008BC
:1000800067020008670200086702000867020008AC
:10009000670200086702000867020008670200089C
:1000A000670200086702000867020008670200088C
:1000B000670200086702000867020008670200087C
:1000C000670200086702000867020008670200086C
:1000D000670200086702000867020008670200085C
:1000E000670200086702000867020008670200084C
:1000F000670200086702000867020008670200083C
:10010000670200086702000867020008670200082B
:10011000670200086702000867020008670200081B
:10012000670200086702000867020008670200080B
:1001300067020008670200086702000867020008FB
:1001400067020008670200086702000867020008EB
:1001500067020008670200086702000867020008DB
:1001600067020008670200086702000867020008CB
:1001700067020008670200086702000867020008BB
:1001800067020008670200086702000867020008AB
:10019000670200086702000867020008670200089B
:1001A00067020008670200086702000800F002F812
:1001B00000F03CF80AA090E8000C82448344AAF1C5
:1001C0000107DA4501D100F031F8AFF2090EBAE8C3
:1001D0000F0013F0010F18BFFB1A43F0010318477B
:1001E0001405000034050000103A24BF78C878C117
:1001F000FAD8520724BF30C830C144BF04680C602D
:10020000704700000023002400250026103A28BF74
:1002100078C1FBD8520728BF30C148BF0B60704778
:100220001FB500F061FA1FBD10B510BD00F031F828
:100230001146FFF7F5FF00F0F9F900F04FF803B4AD
:10024000FFF7F2FF03BC00F057F8000009488047B1
:1002500009480047FEE7FEE7FEE7FEE7FEE7FEE7A8
:10026000FEE7FEE7FEE7FEE704480549054A064BC0
:1002700070470000C5050008AD0100088800002097
:1002800088060020880200208802002070477047FE
:100290007047754600F02CF8AE4605006946534697
:1002A00020F00700854618B020B5FFF7DDFFBDE858
:1002B00020404FF000064FF000074FF000084FF0CD
:1002C000000B21F00701AC46ACE8C009ACE8C0095E
:1002D000ACE8C009ACE8C0098D46704710B50446CB
:1002E000AFF300802046BDE81040FFF7A8BF000034
:1002F000004870472800002001491820ABBEFEE7E7
:1003000026000200704700BFFEE7704701B540F2CB
:10031000E331009848430649086004E00448006857
:10032000401E03490860024800680028F6D108BD55
:100330002400002010B5012000F01EF890B10A48FA
:10034000006800F4005028B14FF400500649891DA0
:10035000088004E04FF400500349091D0880012083
:1003600000F004F810BD00001418024001490860B4
:1003700070470000143C014001460020034A126807
:100380000A400AB1012000E000207047143C0140FF
:10039000002123498279002A3AD00A46126803686C
:1003A0009A430B461A600A1D126803689A430B1D94
:1003B0001A60027911440A6803681A430A60184AED
:1003C0000832126803689A43154B08331A601A1DE5
:1003D000126803689A43124B0C331A604279102A50
:1003E0000ED11A1F126803681A430D4B08331A60A6
:1003F0001A1D126803681A43094B0C331A600DE08A
:100400000749427911440A6803681A430A6005E003
:10041000027911440A6803689A430A607047000031
:10042000003C0140F0B50A4600210023002400BF33
:100430003DE0012505FA01F3156805EA03049C4235
:1004400034D105684F000326BE40B54305601579D9
:100450004E00B5400668354305601579012D02D080
:100460001579022D16D185684F000326BE40B5438D
:10047000856055794E00B54086683543856045688E
:1004800001268E40B5434560456896798E40B6B2E8
:1004900035434560C5684F000326BE40B543C5607F
:1004A000D5794E00B540C6683543C560491C102952
:1004B000BFD3F0BD00BFFEE700BFFEE770470000FE
:1004C00070B5002100230F22C4781CB3174C246898
:1004D00004F4E064C4F5E064C4F30721C1F104044A
:1004E000E3B20A4144789C40E1B28478144021434D
:1004F0000C07210E0E4C05786155047804F01F0599
:100500000124AC4005786D11AD0005F1E025C5F87A
:10051000004109E0047804F01F050124AC40054DBA
:100520000678761145F8264070BD00000CED00E01D
:1005300000E400E080E100E07047000029B1064AD5
:1005400012680243044B1A6004E0034A12688243B3
:10055000014B1A60704700003038024029B1064A4A
:1005600012680243044B1A6004E0034A1268824393
:10057000014B1A6070470000443802407047000089
:1005800030B500228B071C0F0F2303FA04F20B4B2C
:100590008C1053F824309343084C8D1044F82530C8
:1005A00023468C1053F824308C07240F00FA04F4EF
:1005B0002343024C8D1044F8253030BD08380140EB
:1005C000704700001448006840F470001249086049
:1005D0001248006840F001001049086000200F49EF
:1005E000083108600D4800680D4908400B49086053
:1005F0000C48091D0860081F006820F48020091FAE
:100600000860002005490C3108604FF00060024985
:10061000803908607047000088ED00E00038024033
:10062000FFFFF6FE1030002400BFFEE7012140204E
:10063000FFF784FF01210846FFF780FF4FF4C04019
:100640002449086001200871002088710120487148
:100650000020C8712048FFF7E5FE01201D49086011
:1006600000200871012048711C48FFF7DBFE0121C2
:100670008803FFF773FF01210020FFF781FF0120AE
:10068000174908600020087108204871012088710E
:100690000846FFF77DFE0620124908700F204870BB
:1006A00088700120C8700846FFF70AFF11E04FF478
:1006B00080400949183108804FF4FA70FFF726FE90
:1006C0004FF4804004491A3108804FF4FA70FFF764
:1006D0001DFEECE718000020001802400000024058
:1006E000100000200C0000204FF04070E1EE100AD6
:1006F00070470000140700080000002028000000D8
:10070000E80100083C0700082800002060060000FF
:1007100004020008001802400018024000000240D5
:1007200000000000000000000000000000000000C9
:0C073000000000000000000000000000BD
:04000005080001AD41
:00000001FF
