:020000040800F2
:10000000D00600204D0200085D140008ED0700082E
:100010005914000823030008991C00080000000080
:10002000000000000000000000000000BB1A0008F3
:100030004D04000800000000D9140008211C00082D
:1000400067020008670200086702000867020008EC
:1000500067020008670200085104000867020008F0
:1000600067020008670200086702000867020008CC
:1000700067020008670200086702000867020008BC
:1000800067020008670200086702000867020008AC
:10009000670200086702000867020008670200089C
:1000A000670200086702000867020008670200088C
:1000B000670200086702000867020008670200087C
:1000C000670200086702000867020008670200086C
:1000D000670200086702000867020008670200085C
:1000E000670200086702000867020008670200084C
:1000F000670200086702000867020008670200083C
:10010000670200086702000867020008670200082B
:10011000670200086702000867020008670200081B
:10012000670200086702000867020008670200080B
:1001300067020008670200086702000867020008FB
:1001400067020008670200086702000867020008EB
:1001500067020008670200086702000867020008DB
:1001600067020008670200086702000867020008CB
:1001700067020008670200086702000867020008BB
:1001800067020008670200086702000867020008AB
:10019000670200086702000867020008670200089B
:1001A00067020008670200086702000800F002F812
:1001B00000F03CF80AA090E8000C82448344AAF1C5
:1001C0000107DA4501D100F031F8AFF2090EBAE8C3
:1001D0000F0013F0010F18BFFB1A43F0010318477B
:1001E000D85E0000F85E0000103A24BF78C878C1DD
:1001F000FAD8520724BF30C830C144BF04680C602D
:10020000704700000023002400250026103A28BF74
:1002100078C1FBD8520728BF30C148BF0B60704778
:100220001FB503F0C6F91FBD10B510BD00F044F8AE
:100230001146FFF7F5FF02F02FFA00F062F803B461
:10024000FFF7F2FF03BC00F065F8000009488047A3
:1002500009480047FEE7FEE7FEE7FEE7FEE7FEE7A8
:10026000FEE7FEE7FEE7FEE704480549054A064BC0
:1002700070470000311C0008AD010008D0000020CC
:10028000D0060020D0020020D00200207047704726
:10029000704710B500F008F8006810BD10B50446AE
:1002A00000F002F8046010BD0048704770000020A4
:1002B00000487047700000207546FFF7F9FFAE4612
:1002C00005006946534620F00700854618B020B562
:1002D000FFF7CAFFBDE820404FF000064FF00007CF
:1002E0004FF000084FF0000B21F00701AC46ACE8DE
:1002F000C009ACE8C009ACE8C009ACE8C0098D464B
:10030000704710B50446AFF300802046BDE81040AA
:10031000FFF795BF01491820ABBEFEE7260002009B
:10032000704700BFFEE710B50121C80501F010F9C4
:1003300000214FF4000001F00BF910BD0146002030
:10034000034A52680A400AB1012000E000207047C9
:1003500000B0024070B50021002200230024344D7B
:100360002D68344E3540324E356035462D6806686E
:1003700035432F4E356035466D6B25F007057563A7
:1003800035466D6B46683543294E7563456835B90A
:10039000C5682902058A2A04057D2B0621E04568E7
:1003A000012D05D1C5682902058A2A04002318E019
:1003B0004568022D05D1C56869010569EA02002377
:1003C0000FE04568032D06D1C56869010569AA02D9
:1003D0004569EB0305E0C568290105692A024569FD
:1003E0002B0341EA0205866835431D43104EB66B68
:1003F00035430F4EB5638569F56335462D6C6FF354
:100400000D05356435462D6CC6693543084E356497
:10041000858C2C0435466D6C05F040457564354679
:100420006D6C066A26433543014E756470BD00004D
:1004300000B00240FCE0FCFF0348006840F001000F
:10044000014908607047000000B00240704700009A
:1004500010B5012000F01EF890B10A48006800F4C1
:10046000005028B14FF400500649891D088004E06F
:100470004FF400500349091D0880012000F004F8E2
:1004800010BD0000141802400149086070470000C8
:10049000143C014001460020034A12680A400AB198
:1004A000012000E000207047143C01400021234956
:1004B0008279002A3AD00A46126803689A430B46AA
:1004C0001A600A1D126803689A430B1D1A600279AC
:1004D00011440A6803681A430A60184A083212680D
:1004E00003689A43154B08331A601A1D1268036893
:1004F0009A43124B0C331A604279102A0ED11A1FFC
:10050000126803681A430D4B08331A601A1D1268EB
:1005100003681A43094B0C331A600DE0074942790E
:1005200011440A6803681A430A6005E0027911441D
:100530000A6803689A430A6070470000003C014063
:1005400010B5024600200023102A03D14FF02044AA
:10055000636E0FE0B2F5807F02D10A4C236809E098
:10056000B2F5805F03D1074C2034236802E0054CCC
:10057000D434236803EA01048C4201D0002000E057
:10058000012010BD840000A00021D0E900231A43FF
:1005900083685B1E42EA4312C36842EA4321014A70
:1005A00011607047500100A070B5002200210023A7
:1005B00000240568AD00A5F1C045D5F840216FF3D2
:1005C0000E02D0E901563543C66835430669354306
:1005D0004669354386693543C6693543066A3543FE
:1005E000466A35432A43056835B90568AD00A5F16B
:1005F000C045C5F8402111E03B4D2B686FF30E0359
:10060000D0E907563543466A35432B43364D2B60B8
:100610000568AD00A5F1C045C5F84021056875BB6A
:10062000314D0835066855F8261001F07041856A8D
:100630002D686D1E866A7668761E45EA0616856AFE
:10064000AD686D1E46EA0526856AED686D1E46EAB0
:100650000536856A2D8A6D1E46EA0546856AAD8A8D
:100660006D1E46EA0556856A2D7E6D1E46EA0565B5
:1006700029431D4D0835066845F8261032E0FFE78E
:10068000194D0835066855F8261001F07041856A45
:100690002D686D1E866A7668761E45EA0616856A9E
:1006A000AD686D1E46EA0526856A2D8A6D1E46EAEE
:1006B000054529430C4D08352C6804F07044856AC3
:1006C000ED686D1E2E03856AAD8A6D1E46EA0555DE
:1006D0002C434FF02045C5F84841034D08350668C6
:1006E00045F8261070BD0000400100A004490968CB
:1006F00041EA40014FF02042C2F854117047000017
:10070000540100A0F0B50A4600210023002400BFD8
:100710003DE0012505FA01F3156805EA03049C4252
:1007200034D105684F000326BE40B54305601579F6
:100730004E00B5400668354305601579012D02D09D
:100740001579022D16D185684F000326BE40B543AA
:10075000856055794E00B5408668354385604568AB
:1007600001268E40B5434560456896798E40B6B205
:1007700035434560C5684F000326BE40B543C5609C
:10078000D5794E00B540C6683543C560491C10296F
:10079000BFD3F0BDF0B5002300244D07ED0E02FAE3
:1007A00005F3CE1000F1200555F826504E07F70E40
:1007B0000F26BE40B543CF1000F1200646F8275063
:1007C000CE1000F1200555F8265045EA0304CE105E
:1007D00000F1200545F82640F0BD418370470183B4
:1007E00070470AB1018300E04183704700BFFEE714
:1007F0001CB501216F2000F09BFE0E220321504802
:10080000FFF7C8FF0E2204214D48FFF7C3FF0E2259
:1008100006214B48FFF7BEFF0E220B214848FFF789
:10082000B9FF0E220C214648FFF7B4FF41F65800ED
:10083000009002208DF805008DF8040000208DF84E
:1008400006008DF8070069463D48FFF75BFF092267
:1008500000213C48FFF79EFF092201213948FFF79C
:1008600099FF0E2208213748FFF794FF0E22092135
:100870003448FFF78FFF0E220A213248FFF78AFF24
:100880000E220B212F48FFF785FF40F603700090E2
:1008900069462C48FFF736FF0E2206212A48FFF74B
:1008A00079FF0E2207212848FFF774FF0E220A2144
:1008B0002548FFF76FFF4FF4986000906946224883
:1008C000FFF720FF0E2203212048FFF763FF0E22CF
:1008D00006211E48FFF75EFF4820009069461B482E
:1008E000FFF710FF0E220A211948FFF753FF4FF4BC
:1008F0008060009069461648FFF704FF0E2206212B
:100900001448FFF747FF0E2207211248FFF742FF66
:1009100009220A210F48FFF73DFF0E220B210D4847
:10092000FFF738FF09220C210A48FFF733FF4FF485
:10093000E650009069460748FFF7E4FE1CBD000042
:10094000000002400004024000080240000C024087
:10095000001402400018024010B5044624B90421D6
:100960000448FFF73AFF03E004210248FFF737FF8E
:1009700010BD0000000802400146002000BF04E056
:10098000044B1B6823F81010401CB0F5A02FF7D3C0
:1009900070470000380000201CB501210C2000F039
:1009A000C7FD0420009002208DF8050001208DF87D
:1009B000040000208DF806008DF8070069460848FD
:1009C000FFF7A0FE4FF40050009069460548FFF77E
:1009D00099FE01220421024800F006F81CBD000027
:1009E00000080240000C024070B504460D46164651
:1009F000324629462046FFF7F4FE70BD10B5292087
:100A000000F05CFB10BD00002DE9F04F8BB00546F7
:100A10000E4614461F464FF00008C146C246C34664
:100A2000F02000FB065020490968022202FB001852
:100A30001E48008800F478404FEAE0291B480078FF
:100A400000F01F0B1948008800F4FC604FEA601AA0
:100A5000FFF769FC4FF44030019002200290CDF87E
:100A600010A0CDF80CB0CDF814900F200690CDF862
:100A70001C802FB900200890012009900A9404E0FE
:100A8000EF200890099401200A9001A8FFF762FC6A
:100A9000FFF7D2FC00BF0220FFF750FC0028FAD07D
:100AA0000BB0BDE8F08F00003800002034000020BB
:100AB0002DE9F04F89B005460E4691469A4600272B
:100AC000B846002008900790069005900490039087
:100AD00000248346029001900090A9EB05000028B5
:100AE00002DDA9EB050001E0A5EB090007B2AAEBC6
:100AF0000600002802DDAAEB060001E0A6EB0A00D2
:100B00000FFA80F828B2089030B20790A94503DBAD
:100B100001200690059003E04FF0FF30069005900D
:100B2000B24503DB01200490039003E04FF0FF3057
:100B30000490039047450DDB0020069003903C464F
:100B4000384607EBD07149100FFA81FBCDF80880C9
:100B500001970CE00020059004904446404608EBC5
:100B6000D07149100FFA81FB0297CDF80480002064
:100B7000009025E0DDE9071000F0AFFC0298584432
:100B80000FFA80FBA3450DDBABEB04000FFA80FBF3
:100B900006990898084400B20890049907980844F8
:100BA00000B2079005990898084400B2089003998C
:100BB0000798084400B207900098401C00B20090CB
:100BC000DDE900018842D5DD09B0BDE8F08F00B550
:100BD0008FB0FFF7E1FE0020FFF7BEFE0120FFF718
:100BE000BBFE00F0D9F900F091F80121880600F071
:100BF000DFFC0121C80500F09BFCFFF7F9FD00F0C8
:100C000037FE002000900190029003900C900D9010
:100C10000E9004220721C02000F01CFD4FF400308C
:100C200000F006FD012000F00FFD00BF3D2000F0A8
:100C3000DFFC0028FAD009200490012005901D2037
:100C400006900320079040F20D10089040F24310E8
:100C5000099040F217100A9040F247100B90684636
:100C600000F09AFA0FB000BD00B591B01E200190BF
:100C700040F20D1002900420039040F243100490C3
:100C800002200590FF200690002007900890099010
:100C90000A904FF480600B9005200C9040F2E31016
:100CA0000E90C01E0F904FF4A07010904FF0504067
:100CB0000D9001A9124800F03EFB12480D904FF430
:100CC000C0600B9007200C9001A90D48803000F007
:100CD00032FB012000F0BAFB0121094800F020FBA3
:100CE00001210748803000F01BFB012000F0AEFB23
:100CF000054800F0C1F9012000F03CFA11B000BD38
:100D000084680140000005D01000002010B5CA2002
:100D100000F0D4F9C32000F0F7F9082000F0F4F94E
:100D2000502000F0F1F9CF2000F0C8F9002000F0C9
:100D3000EBF9C12000F0E8F9302000F0E5F9ED20F2
:100D400000F0BCF9642000F0DFF9032000F0DCF9CA
:100D5000122000F0D9F9812000F0D6F9E82000F047
:100D6000ADF9852000F0D0F9002000F0CDF9782011
:100D700000F0CAF9CB2000F0A1F9392000F0C4F945
:100D80002C2000F0C1F9002000F0BEF9342000F062
:100D9000BBF9022000F0B8F9F72000F08FF920200D
:100DA00000F0B2F9EA2000F089F9002000F0ACF977
:100DB000002000F0A9F9B12000F080F9002000F037
:100DC000A3F91B2000F0A0F9B62000F077F90A2063
:100DD00000F09AF9A22000F097F9C02000F06EF917
:100DE000102000F091F9C12000F068F9102000F007
:100DF0008BF9C52000F062F9452000F085F9152037
:100E000000F082F9C72000F059F9902000F07CF939
:100E1000362000F053F9C82000F076F9F22000F0F7
:100E20004DF9002000F070F9B02000F047F9C22021
:100E300000F06AF9B62000F041F90A2000F064F9E8
:100E4000A72000F061F9272000F05EF9042000F0EF
:100E50005BF92A2000F032F9002000F055F900205B
:100E600000F052F9002000F04FF9EF2000F04CF9AB
:100E70002B2000F023F9002000F046F9002000F0BC
:100E800043F9012000F040F93F2000F03DF9F62041
:100E900000F014F9012000F037F9002000F034F9D7
:100EA000062000F031F92C2000F008F9C82001F0EC
:100EB000C7FB262000F002F9012000F025F9E02010
:100EC00000F0FCF80F2000F01FF9292000F01CF9B9
:100ED000242000F019F90C2000F016F90E2000F083
:100EE00013F9092000F010F94E2000F00DF97820D8
:100EF00000F00AF93C2000F007F9092000F004F99D
:100F0000132000F001F9052000F0FEF8172000F092
:100F1000FBF8112000F0F8F8002000F0F5F8E120CF
:100F200000F0CCF8002000F0EFF8162000F0ECF80C
:100F30001B2000F0E9F8042000F0E6F8112000F092
:100F4000E3F8072000F0E0F8312000F0DDF833206E
:100F500000F0DAF8422000F0D7F8052000F0D4F8CD
:100F60000C2000F0D1F80A2000F0CEF8282000F084
:100F7000CBF82F2000F0C8F80F2000F0C5F81120A2
:100F800000F09CF8C82001F05BFB292000F096F8E7
:100F90002C2000F093F810BD00B587B0012120206F
:100FA00000F0C6FA0121080500F002FB8020009045
:100FB00001208DF8050002208DF8040000208DF836
:100FC000060002208DF8070069462648FFF79AFBC5
:100FD0004FF48070009069462248FFF793FB4FF46E
:100FE0000070009069461F48FFF78CFB052207211F
:100FF0001C48FFF7CFFB052208211A48FFF7CAFB60
:10100000052209211748FFF7C5FB174800F0D4FC5B
:101010001548008800F0400010BB0020ADF8080023
:101020004FF48270ADF80A000020ADF80C00ADF866
:101030000E00ADF810004FF40070ADF8120018204B
:10104000ADF814000020ADF816000720ADF8180028
:1010500002A9054800F013FD0121034800F0A0FC9F
:1010600007B000BD00140240005001400149088053
:1010700070470000360000200149086070470000FA
:101080003000002038B94FF05041064A116000216D
:10109000054A116005E00549024A11600121024A32
:1010A00011607047380000203C000020000005D08F
:1010B00001490880704700003400002010B5044644
:1010C00000224FF400510E48FFF78EFC0020FFF77E
:1010D00043FC21460B4800F0D0FC00BF0221094828
:1010E00000F0C2FC0028F9D000BF8021054800F0C4
:1010F000BBFC0028F9D10120FFF72EFC10BD000039
:10110000000C02400050014010B50446012251037A
:101110000D48FFF769FC0020FFF71EFC21460B4835
:1011200000F0ABFC00BF0221084800F09DFC002845
:10113000F9D000BF8021054800F096FC0028F9D1C5
:101140000120FFF709FC10BD000C024000500140D7
:1011500030B10749096841F00101054A116005E015
:101160000349096821F00101014A1160704700003C
:101170001868014030B10749096841F48031054AD7
:10118000116005E00349096821F48031014A1160CA
:101190007047000018680140F0B5002100220023CC
:1011A0000024002500265B4F3F68DFF86CC107EA8A
:1011B0000C07DFF860C1CCF80070078A3904674675
:1011C0003F68D0F814C04CEA010C47EA0C07DFF87E
:1011D00044C1CCF800700CF104073F68DFF838C157
:1011E00007EA0C07DFF82CC10CF1040CCCF80070F6
:1011F000078B3A0467463F68D0F81CC04CEA020CE3
:1012000047EA0C07DFF80CC10CF1040CCCF80070B5
:101210000CF104073F68DFF800C107EA0C07DFF8AC
:10122000F4C00CF1080CCCF80070078C3B04674646
:101230003F68D0F824C04CEA030C47EA0C07DFF8FB
:10124000D4C00CF1080CCCF800700CF104073F6816
:10125000DFF8C4C007EA0C07DFF8B8C00CF10C0CCB
:10126000CCF80070078D3C046746D7F800C0C76A09
:1012700027434CEA070C274F0C37C7F800C03F1D27
:101280003F68DFF898C007EA0C07DFF888C00CF168
:10129000100CCCF80070D0E9007C47EA0C07D0F8BD
:1012A00008C047EA0C07D0F80CC047EA0C07DFF883
:1012B00064C00CF1100CDCF800C047EA0C07DFF842
:1012C00054C00CF1100CCCF80070476B3D02078E37
:1012D0003E04104F24373F6807F07F47DFF834C0E3
:1012E0000CF1240CCCF8007046EA0507D0F838C0A1
:1012F00047EA0C07DFF81CC00CF1240CDCF800C036
:1013000047EA0C07DFF80CC00CF1240CCCF8007095
:10131000F0BD00000868014000F800F08F88FE0F63
:1013200021B1026842F00102026003E0026822F08B
:101330000102026070472DE9F041002400250026DB
:10134000002200270023B1F804C04FEA0C44D0F873
:1013500004C00CF4704CC0F804C0D1F800C04CEAD2
:10136000040CC0F804C0B1F80CC04FEA0C45D0F82A
:1013700008C00CF4704CC0F808C0D1F808C04CEAA2
:10138000050CC0F808C0D0F810C02CF0070CC0F84D
:1013900010C0D1F810C0C0F810C0D1F81CC04FEA7E
:1013A0000C26B1F820C04FEA0C4291F824C04FEA55
:1013B0000C67D0F818C09C46C0F818C0D1F818C007
:1013C0004CEA060C4CEA020C4CEA070CC0F818C0B8
:1013D000D0F814C02CF0FF0CC0F814C0D1F814C021
:1013E000C0F814C0D0F81CC040F207782CEA080CF2
:1013F000C0F81CC0D1E90AC84CEA080CC0F81CC0EF
:10140000D0F828C09C46C0F828C0D1F830C0C0F839
:1014100028C0B1F838C04FEA0C43D0F82CC00CF00B
:10142000E02CC0F82CC0D1F834C04CEA030CC0F852
:101430002CC0D0F830C06FF30A0CC0F830C0D1F81F
:101440003CC0C0F830C0BDE8F08100000149086030
:10145000704700002468014000BFFEE770470000AD
:1014600070B5002100230F22C4781CB3174C2468E8
:1014700004F4E064C4F5E064C4F30721C1F104049A
:10148000E3B20A4144789C40E1B28478144021439D
:101490000C07210E0E4C05786155047804F01F05E9
:1014A0000124AC4005786D11AD0005F1E025C5F8CB
:1014B000004109E0047804F01F050124AC40054D0B
:1014C0000678761145F8264070BD00000CED00E06E
:1014D00000E400E080E100E0704770B504460D468E
:1014E000002C06DBEF2C04DC002D02DBB5F5A07F21
:1014F00000DB70BDA9B2A0B200230122FFF784FA7D
:1015000000BFF6E770B504460D46002C06DBEF2C55
:1015100004DC002D02DBB5F5A07F00DB70BDA9B2B5
:10152000A0B200230122FFF76FFA00BFF6E7000028
:1015300029B1064A12680243044B1A6004E0034AC8
:1015400012688243014B1A60704700003038024035
:1015500029B1064A12680243044B1A6004E0034AA8
:1015600012688243014B1A60704700001038024035
:1015700029B1064A12680243044B1A6004E0034A88
:1015800012688243014B1A607047000038380240ED
:1015900029B1064A12680243044B1A6004E0034A68
:1015A00012688243014B1A607047000020380240E5
:1015B00029B1064A12680243044B1A6004E0034A48
:1015C00012688243014B1A607047000044380240A1
:1015D00029B1064A12680243044B1A6004E0034A28
:1015E00012688243014B1A607047000024380240A1
:1015F00010B501460022002300204A11012A02D121
:101600000A4C236808E0022A03D1084C703423688E
:1016100002E0064C7434236801F01F020124944058
:101620001C400CB1012000E0002010BD0038024039
:1016300001460020034A106820F44030084310603F
:10164000704700008C38024001490867704700006D
:101650000000474210B5830143EA016343EA027385
:10166000014C236010BD0000883802401CB50121E8
:101670007E20FFF75DFF02208DF804008DF8050045
:1016800000208DF806008DF807000C220521724815
:10169000FFF780F80C2206216F48FFF77BF86020E7
:1016A000009069466C48FFF72DF80C2200216B482A
:1016B000FFF770F80120009069466848FFF722F8AC
:1016C0000C2200216648FFF765F80C2201216448CE
:1016D000FFF760F80C2208216148FFF75BF80C2245
:1016E00009215F48FFF756F80C220A215C48FFF7F2
:1016F00051F80C220E215A48FFF74CF80C220F210A
:101700005748FFF747F84CF2037000906946544879
:10171000FEF7F8FF0C2200215248FFF73BF80C229D
:1017200001215048FFF736F80C2207214D48FFF7FA
:1017300031F80C2208214B48FFF72CF80C22092124
:101740004848FFF727F80C220A214648FFF722F8FD
:101750000C220B214348FFF71DF80C22114641488B
:10176000FFF718F80C220D213E48FFF713F80C2262
:101770000E213C48FFF70EF80C220F213948FFF7E5
:1017800009F84FF68370009069463648FEF7BAFFB5
:101790000C2200213448FEF7FDFF0C2201213248C3
:1017A000FEF7F8FF0C2202212F48FEF7F3FF0C2270
:1017B00003212D48FEF7EEFF0C2204212A48FEF7F4
:1017C000E9FF0C2205212848FEF7E4FF0C220B213B
:1017D0002548FEF7DFFF0C2211462348FEF7DAFF0B
:1017E0000C220D212048FEF7D5FF0C220E211E48A9
:1017F000FEF7D0FF0C220F211B48FEF7CBFF4FF660
:101800003F00009069461848FEF77CFF0C2200213B
:101810001648FEF7BFFF0C2201211448FEF7BAFF5D
:101820000C2204211148FEF7B5FF0C2205210F48B8
:10183000FEF7B0FF0C2208210C48FEF7ABFF0C228C
:101840000F210A48FEF7A6FF48F2331000906946C0
:101850000648FEF757FF1CBD000402400008024086
:10186000000C024000100240001402400018024028
:1018700000B593B0FFF7FAFE01210846FFF778FEA6
:10188000022001900720029004200390072004907A
:1018900002200590069007900120089000200990F2
:1018A00004200A9010200B9040200C904FF4C07040
:1018B0000D9000200E904FF400600F9000201090CB
:1018C0004FF40050119001A8129008A8FEF76CFE8A
:1018D00000F002F813B000BD1FB5002401200090F5
:1018E00008200190012002900020039000BF2021D9
:1018F0000120FEF725FE0028F9D16846FEF744FED8
:101900000A2000F0ABFE0220009008200190012088
:1019100002900020039000BF20210120FEF710FE5E
:101920000028F9D16846FEF72FFE0320009008201A
:101930000190042002900020039000BF202101208C
:10194000FEF7FEFD0028F9D16846FEF71DFE00BF38
:1019500020210120FEF7F4FD0028F9D16846FEF7AA
:1019600013FE40F231240420009008200190012051
:101970000290039400BF20210120FEF7E1FD002822
:10198000F9D16846FEF700FE40F26A50FEF7AEFE5F
:1019900000BF20210120FEF7D3FD0028F9D11FBD93
:1019A00021B1028842F04002028004E002884FF632
:1019B000BF731A400280704710B504462448844221
:1019C00008D101218014FFF703FE0021A014FFF7C6
:1019D000FFFD3CE01F48844208D101210014FFF7BD
:1019E000D7FD00212014FFF7D3FD30E01A488442D0
:1019F00008D10121C013FFF7CBFD0021E013FFF751
:101A0000C7FD24E01548844208D101214014FFF7A6
:101A1000DFFD00216014FFF7DBFD18E01048844271
:101A200009D101210805FFF7D3FD00214FF48010F3
:101A3000FFF7CEFD0BE00B48844208D10121480599
:101A4000FFF7C6FD00214FF40010FFF7C1FD10BDE8
:101A50000030014000380040003C004000340140AC
:101A600000500140005401400246002013890B4001
:101A70000BB1012000E0002070478181704710B554
:101A80000022028802F441520B884C8823438C8840
:101A90002343CC8823430C8923434C8923438C89DB
:101AA0002343CC8923431A430280838B4FF2FF7474
:101AB000234083830B8A038210BD704730B5002218
:101AC0008B071C0F0F2303FA04F20B4B8C1053F8F7
:101AD00024309343084C8D1044F8253023468C1055
:101AE00053F824308C07240F00FA04F42343024CEB
:101AF0008D1044F8253030BD083801400CB5002069
:101B0000019000904248006840F4803040490860ED
:101B100000BF3F48006800F4003000900198401C6E
:101B20000190009818B90198B0F5A04FF1D138484C
:101B3000006800F4003010B10120009001E00020A6
:101B400000900098012803D132483149091D0860EE
:101B50002F484030006840F080502D4940310860E7
:101B60002D48006840F440402B4908602848083060
:101B700000682749083108600846006840F40040C2
:101B800008600846006840F4A050086020480068DB
:101B900040F080701E49086000BF1D48006800F0DA
:101BA00000700028F9D01C48006840F480301A49C1
:101BB000086000BF1848406800F480300028F9D061
:101BC0001548006840F400301349086000BF12480F
:101BD000406800F400300028F9D040F205700F4949
:101BE00008600B480830006820F0030008490831FD
:101BF00008600846006840F00200086000BF044822
:101C00000830006800F00C000828F8D10CBD000076
:101C100000380240085A400700700040003C024073
:101C200002480068401C0149086070476C000020B1
:101C300010B51548006840F4700013490860134857
:101C4000006840F001001149086000200F49083188
:101C500008600E4800680E4908400C4908600D48AD
:101C6000091D0860081F006820F48020091F086013
:101C7000002006490C310860FFF740FF4FF000607C
:101C800001498039086010BD88ED00E0003802404D
:101C9000FFFFF6FE1030002400BFFEE703B40198FA
:101CA0004100009850EAC12018BF04204A0D18BF17
:101CB00040F0010040F2FF72B2EB515F08BF40F00C
:101CC0000200012808BF052002B070470000000094
:101CD00010B52F499FED2C1B2DED020B84B00598FC
:101CE00020F000408842D8BF9DED040B2DDD29492E
:101CF000884209D1049840B94FF00100FEF7CEFAAE
:101D000000F07EFC06B010BD05DB9DED040B00F07D
:101D10006BFC06B010BD68469DED040B00F07CF82E
:101D200010F0030004BF9DED021B9DED000B0CD0D5
:101D300001280ED09DED021B9DED000B022817D04F
:101D4000012000F0B9FB06B010BD00F081FA06B02A
:101D500010BD9DED021B9DED000B012000F0ACFBC2
:101D600051EC100B00F05CFE06B041EC100B10BD06
:101D700000F06EFA51EC100B00F052FE06B041EC90
:101D8000100B10BD0000000000000000000000006B
:101D9000FB21E93F0000F07F00B52DED048BB0EE94
:101DA000409AF0EE609A83B051EC190B01F0DAF929
:101DB00041EC180B18EE100A18EE901A8DED008BFE
:101DC000002818BF0120084320F00040C0F17F60C8
:101DD00000F1E040C00F14D019EE101A19EE900A6D
:101DE0008DED009B002918BF0121084320F0004021
:101DF000C0F17F6000F1E040C00F04BF0120FEF79A
:101E00004DFAB0EE480A03B0F0EE680ABDEC048B60
:101E100000BD0000000000002DE9F14F04462DED4B
:101E2000020B2DED088B8AB09FEDE70B80ED020BC6
:101E3000139EE74826F0004585420ADC9DED120B13
:101E4000002084ED000B0AB0BDEC088B03B0BDE8A8
:101E5000F08FE0489FEDE0AB9FEDE1BBA84247DD8E
:101E6000E14F9FEDE39B9FEDE48B9DED120B53EC57
:101E70001A2B51EC100B002E1CDD01F03FFA41EC47
:101E8000100BBD4208D053EC1B2B51EC100B01F092
:101E900035FAC4E900010BE053EC192B51EC100B9F
:101EA00001F02CFA53EC182B01F028FAC4E90001D8
:101EB0000120C8E700F0F2FD41EC100BBD4208D054
:101EC00053EC1B2B51EC100B00F0E8FDC4E90001B2
:101ED0000BE053EC192B51EC100B00F0DFFD53EC31
:101EE000182B00F0DBFDC4E900014FF0FF30AAE73A
:101EF000C348A84279DB9DED120B51EC100B00F0AA
:101F0000BFFB41EC180B9FEDC00B53EC102B01F005
:101F10001FF89FEDBF1B53EC112B00F0BFFD00F02D
:101F2000BDFF074600F0E9FF41EC190B53EC1A2BFB
:101F300001F00EF853EC182B01F008F941EC180BE6
:101F400053EC1B2B51EC190B01F002F8DFF8C8A27F
:101F500041EC100B4FEA15580125FA4453EC102BB5
:101F600051EC180B01F0CAF9032DC4E900013DD072
:101F7000C1F30A5005EB4511A8EB0000113981426D
:101F800034DA0AEB051BB0EE48AA9BED000BF0EE2D
:101F900068AA53EC102B51EC190B00F0D9FF41EC5F
:101FA0001B0B51EC1A0B53EC1B2B01F0A7F941EC66
:101FB000180B51EC1A0B53EC182B01F09FF953EC52
:101FC0001B2B01F09BF99BED020B41EC1A0B53EC20
:101FD000102B51EC190B00F0BBFF53EC1A2B01F046
:101FE0008DF941EC100B6D1CB8E70EE0002EA8BF78
:101FF0003846BFF628AF94ED000B51EC100B00F003
:102000000FFDC4E9000178421DE7C6F3130040F458
:10201000801EC6F30A50A0F2F530471100F01F05EC
:10202000C5F12000DDF848B0089000200690079028
:102030000520EC467949002D07EB0002794408BFE2
:1020400051F8221009D051F8223001EB8201AB4047
:102050004A68089922FA01F11943A1FB0E26A1FB57
:102060000B131A449A4234BF0123002303EB0608E2
:102070000CEB8003D3E901A60E448E4234BF01214C
:10208000002192448A4411B1924502D903E092455D
:1020900001D2012100E00021C3E901A641444CF82E
:1020A0002010011EA0F10100C4DC029800F10050D4
:1020B000850F0298DDE903678000DDF8148000F0E9
:1020C0001CFF41EC1A0B304600F02EFF9FED541B15
:1020D00053EC112B00F03CFF41EC1B0B384600F099
:1020E00023FF9FED511B53EC112B00F031FF41EC0E
:1020F000180B404600F018FF9FED4D1B53EC112BC1
:1021000000F026FF41EC190B51EC180B53EC192B86
:1021100000F0C4FC53EC1B2B00F0C0FC53EC1A2B5A
:1021200000F0BCFCCDE90801002008909DED080BF3
:1021300053EC1A2B51EC100B01F0E0F853EC1B2B75
:1021400001F0DCF853EC182B01F0D8F853EC192B04
:1021500000F0FCFF9FED381B53EC112B00F0F8FE54
:102160009FED370B41EC180B53EC102B9DED080B3A
:1021700051EC100B00F0ECFE53EC182B00F08EFC31
:102180009FED310B41EC180B53EC102B9DED080B20
:1021900051EC100B00F0DCFE53EC182B00F07EFC31
:1021A00041EC100B139810F0004F06D06D4251EC2B
:1021B000100B00F035FC41EC100B284684ED000BB1
:1021C00041E60000000000000000000000000000E8
:1021D000FB21E93F7CD9024000004054FB21F93F3C
:1021E0003163621A61B4D03DFB21F93F0000000069
:1021F0000000601A61B4D03D7370032E8A19A33BAE
:10220000FB2139410000000083C8C96D305FE43F05
:10221000000000000000E03F6A400000B83F0000FE
:10222000000000000000103E000000000000103C14
:10223000000000000000103A182D4454FB21F93D25
:102240003326A611460B113C00000054FB21F93D3A
:1022500010B52DED040B2DED088B82B0B0EE419A38
:10226000F0EE619A0B9820F000449FED4BABB4F177
:10227000795F11DA9DED0A0B51EC100B00F00EFEA8
:10228000002801BFB0EE4A0AF0EE6A0A02B0BDECC7
:10229000088B04BF04B010BD9DED0A0B53EC102B4E
:1022A00051EC100B00F054FE41EC180B3C48062199
:1022B000B0EE480AF0EE680A784400F081F853EC7A
:1022C000182B51EC100B00F043FE9DED0A0B41EC76
:1022D0001B0B53EC192B51EC100B00F039FE41ECA9
:1022E000190B53EC1B2B51EC180B00F031FE53EC87
:1022F000192B01F003F89FED2C0B41EC190B53EC5B
:10230000102B51EC180B00F023FE41EC100B284869
:10231000844210DA53EC192B51EC100B00F0EEFF55
:1023200053EC1A2B00F012FF41EC100B02B0BDEC85
:10233000088B04B010BD1F48A042BCBF9FED1E1B00
:102340008DED001B06DBA4F500100190002000902D
:102350009DED001B51EC100B53EC112B00F0CEFF48
:102360009DED000B41EC180B53EC102B51EC1A0BAC
:1023700000F0C4FF41EC1A0B53EC192B51EC180B75
:1023800000F0BCFF53EC1A2B00F0E0FE41EC100B08
:10239000CCE7000000000000000000000000F03F5B
:1023A000DC3C000000000000000000000000E03FF6
:1023B0003333D33F0000E93F000000000000D23F6C
:1023C00070B504462DED028B4D1E00EBC500B0EE3E
:1023D000408AF0EE608A90ED000B35F0060017D0D1
:1023E00053EC182B51EC100B00F0B2FD41EC100B2C
:1023F0006D1E04EBC50090ED001B51EC100B53EC6F
:10240000112B00F04BFB41EC100B35F00600E7D12F
:10241000022D36D0042D1CD0062D1CBFBDEC028B26
:1024200070BD53EC182B51EC100B00F091FD94EDA6
:102430000A1B53EC112B00F031FB53EC182B00F06E
:1024400087FD94ED081B53EC112B00F027FB41ECAA
:10245000100B53EC182B51EC100B00F079FD94EDA0
:10246000061B53EC112B00F019FB53EC182B00F05A
:102470006FFD94ED040B53EC102B00F00FFB41ECBF
:10248000100B53EC182B51EC100B00F061FD94ED88
:10249000021B53EC112B00F001FB53EC182B00F046
:1024A00057FD94ED001B53EC112B00F0F7FABDEC37
:1024B000028B41EC100B70BD31B504462DED040BC1
:1024C0002DED0A8BB0EE41BAF0EE61BA0B989DED9E
:1024D0000A0B20F00040B0F1795F0DDA51EC100BDF
:1024E000FFF7DCFB042808BF00F09AF89DED0A0B0B
:1024F000BDEC0A8B05B030BD53EC102B51EC100B2A
:1025000000F026FD41EC180B9DED0A0B53EC182B47
:1025100051EC100B00F01CFD41EC190B2C48B0EEF7
:10252000480AF0EE680A05217844FFF749FF9FED5D
:102530002ACBB0EE40AAF0EE60AA9CB353EC1C2B61
:1025400051EC190B00F004FD41EC1C0B53EC1A2B61
:1025500051EC190B00F0FCFC9FED210B41EC190B29
:1025600053EC102B51EC1B0B00F0F2FC53EC192B2D
:1025700000F0C4FE53EC182B00F0EAFC53EC1B2BCC
:1025800000F0BCFE53EC1C2B00F0B8FE9DED0A1BC6
:1025900053EC112B00F0DAFDBDEC0A8B05B041ECD9
:1025A000100B30BDFFE753EC1A2B51EC180B00F069
:1025B000CFFC53EC1C2B00F071FA53EC192B00F0FC
:1025C000C7FC9DED0A1B53EC112B00F067FAE3E703
:1025D000643B000000000000495555555555C5BFE6
:1025E000000000000000E03F10B553EC102B51EC50
:1025F000100B00F053FA41EC100B10BD000000006E
:102600009FED050B10B553EC102B51EC100B00F0A7
:10261000EDFA41EC100B10BD0000000000000000BE
:102620009FED050B10B553EC102B51EC100B00F087
:102630008FFC41EC100B10BD0000000000000010EA
:1026400001B581B0002000900198009002E0009850
:10265000401E009000980028F9D10CBD01B581B052
:1026600000200090054901984843009002E000983E
:10267000401E009000980028F9D10CBDA0860100F2
:1026800082B0CDE9000121F0004001909DED000BEA
:1026900002B051EC100B70472DED0E8B96B001215E
:1026A0004020FEF745FF01210846FEF741FF4FF4A9
:1026B000C040CD49086001200871002088710120C8
:1026C00048710020C871C948FEF71CF80120C649AE
:1026D00008600020087101204871C548FEF712F813
:1026E00001218803FEF764FF01210020FFF7E6F9CE
:1026F0000120C049086000200871082048710120AD
:1027000088710846FDF7D2FE0620BB4908700F20ED
:10271000487088700120C8700846FEF7A1FEFEF7D9
:1027200056FA0121B548FEF7FBFD0121B348803080
:10273000FEF7F6FD0120FEF789FE0120FEF708FDF9
:10274000FEF792FAFEF75AF90120FEF79BFC0020F3
:10275000FEF712F90020FEF789FC4FF6FF70FEF736
:10276000A7FCA748FEF788FC642015904B200EEECE
:10277000100A38E1A3480388A3480288A1480188C9
:10278000A2480088FEF794F9A14803889F48028870
:102790009C4801889D480088FEF78AF9DFF86CC2E2
:1027A000BCF800C00CF1780C1FFA8CF3DFF854C2AF
:1027B000BCF800C00CF1780C1FFA8CF2DFF84CC2A8
:1027C000BCF800C0ACF1020C1FFA8CF1DFF834C287
:1027D000BCF800C0ACF1020C1FFA8CF0FEF768F9EF
:1027E00000241DE08B49098804FB01F000EBD07147
:1027F000844A128802EB610109B201AA22F824106E
:102800008449098804FB01F000EBD0717F4A1288EB
:1028100002EB610109B201AA02EB84025180641C3F
:10282000142CDFDB4FF0000AD9E07A4800880AFB5D
:1028300000F81598A8EB000000EE100AB8EEC00AE8
:1028400010EE101A084600F043FE41EC1B0B9FED02
:10285000720B53EC102B00F07BFB41EC1A0B00F0D9
:10286000EBF808EE900A6948008800B2ADF8020063
:1028700064480088404400B2ADF800000024A9E09C
:102880006448008804FB00F5A5F1640000EE100A1E
:10289000B8EEC00A10EE101A084600F019FE41EC1E
:1028A0001B0B9FED5D0B53EC102B00F051FB41EC2B
:1028B0001A0B00F0C1F808EE100A28EEA80A08EE7C
:1028C000080A10EE101A084600F002FE41EC1B0B3D
:1028D000B0EE4B0AF0EE6B0AFFF75EFAB0EE40AADC
:1028E000F0EE60AA51EC1A0B00F0A6F809EE900A7F
:1028F00019EE900A00F0ECFD41EC1D0BB0EE4D0A14
:10290000F0EE6D0AFFF7E4F9B0EE40BAF0EE60BA0F
:10291000B7EE000A39EE800AF7EE000A80EE801A60
:1029200011EE10BA584600F0D3FD41EC1C0B53ECED
:102930001B2B00F00DFB41EC1A0B00F07DF809EEAB
:10294000100AB8EECE0A29EE000ABDEEC00A10EE5B
:10295000109A284605EBD0712A4A1288424402EBAD
:10296000610605EBD071294A12884A4402EB6107DF
:1029700031B238B2FEF7C6FDBDF800C01FFA8CF3C5
:10298000BDF802C01FFA8CF2B1B2B8B2FEF790F8EF
:102990000DF1040C3CF824C01FFA8CF30DF1040C6B
:1029A0000CEB840CBCF802C01FFA8CF2B1B2B8B2C6
:1029B000FEF77EF830B2ADF8000038B2ADF8020094
:1029C00031B201A820F8241038B201A901EB84012A
:1029D0004880641C142CFFF653AF0AF1010ABAF1C7
:1029E000140FFFF622AFC5E6480000200018024091
:1029F00000000240400000200C00002084680140DC
:102A00001800002064000020540000206600002010
:102A1000520000206800002080D7EB069F20B83FBE
:102A200081F00041704780F00040704721F0004184
:102A3000704720F00040704721F00042A2F1605240
:102A4000B2F5801F01F0004328BFD2F17F6C0BD993
:102A50005FEA001C43EAC20242EB507018BF7047A5
:102A600028BF20F001007047B2F5801FBCBF184698
:102A700070474FEA410C1CF5001F02D2084600F0D7
:102A80009DBD70B500F00EFB00000089FFF7F6BF9A
:102A90004FF00040A0F580007047000010B591EAAB
:102AA000030F48BF83F0004300F13084841A71EBB8
:102AB000030C05D2121943EB0C03001B61EB0C0154
:102AC000DFF824E14FEA1154A4EB135C1EEA430F34
:102AD00018BF9EEA445F73D023EA0E03DCF1200E98
:102AE00021EA045143F4801332D322FA0CFE10EB96
:102AF0000E0023FA0CFE41EB0E01CCF1200E03FA7E
:102B00000EFE10EB0E0051F10001B1F5801FCCF16B
:102B1000200E32D201EB045112FA0EF2BDE8104041
:102B200058BF7047401C38BF5FEA420218BF704769
:102B3000002814BF20F0010041F100014FEA4103D9
:102B400013F5001F38BF7047A1F1C04100F0F8BA7B
:102B5000012A43EB0302ACF1200CDCF11F0E32BF63
:102B60004FF0000E23FA0CF310EB030041EB04517D
:102B7000B4EB115FD0D0A1EB045101F580114908ED
:102B80005FEA300001EB04510ED350F1000038BF72
:102B900012FA0EFE08D1BDE81040C9E7401C38BF4C
:102BA0005FEA4202CAD1C3E7BDE810404FEA4103E1
:102BB00013F5001F38BF7047A1F1C04100F0C0BA43
:102BC0009EEA445F08D011EA5E0FBDE8104004BFE2
:102BD00001F0004100207047BDE8104070B500F0E2
:102BE00061FA00BF64FBBE3E0000E0FF2DE9C0417A
:102BF00030B4DFF8A0C23CEA111418BF3CEA131449
:102C000000F0EC8081EA03051CEA111444EAD57453
:102C100018BF1CEA131500F0C780A4EB05044FF0A1
:102C2000004545EAC12145EAC32341EA505143EA40
:102C3000525304F17F74994204F500344FEAC020E6
:102C40004FEAC22208BF904200F09C804FEA136511
:102C50000FF24016765D4FEA134506FB05F7C7F104
:102C6000807706FB07F74FEAD737A7FB0368764262
:102C7000C8F58038A7FB06CE38BFA8F1010807FBCE
:102C800008E64FF0000EA6FB028CE6FB03CEDCF15B
:102C9000000CCEF1004E38BFAEF1010EA6FB0C5871
:102CA0004FF000074FF00005E6FB0E87A1FB08C6BA
:102CB000A0FB07CE16EB0E0645F10005E1FB07650C
:102CC00015F1E04E7EBFA4F580345FEA46066D4103
:102CD00016F1800745F100054FEA17274FEA06660F
:102CE00047EA0567A6F1DE46B6F1805F4FEA152593
:102CF0001FD9384624F0010C05EBC471BCF1FE6FFE
:102D000001EB0C1102D8F0BCBDE8008124425CBF8D
:102D100001F5801E9EEAC47F02D4F0BCBDE80081AC
:102D2000244238D4F0BCA1F1C041BDE8004100F01C
:102D300007BA4FEAD22242EA43524FEAD323A7FB13
:102D400002864FEAD02040EA415007FB03661EEAA4
:102D50000E0F4FEAD12105FB026658BFA6EB0056C5
:102D6000B6EB00564FEA520E4EEAC37E18EB0E0E3B
:102D700056EB530EBDD518EB02085E417F1C55F192
:102D80000005B6E74FF480154FF000074FF000063E
:102D90004FF00008ADE7F0BC4FF0000001F1C0417A
:102DA00001F00041BDE8008111EA0C1F0CEA131587
:102DB00000D00CE013EA0C1F00F025804FF000005B
:102DC000F0BC81EA030101F00041BDE80081F0BCE4
:102DD000BDE8004181EA030100F0B2B9F0BCBDE8F2
:102DE000004170B500F05EF9097EFC3E00F007B8C6
:102DF00081EA03014FF0000001F00041704781EAD1
:102E0000030100F09DB9F0BCBDE800414FF00000A7
:102E100021497047FFFDFBF9F7F5F4F2F0EEEDEB19
:102E2000E9E8E6E4E3E1E0DEDDDBDAD8D7D5D4D3C8
:102E3000D1D0CFCDCCCBCAC8C7C6C5C4C2C1C0BF14
:102E4000BEBDBCBBBAB9B8B7B6B5B4B3B2B1B0AF1A
:102E5000AEADACABAAA9A8A8A7A6A5A4A3A3A2A1FE
:102E6000A09F9F9E9D9C9C9B9A99999897979695B9
:102E700095949393929191908F8F8E8E8D8C8C8B55
:102E80008B8A8989888887878685858484838382DD
:102E9000828181800000FF070000F87F4FEA410334
:102EA0004FEA5353A3F58063D3F11E03C8BFD3F198
:102EB000210C0CDD4FF0004242EAC12242EA50529E
:102EC00032FA03FC8CEAE17CACEBE1707047102B2A
:102ED000C4BF0020704703F5787CBCF1FF3F04D0ED
:102EE0006FF0004282EA2100704770B500F0DAF816
:102EF0004992248000207047F2E710F0004248BF5A
:102F00004042B0FA80F310FA03F10AD0C3F11D0376
:102F100003F580634FEA415002EB035202EBD121EB
:102F200070474FF000007047B0FA80F310FA03F1D9
:102F30000AD0C3F11D0303F580634FEA41504FEA05
:102F4000035202EBD12170474FF0000070470000A0
:102F5000DFF848C170B51CEA111E1EBF1CEA13152C
:102F60009EEA0C0F95EA0C0F00F06F8081EA0304D3
:102F700023EA4C134EEAD47E21EA4C1141F480112D
:102F800043F48013AE44A1FB024CA0FB0365AEF1F9
:102F90007F7E361955EB0C05A1FB034C4CF1000369
:102FA000A0FB021C16EB0C06654153F1000309421D
:102FB00018BF46F0010613F4007F0BD14FEA03312E
:102FC0004FEA0530340341EA155140EA16506FF0DC
:102FD00003020AE04FEAC3214FEAC520F40241EAA6
:102FE000555140EA56506FF0020202EB2E4201EBBF
:102FF000025585EACE710AD05FEA440C18BF24F06E
:10300000004450F1000041F1000120EAD47040F288
:10301000FE7C624500D270BDA84214BF4FF08044D0
:103020004FF04044002E08BF0024BEF1806FA8BFBF
:10303000A1F1C041BDE8704080F282804FF00000F5
:1030400001F1C04101F0004170479EEA0C0F0CEA0B
:10305000131518BF95EA0C0F06D04FF0000081EA57
:10306000030E0EF0004170BD00F01CF88900013E17
:1030700000F007B800F009B84FEA430C5FEA5C5C67
:1030800008D081EA030100F05BB84FEA410C5FEA27
:103090005C5CF6D14FF00000014970470000FF076B
:1030A0000000F87F0EF1020E2EF0030E5EF8046BA6
:1030B000364205D4012A43EB030515F5001F12D84B
:1030C000012841EB010C1CF5001F0CD80ED14FEA72
:1030D000D17C15F5001F0CEB4C0C0CF1020C08BF59
:1030E0004CEBD37C04E04FF0080C01E04FEAD37CBA
:1030F0000CEB4C0526FA05F606F00706B6F1040CB3
:1031000006D20EEB860CBDE870404CF0010C604717
:10311000DFE80CF0090B02024FF000414FF0000015
:10312000A1F5002170BD19461046012851EB01049C
:1031300018BFD4F5001484BF002001F0004170BD19
:103140000808A0F500114FEA3101704791EA030F1A
:1031500010B581F000413FF5A9AC83F0004300F0C9
:10316000D5B800002DE9F04101F5801CBCF5001F29
:10317000C0F2A9804FEA115C21EA0C510CF1FD0C60
:1031800041F480115FEA5C0C0CF5C07C01D3400077
:10319000494130A4890241EA905187028E0E0A0CFF
:1031A000A45D04FB04F602FB06F6C6F14046A4FB50
:1031B0000662F60D46EA422606FB06F4A4FB01234E
:1031C0005242C3F1404338BF5B1EA6FB02420024BB
:1031D000E6FB0324D20B42EA4446A6FB0623A1FBEE
:1031E00002E2A3FB07E4E3FB61426442C2F1404E0A
:1031F00038BFAEF1010EA6FB04234FF00002E6FB40
:103200000E32A2FB03463400E2FB6264A1FB06E639
:10321000A4FB07E8E4FB61687642C8F1405838BF78
:10322000A8F10108A2FB06E4A3FB08E5E2FB685451
:10323000A1FB05E6A7FB04E8E1FB648618F1200585
:1032400056F10006A809A8F11B08B10908F03F08CB
:10325000B8F10A0F40EA86601CD901EB0C51BDE8B9
:10326000F08100BFFCF5EEE8E2DDD8D3CFCBC7C3D9
:10327000C0BDB9B6B4B1AEACA9A7A5A3A19F9D9B93
:103280009A9896959392908F8D8C8B898887868556
:1032900084838281A0FB006800FB01F208EB4208F6
:1032A000B8EB872807D5341858EB0104D5D5401C56
:1032B00051F10001D1E7341A78EB0104CDD4401E5E
:1032C00071F10001C9E75FEA4C0C5FEA9C5C0DD12B
:1032D00005D34FF0000001F00041BDE8F081BDE8EA
:1032E000F04170B5FFF7DEFE6DDBFFBEBDE8F041DB
:1032F0004FF00000004970470000F87F10B591EAD8
:10330000030F48BF83F000433FF5D0AB841A71EB45
:10331000030C07D212198CF0004C43EB0C03001B7A
:1033200061EB0C01DFF8A4E14FEA1154A4EB135C4C
:103330001EEA430F18BF9EEA445F00F0B08023EA04
:103340006E03524221EA0451C3EB6E0338BF5B1E89
:10335000DCF1200E25D322FA0CFE10EB0E0043FA0E
:103360000CFE41EB0E01CCF1200E03FA0EFE10EB29
:103370000E0051F10001CCF1200E29D412FA0EF208
:1033800001EB0451BDE8104058BF7047401C1CBF02
:10339000B2F1004F704700280CBF491C20F001001B
:1033A000704712EB020E43EB030218BF4FF0010E01
:1033B0004EEA4202ACF1200CDCF11E0E54D943FA65
:1033C0000CFE10EB0E0051F1FF31CCF11E0ED5D5E5
:1033D0000EF1010E12FA0EFE404141EB010101EB2C
:1033E000445C5FEA5C5C10D910EBDE7001EB0451C9
:1033F00038BFBEF1004FBDE8104018BF704700282D
:103400000CBF491C20F00100704730D24FEAD42C89
:1034100011F5001124F400641BD0B1FA81F20B3ACB
:10342000A41AA41ED2F12003914030FA03F31943E9
:10343000904001EBCC71002C01EB0451BDE8104031
:10344000A8BF704701F1C0414FF0000001F00041FA
:103450007047B0FA80F310FA03F100D110BDE41AFE
:10346000173C4805C90AE4E701EB045110BD4910B7
:1034700001EB0451BDE810404FEA300002E04FF08C
:10348000000170474A0008BF0042F8D0B2F5001FA3
:1034900028BF704701F000414FF0000070479EEADE
:1034A000445F07D011EA5E0FBDE8104004BF002161
:1034B00000207047BDE8104070B5FFF7F3FD00BF76
:1034C00040DFF63E83F00041104670470000E0FF09
:1034D00043004FEAD30C4FEA3C0C43401FBF400768
:1034E0000CF1605113F0FE4F70471CF0006F03D1D8
:1034F00000200CF0004170470CF0004343EA50708C
:1035000010B540EACC0000F00EF800BF00000092B9
:103510004FEA0001FFF714BE4FF000414FF00000EA
:10352000A1F5002170470EF1020E2EF0030E5EF899
:10353000044B244204D44FEA4102B2F17F4F11D828
:103540004FEA4003B3F17F4F0CD80ED14FEAD07C45
:10355000B2F17F4F0CEB4C0C0CF1020C08BF4CEBA2
:10356000D17C04E04FF0080C01E04FEAD17C0CEB79
:103570004C0324FA03F404F00704B4F1040C06D25B
:103580000EEB840CBDE810404CF0010C6047DFE806
:103590000CF0070802024FF00040A0F5800010BDBB
:1035A0000846420018BFD2F1807288BF00F0004088
:1035B00010BD4FF04070E1EE100A7047FF2141EA64
:1035C000D050C0057047000000000000000000005F
:1035D00000000000000000000000000000000000EB
:1035E00000000000000000000000000000000000DB
:1035F00000000000000000008001800180018001C7
:1036000080018001800180018001800180018001B2
:103610008001000000008001800100000000000027
:1036200000000000000000000000CC00CC00CC0036
:10363000CC00CC00CC000000000000000000000026
:10364000000000000000000000000000000000007A
:10365000000000000000000000000000000000006A
:103660000000600C600C600C30063006FE1FFE1F70
:10367000300638071803FE1FFE1F180318038C01BD
:103680008C018C01000000008000E003F80F9C0E0C
:103690008C1C8C188C009800F801E007800E801CB0
:1036A0008C188C189C18B80CF00FE0038000800078
:1036B0000000000000000000000000000E181B0CBD
:1036C000110C11061106110311039B018E01C03864
:1036D000C06C60446044304430441844186C0C386A
:1036E0000000000000000000E001F00338071806A9
:1036F00018063003F001F000F8009C310E33061E6E
:10370000061C061C063FFC73F021000000000000B0
:10371000000000000000000000000C000C000C0085
:103720000C000C000C000000000000000000000075
:103730000000000000000000000000000000000089
:103740000000000000000000000200038001C00033
:10375000C0006000600030003000300030003000F9
:1037600030003000300060006000C000C000800108
:10377000000300020000000020006000C000800183
:103780008001000300030006000600060006000694
:103790000006000600060003000380018001C0004F
:1037A0006000200000000000000000000000000099
:1037B0000000C000C000D806F807E0013003380759
:1037C00000000000000000000000000000000000F9
:1037D00000000000000000000000000000000000E9
:1037E000000080018001800180018001FC3FFC3FDE
:1037F0008001800180018001800100000000000044
:1038000000000000000000000000000000000000B8
:1038100000000000000000000000000000000000A8
:103820000000000000000000800180010001000194
:103830008000000000000000000000000000000008
:103840000000000000000000000000000000E00791
:10385000E007000000000000000000000000000081
:103860000000000000000000000000000000000058
:103870000000000000000000000000000000000048
:103880000000000000000000C000C00000000000B8
:103890000000000000000000000C000C0006000604
:1038A0000006000300030003800380018001800103
:1038B000C000C000C0006000600000000000000008
:1038C0000000000000000000E003F007380E180CB4
:1038D0000C180C180C180C180C180C180C180C18C8
:1038E0000C18180C380EF007E00300000000000070
:1038F000000000000000000000018001C001F00194
:10390000980188018001800180018001800180018F
:103910008001800180018001800100000000000022
:103920000000000000000000E003F80F180C0C1865
:103930000C1800180018000C000600038001C000DD
:10394000600030001800FC1FFC1F00000000000099
:103950000000000000000000E001F807180E0C0C49
:103960000C0C000C0006C003C007000C0018001867
:103970000C180C18180CF807E003000000000000F9
:103980000000000000000000000C000E000F000FFF
:10399000800DC00C600C600C300C180C0C0CFC3F43
:1039A000FC3F000C000C000C000C000000000000AC
:1039B0000000000000000000F80FF80F18001800C9
:1039C0000C00EC03FC071C0E001C0018001800186B
:1039D0000C181C0C180EF807E00300000000000093
:1039E0000000000000000000C007F00F381C18188D
:1039F00018000C00CC03EC0F3C0E1C1C0C180C180F
:103A00000C18181C380EF007E0030000000000003E
:103A10000000000000000000FC1FFC1F000C00065E
:103A20000006000380038001C001C000E0006000C8
:103A30006000700030003000300000000000000026
:103A40000000000000000000E003F007380E180C32
:103A5000180C180C3806F007F007180C0C180C1886
:103A60000C180C18380CF80FE003000000000000E0
:103A70000000000000000000E003F007380E1C0CFE
:103A80000C180C180C181C1C381EF81BE019001818
:103A9000000C000C1C0EF807F001000000000000F4
:103AA0000000000000000000000000000000000016
:103AB0000000800180010000000000000000000004
:103AC00000000000000080018001000000000000F4
:103AD00000000000000000000000000000000000E6
:103AE00000008001800100000000000000000000D4
:103AF0000000000000008001800100010001800042
:103B000000000000000000000000000000000000B5
:103B10000000000000000010001C800FE003F8000F
:103B20001800F800E003800F001C001000000000E7
:103B30000000000000000000000000000000000085
:103B4000000000000000F81F000000000000F81F47
:103B50000000000000000000000000000000000065
:103B60000000000000000000000000000000000055
:103B700000000000000008003800F001C007001F2E
:103B80000018001FC007F001380008000000000006
:103B90000000000000000000E003F80F180C0C18F3
:103BA0000C180018000C000600038001C000C000C3
:103BB000C00000000000C000C000000000000000C5
:103BC00000000000000000000000E00718180420BA
:103BD000C229224A11440944094409440922111303
:103BE000E20C024004201818E0070000000000006A
:103BF000000000000000000080038003C006C00633
:103C0000C006600C600C301830183018F83FF83FD0
:103C10001C700C600C6006C006C0000000000000B4
:103C20000000000000000000FC03FC0F0C0C0C184E
:103C30000C180C180C0CFC07FC0F0C180C300C307A
:103C40000C300C300C18FC1FFC07000000000000BA
:103C50000000000000000000C007F01F38381C30D2
:103C60000C7006600600060006000600060006004E
:103C700006600C701C30F01FE00700000000000020
:103C80000000000000000000FE03FE0F060E0618F4
:103C9000061806300630063006300630063006308C
:103CA00006180618060EFE0FFE03000000000000B6
:103CB0000000000000000000FC3FFC3F0C000C0076
:103CC0000C000C000C00FC1FFC1F0C000C000C0076
:103CD0000C000C000C00FC3FFC3F0000000000004A
:103CE0000000000000000000F83FF83F1800180036
:103CF000180018001800F81FF81F18001800180006
:103D0000180018001800180018000000000000003B
:103D10000000000000000000E00FF83F3C780E605B
:103D200006E007C00300030003FE03FE03C007C054
:103D300006C00EC03CF0F83FE00F0000000000009D
:103D400000000000000000000C300C300C300C3083
:103D50000C300C300C30FC3FFC3F0C300C300C3085
:103D60000C300C300C300C300C3000000000000027
:103D7000000000000000000080018001800180013F
:103D8000800180018001800180018001800180012B
:103D9000800180018001800180010000000000009E
:103DA00000000000000000000006000600060006FB
:103DB00000060006000600060006000600060006D3
:103DC000180618063807F003E001000000000000A4
:103DD000000000000000000006300618060C060671
:103DE00006038601C60066007600DE008E0106032B
:103DF0000606060C061806300660000000000000EB
:103E00000000000000000000180018001800180052
:103E100018001800180018001800180018001800E2
:103E2000180018001800F81FF81F0000000000001C
:103E300000000000000000000EE01EF01EF01EF06A
:103E400036D836D836D836D866CC66CC66CCC6C618
:103E5000C6C6C6C6C6C686C386C30000000000002C
:103E600000000000000000000C301C303C303C30F2
:103E70006C306C30CC30CC308C310C330C330C3695
:103E80000C360C3C0C3C0C380C30000000000000E0
:103E90000000000000000000E007F81F1C380E7052
:103EA000066003C003C003C003C003C003C003C057
:103EB00006600E701C38F81FE007000000000000CC
:103EC0000000000000000000FC0FFC1F0C380C304C
:103ED0000C300C300C300C18FC1FFC070C000C00D4
:103EE0000C000C000C000C000C0000000000000096
:103EF0000000000000000000E007F81F1C380E70F2
:103F0000066003E003C003C003C003C003C007E0B2
:103F100006630E3F1C3CF83FE0F700C000000000C5
:103F20000000000000000000FE0FFE1F06380630F3
:103F3000063006300638FE1FFE0706030606060C8E
:103F40000618061806300630066000000000000063
:103F50000000000000000000E003F80F1C0C0C182B
:103F60000C180C001C00F803E00F001E003806308F
:103F700006300E301C1CF80FE007000000000000A7
:103F80000000000000000000FE7FFE7F8001800135
:103F90008001800180018001800180018001800119
:103FA000800180018001800180010000000000008C
:103FB00000000000000000000C300C300C300C3011
:103FC0000C300C300C300C300C300C300C300C3011
:103FD0000C300C301818F81FE0070000000000003B
:103FE00000000000000000000360063006300630CC
:103FF0000C180C180C18180C180C380E300630065B
:10400000700760036003C001C001000000000000F1
:1040100000000000000000000360C361C361C361D1
:104020006633663366336633663366336C1B6C1BEC
:104030006C1B2C1A3C1E380E380E000000000000CD
:1040400000000000000000000FE00C701830301875
:10405000700C600EC00780038003C003E006700C84
:10406000301C18180C300E6007E000000000000043
:10407000000000000000000003C006600C301C3887
:104080003818300C6006E007C00380018001800111
:10409000800180018001800180010000000000009B
:1040A0000000000000000000FC7FFC7F006000308A
:1040B0000018000C000600038001C0006000300002
:1040C00018000C000600FE7FFE7F000000000000CC
:1040D0000000000000000000E003E003600060005A
:1040E00060006000600060006000600060006000D0
:1040F00060006000600060006000600060006000C0
:10410000E003E003000000003000300060006000C9
:104110006000C000C000C000C001800180018001BB
:10412000000300030003000600060000000000007A
:104130000000000000000000E003E00300030003B3
:104140000003000300030003000300030003000357
:104150000003000300030003000300030003000347
:10416000E003E003000000000000C001C0016003A4
:104170006003600330063006180C180C00000000C5
:10418000000000000000000000000000000000002F
:10419000000000000000000000000000000000001F
:1041A000000000000000000000000000000000000F
:1041B0000000000000000000FFFFFFFF0000000003
:1041C00000000000000000000C000C000C000C00BF
:1041D0000C000C00000000000000000000000000C7
:1041E00000000000000000000000000000000000CF
:1041F00000000000000000000000000000000000BF
:104200000000F003F8071C0C0C0C000FF00FF80C6A
:104210000C0C0C0C1C0FF80FF01800000000000034
:10422000000000000000000018001800180018002E
:104230001800D803F80F380C181818181818181880
:1042400018181818380CF80FD803000000000000E8
:10425000000000000000000000000000000000005E
:104260000000C003F007300E180C180018001800EA
:104270001800180C300EF007C0030000000000000A
:1042800000000000000000000018001800180018CE
:104290000018C01BF01F301C181818181818181810
:1042A00018181818301CF01FC01B00000000000078
:1042B00000000000000000000000000000000000FE
:1042C0000000C003F00F300C1818F81FF81F18007A
:1042D00018003818301CF00FC00700000000000064
:1042E0000000000000000000800FC00FC000C000F0
:1042F000C000F007F007C000C000C000C000C00050
:10430000C000C000C000C000C000000000000000ED
:10431000000000000000000000000000000000009D
:104320000000E00DF80F180E0C0C0C0C0C0C0C0C13
:104330000C0C0C0C180EF80FE00D000C0C0C1C06ED
:10434000F807F0010000000018001800180018001D
:104350001800D807F80F381C18181818181818184B
:10436000181818181818181818180000000000005D
:104370000000000000000000C000C00000000000BD
:104380000000C000C000C000C000C000C000C000ED
:10439000C000C000C000C000C0000000000000005D
:1043A0000000000000000000C000C000000000008D
:1043B0000000C000C000C000C000C000C000C000BD
:1043C000C000C000C000C000C000C000C000C000ED
:1043D000F8007800000000000C000C000C000C003D
:1043E0000C000C0C0C060C038C01CC006C00FC00C7
:1043F0009C018C030C030C060C0C00000000000058
:104400000000000000000000C000C000C000C000AC
:10441000C000C000C000C000C000C000C000C0009C
:10442000C000C000C000C000C000000000000000CC
:10443000000000000000000000000000000000007C
:1044400000007C3CFF7EC7E383C183C183C183C17D
:1044500083C183C183C183C183C100000000000008
:10446000000000000000000000000000000000004C
:1044700000009807F80F381C181818181818181882
:10448000181818181818181818180000000000003C
:10449000000000000000000000000000000000001C
:1044A0000000C003F00F300C18181818181818184E
:1044B00018181818300CF00FC0030000000000009E
:1044C00000000000000000000000000000000000EC
:1044D0000000D803F80F380C1818181818181818F6
:1044E00018181818380CF80FD803180018001800FE
:1044F000180018000000000000000000000000008C
:104500000000C01BF01F301C1818181818181818B5
:1045100018181818301CF01FC01B001800180018BD
:10452000001800180000000000000000000000005B
:104530000000B007F00370003000300030003000A1
:10454000300030003000300030000000000000007B
:10455000000000000000000000000000000000005B
:104560000000E003F003380E180C3800F003C00719
:10457000000C180C380EF007E003000000000000EB
:10458000000000000000000000008000C000C0002B
:10459000C000F007F007C000C000C000C000C000AD
:1045A000C000C000C000C00780070000000000007D
:1045B00000000000000000000000000000000000FB
:1045C000000018181818181818181818181818189B
:1045D00018181818381CF01FE0190000000000001F
:1045E00000000000000000000000000000000000CB
:1045F00000000C18180C180C180C30063006300689
:10460000600360036003C001C001000000000000FF
:10461000000000000000000000000000000000009A
:104620000000C141C141C3616363636363633636A4
:10463000363636361C1C1C1C1C1C000000000000FA
:10464000000000000000000000000000000000006A
:1046500000001C38381C300C6006600360036003E7
:1046600060036006300C381C1C380000000000009D
:10467000000000000000000000000000000000003A
:1046800000001830301830187018600C600CE00C06
:10469000C006C00680038003800380018001C00142
:1046A000F0007000000000000000000000000000AA
:1046B0000000FC1FFC1F000C000600038001C0006E
:1046C000600030001800FC1FFC1F0000000000000C
:1046D000000000000000000000038001C000C000D6
:1046E000C000C000C000C00060006000300060007A
:1046F0004000C000C000C000C000C000C000800179
:1047000000030000000000008001800180018001A2
:104710008001800180018001800180018001800191
:104720008001800180018001800180018001800181
:1047300080018001000000006000C000C001800115
:104740008001800180018001000300030006000356
:104750000001800180018001800180018001C00092
:1047600060000000000000000000000000000000E9
:10477000000000000000F010F81F080F000000000B
:104780000000000000000000000000000000000029
:104790000000000000000000000000000000000019
:1047A0000000000000000000000000000000000009
:1047B0000020002000200020002000200020000019
:1047C00000200000000000000050005000500000D9
:1047D00000000000000000000000000000000000D9
:1047E000000900090012007F0012007F001200245F
:1047F0000024000000000010003800540050005059
:10480000003800140054005400380010000000006C
:10481000803000490049004AC032200520092009A3
:10482000C010000000000000000C00120012001474
:104830000018002500230023801D00000000000058
:1048400000400040004000000000000000000000A8
:104850000000000000000000000800100010002010
:104860000020002000200020002000100010000088
:104870000040002000200010001000100010001068
:1048800000100020002000000020007000200050D8
:104890000000000000000000000000000000000018
:1048A0000000000000080008007F00080008000069
:1048B00000000000000000000000000000000000F8
:1048C0000000000000000000002000200040000068
:1048D0000000000000000000000000700000000068
:1048E00000000000000000000000000000000000C8
:1048F0000000000000000000002000000000000098
:1049000000100010001000200020002000200040B7
:104910000040000000000000001000280044004497
:104920000044004400440028001000000000000083
:104930000010003000500010001000100010001097
:104940000010000000000000003000480044000497
:104950000008001000200040007C00000000000063
:10496000003000480004000800100008004400481F
:1049700000300000000000000008001800180028A7
:1049800000280048007C000800080000000000002B
:10499000003C002000400070004800040044004833
:1049A000003000000000000000180024004000500B
:1049B00000680044004400280010000000000000CF
:1049C000007C0004000800100010001000200020EF
:1049D0000020000000000000001000280044002813
:1049E0000010002800440028001000000000000013
:1049F0000010002800440044002C0014000400486B
:104A00000030000000000000000000000020000056
:104A10000000000000000000002000000000000076
:104A20000000000000200000000000000000000066
:104A300000200020004000000000000400080030BA
:104A400000400030000800040000000000000000EA
:104A500000000000007C00000000007C000000005E
:104A600000000000000000000000004000200018CE
:104A700000040018002000400000000000000000BA
:104A8000003800640044000400080010001000001A
:104A90000010000000000000800F4010A02EA05168
:104AA0002051205120512053C04D202040100000A3
:104AB00000080014001400140022003E00220041EF
:104AC0000041000000000000003C00220022002203
:104AD000003C002200220022003C000000000000F8
:104AE000000E0011002100200020002000210011F4
:104AF000000E000000000000003C00220021002108
:104B00000021002100210022003C000000000000E4
:104B1000003E002000200020003E00200020002059
:104B2000003E000000000000003E002000200020A9
:104B3000003C0020002000200020000000000000B9
:104B4000000E00110021002000270021002100118B
:104B5000000E0000000000000021002100210021C3
:104B6000003F002100210021002100000000000082
:104B70000020002000200020002000200020002035
:104B800000200000000000000008000800080008E5
:104B90000008000800480048003000000000000045
:104BA00000220024002800280038002800240024C7
:104BB0000022000000000000002000200020002053
:104BC0000020002000200020003E00000000000027
:104BD0008020803180318031802A802A802A802A7A
:104BE0008024000000000000002100310031002975
:104BF0000029002500230023002100000000000000
:104C0000000C0012002100210021002100210012CF
:104C1000000C000000000000003C002200220022E6
:104C2000003C0020002000200020000000000000C8
:104C3000000C00120021002100210021002100169B
:104C4000000D000100000000003E002100210021B5
:104C5000003E00240022002180200000000000000F
:104C6000001C002200220020001C00020022002262
:104C7000001C000000000000003E000800080008C2
:104C800000080008000800080008000000000000FC
:104C9000002100210021002100210021002100121B
:104CA000000C000000000000004100410022002232
:104CB000002200140014001400080000000000008E
:104CC0004044404A402A802A802A802A802A802A1A
:104CD0000011000000000000004100220014001438
:104CE0000008001400140022004100000000000031
:104CF00000410022002200140008000800080008FB
:104D00000008000000000000007E0002000400080F
:104D10000010001000200040007E00000000000095
:104D20000030002000200020002000200020002073
:104D30000020002000200000004000400020002053
:104D400000200020002000100010000000000000E3
:104D50000060002000200020002000200020002013
:104D6000002000200020000000100028002800285B
:104D700000440000000000000000000000000000EF
:104D80000000000000000000000000000000000023
:104D900000000000007E0040002000000000000035
:104DA0000000000000000000000000000000000003
:104DB00000000000003800440004003C00440044AF
:104DC000003C00000000000000400040005800646B
:104DD000004400440044006400580000000000004B
:104DE0000000000000300048004000400040004843
:104DF0000030000000000000000400040034004CFB
:104E0000004400440044004C003400000000000056
:104E100000000000003800440044007C00400044D2
:104E200000380000000000000060004000E000408A
:104E30000040004000400040004000000000000032
:104E4000000000000034004C004400440044004CCA
:104E5000003400040044000000400040005800649A
:104E600000440044004400440044000000000000EE
:104E70000040000000400040004000400040004072
:104E80000040000000000000004000000040004022
:104E90000040004000400040004000400040000052
:104EA00000400040004800500060005000500048A2
:104EB00000480000000000000040004000400040AA
:104EC00000400040004000400040000000000000A2
:104ED000000000000052006D0049004900490049EF
:104EE00000490000000000000000000000580064BD
:104EF000004400440044004400440000000000005E
:104F00000000000000380044004400440044004415
:104F1000003800000000000000000000005800649D
:104F20000044004400440064005800400040000079
:104F3000000000000034004C004400440044004CD9
:104F40000034000400040000000000000050006075
:104F50000040004000400040004000000000000011
:104F60000000000000300048004000300008004809
:104F700000300000000000000040004000E0004061
:104F800000400040004000400060000000000000C1
:104F90000000000000440044004400440044004C71
:104FA0000034000000000000000000000044004445
:104FB0000028002800280028001000000000000041
:104FC00000000000004900490055005500550055FB
:104FD0000022000000000000000000000044002843
:104FE00000280010002800280044000000000000F5
:104FF00000000000004400440028002800280010A1
:1050000000100010001000000000000000780008F0
:105010000010002000200040007800000000000088
:105020000010002000200020002000400020002070
:105030000020002000200000002000200020002090
:105040000020002000200020002000200020000080
:105050000040002000200020002000100020002040
:10506000002000200020000000000000000000746C
:1050700000580000000000000000000000000000D8
:1050800000000070005000500050005000500050D0
:1050900000700000000000000000000000000000A0
:1050A0000000000000000000000000000000000000
:1050B0000000000010001000100010001000100090
:1050C0000000100000000000000000002800280080
:1050D00028000000000000000000000000000000A8
:1050E00000000000140014003E00140028007C00A2
:1050F00028002800000000000000100038005400C4
:105100005000380014001400540038001000000053
:10511000000000004400A800A800500014001A007D
:105120002A002400000000000000000020005000C1
:1051300050002000E8009800980060000000000087
:1051400000000000800080008000000000000000DF
:10515000000000000000000000000000400080008F
:1051600080008000800080008000800080000000BF
:10517000000000008000400040004000400040006F
:105180004000400040000000000000004000E0003F
:105190004000A0000000000000000000000000002F
:1051A000000000000000000020002000F8002000A7
:1051B00020000000000000000000000000000000CF
:1051C000000000000000000000004000400000005F
:1051D0000000000000000000000000000000C0000F
:1051E00000000000000000000000000000000000BF
:1051F000000000000000000000004000000000006F
:10520000000000002000200020004000400080003E
:10521000800080000000000000000000600090009E
:10522000900090009000900090006000000000004E
:105230000000000020006000A000200020002000EE
:10524000200020000000000000000000600090002E
:1052500010001000200040008000F000000000005E
:1052600000000000600090001000600010001000BE
:1052700090006000000000000000000010003000FE
:10528000500050009000F8001000100000000000D6
:1052900000000000700040008000E00010001000DE
:1052A000900060000000000000000000600090001E
:1052B0008000A000D000900090006000000000007E
:1052C00000000000F000100020002000200040003E
:1052D000400040000000000000000000600090005E
:1052E00090006000900090009000600000000000BE
:1052F00000000000600090009000B000500010001E
:1053000090006000000000000000000000000000AD
:10531000400000000000000000004000000000000D
:10532000000000000000000040000000000000003D
:1053300000004000400000000000000000000000ED
:1053400010006000800060001000000000000000FD
:1053500000000000000000000000F0000000F0006D
:10536000000000000000000000000000000000003D
:10537000800060001000600080000000000000005D
:10538000000000006000900010002000400040007D
:105390000000400000000000000000001C0022008F
:1053A0005B00A500A500A500A5009E00410000002F
:1053B000000000002000500050005000500070001D
:1053C000880088000000000000000000F000880055
:1053D0008800F000880088008800F00000000000CD
:1053E0000000000038004400840080008000840039
:1053F000440038000000000000000000E0009000C1
:1054000088008800880088009000E000000000000C
:1054100000000000F80080008000F800800080009C
:105420008000F8000000000000000000780040004C
:1054300040007000400040004000400000000000BC
:105440000000000038004400840080009C008400BC
:1054500044003800000000000000000088008800C0
:105460008800F8008800880088008800000000009C
:10547000000000008000800080008000800080002C
:1054800080008000000000000000000010001000FC
:10549000100010001000900090006000000000005C
:1054A0000000000088009000A000E000A000900034
:1054B00090008800000000000000000080008000D4
:1054C00080008000800080008000F000000000006C
:1054D000000000008200C600C600AA00AA00AA00C0
:1054E000AA00920000000000000000008400C40038
:1054F000A400A400940094008C008400000000002C
:105500000000000030004800840084008400840013
:10551000480030000000000000000000F00088009B
:1055200088008800F00080008000800000000000FB
:1055300000000000300048008400840084008400E3
:10554000580034000400000000000000780044000F
:105550004400780050004800440042000000000071
:1055600000000000700088008000700008008800C3
:10557000880070000000000000000000F80020001B
:10558000200020002000200020002000000000005B
:1055900000000000840084008400840084008400F3
:1055A0004800300000000000000000008800880073
:1055B000500050005000500050002000000000003B
:1055C000000000009200AA00AA00AA00AA00AA00F7
:1055D000AA00440000000000000000008400480011
:1055E00048003000300048004800840000000000FF
:1055F0000000000088005000500020002000200023
:10560000200020000000000000000000F80008005A
:1056100010002000200040008000F8000000000082
:1056200000000000C000800080008000800080003A
:1056300080008000800000000000000080008000EA
:10564000400040004000400020002000000000001A
:1056500000000000C000400040004000400040004A
:105660004000400040000000000000004000A0009A
:10567000A000A000000000000000000000000000EA
:10568000000000000000000000000000000000001A
:1056900000000000F8000000000000008000400052
:1056A00000000000000000000000000000000000FA
:1056B0000000000000000000E000100070009000FA
:1056C00090007000000000000000000080008000DA
:1056D000A000D00090009000D000A00000000000CA
:1056E00000000000000000006000900080008000CA
:1056F000900060000000000000000000100010009A
:105700005000B00090009000B00050000000000079
:10571000000000000000000060009000F000800029
:10572000900060000000000000000000C000800049
:10573000C000800080008000800080000000000029
:1057400000000000000000005000B0009000900039
:10575000B000500010000000000000008000800039
:10576000A000D00090009000900090000000000089
:1057700000000000800000008000800080008000A9
:105780008000800000000000000000008000000099
:105790008000800080008000800080008000000089
:1057A00000000000800080009000A000C000A00069
:1057B00090009000000000000000000080008000C9
:1057C00080008000800080008000800000000000D9
:1057D0000000000000000000A600DA009200920025
:1057E0009200920000000000000000000000000095
:1057F000A000D000900090009000900000000000F9
:105800000000000000000000600090009000900088
:105810009000600000000000000000000000000098
:10582000A000D00090009000D000A00080000000F8
:1058300000000000000000005000B0009000900048
:10584000B000500010000000000000000000000048
:10585000A000C000800080008000800000000000E8
:105860000000000000000000E00090004000200068
:105870009000600000000000000000008000800038
:10588000C0008000800080008000C0000000000098
:1058900000000000000000009000900090009000C8
:1058A000B0005000000000000000000000000000F8
:1058B00088008800500050005000200000000000C8
:1058C00000000000000000009200AA00AA00AA0048
:1058D000AA004400000000000000000000000000DA
:1058E00088005000200020005000880000000000C8
:1058F0000000000000000000880050005000500030
:105900002000200020000000000000000000000037
:10591000F0001000200040008000F00000000000B7
:1059200000000000C00080008000800000008000B7
:1059300080008000800000000000000080008000E7
:1059400080008000800080008000800080000000D7
:1059500000000000C0004000400040002000400067
:105960004000400040000000000000000000000077
:105970000000E800B000000000000000000000008F
:10598000000000000000E000A000A000A000A000B7
:10599000A000E00000000000000000000000000087
:1059A00000000000000040004000400040004000B7
:1059B000400000004000A000A000A0000000000087
:1059C000000000000000000024002400FE00480049
:1059D000FC00480048003800540050003800140013
:1059E0001400540038004400A800A800500014001F
:1059F0001A002A002400100028002800100074005B
:105A00004C004C003000100010001000000000009E
:105A1000000000000000080010001000100010003E
:105A2000100010000800100008000800080008001E
:105A300008000800100000000000240018003C00CE
:105A400018002400000000000000100010007C007E
:105A50001000100000000000000000000000000026
:105A600008000800100000000000000000003C00DA
:105A70000000000000000000000000000000000026
:105A800000001800180008000800080010001000AE
:105A900020002000200018002400240024002400FE
:105AA000240024001800080018002800080008003E
:105AB0000800080008003800440000000400080046
:105AC000100020007C0018002400040018000400CE
:105AD00004002400180004000C00140024004400FA
