:020000040800F2
:10000000880600204D020008AD040008A504000881
:10001000A9040008070300085107000800000000B9
:100020000000000000000000000000006D05000856
:100030000B03000800000000290500081D06000849
:1000400067020008670200086702000867020008EC
:10005000670200086702000825030008670200081D
:1000600067020008670200086702000867020008CC
:1000700067020008670200086702000867020008BC
:1000800067020008670200086702000867020008AC
:10009000670200086702000867020008670200089C
:1000A000670200086702000867020008670200088C
:1000B000670200086702000867020008670200087C
:1000C000670200086702000867020008670200086C
:1000D000670200086702000867020008670200085C
:1000E000670200086702000867020008670200084C
:1000F000670200086702000867020008670200083C
:10010000670200086702000867020008670200082B
:10011000670200086702000867020008670200081B
:10012000670200086702000867020008670200080B
:1001300067020008670200086702000867020008FB
:1001400067020008670200086702000867020008EB
:1001500067020008670200086702000867020008DB
:1001600067020008670200086702000867020008CB
:1001700067020008670200086702000867020008BB
:1001800067020008670200086702000867020008AB
:10019000670200086702000867020008670200089B
:1001A00067020008670200086702000800F002F812
:1001B00000F03CF80AA090E8000C82448344AAF1C5
:1001C0000107DA4501D100F031F8AFF2090EBAE8C3
:1001D0000F0013F0010F18BFFB1A43F0010318477B
:1001E0006006000080060000103A24BF78C878C17D
:1001F000FAD8520724BF30C830C144BF04680C602D
:10020000704700000023002400250026103A28BF74
:1002100078C1FBD8520728BF30C148BF0B60704778
:100220001FB500F0FBFA1FBD10B510BD00F031F88E
:100230001146FFF7F5FF00F08DFA00F04FF803B418
:10024000FFF7F2FF03BC00F057F8000009488047B1
:1002500009480047FEE7FEE7FEE7FEE7FEE7FEE7A8
:10026000FEE7FEE7FEE7FEE704480549054A064BC0
:1002700070470000ED060008AD010008880000206E
:1002800088060020880200208802002070477047FE
:100290007047754600F02CF8AE4605006946534697
:1002A00020F00700854618B020B5FFF7DDFFBDE858
:1002B00020404FF000064FF000074FF000084FF0CD
:1002C000000B21F00701AC46ACE8C009ACE8C0095E
:1002D000ACE8C009ACE8C0098D46704710B50446CB
:1002E000AFF300802046BDE81040FFF7A8BF000034
:1002F000004870472800002001491820ABBEFEE7E7
:1003000026000200704700BFFEE77047044A1168EC
:1003100000BF034A1268521A8242FAD370470000A3
:100320002000002010B5012000F01EF890B10A480E
:10033000006800F4005028B14FF400500649891DB0
:10034000088004E04FF400500349091D0880012093
:1003500000F004F810BD00001418024001490860C4
:1003600070470000143C014001460020034A126817
:100370000A400AB1012000E000207047143C01400F
:10038000002123498279002A3AD00A46126803687C
:100390009A430B461A600A1D126803689A430B1DA4
:1003A0001A60027911440A6803681A430A60184AFD
:1003B0000832126803689A43154B08331A601A1DF5
:1003C000126803689A43124B0C331A604279102A60
:1003D0000ED11A1F126803681A430D4B08331A60B6
:1003E0001A1D126803681A43094B0C331A600DE09A
:1003F0000749427911440A6803681A430A6005E014
:10040000027911440A6803689A430A607047000041
:10041000003C0140F0B50A4600210023002400BF43
:100420003DE0012505FA01F3156805EA03049C4245
:1004300034D105684F000326BE40B54305601579E9
:100440004E00B5400668354305601579012D02D090
:100450001579022D16D185684F000326BE40B5439D
:10046000856055794E00B54086683543856045689E
:1004700001268E40B5434560456896798E40B6B2F8
:1004800035434560C5684F000326BE40B543C5608F
:10049000D5794E00B540C6683543C560491C102962
:1004A000BFD3F0BD00BFFEE700BFFEE7704700000E
:1004B00070B5002100230F22C4781CB3174C2468A8
:1004C00004F4E064C4F5E064C4F30721C1F104045A
:1004D000E3B20A4144789C40E1B28478144021435D
:1004E0000C07210E0E4C05786155047804F01F05A9
:1004F0000124AC4005786D11AD0005F1E025C5F88B
:10050000004109E0047804F01F050124AC40054DCA
:100510000678761145F8264070BD00000CED00E02D
:1005200000E400E080E100E07047000029B1064AE5
:1005300012680243044B1A6004E0034A12688243C3
:10054000014B1A60704700003038024029B1064A5A
:1005500012680243044B1A6004E0034A12688243A3
:10056000014B1A6070470000443802407047000099
:1005700030B500228B071C0F0F2303FA04F20B4B3C
:100580008C1053F824309343084C8D1044F82530D8
:1005900023468C1053F824308C07240F00FA04F4FF
:1005A0002343024C8D1044F8253030BD08380140FB
:1005B00070B500F03BF8164800684FF47A72B0FB53
:1005C000F2F1481EB0F1807F01D301201BE0481EEC
:1005D0004FF0E022506150170F22002807DA13076E
:1005E0001D0E0C4B00F00F04241F1D5503E01307D4
:1005F0001C0E094B1C5400BF00204FF0E0229061FC
:1006000007201061002008B100BFFEE770BD0000A8
:100610002400002018ED00E000E400E0024800683B
:10062000401C0149086070472000002070B5002080
:100630000022022300240221274D2D6805F00C0022
:1006400020B1042806D0082834D107E0234D244ED9
:10065000356033E0234D224E35602FE01E4D2D1FB7
:100660002D68C5F380541C4D2D1F2D6805F03F01EA
:1006700054B11C4DB5FBF1F5174E361F3668C6F365
:10068000881605FB06F209E0144DB5FBF1F5124E94
:10069000361F3668C6F3881605FB06F20E4D2D1F71
:1006A0002D68C5F301456D1C6B00B2FBF3F50C4ED4
:1006B000356003E0094D0A4E356000BF00BF064DAE
:1006C0002D68C5F30315084E705D054D2D68C540B6
:1006D000034E356070BD0000083802400024F4006D
:1006E0002400002040787D01260800081448006896
:1006F00040F47000124908601248006840F00100A0
:100700001049086000200F49083108600D48006852
:100710000D4908400B4908600C48091D0860081F76
:10072000006820F48020091F0860002005490C3172
:1007300008604FF00060024980390860704700008F
:1007400088ED00E000380240FFFFF6FE1030002484
:1007500000BFFEE701214020FFF7E8FE0121084627
:10076000FFF7E4FE4FF4C0402749086001200871FC
:1007700000208871012048710020C8712348FFF7CC
:1007800049FE0120204908600020087101204871BD
:100790001F48FFF73FFE01218803FFF7D7FE012125
:1007A0000020FFF7E5FE01201A49086000200871CB
:1007B00008204871012088710846FFF7E1FD0620F6
:1007C000154908700F20487088700120C8700846CD
:1007D000FFF76EFEFFF7ECFE15E04FF480400B498B
:1007E000183108804010891C08800120FFF78EFD19
:1007F0004FF4804005491A3108804010891E088056
:100800000120FFF783FDE8E71800002000180240F0
:1008100000000240100000200C0000204FF040704B
:10082000E1EE100A70470000000000000000010225
:100830000304060708090000000001020304000089
:10084000600800080000002028000000E8010008FF
:100850008808000828000020600600000402000844
:100860000018024000180240000002400000000092
:100870000000000000000000000000000000000078
:08088000000000000024F40058
:04000005080001AD41
:00000001FF
