:020000040800F2
:10000000A00600204D020008E5110008D1050008F7
:10001000E111000807030008B11900080000000002
:10002000000000000000000000000000531700085E
:100030000B03000800000000E71100087918000811
:1000400067020008670200086702000867020008EC
:1000500067020008670200086702000867020008DC
:1000600067020008670200086702000867020008CC
:1000700067020008670200086702000867020008BC
:1000800067020008670200086702000867020008AC
:10009000670200086702000867020008670200089C
:1000A000670200086702000867020008670200088C
:1000B000670200086702000867020008670200087C
:1000C000670200086702000867020008670200086C
:1000D000670200086702000867020008670200085C
:1000E000670200086702000867020008670200084C
:1000F000670200086702000867020008670200083C
:10010000670200086702000867020008670200082B
:10011000670200086702000867020008670200081B
:10012000670200086702000867020008670200080B
:1001300067020008670200086702000867020008FB
:1001400067020008670200086702000867020008EB
:1001500067020008670200086702000867020008DB
:1001600067020008670200086702000867020008CB
:1001700067020008670200086702000867020008BB
:1001800067020008670200086702000867020008AB
:10019000670200086702000867020008670200089B
:1001A00067020008670200086702000800F002F812
:1001B00000F03CF80AA090E8000C82448344AAF1C5
:1001C0000107DA4501D100F031F8AFF2090EBAE8C3
:1001D0000F0013F0010F18BFFB1A43F0010318477B
:1001E000CC430000EC430000103A24BF78C878C12B
:1001F000FAD8520724BF30C830C144BF04680C602D
:10020000704700000023002400250026103A28BF74
:1002100078C1FBD8520728BF30C148BF0B60704778
:100220001FB501F0C9FC1FBD10B510BD00F031F8BD
:100230001146FFF7F5FF01F017FC00F04FF803B48B
:10024000FFF7F2FF03BC00F057F8000009488047B1
:1002500009480047FEE7FEE7FEE7FEE7FEE7FEE7A8
:10026000FEE7FEE7FEE7FEE704480549054A064BC0
:100270007047000049190008AD010008A0000020E7
:10028000A0060020A0020020A002002070477047B6
:100290007047754600F02CF8AE4605006946534697
:1002A00020F00700854618B020B5FFF7DDFFBDE858
:1002B00020404FF000064FF000074FF000084FF0CD
:1002C000000B21F00701AC46ACE8C009ACE8C0095E
:1002D000ACE8C009ACE8C0098D46704710B50446CB
:1002E000AFF300802046BDE81040FFF7A8BF000034
:1002F000004870474000002001491820ABBEFEE7CF
:1003000026000200704700BFFEE77047044A1168EC
:1003100000BF034A1268521A8242FAD370470000A3
:100320003800002010B5024600200023102A03D117
:100330004FF02044636E0FE0B2F5807F02D10A4C8B
:10034000236809E0B2F5805F03D1074C20342368AD
:1003500002E0054CD434236803EA01048C4201D046
:10036000002000E0012010BD840000A00021D0E9A1
:1003700000231A4383685B1E42EA4312C36842EAC1
:100380004321014A11607047500100A070B500225E
:100390000021002300240568AD00A5F1C045D5F873
:1003A00040216FF30E02D0E901563543C66835434C
:1003B000066935434669354386693543C669354321
:1003C000066A3543466A35432A43056835B90568E8
:1003D000AD00A5F1C045C5F8402111E03B4D2B68AB
:1003E0006FF30E03D0E907563543466A35432B4376
:1003F000364D2B600568AD00A5F1C045C5F840211C
:10040000056875BB314D0835066855F8261001F0B2
:100410007041856A2D686D1E866A7668761E45EA8B
:100420000616856AAD686D1E46EA0526856AED6882
:100430006D1E46EA0536856A2D8A6D1E46EA05461A
:10044000856AAD8A6D1E46EA0556856A2D7E6D1E4B
:1004500046EA056529431D4D0835066845F826100E
:1004600032E0FFE7194D0835066855F8261001F00F
:100470007041856A2D686D1E866A7668761E45EA2B
:100480000616856AAD686D1E46EA0526856A2D8AC0
:100490006D1E46EA054529430C4D08352C6804F0CD
:1004A0007044856AED686D1E2E03856AAD8A6D1EE7
:1004B00046EA05552C434FF02045C5F84841034D09
:1004C0000835066845F8261070BD0000400100A000
:1004D0000449096841EA40014FF02042C2F8541132
:1004E00070470000540100A0F0B50A460021002327
:1004F000002400BF3DE0012505FA01F3156805EA77
:1005000003049C4234D105684F000326BE40B54326
:10051000056015794E00B5400668354305601579CC
:10052000012D02D01579022D16D185684F000326C2
:10053000BE40B543856055794E00B5408668354369
:100540008560456801268E40B543456045689679CB
:100550008E40B6B235434560C5684F000326BE40A5
:10056000B543C560D5794E00B540C6683543C56012
:10057000491C1029BFD3F0BDF0B5002300244D075E
:10058000ED0E02FA05F3CE1000F1200555F82650C5
:100590004E07F70E0F26BE40B543CF1000F12006E0
:1005A00046F82750CE1000F1200555F8265045EAB0
:1005B0000304CE1000F1200545F82640F0BD41832C
:1005C0007047018370470AB1018300E0418370479F
:1005D00000BFFEE71CB501216F2000F005FE0E22D2
:1005E00003215048FFF7C8FF0E2204214D48FFF7B2
:1005F000C3FF0E2206214B48FFF7BEFF0E220B2140
:100600004848FFF7B9FF0E220C214648FFF7B4FF18
:1006100041F65800009002208DF805008DF8040086
:1006200000208DF806008DF8070069463D48FFF769
:100630005BFF092200213C48FFF79EFF09220121B0
:100640003948FFF799FF0E2208213748FFF794FF3A
:100650000E2209213448FFF78FFF0E220A2132486B
:10066000FFF78AFF0E220B212F48FFF785FF40F688
:100670000370009069462C48FFF736FF0E220621D2
:100680002A48FFF779FF0E2207212848FFF774FF59
:100690000E220A212548FFF76FFF4FF49860009063
:1006A00069462248FFF720FF0E2203212048FFF76A
:1006B00063FF0E2206211E48FFF75EFF48200090D0
:1006C00069461B48FFF710FF0E220A211948FFF761
:1006D00053FF4FF48060009069461648FFF704FF0F
:1006E0000E2206211448FFF747FF0E220721124869
:1006F000FFF742FF09220A210F48FFF73DFF0E22B4
:100700000B210D48FFF738FF09220C210A48FFF79B
:1007100033FF4FF4E650009069460748FFF7E4FEC8
:100720001CBD00000000024000040240000802401E
:10073000000C0240001402400018024010B50446AC
:1007400024B904210448FFF73AFF03E004210248DA
:10075000FFF737FF10BD00000008024001460020EF
:1007600000BF04E0044B1B6823F81010401CB0F5D8
:10077000A02FF7D370470000280000201CB50121EE
:100780000C2000F031FD0420009002208DF80500BF
:1007900001208DF8040000208DF806008DF8070078
:1007A00069460848FFF7A0FE4FF4005000906946E4
:1007B0000548FFF799FE01220421024800F006F8DF
:1007C0001CBD000000080240000C024070B5044649
:1007D0000D461646324629462046FFF7F4FE70BD08
:1007E00070B505460E461446A4F12000C4B2074871
:1007F0000068016805480068C088604301EB40025A
:100800003146284600F034F870BD0000200000207A
:1008100010B5292000F016FB10BD000070B506468B
:100820000C4600250AE0227829463046FFF7D8FF1B
:100830000E4800688088284485B2641CF02D14DAC4
:100840000A4800688088284480B208490968898875
:10085000884201DB012000E00020217809B101215C
:1008600000E0002108400028DDD170BD20000020FC
:100870002DE9F04104460D46134600BF002200BF9B
:100880000020C4EB04177E01284400214DE0002223
:100890003FE0294F3F68BF884FF00C0C97FBFCF7F7
:1008A0004FEAC70C802707FA0CF7174133F811C03D
:1008B00007EA0C0727B9204F3F68BF880C2F0DDDD2
:1008C00033F811704FF0010C0CFA02FC07EA0C0728
:1008D0008FB9194F3F68BF880C2F0CDD174F3F8829
:1008E000DFF85CC0DCF800C04FF0020808FB00CC69
:1008F0002CF806700BE0134F3F88DFF844C0DCF89B
:1009000000C04FF0020808FB00CC2CF80670401C19
:10091000521C094F3F68BF889742BAD8064F3F68BC
:10092000BF88C7F1F0073844491C034F3F68FF8870
:100930008F42ACD8BDE8F0812000002026000020C6
:1009400028000020240000200148006870470000B3
:100950002000002000B58FB0FFF710FF0020FFF748
:10096000EDFE0120FFF7EAFE00F0DAF900F092F860
:100970000121880600F068FC0121C80500F034FC64
:10098000FFF728FE00F0C0FD0020009001900290CB
:1009900003900C900D900E9004220721C02000F0CF
:1009A000A5FC4FF4003000F08FFC012000F098FC13
:1009B00000BF3D2000F068FC0028FAD00920049018
:1009C000012005901D2006900320079040F20D1095
:1009D000089040F24310099040F217100A9040F23C
:1009E00047100B90684600F09BFA0FB000BD000066
:1009F00000B591B01E20019040F20D10029004202D
:100A0000039040F24310049002200590FF200690CE
:100A100000200790089009900A904FF480600B9096
:100A200005200C9040F2E3100E90C01E0F904FF482
:100A3000A07010904FF050400D9001A9124800F0A6
:100A40003EFB12480D904FF4C0600B9007200C90B5
:100A500001A90D48803000F032FB012000F0BAFB04
:100A60000121094800F020FB01210748803000F0F7
:100A70001BFB012000F0AEFB054800F0C1F901208E
:100A800000F03CFA11B000BD84680140000005D0C0
:100A90000000002010B5CA2000F0D4F9C32000F0F7
:100AA000F7F9082000F0F4F9502000F0F1F9CF2018
:100AB00000F0C8F9002000F0EBF9C12000F0E8F9DF
:100AC000302000F0E5F9ED2000F0BCF9642000F0E2
:100AD000DFF9032000F0DCF9122000F0D9F98120C1
:100AE00000F0D6F9E82000F0ADF9852000F0D0F94B
:100AF000002000F0CDF9782000F0CAF9CB2000F0FA
:100B0000A1F9392000F0C4F92C2000F0C1F900202F
:100B100000F0BEF9342000F0BBF9022000F0B8F973
:100B2000F72000F08FF9202000F0B2F9EA2000F061
:100B300089F9002000F0ACF9002000F0A9F9B120FB
:100B400000F080F9002000F0A3F91B2000F0A0F9CC
:100B5000B62000F077F90A2000F09AF9A22000F000
:100B600097F9C02000F06EF9102000F091F9C12033
:100B700000F068F9102000F08BF9C52000F062F950
:100B8000452000F085F9152000F082F9C72000F01B
:100B900059F9902000F07CF9362000F053F9C82074
:100BA00000F076F9F22000F04DF9002000F070F925
:100BB000B02000F047F9C22000F06AF9B62000F03A
:100BC00041F90A2000F064F9A72000F061F927201C
:100BD00000F05EF9042000F05BF92A2000F032F901
:100BE000002000F055F9002000F052F9002000F03C
:100BF0004FF9EF2000F04CF92B2000F023F90020F2
:100C000000F046F9002000F043F9012000F040F91F
:100C10003F2000F03DF9F62000F014F9012000F02B
:100C200037F9002000F034F9062000F031F92C20CB
:100C300000F008F9C82000F0F7FE262000F002F9C5
:100C4000012000F025F9E02000F0FCF80F2000F072
:100C50001FF9292000F01CF9242000F019F90C20BC
:100C600000F016F90E2000F013F9092000F010F939
:100C70004E2000F00DF9782000F00AF93C2000F039
:100C800007F9092000F004F9132000F001F905200C
:100C900000F0FEF8172000F0FBF8112000F0F8F843
:100CA000002000F0F5F8E12000F0CCF8002000F082
:100CB000EFF8162000F0ECF81B2000F0E9F8042013
:100CC00000F0E6F8112000F0E3F8072000F0E0F86B
:100CD000312000F0DDF8332000F0DAF8422000F097
:100CE000D7F8052000F0D4F80C2000F0D1F80A2045
:100CF00000F0CEF8282000F0CBF82F2000F0C8F844
:100D00000F2000F0C5F8112000F09CF8C82000F07A
:100D10008BFE292000F096F82C2000F093F810BDEF
:100D200000B587B00121202000F05EFA01210805FE
:100D300000F08AFA8020009001208DF80500022042
:100D40008DF8040000208DF8060002208DF80700C1
:100D500069462648FFF7C8FB4FF48070009069464B
:100D60002248FFF7C1FB4FF40070009069461F480E
:100D7000FFF7BAFB052207211C48FFF7FDFB052200
:100D800008211A48FFF7F8FB052209211748FFF749
:100D9000F3FB174800F05CFC1548008800F04000A9
:100DA00010BB0020ADF808004FF48270ADF80A00C7
:100DB0000020ADF80C00ADF80E00ADF810004FF4B7
:100DC0000070ADF812001820ADF814000020ADF846
:100DD00016000720ADF8180002A9054800F09BFC9A
:100DE0000121034800F028FC07B000BD00140240B8
:100DF0000050014001490880704700002600002093
:100E000001490860704700002000002038B94FF009
:100E10005041064A11600021054A116005E005496C
:100E2000024A11600121024A116070472800002027
:100E30002C000020000005D0014908807047000008
:100E40002400002010B5044600224FF400510E4843
:100E5000FFF7BCFC0020FFF771FC21460B4800F0B7
:100E600058FC00BF0221094800F04AFC0028F9D0D4
:100E700000BF8021054800F043FC0028F9D1012083
:100E8000FFF75CFC10BD0000000C02400050014068
:100E900010B50446012251030D48FFF797FC0020CE
:100EA000FFF74CFC21460B4800F033FC00BF022149
:100EB000084800F025FC0028F9D000BF8021054833
:100EC00000F01EFC0028F9D10120FFF737FC10BD0F
:100ED000000C02400050014030B10749096841F060
:100EE0000101054A116005E00349096821F001018B
:100EF000014A1160704700001868014030B107498D
:100F0000096841F48031054A116005E00349096828
:100F100021F48031014A11607047000018680140D7
:100F2000F0B50021002200230024002500265B4F9D
:100F30003F68DFF86CC107EA0C07DFF860C1CCF846
:100F40000070078A390467463F68D0F814C04CEA3D
:100F5000010C47EA0C07DFF844C1CCF800700CF133
:100F600004073F68DFF838C107EA0C07DFF82CC137
:100F70000CF1040CCCF80070078B3A0467463F680C
:100F8000D0F81CC04CEA020C47EA0C07DFF80CC191
:100F90000CF1040CCCF800700CF104073F68DFF88A
:100FA00000C107EA0C07DFF8F4C00CF1080CCCF81C
:100FB0000070078C3B0467463F68D0F824C04CEAB9
:100FC000030C47EA0C07DFF8D4C00CF1080CCCF88E
:100FD00000700CF104073F68DFF8C4C007EA0C0793
:100FE000DFF8B8C00CF10C0CCCF80070078D3C0495
:100FF0006746D7F800C0C76A27434CEA070C274F5B
:101000000C37C7F800C03F1D3F68DFF898C007EAFB
:101010000C07DFF888C00CF1100CCCF80070D0E998
:10102000007C47EA0C07D0F808C047EA0C07D0F864
:101030000CC047EA0C07DFF864C00CF1100CDCF8B8
:1010400000C047EA0C07DFF854C00CF1100CCCF8D4
:101050000070476B3D02078E3E04104F24373F68F7
:1010600007F07F47DFF834C00CF1240CCCF8007097
:1010700046EA0507D0F838C047EA0C07DFF81CC07D
:101080000CF1240CDCF800C047EA0C07DFF80CC0B8
:101090000CF1240CCCF80070F0BD00000868014091
:1010A00000F800F08F88FE0F21B1026842F00102C3
:1010B000026003E0026822F00102026070472DE93D
:1010C000F041002400250026002200270023B1F86B
:1010D00004C04FEA0C44D0F804C00CF4704CC0F8C3
:1010E00004C0D1F800C04CEA040CC0F804C0B1F848
:1010F0000CC04FEA0C45D0F808C00CF4704CC0F896
:1011000008C0D1F808C04CEA050CC0F808C0D0F8F7
:1011100010C02CF0070CC0F810C0D1F810C0C0F8F7
:1011200010C0D1F81CC04FEA0C26B1F820C04FEA1D
:101130000C4291F824C04FEA0C67D0F818C09C46C6
:10114000C0F818C0D1F818C04CEA060C4CEA020CE2
:101150004CEA070CC0F818C0D0F814C02CF0FF0CF3
:10116000C0F814C0D1F814C0C0F814C0D0F81CC026
:1011700040F207782CEA080CC0F81CC0D1E90AC874
:101180004CEA080CC0F81CC0D0F828C09C46C0F837
:1011900028C0D1F830C0C0F828C0B1F838C04FEA34
:1011A0000C43D0F82CC00CF0E02CC0F82CC0D1F8C7
:1011B00034C04CEA030CC0F82CC0D0F830C06FF338
:1011C0000A0CC0F830C0D1F83CC0C0F830C0BDE84F
:1011D000F081000001490860704700002468014068
:1011E00000BFFEE77047704729B1064A1268024304
:1011F000044B1A6004E0034A12688243014B1A60F0
:10120000704700003038024029B1064A1268024394
:10121000044B1A6004E0034A12688243014B1A60CF
:10122000704700003838024029B1064A126802436C
:10123000044B1A6004E0034A12688243014B1A60AF
:10124000704700002038024029B1064A1268024364
:10125000044B1A6004E0034A12688243014B1A608F
:10126000704700004438024029B1064A1268024320
:10127000044B1A6004E0034A12688243014B1A606F
:10128000704700002438024010B5014600220023B8
:1012900000204A11012A02D10A4C236808E0022AE0
:1012A00003D1084C7034236802E0064C7434236880
:1012B00001F01F02012494401C400CB1012000E009
:1012C000002010BD0038024001460020034A10688B
:1012D00020F4403008431060704700008C38024012
:1012E00001490867704700000000474210B58301BC
:1012F00043EA016343EA0273014C236010BD00001E
:10130000883802401CB501217E20FFF76DFF0220C6
:101310008DF804008DF8050000208DF806008DF88A
:1013200007000C2205217248FFF726F90C2206213E
:101330006F48FFF721F96020009069466C48FFF77D
:10134000D3F80C2200216B48FFF716F9012000901A
:1013500069466848FFF7C8F80C2200216648FFF785
:101360000BF90C2201216448FFF706F90C22082131
:101370006148FFF701F90C2209215F48FFF7FCF8EB
:101380000C220A215C48FFF7F7F80C220E215A487C
:10139000FFF7F2F80C220F215748FFF7EDF84CF257
:1013A0000370009069465448FFF79EF80C22002114
:1013B0005248FFF7E1F80C2201215048FFF7DCF812
:1013C0000C2207214D48FFF7D7F80C2208214B4883
:1013D000FFF7D2F80C2209214848FFF7CDF80C227C
:1013E0000A214648FFF7C8F80C220B214348FFF7B3
:1013F000C3F80C2211464148FFF7BEF80C220D211C
:101400003E48FFF7B9F80C220E213C48FFF7B4F82C
:101410000C220F213948FFF7AFF84FF68370009088
:1014200069463648FFF760F80C2200213448FFF780
:10143000A3F80C2201213248FFF79EF80C2202216A
:101440002F48FFF799F80C2203212D48FFF794F855
:101450000C2204212A48FFF78FF80C220521284886
:10146000FFF78AF80C220B212548FFF785F80C229C
:1014700011462348FFF780F80C220D212048FFF782
:101480007BF80C220E211E48FFF776F80C220F2164
:101490001B48FFF771F84FF63F0000906946184867
:1014A000FFF722F80C2200211648FFF765F80C22FE
:1014B00001211448FFF760F80C2204211148FFF7BE
:1014C0005BF80C2205210F48FFF756F80C22082183
:1014D0000C48FFF751F80C220F210A48FFF74CF88F
:1014E00048F23310009069460648FEF7FDFF1CBD28
:1014F0000004024000080240000C024000100240BC
:10150000001402400018024000B593B0FFF7FAFE45
:1015100001210846FFF778FE022001900720029083
:101520000420039007200490022005900690079065
:10153000012008900020099004200A9010200B90B0
:1015400040200C904FF4C0700D9000200E904FF48E
:1015500000600F90002010904FF40050119001A8EF
:10156000129008A8FEF712FF00F002F813B000BDB9
:101570001FB5002401200090082001900120029056
:101580000020039000BF20210120FEF7CBFE0028A1
:10159000F9D16846FEF7EAFE0A2000F053FA02206D
:1015A000009008200190012002900020039000BFCD
:1015B00020210120FEF7B6FE0028F9D16846FEF78B
:1015C000D5FE032000900820019004200290002006
:1015D000039000BF20210120FEF7A4FE0028F9D1CE
:1015E0006846FEF7C3FE00BF20210120FEF79AFEE9
:1015F0000028F9D16846FEF7B9FE40F231240420F4
:1016000000900820019001200290039400BF202147
:101610000120FEF787FE0028F9D16846FEF7A6FEF6
:1016200040F26A50FEF754FF00BF20210120FEF770
:1016300079FE0028F9D11FBD21B1028842F0400295
:10164000028004E002884FF6BF731A4002807047A0
:1016500010B504462448844208D101218014FFF7C4
:1016600003FE0021A014FFF7FFFD3CE01F48844269
:1016700008D101210014FFF7D7FD00212014FFF746
:10168000D3FD30E01A48844208D10121C013FFF78E
:10169000CBFD0021E013FFF7C7FD24E0154884428D
:1016A00008D101214014FFF7DFFD00216014FFF78E
:1016B000DBFD18E01048844209D101210805FFF73D
:1016C000D3FD00214FF48010FFF7CEFD0BE00B4857
:1016D000844208D101214805FFF7C6FD00214FF4DF
:1016E0000010FFF7C1FD10BD003001400038004080
:1016F000003C0040003401400050014000540140D3
:101700000246002013890B400BB1012000E00020AD
:1017100070478181704710B50022028802F441525F
:101720000B884C8823438C882343CC8823430C8923
:1017300023434C8923438C892343CC8923431A4375
:101740000280838B4FF2FF74234083830B8A0382D2
:1017500010BD70470CB50020019000904248006811
:1017600040F480304049086000BF3F48006800F402
:10177000003000900198401C0190009818B9019821
:10178000B0F5A04FF1D13848006800F4003010B136
:101790000120009001E0002000900098012803D172
:1017A00032483149091D08602F484030006840F038
:1017B00080502D49403108602D48006840F4404079
:1017C0002B4908602848083000682749083108601C
:1017D0000846006840F4004008600846006840F48D
:1017E000A05008602048006840F080701E490860E2
:1017F00000BF1D48006800F000700028F9D01C48A8
:10180000006840F480301A49086000BF18484068FA
:1018100000F480300028F9D01548006840F400300A
:101820001349086000BF1248406800F400300028E7
:10183000F9D040F205700F4908600B480830006885
:1018400020F003000849083108600846006840F0AD
:101850000200086000BF04480830006800F00C0077
:101860000828F8D10CBD000000380240085A400793
:1018700000700040003C024002480068401C0149E2
:10188000086070473800002070B500200022022355
:1018900000240221274D2D6805F00C0020B10428FA
:1018A00006D0082834D107E0234D244E356033E0BC
:1018B000234D224E35602FE01E4D2D1F2D68C5F3A0
:1018C00080541C4D2D1F2D6805F03F0154B11C4D57
:1018D000B5FBF1F5174E361F3668C6F3881605FBC3
:1018E00006F209E0144DB5FBF1F5124E361F3668CD
:1018F000C6F3881605FB06F20E4D2D1F2D68C5F3A5
:1019000001456D1C6B00B2FBF3F50C4E356003E036
:10191000094D0A4E356000BF00BF064D2D68C5F366
:101920000315084E705D054D2D68C540034E3560AA
:1019300070BD0000083802400024F4003C00002084
:1019400040787D019245000810B51548006840F4C4
:101950007000134908601348006840F00100114905
:10196000086000200F49083108600E4800680E49E1
:1019700008400C4908600D48091D0860081F0068F0
:1019800020F48020091F0860002006490C310860FF
:10199000FFF7E0FE4FF0006001498039086010BD9C
:1019A00088ED00E000380240FFFFF6FE1030002412
:1019B00000BFFEE770B501218803FFF745FCFFF784
:1019C00063FF164800684FF47A72B0FBF2F1481ECC
:1019D000B0F1807F01D301201BE0481E4FF0E022D0
:1019E000506150170F22002807DA13071D0E0C4B09
:1019F00000F00F04241F1D5503E013071C0E094BB4
:101A00001C5400BF00204FF0E022906107201061BD
:101A1000002008B100BFFEE770BD00003C000020C0
:101A200018ED00E000E400E001B581B00020009076
:101A30000198009002E00098401E00900098002855
:101A4000F9D10CBD01B581B0002000900549019885
:101A50004843009002E00098401E00900098002843
:101A6000F9D10CBDA0860100FFF7A4FF01214020A1
:101A7000FFF7BAFB01210846FFF7B6FB4FF4C04061
:101A800039490860012008710020887101204871DF
:101A90000020C8713548FEF727FD01203249086053
:101AA00000200871C8713248FEF71EFDFEF752FF94
:101AB00001213048FFF7F8FA01212E488030FFF766
:101AC000F3FA0120FFF786FB0120FFF705FAFEF786
:101AD0008FFFFEF79DFE0120FFF798F90020FEF72B
:101AE0003DFE0020FFF786F94FF6FF70FFF7A4F9DF
:101AF0002148FFF785F9FEF727FFC4881FA120467C
:101B0000FEF78CFEFEF720FFC08800EB400084B299
:101B10001EA12046FEF782FEFEF716FFC08800EBEE
:101B2000800084B21DA12046FEF778FEFEF70CFF70
:101B3000C08800EB40004004040C1BA12046FEF7C7
:101B40006DFE0FE04FF40050084918310880012065
:101B5000FEF7DCFB4FF4005004491A3108800120E5
:101B6000FEF7D4FBEEE70000300000200018024032
:101B700000000240846801400000002031657220AE
:101B8000507275656261204C43440000456E2041EF
:101B9000524D2033324631303400000042793A2031
:101BA00044616E69656C0000526F647269677565A7
:101BB0007A20416772617A004FF04070E1EE100ABE
:101BC000704700000000000000000000000000005E
:101BD0000000000000000000000000000000000005
:101BE00000000000000000000000000000000000F5
:101BF00000000000800180018001800180018001DF
:101C0000800180018001800180018001800100004D
:101C100000008001800100000000000000000000C2
:101C2000000000000000CC00CC00CC00CC00CC00B8
:101C3000CC000000000000000000000000000000D8
:101C40000000000000000000000000000000000094
:101C50000000000000000000000000000000600C18
:101C6000600C600C30063006FE1FFE1F3006380781
:101C70001803FE1FFE1F180318038C018C018C0132
:101C8000000000008000E003F80F9C0E8C1C8C18F4
:101C90008C009800F801E007800E801C8C188C18CE
:101CA0009C18B80CF00FE0038000800000000000DA
:101CB00000000000000000000E181B0C110C1106A3
:101CC0001106110311039B018E01C038C06C6044E2
:101CD0006044304430441844186C0C380000000054
:101CE00000000000E001F003380718061806300372
:101CF000F001F000F8009C310E33061E061C061C95
:101D0000063FFC73F021000000000000000000000E
:101D10000000000000000C000C000C000C000C0087
:101D20000C000000000000000000000000000000A7
:101D300000000000000000000000000000000000A3
:101D400000000000000200038001C000C00060002D
:101D500060003000300030003000300030003000D3
:101D6000300060006000C000C0008001000300027D
:101D70000000000020006000C0008001800100031E
:101D80000003000600060006000600060006000626
:101D900000060003000380018001C00060002000F5
:101DA0000000000000000000000000000000C00073
:101DB000C000D806F807E001300338070000000033
:101DC0000000000000000000000000000000000013
:101DD0000000000000000000000000000000800182
:101DE0008001800180018001FC3FFC3F8001800177
:101DF0008001800180010000000000000000000060
:101E000000000000000000000000000000000000D2
:101E100000000000000000000000000000000000C2
:101E2000000000008001800100010001800000002E
:101E300000000000000000000000000000000000A2
:101E400000000000000000000000E007E0070000C4
:101E50000000000000000000000000000000000082
:101E60000000000000000000000000000000000072
:101E70000000000000000000000000000000000062
:101E800000000000C000C0000000000000000000D2
:101E900000000000000C000C000600060006000315
:101EA000000300038003800180018001C000C000A6
:101EB000C0006000600000000000000000000000A2
:101EC00000000000E003F007380E180C0C180C1886
:101ED0000C180C180C180C180C180C180C18180CE2
:101EE000380EF007E00300000000000000000000D2
:101EF0000000000000018001C001F001980188018C
:101F000080018001800180018001800180018001C9
:101F1000800180018001000000000000000000003E
:101F200000000000E003F80F180C0C180C18001843
:101F30000018000C000600038001C00060003000A3
:101F40001800FC1FFC1F0000000000000000000043
:101F500000000000E001F807180E0C0C0C0C000C3F
:101F60000006C003C007000C001800180C180C185D
:101F7000180CF807E003000000000000000000005B
:101F800000000000000C000E000F000F800DC00CC0
:101F9000600C600C300C180C0C0CFC3FFC3F000C6F
:101FA000000C000C000C000000000000000000000D
:101FB00000000000F80FF80F180018000C00EC03E8
:101FC000FC071C0E001C0018001800180C181C0C34
:101FD000180EF807E00300000000000000000000F9
:101FE00000000000C007F00F381C181818000C0083
:101FF000CC03EC0F3C0E1C1C0C180C180C18181CF5
:10200000380EF007E00300000000000000000000B0
:1020100000000000FC1FFC1F000C0006000600036F
:1020200080038001C001C000E0006000600070001B
:102030003000300030000000000000000000000010
:1020400000000000E003F007380E180C180C180C04
:102050003806F007F007180C0C180C180C180C18A0
:10206000380CF80FE0030000000000000000000042
:1020700000000000E003F007380E1C0C0C180C18D0
:102080000C181C1C381EF81BE0190018000C000C62
:102090001C0EF807F0010000000000000000000026
:1020A00000000000000000000000000000008001AF
:1020B000800100000000000000000000000000009F
:1020C000000080018001000000000000000000000E
:1020D000000000000000000000000000000080017F
:1020E000800100000000000000000000000000006F
:1020F000000080018001000100018000000000005C
:1021000000000000000000000000000000000000CF
:1021100000000010001C800FE003F8001800F80019
:10212000E003800F001C0010000000000000000011
:10213000000000000000000000000000000000009F
:102140000000F81F000000000000F81F0000000061
:10215000000000000000000000000000000000007F
:10216000000000000000000000000000000000006F
:10217000000008003800F001C007001F0018001F11
:10218000C007F00138000800000000000000000057
:1021900000000000E003F80F180C0C180C180018D1
:1021A000000C000600038001C000C000C000000059
:1021B0000000C000C000000000000000000000009F
:1021C000000000000000E00718180420C229224A7D
:1021D000114409440944094409221113E20C024044
:1021E00004201818E00700000000000000000000B4
:1021F0000000000080038003C006C006C006600C1B
:10220000600C301830183018F83FF83F1C700C6024
:102210000C6006C006C000000000000000000000C6
:1022200000000000FC03FC0F0C0C0C180C180C1820
:102230000C0CFC07FC0F0C180C300C300C300C3064
:102240000C18FC1FFC07000000000000000000004C
:1022500000000000C007F01F38381C300C7006600A
:1022600006000600060006000600060006600C7068
:102270001C30F01FE007000000000000000000001C
:1022800000000000FE03FE0F060E061806180630BA
:1022900006300630063006300630063006180618BE
:1022A000060EFE0FFE03000000000000000000000C
:1022B00000000000FC3FFC3F0C000C000C000C0078
:1022C0000C00FC1FFC1F0C000C000C000C000C0090
:1022D0000C00FC3FFC3F000000000000000000007C
:1022E00000000000F83FF83F180018001800180020
:1022F0001800F81FF81F1800180018001800180020
:102300001800180018000000000000000000000085
:1023100000000000E00FF83F3C780E6006E007C0C8
:102320000300030003FE03FE03C007C006C00EC087
:102330003CF0F83FE00F000000000000000000004B
:10234000000000000C300C300C300C300C300C3025
:102350000C30FC3FFC3F0C300C300C300C300C309F
:102360000C300C300C3000000000000000000000B9
:102370000000000080018001800180018001800157
:102380008001800180018001800180018001800145
:1023900080018001800100000000000000000000BA
:1023A0000000000000060006000600060006000609
:1023B00000060006000600060006000618061806BD
:1023C0003807F003E00100000000000000000000FA
:1023D0000000000006300618060C060606038601FB
:1023E000C60066007600DE008E0106030606060CB7
:1023F0000618063006600000000000000000000023
:10240000000000001800180018001800180018003C
:1024100018001800180018001800180018001800FC
:102420001800F81FF81F0000000000000000000066
:10243000000000000EE01EF01EF01EF036D836D868
:1024400036D836D866CC66CC66CCC6C6C6C6C6C636
:10245000C6C686C386C3000000000000000000005E
:10246000000000000C301C303C303C306C306C30D4
:10247000CC30CC308C310C330C330C360C360C3C5D
:102480000C3C0C380C300000000000000000000084
:1024900000000000E007F81F1C380E70066003C043
:1024A00003C003C003C003C003C003C006600E70B6
:1024B0001C38F81FE00700000000000000000000CA
:1024C00000000000FC0FFC1F0C380C300C300C30EE
:1024D0000C300C18FC1FFC070C000C000C000C004E
:1024E0000C000C000C0000000000000000000000C8
:1024F00000000000E007F81F1C380E70066003E0C3
:1025000003C003C003C003C003C007E006630E3F5F
:102510001C3CF83FE0F700C0000000000000000095
:1025200000000000FE0FFE1F0638063006300630A1
:102530000638FE1FFE0706030606060C06180618D8
:1025400006300630066000000000000000000000B9
:1025500000000000E003F80F1C0C0C180C180C0015
:102560001C00F803E00F001E0038063006300E3065
:102570001C1CF80FE0070000000000000000000035
:1025800000000000FE7FFE7F80018001800180014D
:102590008001800180018001800180018001800133
:1025A00080018001800100000000000000000000A8
:1025B000000000000C300C300C300C300C300C30B3
:1025C0000C300C300C300C300C300C300C300C302B
:1025D0001818F81FE00700000000000000000000CD
:1025E0000000000003600630063006300C180C189E
:1025F0000C18180C180C380E3006300670076003E3
:102600006003C001C00100000000000000000000E5
:10261000000000000360C361C361C36166336633B9
:1026200066336633663366336C1B6C1B6C1B2C1A6B
:102630003C1E380E380E00000000000000000000B4
:10264000000000000FE00C7018303018700C600EA5
:10265000C00780038003C003E006700C301C18180C
:102660000C300E6007E000000000000000000000D9
:102670000000000003C006600C301C383818300C15
:102680006006E007C00380018001800180018001B5
:1026900080018001800100000000000000000000B7
:1026A00000000000FC7FFC7F006000300018000C80
:1026B000000600038001C0006000300018000C001C
:1026C0000600FE7FFE7F000000000000000000000A
:1026D00000000000E003E0036000600060006000B4
:1026E00060006000600060006000600060006000EA
:1026F000600060006000600060006000E003E003D4
:102700000000000030003000600060006000C00089
:10271000C000C000C00180018001800100030003EF
:10272000000300060006000000000000000000009A
:1027300000000000E003E0030003000300030003C7
:102740000003000300030003000300030003000371
:10275000000300030003000300030003E003E003A1
:10276000000000000000C001C001600360036003BE
:1027700030063006180C180C0000000000000000A5
:102780000000000000000000000000000000000049
:102790000000000000000000000000000000000039
:1027A0000000000000000000000000000000000029
:1027B00000000000FFFFFFFF00000000000000001D
:1027C000000000000C000C000C000C000C000C00C1
:1027D00000000000000000000000000000000000F9
:1027E00000000000000000000000000000000000E9
:1027F0000000000000000000000000000000F003E6
:10280000F8071C0C0C0C000FF00FF80C0C0C0C0C47
:102810001C0FF80FF018000000000000000000007E
:102820000000000018001800180018001800D80355
:10283000F80F380C1818181818181818181818182D
:10284000380CF80FD8030000000000000000000062
:102850000000000000000000000000000000C003B5
:10286000F007300E180C1800180018001800180C8B
:10287000300EF007C0030000000000000000000060
:102880000000000000180018001800180018C01BF5
:10289000F01F301C181818181818181818181818BD
:1028A000301CF01FC01B00000000000000000000F2
:1028B0000000000000000000000000000000C00355
:1028C000F00F300C1818F81FF81F180018003818EF
:1028D000301CF00FC00700000000000000000000E6
:1028E00000000000800FC00FC000C000C000F00753
:1028F000F007C000C000C000C000C000C000C000A1
:10290000C000C000C0000000000000000000000087
:102910000000000000000000000000000000E00DCA
:10292000F80F180E0C0C0C0C0C0C0C0C0C0C0C0CEA
:10293000180EF80FE00D000C0C0C1C06F807F00147
:102940000000000018001800180018001800D80730
:10295000F80F381C181818181818181818181818FC
:1029600018181818181800000000000000000000D7
:1029700000000000C000C000000000000000C00017
:10298000C000C000C000C000C000C000C000C00047
:10299000C000C000C00000000000000000000000F7
:1029A00000000000C000C000000000000000C000E7
:1029B000C000C000C000C000C000C000C000C00017
:1029C000C000C000C000C000C000C000F800780017
:1029D000000000000C000C000C000C000C000C0CA3
:1029E0000C060C038C01CC006C00FC009C018C03D9
:1029F0000C030C060C0C000000000000000000009E
:102A000000000000C000C000C000C000C000C00046
:102A1000C000C000C000C000C000C000C000C000B6
:102A2000C000C000C0000000000000000000000066
:102A300000000000000000000000000000007C3CDE
:102A4000FF7EC7E383C183C183C183C183C183C1C7
:102A500083C183C183C100000000000000000000AA
:102A600000000000000000000000000000009807C7
:102A7000F80F381C181818181818181818181818DB
:102A800018181818181800000000000000000000B6
:102A90000000000000000000000000000000C00373
:102AA000F00F300C181818181818181818181818CB
:102AB000300CF00FC0030000000000000000000018
:102AC0000000000000000000000000000000D8032B
:102AD000F80F380C1818181818181818181818188B
:102AE000380CF80FD8031800180018001800180048
:102AF0000000000000000000000000000000C01BFB
:102B0000F01F301C1818181818181818181818184A
:102B1000301CF01FC01B0018001800180018001807
:102B20000000000000000000000000000000B007EE
:102B3000F003700030003000300030003000300012
:102B400030003000300000000000000000000000F5
:102B50000000000000000000000000000000E00392
:102B6000F003380E180C3800F003C007000C180CE6
:102B7000380EF007E0030000000000000000000035
:102B80000000000000008000C000C000C000F0078E
:102B9000F007C000C000C000C000C000C000C000FE
:102BA000C000C00780070000000000000000000017
:102BB00000000000000000000000000000001818E5
:102BC0001818181818181818181818181818181885
:102BD000381CF01FE0190000000000000000000099
:102BE00000000000000000000000000000000C18C1
:102BF000180C180C180C3006300630066003600301
:102C00006003C001C00100000000000000000000DF
:102C10000000000000000000000000000000C141B2
:102C2000C141C361636363636363363636363636E8
:102C30001C1C1C1C1C1C00000000000000000000EC
:102C400000000000000000000000000000001C3830
:102C5000381C300C6006600360036003600360068C
:102C6000300C381C1C380000000000000000000080
:102C7000000000000000000000000000000018300C
:102C8000301830187018600C600CE00CC006C006DC
:102C900080038003800380018001C001F000700088
:102CA0000000000000000000000000000000FC1F09
:102CB000FC1F000C000600038001C0006000300013
:102CC0001800FC1FFC1F00000000000000000000B6
:102CD0000000000000038001C000C000C000C00070
:102CE000C000C00060006000300060004000C00014
:102CF000C000C000C000C000C00080010003000090
:102D000000000000800180018001800180018001BD
:102D100080018001800180018001800180018001AB
:102D2000800180018001800180018001800180019B
:102D3000000000006000C000C0018001800180012F
:102D400080018001000300030006000300018001F0
:102D500080018001800180018001C00060000000CE
:102D60000000000000000000000000000000000063
:102D70000000F010F81F080F000000000000000025
:102D80000000000000000000000000000000000043
:102D90000000000000000000000000000000000033
:102DA00000000000000000000000000000200020E3
:102DB0000020002000200020002000000020000053
:102DC0000000000000500050005000000000000013
:102DD00000000000000000000000000000090009E1
:102DE0000012007F0012007F001200240024000067
:102DF000000000100038005400500050003800144B
:102E000000540054003800100000000080300049D9
:102E10000049004AC032200520092009C0100000E6
:102E200000000000000C0012001200140018002521
:102E300000230023801D000000000000004000402F
:102E40000040000000000000000000000000000042
:102E500000000000000800100010002000200020EA
:102E60000020002000200010001000000040002082
:102E700000200010001000100010001000100020B2
:102E80000020000000200070002000500000000022
:102E90000000000000000000000000000000000032
:102EA00000080008007F0008000800000000000083
:102EB0000000000000000000000000000000000012
:102EC0000000000000200020004000000000000082
:102ED0000000000000000070000000000000000082
:102EE00000000000000000000000000000000000E2
:102EF0000000000000200000000000000010001092
:102F000000100020002000200020004000400000B1
:102F10000000000000100028004400440044004469
:102F200000440028001000000000000000100030E5
:102F300000500010001000100010001000100000E1
:102F400000000000003000480044000400080010A9
:102F500000200040007C000000000000003000481D
:102F60000004000800100008004400480030000081
:102F70000000000000080018001800280028004881
:102F8000007C00080008000000000000003C002059
:102F90000040007000480004004400480030000079
:102FA00000000000001800240040005000680044A9
:102FB000004400280010000000000000007C000415
:102FC0000008001000100010002000200020000069
:102FD0000000000000100028004400280010002815
:102FE000004400280010000000000000001000282D
:102FF00000440044002C001400040048003000008D
:1030000000000000000000000020000000000000A0
:103010000000000000200000000000000000000090
:103020000020000000000000000000000020002040
:1030300000400000000000040008003000400030A4
:103040000008000400000000000000000000000074
:10305000007C00000000007C000000000000000078
:1030600000000000000000400020001800040018CC
:103070000020004000000000000000000038006454
:1030800000440004000800100010000000100000C0
:1030900000000000800F4010A02EA05120512051B0
:1030A00020512053C04D2020401000000008001483
:1030B000001400140022003E0022004100410000E4
:1030C00000000000003C002200220022003C002200
:1030D00000220022003C000000000000000E001151
:1030E000002100200020002000210011000E00001F
:1030F00000000000003C00220021002100210021EE
:1031000000210022003C000000000000003E0020E2
:1031100000200020003E002000200020003E000093
:1031200000000000003E002000200020003C0020A5
:10313000002000200020000000000000000E001110
:10314000002100200027002100210011000E0000B6
:10315000000000000021002100210021003F00218B
:1031600000210021002100000000000000200020BC
:10317000002000200020002000200020002000006F
:10318000000000000008000800080008000800080F
:103190000048004800300000000000000022002429
:1031A0000028002800380028002400240022000005
:1031B000000000000020002000200020002000204F
:1031C00000200020003E0000000000008020803130
:1031D00080318031802A802A802A802A8024000041
:1031E00000000000002100310031002900290025E5
:1031F000002300230021000000000000000C00124A
:10320000002100210021002100210012000C0000FB
:1032100000000000003C002200220022003C0020B0
:10322000002000200020000000000000000C001220
:10323000002100210021002100210016000D0001C5
:1032400000000000003E002100210021003E00247B
:10325000002200218020000000000000001C00224D
:1032600000220020001C000200220022001C00009E
:1032700000000000003E00080008000800080008E8
:1032800000080008000800000000000000210021E4
:10329000002100210021002100210012000C00006B
:1032A0000000000000410041002200220022001422
:1032B0000014001400080000000000004044404AD0
:1032C000402A802A802A802A802A802A0011000031
:1032D0000000000000410022001400140008001447
:1032E0000014002200410000000000000041002204
:1032F0000022001400080008000800080008000070
:1033000000000000007E0002000400080010001011
:1033100000200040007E000000000000003000207F
:10332000002000200020002000200020002000209D
:10333000002000000040004000200020002000206D
:1033400000200010001000000000000000600020BD
:10335000002000200020002000200020002000206D
:103360000020000000100028002800280044000071
:10337000000000000000000000000000000000004D
:10338000000000000000000000000000000000003D
:10339000007E00400020000000000000000000004F
:1033A000000000000000000000000000000000001D
:1033B000003800440004003C00440044003C00008D
:1033C0000000000000400040005800640044004439
:1033D00000440064005800000000000000000000ED
:1033E000003000480040004000400048003000002D
:1033F00000000000000400040034004C00440044BD
:103400000044004C003400000000000000000000F8
:10341000003800440044007C0040004400380000B4
:10342000000000000060004000E00040004000405C
:1034300000400040004000000000000000000000CC
:103440000034004C004400440044004C00340004AC
:103450000044000000400040005800640044004464
:103460000044004400440000000000000040000050
:10347000004000400040004000400040004000008C
:1034800000000000004000000040004000400040FC
:10349000004000400040004000400000004000406C
:1034A00000480050006000500050004800480000F4
:1034B000000000000040004000400040004000408C
:1034C000004000400040000000000000000000003C
:1034D0000052006D004900490049004900490000C0
:1034E0000000000000000000005800640044004498
:1034F0000044004400440000000000000000000000
:1035000000380044004400440044004400380000F7
:103510000000000000000000005800640044004467
:10352000004400640058004000400000000000001B
:103530000034004C004400440044004C00340004BB
:103540000004000000000000005000600040004047
:1035500000400040004000000000000000000000AB
:1035600000300048004000300008004800300000F3
:10357000000000000040004000E00040004000402B
:10358000004000400060000000000000000000005B
:1035900000440044004400440044004C0034000057
:1035A0000000000000000000004400440028002843
:1035B00000280028001000000000000000000000AB
:1035C00000490049005500550055005500220000F3
:1035D0000000000000000000004400280028001047
:1035E0000028002800440000000000000000000047
:1035F000004400440028002800280010001000109B
:1036000000100000000000000078000800100020FA
:1036100000200040007800000000000000100020A2
:10362000002000200020004000200020002000207A
:1036300000200000002000200020002000200020AA
:10364000002000200020002000200000004000207A
:10365000002000200020001000200020002000207A
:10366000002000000000000000000074005800006E
:1036700000000000000000000000000000000070DA
:1036800000500050005000500050005000700000EA
:10369000000000000000000000000000000000002A
:1036A000000000000000000000000000000000001A
:1036B000100010001000100010001000000010009A
:1036C0000000000000000000280028002800000082
:1036D00000000000000000000000000000000000EA
:1036E000140014003E00140028007C00280028006C
:1036F00000000000000010003800540050003800A6
:1037000014001400540038001000000000000000F5
:103710004400A800A800500014001A002A00240049
:1037200000000000000000002000500050002000B9
:10373000E800980098006000000000000000000011
:1037400080008000800000000000000000000000F9
:1037500000000000000000004000800080008000A9
:1037600080008000800080008000000000000000D9
:103770008000400040004000400040004000400009
:1037800040000000000000004000E0004000A000F9
:103790000000000000000000000000000000000029
:1037A0000000000020002000F800200020000000A1
:1037B0000000000000000000000000000000000009
:1037C0000000000000004000400000000000000079
:1037D00000000000000000000000C0000000000029
:1037E00000000000000000000000000000000000D9
:1037F0000000000000004000000000000000000089
:103800002000200020004000400080008000800058
:103810000000000000000000600090009000900098
:103820009000900090006000000000000000000088
:1038300020006000A00020002000200020002000C8
:103840000000000000000000600090001000100068
:10385000200040008000F000000000000000000098
:1038600060009000100060001000100090006000E8
:103870000000000000000000100030005000500068
:103880009000F80010001000000000000000000090
:10389000700040008000E000100010009000600008
:1038A0000000000000000000600090008000A00008
:1038B000D0009000900060000000000000000000B8
:1038C000F0001000200020002000400040004000D8
:1038D0000000000000000000600090009000600008
:1038E00090009000900060000000000000000000C8
:1038F000600090009000B000500010009000600048
:103900000000000000000000000000004000000077
:103910000000000000004000000000000000000067
:103920000000000040000000000000000000400017
:1039300040000000000000000000000010006000D7
:103940008000600010000000000000000000000087
:10395000000000000000F0000000F0000000000087
:103960000000000000000000000000008000600077
:103970001000600080000000000000000000000057
:103980006000900010002000400040000000400057
:1039900000000000000000001C0022005B00A500E9
:1039A000A500A500A5009E00410000000000000049
:1039B0002000500050005000500070008800880027
:1039C0000000000000000000F00088008800F00007
:1039D000880088008800F00000000000000000005F
:1039E00038004400840080008000840044003800D7
:1039F0000000000000000000E00090008800880047
:103A0000880088009000E000000000000000000036
:103A1000F80080008000F800800080008000F8003E
:103A2000000000000000000078004000400070002E
:103A30004000400040004000000000000000000086
:103A400038004400840080009C008400440038005A
:103A50000000000000000000880088008800F800D6
:103A60008800880088008800000000000000000036
:103A70008000800080008000800080008000800046
:103A800000000000000000001000100010001000F6
:103A90001000900090006000000000000000000096
:103AA00088009000A000E000A00090009000880036
:103AB0000000000000000000800080008000800006
:103AC000800080008000F000000000000000000086
:103AD0008200C600C600AA00AA00AA00AA0092009E
:103AE00000000000000000008400C400A400A40046
:103AF000940094008C00840000000000000000008E
:103B000030004800840084008400840048003000B5
:103B10000000000000000000F0008800880088001D
:103B2000F000800080008000000000000000000025
:103B30003000480084008400840084005800340071
:103B400004000000000000007800440044007800F9
:103B50005000480044004200000000000000000047
:103B600070008800800070000800880088007000E5
:103B70000000000000000000F800200020002000ED
:103B800020002000200020000000000000000000B5
:103B90008400840084008400840084004800300095
:103BA0000000000000000000880088005000500065
:103BB00050005000500020000000000000000000F5
:103BC0009200AA00AA00AA00AA00AA00AA00440023
:103BD00000000000000000008400480048003000A1
:103BE0003000480048008400000000000000000091
:103BF00088005000500020002000200020002000FD
:103C00000000000000000000F80008001000200084
:103C1000200040008000F8000000000000000000CC
:103C2000C000800080008000800080008000800054
:103C30008000000000000000800080004000400084
:103C400040004000200020000000000000000000B4
:103C5000C0004000400040004000400040004000E4
:103C600040000000000000004000A000A000A000F4
:103C70000000000000000000000000000000000044
:103C80000000000000000000000000000000000034
:103C9000F80000000000000080004000000000006C
:103CA0000000000000000000000000000000000014
:103CB00000000000E0001000700090009000700014
:103CC000000000000000000080008000A000D00084
:103CD00090009000D000A000000000000000000054
:103CE00000000000600090008000800090006000F4
:103CF0000000000000000000100010005000B000A4
:103D000090009000B0005000000000000000000093
:103D10000000000060009000F00080009000600053
:103D20000000000000000000C0008000C000800013
:103D30008000800080008000000000000000000083
:103D4000000000005000B00090009000B000500053
:103D5000100000000000000080008000A000D000E3
:103D60009000900090009000000000000000000013
:103D700080000000800080008000800080008000C3
:103D800000000000000000008000000080008000B3
:103D900080008000800080008000000000000000A3
:103DA000800080009000A000C000A0009000900063
:103DB0000000000000000000800080008000800003
:103DC00080008000800080000000000000000000F3
:103DD00000000000A600DA0092009200920092001B
:103DE000000000000000000000000000A000D00063
:103DF0009000900090009000000000000000000083
:103E000000000000600090009000900090006000B2
:103E1000000000000000000000000000A000D00032
:103E200090009000D000A000800000000000000082
:103E3000000000005000B00090009000B000500062
:103E4000100000000000000000000000A000C00002
:103E50008000800080008000000000000000000062
:103E600000000000E0009000400020009000600092
:103E7000000000000000000080008000C000800002
:103E8000800080008000C0000000000000000000F2
:103E9000000000009000900090009000B0005000E2
:103EA0000000000000000000000000008800880002
:103EB00050005000500020000000000000000000F2
:103EC000000000009200AA00AA00AA00AA00440074
:103ED000000000000000000000000000880050000A
:103EE00020002000500088000000000000000000BA
:103EF000000000008800500050005000200020000A
:103F0000200000000000000000000000F000100091
:103F1000200040008000F0000000000000000000D1
:103F2000C0008000800080000000800080008000D1
:103F30008000000000000000800080008000800001
:103F400080008000800080008000000000000000F1
:103F5000C000400040004000200040004000400001
:103F60004000000000000000000000000000E80029
:103F7000B000000000000000000000000000000091
:103F80000000E000A000A000A000A000A000E00051
:103F90000000000000000000000000000000000021
:103FA0000000400040004000400040004000000091
:103FB0004000A000A000A0000000000000000000E1
:103FC0000000000024002400FE004800FC0048001F
:103FD0004800380054005000380014001400540009
:103FE00038004400A800A800500014001A002A005D
:103FF0002400100028002800100074004C004C0021
:104000003000100010001000000000000000000050
:104010000000080010001000100010001000100038
:104020000800100008000800080008000800080048
:10403000100000000000240018003C0018002400BC
:10404000000000000000100010007C0010001000B4
:104050000000000000000000000000000800080050
:10406000100000000000000000003C000000000004
:104070000000000000000000000000000000180028
:1040800018000800080008001000100020002000A0
:104090002000180024002400240024002400240010
:1040A0001800080018002800080008000800080090
:1040B0000800380044000000040008001000200040
:1040C0007C001800240004001800040004002400F0
:1040D000180004000C001400240044007E000400BA
:1040E00004003C00200020003800040004002400EC
:1040F00018001800240020003800240024002400A8
:1041000018003C000400080008000800100010001F
:1041100010001800240024001800240024002400AB
:10412000180018002400240024001C0004002400AF
:104130001800000000001000000000001000000047
:10414000000000000000080000000000080010004F
:104150000000000000000400180020001800040007
:1041600000000000000000003C0000003C000000D7
:1041700000000000000020001800040018002000CB
:1041800000001800240004000800100010000000C7
:1041900010003C0042009900A500A5009D004200CF
:1041A000380038004400440044007C0044004400CF
:1041B0004400780044004400780044004400440077
:1041C00078001C0022004200400040004200220013
:1041D0001C007000480044004400440044004800B3
:1041E00070007C00400040007C0040004000400027
:1041F0007C003C002000200038002000200020002F
:1042000020001C002200420040004E00420022001C
:104210001C004400440044007C004400440044006E
:1042200044001000100010001000100010001000DA
:104230001000040004000400040004002400240012
:10424000180044004800500070005000480048002A
:10425000440020002000200020002000200020003A
:104260003C008200C600C600AA00AA00AA00AA005C
:10427000920042006200520052004A004A0046008A
:104280004200180024004200420042004200240084
:1042900018007800440044004400780040004000CA
:1042A00040001800240042004200420042002C005E
:1042B0001A00780044004400780050004800440090
:1042C000420038004400400038000400440044002C
:1042D00038007C00100010001000100010001000CA
:1042E000100042004200420042004200420024000E
:1042F0001800440044002800280028002800280056
:1043000010009200AA00AA00AA00AA00AA00AA000F
:104310004400420024002400180018002400240057
:104320004200440028002800100010001000100077
:1043300010007C0004000800100010002000400065
:104340007C001C0010001000100010001000100075
:104350001C001000100008000800080008000400FD
:1043600004001C0004000400040004000400040015
:104370001C001000280044000000000000000000A5
:10438000000000000000000000000000000000002D
:1043900000002000100010000000000000000000DD
:1043A000000000000000180004001C00240024008D
:1043B0001C002000200028003400240024003400C9
:1043C0002800000000001800240020002000240025
:1043D00018000400040014002C00240024002C0009
:1043E000140000000000180024003C0020002400FD
:1043F0001800000018001000100018001000100035
:1044000010000000180024002400180004002400FC
:10441000180020002000280034002400240024007C
:104420002400100000001000100010001000100008
:10443000100008000000080008000800080028001C
:104440001000200020002400280030002800240054
:1044500024001000100010001000100010001000C8
:10446000100000000000A600DA0092009200920006
:1044700092000000000028003400240024002400E2
:104480002400000000001800240024002400240060
:10449000180000002800340024003800200020000C
:1044A0002000000014002C0024001C000400040064
:1044B0000400000000002C0030002000200020003C
:1044C0002000000000001800240010000800240054
:1044D000180000001000380010001000100010003C
:1044E00018000000000024002400240024002C00F8
:1044F00014000000000044004400280028002800A8
:104500001000000000009200AA00AA00AA00AA0061
:1045100044000000000044002800100010002800A3
:10452000440000002800280028001000100010009F
:104530001000000000003C000400080010002000F3
:104540003C000000080010001000200010001000C7
:1045500008001000100010001000100010001000E3
:104560001000000010000800080004000800080007
:104570001000000000000000600092000C0000002D
:104580000000FF00FF00FF00FF00FF00FF00FF0032
:10459000FF00000000000000000001020304060705
:1045A000080900000000010203040000CC450008D7
:1045B0000000002040000000E80100080C46000850
:1045C000400000206006000004020008C21B000832
:1045D00010001800922D00080C000C009236000804
:1045E00008000C00923F00080800080000000000CE
:1045F0000000FFFF000000D00000000000000000ED
:0C46000000000000000000000095BA0A55
:04000005080001AD41
:00000001FF
