:020000040800F2
:10000000180800204D0200089D1300082D07000865
:100010009913000839030008DD1B000800000000E8
:100020000000000000000000000000007F19000830
:1000300065040008000000009F130008A51A0008CE
:1000400067020008670200086702000867020008EC
:1000500067020008670200086702000867020008DC
:1000600067020008670200086702000867020008CC
:1000700067020008670200086702000867020008BC
:1000800067020008670200086702000867020008AC
:10009000670200086702000867020008670200089C
:1000A000670200086702000867020008670200088C
:1000B000670200086702000867020008670200087C
:1000C000670200086702000867020008670200086C
:1000D000670200086702000867020008670200085C
:1000E000670200086702000867020008670200084C
:1000F000670200086702000867020008670200083C
:10010000670200086702000867020008670200082B
:10011000670200086702000867020008670200081B
:10012000670200086702000867020008670200080B
:1001300067020008670200086702000867020008FB
:1001400067020008670200086702000867020008EB
:1001500067020008670200086702000867020008DB
:1001600067020008670200086702000867020008CB
:1001700067020008670200086702000867020008BB
:1001800067020008670200086702000867020008AB
:10019000670200086702000867020008670200089B
:1001A00067020008670200086702000800F002F812
:1001B00000F03CF80AA090E8000C82448344AAF1C5
:1001C0000107DA4501D100F031F8AFF2090EBAE8C3
:1001D0000F0013F0010F18BFFB1A43F0010318477B
:1001E00098480000B8480000103A24BF78C878C189
:1001F000FAD8520724BF30C830C144BF04680C602D
:10020000704700000023002400250026103A28BF74
:1002100078C1FBD8520728BF30C148BF0B60704778
:100220001FB501F02FFF1FBD10B510BD00F031F854
:100230001146FFF7F5FF01F02DFD00F04FF803B474
:10024000FFF7F2FF03BC00F057F8000009488047B1
:1002500009480047FEE7FEE7FEE7FEE7FEE7FEE7A8
:10026000FEE7FEE7FEE7FEE704480549054A064BC0
:1002700070470000751B0008AD010008180200203F
:100280001808002018040020180400207047704748
:100290007047754600F02CF8AE4605006946534697
:1002A00020F00700854618B020B5FFF7DDFFBDE858
:1002B00020404FF000064FF000074FF000084FF0CD
:1002C000000B21F00701AC46ACE8C009ACE8C0095E
:1002D000ACE8C009ACE8C0098D46704710B50446CB
:1002E000AFF300802046BDE81040FFF7A8BF000034
:1002F00000487047B401002001491820ABBEFEE75A
:100300002600020070470000F0EE400AF5EEC00A39
:10031000F1EE10FA02D2B1EE600A7047F5EEC00AB3
:10032000F1EE10FA02D19FED030AF6E7B0EE600A93
:10033000F3E700000000000000BFFEE710B5012158
:10034000C80501F067F800214FF4000001F062F8E1
:1003500010BD000001460020034A52680A400AB15D
:10036000012000E00020704700B0024070B500217D
:10037000002200230024344D2D68344E3540324E87
:10038000356035462D68066835432F4E3560354655
:100390006D6B25F00705756335466D6B4668354313
:1003A000294E7563456835B9C5682902058A2A044E
:1003B000057D2B0621E04568012D05D1C568290280
:1003C000058A2A04002318E04568022D05D1C56876
:1003D00069010569EA0200230FE04568032D06D193
:1003E000C56869010569AA024569EB0305E0C568AE
:1003F000290105692A0245692B0341EA020586683D
:1004000035431D43104EB66B35430F4EB5638569BA
:10041000F56335462D6C6FF30D05356435462D6C4F
:10042000C6693543084E3564858C2C0435466D6CA1
:1004300005F04045756435466D6C066A26433543C4
:10044000014E756470BD000000B00240FCE0FCFF8E
:100450000348006840F0010001490860704700004F
:1004600000B0024070470000044A116800BF034A10
:100470001268521A8242FAD3704700006C000020C2
:1004800010B5024600200023102A03D14FF020446B
:10049000636E0FE0B2F5807F02D10A4C236809E059
:1004A000B2F5805F03D1074C2034236802E0054C8D
:1004B000D434236803EA01048C4201D0002000E018
:1004C000012010BD840000A00021D0E900231A43C0
:1004D00083685B1E42EA4312C36842EA4321014A31
:1004E00011607047500100A070B500220021002368
:1004F00000240568AD00A5F1C045D5F840216FF393
:100500000E02D0E901563543C668354306693543C6
:100510004669354386693543C6693543066A3543BE
:10052000466A35432A43056835B90568AD00A5F12B
:10053000C045C5F8402111E03B4D2B686FF30E0319
:10054000D0E907563543466A35432B43364D2B6079
:100550000568AD00A5F1C045C5F84021056875BB2B
:10056000314D0835066855F8261001F07041856A4E
:100570002D686D1E866A7668761E45EA0616856ABF
:10058000AD686D1E46EA0526856AED686D1E46EA71
:100590000536856A2D8A6D1E46EA0546856AAD8A4E
:1005A0006D1E46EA0556856A2D7E6D1E46EA056576
:1005B00029431D4D0835066845F8261032E0FFE74F
:1005C000194D0835066855F8261001F07041856A06
:1005D0002D686D1E866A7668761E45EA0616856A5F
:1005E000AD686D1E46EA0526856A2D8A6D1E46EAAF
:1005F000054529430C4D08352C6804F07044856A84
:10060000ED686D1E2E03856AAD8A6D1E46EA05559E
:100610002C434FF02045C5F84841034D0835066886
:1006200045F8261070BD0000400100A0044909688B
:1006300041EA40014FF02042C2F8541170470000D7
:10064000540100A0F0B50A4600210023002400BF99
:100650003DE0012505FA01F3156805EA03049C4213
:1006600034D105684F000326BE40B54305601579B7
:100670004E00B5400668354305601579012D02D05E
:100680001579022D16D185684F000326BE40B5436B
:10069000856055794E00B54086683543856045686C
:1006A00001268E40B5434560456896798E40B6B2C6
:1006B00035434560C5684F000326BE40B543C5605D
:1006C000D5794E00B540C6683543C560491C102930
:1006D000BFD3F0BDF0B5002300244D07ED0E02FAA4
:1006E00005F3CE1000F1200555F826504E07F70E01
:1006F0000F26BE40B543CF1000F1200646F8275024
:10070000CE1000F1200555F8265045EA0304CE101E
:1007100000F1200545F82640F0BD41837047018374
:1007200070470AB1018300E04183704700BFFEE7D4
:100730001CB501216F2000F05DFE0E220321504800
:10074000FFF7C8FF0E2204214D48FFF7C3FF0E221A
:1007500006214B48FFF7BEFF0E220B214848FFF74A
:10076000B9FF0E220C214648FFF7B4FF41F65800AE
:10077000009002208DF805008DF8040000208DF80F
:1007800006008DF8070069463D48FFF75BFF092228
:1007900000213C48FFF79EFF092201213948FFF75D
:1007A00099FF0E2208213748FFF794FF0E220921F6
:1007B0003448FFF78FFF0E220A213248FFF78AFFE5
:1007C0000E220B212F48FFF785FF40F603700090A3
:1007D00069462C48FFF736FF0E2206212A48FFF70C
:1007E00079FF0E2207212848FFF774FF0E220A2105
:1007F0002548FFF76FFF4FF4986000906946224844
:10080000FFF720FF0E2203212048FFF763FF0E228F
:1008100006211E48FFF75EFF4820009069461B48EE
:10082000FFF710FF0E220A211948FFF753FF4FF47C
:100830008060009069461648FFF704FF0E220621EB
:100840001448FFF747FF0E2207211248FFF742FF27
:1008500009220A210F48FFF73DFF0E220B210D4808
:10086000FFF738FF09220C210A48FFF733FF4FF446
:10087000E650009069460748FFF7E4FE1CBD000003
:10088000000002400004024000080240000C024048
:10089000001402400018024010B5044624B9042197
:1008A0000448FFF73AFF03E004210248FFF737FF4F
:1008B00010BD0000000802400146002000BF04E017
:1008C000044B1B6823F81010401CB0F5A02FF7D381
:1008D00070470000280000201CB501210C2000F00A
:1008E00089FD0420009002208DF8050001208DF87C
:1008F000040000208DF806008DF8070069460848BE
:10090000FFF7A0FE4FF40050009069460548FFF73E
:1009100099FE01220421024800F006F81CBD0000E7
:1009200000080240000C024070B504460D46164611
:10093000324629462046FFF7F4FE70BD10B5292047
:1009400000F05CFB10BD00002DE9F04F8BB00546B8
:100950000E4614461F464FF00008C146C246C34625
:10096000F02000FB065020490968022202FB001813
:100970001E48008800F478404FEAE0291B480078C0
:1009800000F01F0B1948008800F4FC604FEA601A61
:10099000FFF7D4FC4FF44030019002200290CDF8D4
:1009A00010A0CDF80CB0CDF814900F200690CDF823
:1009B0001C802FB900200890012009900A9404E0BF
:1009C000EF200890099401200A9001A8FFF7CEFCBF
:1009D000FFF73EFD00BF0220FFF7BCFC0028FAD065
:1009E0000BB0BDE8F08F000028000020240000209C
:1009F0002DE9F04F89B005460E4691469A460027EC
:100A0000B846002008900790069005900490039047
:100A100000248346029001900090A9EB0500002875
:100A200002DDA9EB050001E0A5EB090007B2AAEB86
:100A30000600002802DDAAEB060001E0A6EB0A0092
:100A40000FFA80F828B2089030B20790A94503DB6E
:100A500001200690059003E04FF0FF3006900590CE
:100A6000B24503DB01200490039003E04FF0FF3018
:100A70000490039047450DDB0020069003903C4610
:100A8000384607EBD07149100FFA81FBCDF808808A
:100A900001970CE00020059004904446404608EB86
:100AA000D07149100FFA81FB0297CDF80480002025
:100AB000009025E0DDE9071000F072FC0298584430
:100AC0000FFA80FBA3450DDBABEB04000FFA80FBB4
:100AD00006990898084400B20890049907980844B9
:100AE00000B2079005990898084400B2089003994D
:100AF0000798084400B207900098401C00B200908C
:100B0000DDE900018842D5DD09B0BDE8F08F00B510
:100B10008FB0FFF7E1FE0020FFF7BEFE0120FFF7D8
:100B2000BBFE00F0D9F900F091F80121880600F031
:100B3000A1FC0121C80500F05DFCFFF7F9FD00F004
:100B4000F9FD002000900190029003900C900D9010
:100B50000E9004220721C02000F0DEFC4FF400308C
:100B600000F0C8FC012000F0D1FC00BF3D2000F0E7
:100B7000A1FC0028FAD009200490012005901D2036
:100B800006900320079040F20D10089040F24310A9
:100B9000099040F217100A9040F247100B906846F7
:100BA00000F09AFA0FB000BD00B591B01E20019080
:100BB00040F20D1002900420039040F24310049084
:100BC00002200590FF2006900020079008900990D1
:100BD0000A904FF480600B9005200C9040F2E310D7
:100BE0000E90C01E0F904FF4A07010904FF0504028
:100BF0000D9001A9124800F03EFB12480D904FF4F1
:100C0000C0600B9007200C9001A90D48803000F0C7
:100C100032FB012000F0BAFB0121094800F020FB63
:100C200001210748803000F01BFB012000F0AEFBE3
:100C3000054800F0C1F9012000F03CFA11B000BDF8
:100C400084680140000005D00000002010B5CA20D3
:100C500000F0D4F9C32000F0F7F9082000F0F4F90F
:100C6000502000F0F1F9CF2000F0C8F9002000F08A
:100C7000EBF9C12000F0E8F9302000F0E5F9ED20B3
:100C800000F0BCF9642000F0DFF9032000F0DCF98B
:100C9000122000F0D9F9812000F0D6F9E82000F008
:100CA000ADF9852000F0D0F9002000F0CDF97820D2
:100CB00000F0CAF9CB2000F0A1F9392000F0C4F906
:100CC0002C2000F0C1F9002000F0BEF9342000F023
:100CD000BBF9022000F0B8F9F72000F08FF92020CE
:100CE00000F0B2F9EA2000F089F9002000F0ACF938
:100CF000002000F0A9F9B12000F080F9002000F0F8
:100D0000A3F91B2000F0A0F9B62000F077F90A2023
:100D100000F09AF9A22000F097F9C02000F06EF9D7
:100D2000102000F091F9C12000F068F9102000F0C7
:100D30008BF9C52000F062F9452000F085F91520F7
:100D400000F082F9C72000F059F9902000F07CF9FA
:100D5000362000F053F9C82000F076F9F22000F0B8
:100D60004DF9002000F070F9B02000F047F9C220E2
:100D700000F06AF9B62000F041F90A2000F064F9A9
:100D8000A72000F061F9272000F05EF9042000F0B0
:100D90005BF92A2000F032F9002000F055F900201C
:100DA00000F052F9002000F04FF9EF2000F04CF96C
:100DB0002B2000F023F9002000F046F9002000F07D
:100DC00043F9012000F040F93F2000F03DF9F62002
:100DD00000F014F9012000F037F9002000F034F998
:100DE000062000F031F92C2000F008F9C82000F0AE
:100DF00031FF262000F002F9012000F025F9E02063
:100E000000F0FCF80F2000F01FF9292000F01CF979
:100E1000242000F019F90C2000F016F90E2000F043
:100E200013F9092000F010F94E2000F00DF9782098
:100E300000F00AF93C2000F007F9092000F004F95D
:100E4000132000F001F9052000F0FEF8172000F053
:100E5000FBF8112000F0F8F8002000F0F5F8E12090
:100E600000F0CCF8002000F0EFF8162000F0ECF8CD
:100E70001B2000F0E9F8042000F0E6F8112000F053
:100E8000E3F8072000F0E0F8312000F0DDF833202F
:100E900000F0DAF8422000F0D7F8052000F0D4F88E
:100EA0000C2000F0D1F80A2000F0CEF8282000F045
:100EB000CBF82F2000F0C8F80F2000F0C5F8112063
:100EC00000F09CF8C82000F0C5FE292000F096F83C
:100ED0002C2000F093F810BD00B587B00121202030
:100EE00000F088FA0121080500F0C4FA8020009083
:100EF00001208DF8050002208DF8040000208DF8F7
:100F0000060002208DF8070069462648FFF79AFB85
:100F10004FF48070009069462248FFF793FB4FF42E
:100F20000070009069461F48FFF78CFB05220721DF
:100F30001C48FFF7CFFB052208211A48FFF7CAFB20
:100F4000052209211748FFF7C5FB174800F096FC5A
:100F50001548008800F0400010BB0020ADF80800E4
:100F60004FF48270ADF80A000020ADF80C00ADF827
:100F70000E00ADF810004FF40070ADF8120018200C
:100F8000ADF814000020ADF816000720ADF81800E9
:100F900002A9054800F0D5FC0121034800F062FCDD
:100FA00007B000BD00140240005001400149088014
:100FB00070470000260000200149086070470000CB
:100FC0002000002038B94FF05041064A116000213E
:100FD000054A116005E00549024A11600121024AF3
:100FE00011607047280000202C000020000005D070
:100FF00001490880704700002400002010B5044615
:1010000000224FF400510E48FFF78EFC0020FFF73E
:1010100043FC21460B4800F092FC00BF0221094826
:1010200000F084FC0028F9D000BF8021054800F0C2
:101030007DFC0028F9D10120FFF72EFC10BD000037
:10104000000C02400050014010B50446012251033B
:101050000D48FFF769FC0020FFF71EFC21460B48F6
:1010600000F06DFC00BF0221084800F05FFC002882
:10107000F9D000BF8021054800F058FC0028F9D1C4
:101080000120FFF709FC10BD000C02400050014098
:1010900030B10749096841F00101054A116005E0D6
:1010A0000349096821F00101014A116070470000FD
:1010B0001868014030B10749096841F48031054A98
:1010C000116005E00349096821F48031014A11608B
:1010D0007047000018680140F0B50021002200238D
:1010E0000024002500265B4F3F68DFF86CC107EA4B
:1010F0000C07DFF860C1CCF80070078A3904674636
:101100003F68D0F814C04CEA010C47EA0C07DFF83E
:1011100044C1CCF800700CF104073F68DFF838C117
:1011200007EA0C07DFF82CC10CF1040CCCF80070B6
:10113000078B3A0467463F68D0F81CC04CEA020CA3
:1011400047EA0C07DFF80CC10CF1040CCCF8007076
:101150000CF104073F68DFF800C107EA0C07DFF86D
:10116000F4C00CF1080CCCF80070078C3B04674607
:101170003F68D0F824C04CEA030C47EA0C07DFF8BC
:10118000D4C00CF1080CCCF800700CF104073F68D7
:10119000DFF8C4C007EA0C07DFF8B8C00CF10C0C8C
:1011A000CCF80070078D3C046746D7F800C0C76ACA
:1011B00027434CEA070C274F0C37C7F800C03F1DE8
:1011C0003F68DFF898C007EA0C07DFF888C00CF129
:1011D000100CCCF80070D0E9007C47EA0C07D0F87E
:1011E00008C047EA0C07D0F80CC047EA0C07DFF844
:1011F00064C00CF1100CDCF800C047EA0C07DFF803
:1012000054C00CF1100CCCF80070476B3D02078EF7
:101210003E04104F24373F6807F07F47DFF834C0A3
:101220000CF1240CCCF8007046EA0507D0F838C061
:1012300047EA0C07DFF81CC00CF1240CDCF800C0F6
:1012400047EA0C07DFF80CC00CF1240CCCF8007056
:10125000F0BD00000868014000F800F08F88FE0F24
:1012600021B1026842F00102026003E0026822F04C
:101270000102026070472DE9F0410024002500269C
:10128000002200270023B1F804C04FEA0C44D0F834
:1012900004C00CF4704CC0F804C0D1F800C04CEA93
:1012A000040CC0F804C0B1F80CC04FEA0C45D0F8EB
:1012B00008C00CF4704CC0F808C0D1F808C04CEA63
:1012C000050CC0F808C0D0F810C02CF0070CC0F80E
:1012D00010C0D1F810C0C0F810C0D1F81CC04FEA3F
:1012E0000C26B1F820C04FEA0C4291F824C04FEA16
:1012F0000C67D0F818C09C46C0F818C0D1F818C0C8
:101300004CEA060C4CEA020C4CEA070CC0F818C078
:10131000D0F814C02CF0FF0CC0F814C0D1F814C0E1
:10132000C0F814C0D0F81CC040F207782CEA080CB2
:10133000C0F81CC0D1E90AC84CEA080CC0F81CC0AF
:10134000D0F828C09C46C0F828C0D1F830C0C0F8FA
:1013500028C0B1F838C04FEA0C43D0F82CC00CF0CC
:10136000E02CC0F82CC0D1F834C04CEA030CC0F813
:101370002CC0D0F830C06FF30A0CC0F830C0D1F8E0
:101380003CC0C0F830C0BDE8F081000001490860F1
:10139000704700002468014000BFFEE770477047B7
:1013A00070B504460D46002C06DBEF2C04DC002D46
:1013B00002DBB5F5A07F00DB70BDA9B2A0B20023AF
:1013C0000122FFF7C1FA00BFF6E770B504460D46EB
:1013D000002C06DBEF2C04DC002D02DBB5F5A07F32
:1013E00000DB70BDA9B2A0B200230122FFF7ACFA66
:1013F00000BFF6E729B1064A12680243044B1A609F
:1014000004E0034A12688243014B1A6070470000EF
:101410003038024029B1064A12680243044B1A6070
:1014200004E0034A12688243014B1A6070470000CF
:101430001038024029B1064A12680243044B1A6070
:1014400004E0034A12688243014B1A6070470000AF
:101450003838024029B1064A12680243044B1A6028
:1014600004E0034A12688243014B1A60704700008F
:101470002038024029B1064A12680243044B1A6020
:1014800004E0034A12688243014B1A60704700006F
:101490004438024029B1064A12680243044B1A60DC
:1014A00004E0034A12688243014B1A60704700004F
:1014B0002438024010B501460022002300204A11C2
:1014C000012A02D10A4C236808E0022A03D1084C01
:1014D0007034236802E0064C7434236801F01F0264
:1014E000012494401C400CB1012000E0002010BDFC
:1014F0000038024001460020034A106820F44030C2
:1015000008431060704700008C38024001490867AA
:10151000704700000000474210B5830143EA0163B1
:1015200043EA0273014C236010BD0000883802407A
:101530001CB501217E20FFF75DFF02208DF804001D
:101540008DF8050000208DF806008DF807000C22AC
:1015500005217248FFF7BEF80C2206216F48FFF7FD
:10156000B9F86020009069466C48FFF76BF80C22D0
:1015700000216B48FFF7AEF80120009069466848EB
:10158000FFF760F80C2200216648FFF7A3F80C2251
:1015900001216448FFF79EF80C2208216148FFF7FB
:1015A00099F80C2209215F48FFF794F80C220A21D0
:1015B0005C48FFF78FF80C220E215A48FFF78AF893
:1015C0000C220F215748FFF785F84CF2037000906A
:1015D00069465448FFF736F80C2200215248FFF7BD
:1015E00079F80C2201215048FFF774F80C220721EA
:1015F0004D48FFF76FF80C2208214B48FFF76AF8B7
:101600000C2209214848FFF765F80C220A214648B8
:10161000FFF760F80C220B214348FFF75BF80C2220
:1016200011464148FFF756F80C220D213E48FFF7BE
:1016300051F80C220E213C48FFF74CF80C220F21E8
:101640003948FFF747F84FF68370009069463648EF
:10165000FEF7F8FF0C2200213448FFF73BF80C227C
:1016600001213248FFF736F80C2202212F48FFF7FC
:1016700031F80C2203212D48FFF72CF80C2204210D
:101680002A48FFF727F80C2205212848FFF722F8FF
:101690000C220B212548FFF71DF80C221146234888
:1016A000FFF718F80C220D212048FFF713F80C2241
:1016B0000E211E48FFF70EF80C220F211B48FFF7E2
:1016C00009F84FF63F00009069461848FEF7BAFF48
:1016D0000C2200211648FEF7FDFF0C2201211448C0
:1016E000FEF7F8FF0C2204211148FEF7F3FF0C224D
:1016F00005210F48FEF7EEFF0C2208210C48FEF7EB
:10170000E9FF0C220F210A48FEF7E4FF48F23310EC
:10171000009069460648FEF795FF1CBD0004024094
:1017200000080240000C0240001002400014024079
:101730000018024000B593B0FFF7FAFE01210846F9
:10174000FFF778FE0220019007200290042003900A
:101750000720049002200590069007900120089031
:101760000020099004200A9010200B9040200C903B
:101770004FF4C0700D9000200E904FF400600F9059
:10178000002010904FF40050119001A8129008A86A
:10179000FEF7AAFE00F002F813B000BD1FB500244A
:1017A0000120009008200190012002900020039069
:1017B00000BF20210120FEF763FE0028F9D1684612
:1017C000FEF782FE0A2000F053FA02200090082063
:1017D0000190012002900020039000BF20210120F1
:1017E000FEF74EFE0028F9D16846FEF76DFE032095
:1017F000009008200190042002900020039000BF78
:1018000020210120FEF73CFE0028F9D16846FEF7B2
:101810005BFE00BF20210120FEF732FE0028F9D137
:101820006846FEF751FE40F2312404200090082063
:10183000019001200290039400BF20210120FEF7B7
:101840001FFE0028F9D16846FEF73EFE40F26A50BE
:10185000FEF7ECFE00BF20210120FEF711FE00285C
:10186000F9D11FBD21B1028842F04002028004E09C
:1018700002884FF6BF731A400280704710B50446C5
:101880002448844208D101218014FFF703FE00217F
:10189000A014FFF7FFFD3CE01F48844208D101215E
:1018A0000014FFF7D7FD00212014FFF7D3FD30E02F
:1018B0001A48844208D10121C013FFF7CBFD002153
:1018C000E013FFF7C7FD24E01548844208D1012149
:1018D0004014FFF7DFFD00216014FFF7DBFD18E087
:1018E0001048844209D101210805FFF7D3FD0021EA
:1018F0004FF48010FFF7CEFD0BE00B48844208D177
:1019000001214805FFF7C6FD00214FF40010FFF745
:10191000C1FD10BD0030014000380040003C0040D7
:1019200000340140005001400054014002460020B4
:1019300013890B400BB1012000E00020704781812A
:10194000704710B50022028802F441520B884C887F
:1019500023438C882343CC8823430C8923434C891D
:1019600023438C892343CC8923431A430280838BEE
:101970004FF2FF74234083830B8A038210BD7047AC
:101980000CB50020019000904248006840F480307F
:101990004049086000BF3F48006800F400300090F4
:1019A0000198401C0190009818B90198B0F5A04F1B
:1019B000F1D13848006800F4003010B101200090E7
:1019C00001E0002000900098012803D132483149FD
:1019D000091D08602F484030006840F080502D49B4
:1019E000403108602D48006840F440402B490860B1
:1019F0002848083000682749083108600846006810
:101A000040F4004008600846006840F4A0500860B8
:101A10002048006840F080701E49086000BF1D48E3
:101A2000006800F000700028F9D01C48006840F4FD
:101A300080301A49086000BF1848406800F48030C0
:101A40000028F9D01548006840F4003013490860B8
:101A500000BF1248406800F400300028F9D040F27E
:101A600005700F4908600B480830006820F003003B
:101A70000849083108600846006840F00200086024
:101A800000BF04480830006800F00C000828F8D1B6
:101A90000CBD000000380240085A400700700040AA
:101AA000003C024002480068401C01490860704741
:101AB0006C00002070B500200022022300240221C7
:101AC000274D2D6805F00C0020B1042806D0082809
:101AD00034D107E0234D244E356033E0234D224EB0
:101AE00035602FE01E4D2D1F2D68C5F380541C4D11
:101AF0002D1F2D6805F03F0154B11C4DB5FBF1F5CC
:101B0000174E361F3668C6F3881605FB06F209E045
:101B1000144DB5FBF1F5124E361F3668C6F3881624
:101B200005FB06F20E4D2D1F2D68C5F301456D1CFA
:101B30006B00B2FBF3F50C4E356003E0094D0A4E25
:101B4000356000BF00BF064D2D68C5F30315084E74
:101B5000705D054D2D68C540034E356070BD0000B9
:101B6000083802400024F4007000002040787D0115
:101B70005E4A000810B51548006840F4700013492B
:101B800008601348006840F0010011490860002017
:101B90000F49083108600E4800680E4908400C499A
:101BA00008600D48091D0860081F006820F48020A7
:101BB000091F0860002006490C310860FFF7E0FEAD
:101BC0004FF0006001498039086010BD88ED00E0E9
:101BD00000380240FFFFF6FE1030002400BFFEE791
:101BE00070B501218803FFF745FCFFF763FF164836
:101BF00000684FF4FA52B0FBF2F1481EB0F1807F5A
:101C000001D301201BE0481E4FF0E0225061501725
:101C10000F22002807DA13071D0E0C4B00F00F04EB
:101C2000241F1D5503E013071C0E094B1C5400BF55
:101C300000204FF0E022906107201061002008B1E1
:101C400000BFFEE770BD00007000002018ED00E04E
:101C500000E400E001B581B0002000900198009000
:101C600002E00098401E009000980028F9D10CBDB9
:101C700001B581B0002000900549019848430090CB
:101C800002E00098401E009000980028F9D10CBD99
:101C9000A0860100FFF7A4FF01214020FFF7AAFB67
:101CA00001210846FFF7A6FB4FF4C040DF4908605A
:101CB0000120087100208871012048710020C8713E
:101CC000DB48FEF7BFFC0120D849086000200871FE
:101CD000C871D848FEF7B6FCFEF719FF0121D648B7
:101CE000FFF7BEFA0121D4488030FFF7B9FA01208E
:101CF000FFF74CFB0120FFF7CBF9FEF755FFFEF78E
:101D00001DFE0120FFF75EF90020FEF7D5FD002043
:101D1000FFF74CF94FF6FF70FFF76AF9C748FFF776
:101D20004BF92820C64908800420C6490880B1EE36
:101D3000040AC54880ED000A76E10020C349088006
:101D40002AE0C249B1F9001001EB81014800C11736
:101D500000EB917189100A310AB2BD49BB4BB3F94E
:101D6000003021F82320B949B1F9001001EB8101BD
:101D70004800C11700EB917189103C310AB2B44997
:101D8000B24BB3F9003001EB83014A80AF480088C1
:101D9000401C00B2AD490880AC48B0F900005028A2
:101DA000CFDB0020FEF788FDA023E62219460A209B
:101DB000FEF71EFE4FF49B7378220A211046FEF7B1
:101DC00017FE4FF48773E622A0217820FEF710FE5D
:101DD0000020A04908801CE19E49B1F9001001EBE8
:101DE00081014800C11700EB9171891009B29A4A2C
:101DF0001180954890ED000A9FED981AC0EE010AF7
:101E00001046B0F900008E49B1F90010401A00EEFA
:101E1000100AB8EEC00A20EE800A914880ED000A50
:101E200000208A490880E8E08849B1F9001001EBF8
:101E30008101480000EBD071491009B2894A118034
:101E4000814890ED000A9FED851AC0EE010A104608
:101E5000B0F90000643800EE100AB8EEC00A20EEB7
:101E6000800A814880ED000A7D4890ED000A20EE4E
:101E7000000A7D48D0ED000A90ED001A00EEC10A7C
:101E80007A4880ED000AD0ED000A6E48B0F90000F3
:101E900000EE100AB8EEC00A20EE800ABDEEC00ABD
:101EA00010EE100A00B2724908801146B1F9000024
:101EB00000EBD07149100A31674A1288114409B207
:101EC0006C4A11806749B1F9000000EBD0714910EC
:101ED0005031674A1288114409B2674A1180674835
:101EE000B0F900006349B1F90010081A1AD063482C
:101EF000B0F902001146B1F90010401A5F49B1F97A
:101F000000105C4AB2F90020891A90FBF1F000EE53
:101F1000100AB8EEC00AB0EE401AFEF7F5F95848BC
:101F200080ED000A564890ED000AF7EE000AB4EE84
:101F3000E00AF1EE10FA03DB1F20FFF759F803E087
:101F40004FF47840FFF754F84A48B0F900104A4877
:101F5000B0F90000FFF739FA3F48B0F90000002857
:101F600016DD3B4C394DB5F9005034F82540A3B28D
:101F7000374C364DB5F9005004EB85046488A2B2A5
:101F80003C4C2488A1B23C4C2488A0B2FEF730FD22
:101F90003448B0F9000000280DDD384C2488A3B285
:101FA000364C6488A2B2334C2488A1B2324C2488C7
:101FB000A0B2FEF71DFD2F48B0F900002F490880A0
:101FC0002D48B0F9000048802A48B0F90010204898
:101FD0001E4AB2F9002020F822102748B0F900006C
:101FE0001B491A4AB2F9002001EB820148801748C8
:101FF0000088401C00B2154908801448B0F9000060
:102000005028FFF611AF13480088401C00B2114958
:1020100008801048B0F900005028FFF6DDAE3220ED
:10202000FEF722FA00BFFEE787E60000300000203E
:1020300000180240000002408468014000000020B7
:102040004A0000204C000020600000203E000020DC
:10205000740000203C0000204000002000004843A5
:1020600050000020420000205400002058000020B2
:1020700044000020460000204800002038000020D6
:10208000640000204FF04070E1EE100A704700003D
:102090000000000000000000000000000000000040
:1020A0000000000000000000000000000000000030
:1020B0000000000000000000000000000000000020
:1020C0008001800180018001800180018001800108
:1020D00080018001800180018001000000008001FA
:1020E000800100000000000000000000000000006F
:1020F0000000CC00CC00CC00CC00CC00CC00000018
:1021000000000000000000000000000000000000CF
:1021100000000000000000000000000000000000BF
:1021200000000000000000000000600C600C600C6B
:1021300030063006FE1FFE1F300638071803FE1F4C
:10214000FE1F180318038C018C018C010000000095
:102150008000E003F80F9C0E8C1C8C188C009800FB
:10216000F801E007800E801C8C188C189C18B80CA5
:10217000F00FE0038000800000000000000000007D
:10218000000000000E181B0C110C110611061103A3
:1021900011039B018E01C038C06C60446044304420
:1021A00030441844186C0C38000000000000000097
:1021B000E001F0033807180618063003F001F000BC
:1021C000F8009C310E33061E061C061C063FFC73ED
:1021D000F0210000000000000000000000000000EE
:1021E00000000C000C000C000C000C000C000000A7
:1021F00000000000000000000000000000000000DF
:1022000000000000000000000000000000000000CE
:10221000000200038001C000C000600060003000C8
:1022200030003000300030003000300030006000FE
:102230006000C000C0008001000300020000000038
:1022400020006000C0008001800100030003000640
:102250000006000600060006000600060006000351
:10226000000380018001C000600020000000000029
:1022700000000000000000000000C000C000D80600
:10228000F807E001300338070000000000000000FC
:10229000000000000000000000000000000000003E
:1022A00000000000000000000000800180018001AB
:1022B00080018001FC3FFC3F8001800180018001A2
:1022C000800100000000000000000000000000008D
:1022D00000000000000000000000000000000000FE
:1022E00000000000000000000000000000000000EE
:1022F000800180010001000180000000000000005A
:1023000000000000000000000000000000000000CD
:10231000000000000000E007E007000000000000EF
:1023200000000000000000000000000000000000AD
:10233000000000000000000000000000000000009D
:10234000000000000000000000000000000000008D
:10235000C000C000000000000000000000000000FD
:10236000000C000C0006000600060003000300033A
:102370008003800180018001C000C000C0006000B7
:1023800060000000000000000000000000000000ED
:10239000E003F007380E180C0C180C180C180C1869
:1023A0000C180C180C180C180C18180C380EF00718
:1023B000E00300000000000000000000000000003A
:1023C00000018001C001F0019801880180018001B5
:1023D00080018001800180018001800180018001F5
:1023E000800100000000000000000000000000006C
:1023F000E003F80F180C0C180C1800180018000C4B
:10240000000600038001C000600030001800FC1FBF
:10241000FC1F0000000000000000000000000000A1
:10242000E001F807180E0C0C0C0C000C0006C003A1
:10243000C007000C001800180C180C18180CF8072E
:10244000E0030000000000000000000000000000A9
:10245000000C000E000F000F800DC00C600C600C13
:10246000300C180C0C0CFC3FFC3F000C000C000C5A
:10247000000C000000000000000000000000000050
:10248000F80FF80F180018000C00EC03FC071C0EE6
:10249000001C0018001800180C181C0C180EF80767
:1024A000E003000000000000000000000000000049
:1024B000C007F00F381C181818000C00CC03EC0FE4
:1024C0003C0E1C1C0C180C180C18181C380EF007AD
:1024D000E003000000000000000000000000000019
:1024E000FC1FFC1F000C0006000600038003800197
:1024F000C001C000E00060006000700030003000EB
:10250000300000000000000000000000000000009B
:10251000E003F007380E180C180C180C3806F007FA
:10252000F007180C0C180C180C180C18380CF80FB5
:10253000E0030000000000000000000000000000B8
:10254000E003F007380E1C0C0C180C180C181C1C9F
:10255000381EF81BE0190018000C000C1C0EF807C0
:10256000F00100000000000000000000000000007A
:102570000000000000000000000080018001000059
:1025800000000000000000000000000000008001CA
:1025900080010000000000000000000000000000BA
:1025A0000000000000000000000080018001000029
:1025B000000000000000000000000000000080019A
:1025C0008001000100018000000000000000000008
:1025D00000000000000000000000000000000010EB
:1025E000001C800FE003F8001800F800E003800FE3
:1025F000001C0010000000000000000000000000AF
:102600000000000000000000000000000000F81FB3
:10261000000000000000F81F0000000000000000A3
:1026200000000000000000000000000000000000AA
:102630000000000000000000000000000000080092
:102640003800F001C007001F0018001FC007F0018C
:10265000380008000000000000000000000000003A
:10266000E003F80F180C0C180C180018000C0006EA
:1026700000038001C000C000C00000000000C000D6
:10268000C00000000000000000000000000000008A
:102690000000E00718180420C229224A1144094406
:1026A0000944094409221113E20C024004201818BD
:1026B000E007000000000000000000000000000033
:1026C00080038003C006C006C006600C600C301892
:1026D00030183018F83FF83F1C700C600C6006C0D2
:1026E00006C0000000000000000000000000000024
:1026F000FC03FC0F0C0C0C180C180C180C0CFC0731
:10270000FC0F0C180C300C300C300C300C18FC1F6B
:10271000FC070000000000000000000000000000B6
:10272000C007F01F38381C300C7006600600060029
:10273000060006000600060006600C701C30F01F44
:10274000E0070000000000000000000000000000A2
:10275000FE03FE0F060E0618061806300630063079
:10276000063006300630063006180618060EFE0F34
:10277000FE03000000000000000000000000000058
:10278000FC3FFC3F0C000C000C000C000C00FC1F7C
:10279000FC1F0C000C000C000C000C000C00FC3F9B
:1027A000FC3F0000000000000000000000000000EE
:1027B000F83FF83F18001800180018001800F81F1C
:1027C000F81F18001800180018001800180018004A
:1027D00018000000000000000000000000000000E1
:1027E000E00FF83F3C780E6006E007C003000300EE
:1027F00003FE03FE03C007C006C00EC03CF0F83F56
:10280000E00F0000000000000000000000000000D9
:102810000C300C300C300C300C300C300C30FC3FD9
:10282000FC3F0C300C300C300C300C300C300C30C9
:102830000C3000000000000000000000000000005C
:102840008001800180018001800180018001800180
:102850008001800180018001800180018001800170
:1028600080010000000000000000000000000000E7
:102870000006000600060006000600060006000628
:102880000006000600060006180618063807F003C2
:10289000E001000000000000000000000000000057
:1028A00006300618060C060606038601C6006600FA
:1028B0007600DE008E0106030606060C06180630BA
:1028C00006600000000000000000000000000000A2
:1028D0001800180018001800180018001800180038
:1028E0001800180018001800180018001800F81F29
:1028F000F81F0000000000000000000000000000C1
:102900000EE01EF01EF01EF036D836D836D836D877
:1029100066CC66CC66CCC6C6C6C6C6C6C6C686C3A8
:1029200086C300000000000000000000000000005E
:102930000C301C303C303C306C306C30CC30CC3007
:102940008C310C330C330C360C360C3C0C3C0C38F4
:102950000C3000000000000000000000000000003B
:10296000E007F81F1C380E70066003C003C003C0E8
:1029700003C003C003C003C006600E701C38F81FFC
:10298000E007000000000000000000000000000060
:10299000FC0FFC1F0C380C300C300C300C300C18B9
:1029A000FC1FFC070C000C000C000C000C000C00C1
:1029B0000C0000000000000000000000000000000B
:1029C000E007F81F1C380E70066003E003C003C068
:1029D00003C003C003C007E006630E3F1C3CF83F82
:1029E000E0F700C000000000000000000000000050
:1029F000FE0FFE1F06380630063006300638FE1F72
:102A0000FE0706030606060C0618061806300630F2
:102A10000660000000000000000000000000000050
:102A2000E003F80F1C0C0C180C180C001C00F80329
:102A3000E00F001E0038063006300E301C1CF80F68
:102A4000E00700000000000000000000000000009F
:102A5000FE7FFE7F80018001800180018001800176
:102A6000800180018001800180018001800180015E
:102A700080010000000000000000000000000000D5
:102A80000C300C300C300C300C300C300C300C3066
:102A90000C300C300C300C300C300C301818F81F87
:102AA000E00700000000000000000000000000003F
:102AB00003600630063006300C180C180C18180C81
:102AC000180C380E30063006700760036003C00132
:102AD000C001000000000000000000000000000035
:102AE0000360C361C361C3616633663366336633B3
:102AF000663366336C1B6C1B6C1B2C1A3C1E380E29
:102B0000380E00000000000000000000000000007F
:102B10000FE00C7018303018700C600EC007800386
:102B20008003C003E006700C301C18180C300E60D7
:102B300007E00000000000000000000000000000AE
:102B400003C006600C301C383818300C6006E007F3
:102B5000C00380018001800180018001800180012B
:102B600080010000000000000000000000000000E4
:102B7000FC7FFC7F006000300018000C00060003A2
:102B80008001C0006000300018000C000600FE7FCD
:102B9000FE7F0000000000000000000000000000B8
:102BA000E003E0036000600060006000600060001F
:102BB0006000600060006000600060006000600015
:102BC0006000600060006000E003E00300000000BF
:102BD00030003000600060006000C000C000C00035
:102BE000C001800180018001000300030003000692
:102BF00000060000000000000000000000000000CF
:102C0000E003E003000300030003000300030003EC
:102C1000000300030003000300030003000300039C
:102C20000003000300030003E003E00300000000D2
:102C30000000C001C001600360036003300630067D
:102C4000180C180C0000000000000000000000003C
:102C50000000000000000000000000000000000074
:102C60000000000000000000000000000000000064
:102C70000000000000000000000000000000000054
:102C8000FFFFFFFF00000000000000000000000048
:102C90000C000C000C000C000C000C0000000000EC
:102CA0000000000000000000000000000000000024
:102CB0000000000000000000000000000000000014
:102CC00000000000000000000000F003F8071C0CEA
:102CD0000C0C000FF00FF80C0C0C0C0C1C0FF80F68
:102CE000F0180000000000000000000000000000DC
:102CF00018001800180018001800D803F80F380C36
:102D0000181818181818181818181818380CF80F58
:102D1000D8030000000000000000000000000000D8
:102D200000000000000000000000C003F007300EAB
:102D3000180C1800180018001800180C300EF007B6
:102D4000C0030000000000000000000000000000C0
:102D500000180018001800180018C01BF01F301CC5
:102D6000181818181818181818181818301CF01FE8
:102D7000C01B000000000000000000000000000078
:102D800000000000000000000000C003F00F300C45
:102D90001818F81FF81F180018003818301CF00F0A
:102DA000C00700000000000000000000000000005C
:102DB000800FC00FC000C000C000F007F007C000C7
:102DC000C000C000C000C000C000C000C000C00003
:102DD000C000000000000000000000000000000033
:102DE00000000000000000000000E00DF80F180EC9
:102DF0000C0C0C0C0C0C0C0C0C0C0C0C180EF80F16
:102E0000E00D000C0C0C1C06F807F001000000009F
:102E100018001800180018001800D807F80F381C00
:102E20001818181818181818181818181818181822
:102E30001818000000000000000000000000000062
:102E4000C000C000000000000000C000C000C000C2
:102E5000C000C000C000C000C000C000C000C00072
:102E6000C0000000000000000000000000000000A2
:102E7000C000C000000000000000C000C000C00092
:102E8000C000C000C000C000C000C000C000C00042
:102E9000C000C000C000C000F800780000000000C2
:102EA0000C000C000C000C000C000C0C0C060C03AD
:102EB0008C01CC006C00FC009C018C030C030C0604
:102EC0000C0C0000000000000000000000000000EA
:102ED000C000C000C000C000C000C000C000C000F2
:102EE000C000C000C000C000C000C000C000C000E2
:102EF000C000000000000000000000000000000012
:102F0000000000000000000000007C3CFF7EC7E3E2
:102F100083C183C183C183C183C183C183C183C191
:102F200083C100000000000000000000000000005D
:102F3000000000000000000000009807F80F381C97
:102F40001818181818181818181818181818181801
:102F50001818000000000000000000000000000041
:102F600000000000000000000000C003F00F300C63
:102F7000181818181818181818181818300CF00FF6
:102F8000C00300000000000000000000000000007E
:102F900000000000000000000000D803F80F380C0B
:102FA000181818181818181818181818380CF80FB6
:102FB000D8031800180018001800180000000000BE
:102FC00000000000000000000000C01BF01F301CCB
:102FD000181818181818181818181818301CF01F76
:102FE000C01B00180018001800180018000000008E
:102FF00000000000000000000000B007F0037000B7
:103000003000300030003000300030003000300040
:103010003000000000000000000000000000000080
:1030200000000000000000000000E003F003380E84
:10303000180C3800F003C007000C180C380EF0070D
:10304000E00300000000000000000000000000009D
:1030500000008000C000C000C000F007F007C00002
:10306000C000C000C000C000C000C000C000C00759
:1030700080070000000000000000000000000000C9
:1030800000000000000000000000181818181818B0
:10309000181818181818181818181818381CF01FAD
:1030A000E019000000000000000000000000000027
:1030B000000000000000000000000C18180C180CA4
:1030C000180C300630063006600360036003C00150
:1030D000C00100000000000000000000000000002F
:1030E00000000000000000000000C141C141C361B8
:1030F0006363636363633636363636361C1C1C1CCA
:103100001C1C000000000000000000000000000087
:10311000000000000000000000001C38381C300CCB
:10312000600660036003600360036006300C381CB7
:103130001C3800000000000000000000000000003B
:1031400000000000000000000000183030183018A7
:103150007018600C600CE00CC006C0068003800391
:10316000800380018001C001F000700000000000B9
:1031700000000000000000000000FC1FFC1F000C0D
:10318000000600038001C000600030001800FC1F32
:10319000FC1F000000000000000000000000000014
:1031A00000038001C000C000C000C000C000C0001B
:1031B00060006000300060004000C000C000C0003F
:1031C000C000C000C000800100030000000000003B
:1031D00080018001800180018001800180018001E7
:1031E00080018001800180018001800180018001D7
:1031F00080018001800180018001800100000000C9
:103200006000C000C0018001800180018001800158
:10321000000300030006000300018001800180011B
:10322000800180018001C0006000000000000000FB
:103230000000000000000000000000000000F0108E
:10324000F81F080F00000000000000000000000050
:10325000000000000000000000000000000000006E
:10326000000000000000000000000000000000005E
:1032700000000000000000000020002000200020CE
:1032800000200020002000000020000000000000BE
:10329000005000500050000000000000000000003E
:1032A0000000000000000000000900090012007F7B
:1032B0000012007F00120024002400000000001013
:1032C00000380054005000500038001400540054DE
:1032D0000038001000000000803000490049004A1A
:1032E000C032200520092009C010000000000000A5
:1032F000000C001200120014001800250023002307
:10330000801D000000000000004000400040000060
:1033100000000000000000000000000000000000AD
:1033200000080010001000200020002000200020D5
:1033300000200010001000000040002000200010BD
:1033400000100010001000100010002000200000ED
:10335000002000700020005000000000000000006D
:10336000000000000000000000000000000800084D
:10337000007F0008000800000000000000000000BE
:10338000000000000000000000000000000000003D
:1033900000200020004000000000000000000000AD
:1033A00000000070000000000000000000000000AD
:1033B000000000000000000000000000000000000D
:1033C000002000000000000000100010001000208D
:1033D000002000200020004000400000000000000D
:1033E0000010002800440044004400440044002829
:1033F000001000000000000000100030005000101D
:10340000001000100010001000100000000000006C
:103410000030004800440004000800100020004074
:10342000007C00000000000000300048000400089C
:1034300000100008004400480030000000000000B8
:10344000000800180018002800280048007C000828
:103450000008000000000000003C00200040007058
:103460000048000400440048003000000000000054
:103470000018002400400050006800440044002868
:103480000010000000000000007C00040008001094
:1034900000100010002000200020000000000000AC
:1034A00000100028004400280010002800440028D4
:1034B000001000000000000000100028004400443C
:1034C000002C001400040048003000000000000040
:1034D00000000000002000000000000000000000CC
:1034E000002000000000000000000000002000009C
:1034F000000000000000000000200020004000004C
:103500000000000400080030004000300008000403
:10351000000000000000000000000000007C00002F
:103520000000007C0000000000000000000000001F
:103530000000004000200018000400180020004097
:103540000000000000000000003800640044000497
:103550000008001000100000001000000000000033
:10356000800F4010A02EA0512051205120512053F7
:10357000C04D20204010000000080014001400146A
:103580000022003E00220041004100000000000037
:10359000003C002200220022003C002200220022E7
:1035A000003C000000000000000E0011002100207F
:1035B0000020002000210011000E0000000000008B
:1035C000003C0022002100210021002100210022D6
:1035D000003C000000000000003E00200020002011
:1035E000003E002000200020003E000000000000FF
:1035F000003E002000200020003C00200020002091
:103600000020000000000000000E0011002100203A
:103610000027002100210011000E00000000000022
:103620000021002100210021003F00210021002174
:1036300000210000000000000020002000200020E9
:1036400000200020002000200020000000000000DA
:1036500000080008000800080008000800480048AA
:103660000030000000000000002200240028002894
:103670000038002800240024002200000000000080
:10368000002000200020002000200020002000203A
:10369000003E000000000000802080318031803139
:1036A000802A802A802A802A8024000000000000CE
:1036B00000210031003100290029002500230023CA
:1036C0000021000000000000000C00120021002179
:1036D0000021002100210012000C00000000000069
:1036E000003C002200220022003C0020002000209C
:1036F0000020000000000000000C0012002100214A
:103700000021002100210016000D00010000000032
:10371000003E002100210021003E00240022002163
:103720008020000000000000001C00220022002079
:10373000001C000200220022001C0000000000000B
:10374000003E000800080008000800080008000803
:1037500000080000000000000021002100210021DD
:103760000021002100210012000C000000000000D8
:103770000041004100220022002200140014001425
:1037800000080000000000004044404A402A802A0F
:10379000802A802A802A802A001100000000000070
:1037A000004100220014001400080014001400223C
:1037B000004100000000000000410022002200142F
:1037C00000080008000800080008000000000000D1
:1037D000007E0002000400080010001000200040DD
:1037E000007E0000000000000030002000200020CB
:1037F00000200020002000200020002000200000E9
:103800000040004000200020002000200020001088
:1038100000100000000000000060002000200020D8
:1038200000200020002000200020002000200000B8
:1038300000100028002800280044000000000000BC
:103840000000000000000000000000000000000078
:10385000000000000000000000000000007E0040AA
:103860000020000000000000000000000000000038
:1038700000000000000000000000000000380044CC
:103880000004003C00440044003C00000000000034
:1038900000400040005800640044004400440064BC
:1038A0000058000000000000000000000030004848
:1038B00000400040004000480030000000000000D0
:1038C000000400040034004C004400440044004C58
:1038D0000034000000000000000000000038004438
:1038E0000044007C0040004400380000000000005C
:1038F0000060004000E00040004000400040004008
:103900000040000000000000000000000034004CF7
:10391000004400440044004C003400040044000013
:10392000004000400058006400440044004400444B
:103930000044000000000000004000000040004083
:103940000040004000400040004000000000000037
:1039500000400000004000400040004000400040A7
:10396000004000400040000000400040004800507F
:1039700000600050005000480048000000000000B7
:103980000040004000400040004000400040004037
:103990000040000000000000000000000052006D28
:1039A00000490049004900490049000000000000AA
:1039B000000000000058006400440044004400443B
:1039C0000044000000000000000000000038004437
:1039D000004400440044004400380000000000009F
:1039E00000000000005800640044004400440064EB
:1039F0000058004000400000000000000034004C6F
:103A0000004400440044004C003400040004000062
:103A100000000000005000600040004000400040F6
:103A200000400000000000000000000000300048DE
:103A30000040003000080048003000000000000096
:103A40000040004000E000400040004000400040D6
:103A5000006000000000000000000000004400447E
:103A6000004400440044004C00340000000000000A
:103A7000000000000044004400280028002800281E
:103A80000010000000000000000000000049004994
:103A900000550055005500550022000000000000B0
:103AA0000000000000440028002800100028002822
:103AB000004400000000000000000000004400443A
:103AC000002800280028001000100010001000003E
:103AD00000000000007800080010002000200040D6
:103AE00000780000000000000010002000200020EE
:103AF00000200040002000200020002000200000C6
:103B000000200020002000200020002000200020B5
:103B100000200020002000000040002000200020A5
:103B200000200010002000200020002000200000C5
:103B300000000000000000740058000000000000B9
:103B40000000000000000000000000700050005065
:103B500000500050005000500070000000000000B5
:103B60000000000000000000000000000000000055
:103B70000000000000000000000000001000100025
:103B800010001000100010000000100000000000E5
:103B900000000000280028002800000000000000AD
:103BA00000000000000000000000000014001400ED
:103BB0003E00140028007C002800280000000000BF
:103BC00000001000380054005000380014001400A9
:103BD0005400380010000000000000004400A8005D
:103BE000A800500014001A002A0024000000000061
:103BF000000000002000500050002000E800980065
:103C000098006000000000000000000080008000BC
:103C10008000000000000000000000000000000024
:103C200000000000400080008000800080008000D4
:103C30008000800080000000000000008000400044
:103C400040004000400040004000400040000000B4
:103C5000000000004000E0004000A0000000000064
:103C60000000000000000000000000000000000054
:103C700020002000F80020002000000000000000CC
:103C80000000000000000000000000000000000034
:103C900000004000400000000000000000000000A4
:103CA000000000000000C000000000000000000054
:103CB0000000000000000000000000000000000004
:103CC0000000400000000000000000002000200074
:103CD00020004000400080008000800000000000C4
:103CE00000000000600090009000900090009000A4
:103CF0009000600000000000000000002000600054
:103D0000A000200020002000200020000000000073
:103D10000000000060009000100010002000400033
:103D20008000F00000000000000000006000900033
:103D30001000600010001000900060000000000003
:103D40000000000010003000500050009000F8000B
:103D50001000100000000000000000007000400093
:103D60008000E000100010009000600000000000E3
:103D700000000000600090008000A000D0009000D3
:103D8000900060000000000000000000F000100043
:103D90002000200020004000400040000000000003
:103DA0000000000060009000900060009000900013
:103DB0009000600000000000000000006000900023
:103DC0009000B00050001000900060000000000063
:103DD00000000000000000004000000000000000A3
:103DE0000000400000000000000000000000000093
:103DF0004000000000000000000040004000000003
:103E00000000000000000000100060008000600062
:103E10001000000000000000000000000000000092
:103E20000000F0000000F0000000000000000000B2
:103E30000000000000000000800060001000600032
:103E40008000000000000000000000006000900002
:103E50001000200040004000000040000000000072
:103E6000000000001C0022005B00A500A500A500CA
:103E7000A5009E004100000000000000200050004E
:103E800050005000500070008800880000000000C2
:103E900000000000F00088008800F0008800880022
:103EA0008800F0000000000000000000380044001E
:103EB000840080008000840044003800000000007E
:103EC00000000000E0009000880088008800880062
:103ED0009000E0000000000000000000F8008000FA
:103EE0008000F800800080008000F80000000000E2
:103EF00000000000780040004000700040004000DA
:103F000040004000000000000000000038004400B5
:103F1000840080009C008400440038000000000001
:103F200000000000880088008800F80088008800F1
:103F30008800880000000000000000008000800071
:103F40008000800080008000800080000000000071
:103F50000000000010001000100010001000900081
:103F60009000600000000000000000008800900049
:103F7000A000E000A0009000900088000000000079
:103F80000000000080008000800080008000800031
:103F90008000F00000000000000000008200C60069
:103FA000C600AA00AA00AA00AA0092000000000011
:103FB000000000008400C400A400A4009400940049
:103FC0008C00840000000000000000003000480069
:103FD0008400840084008400480030000000000059
:103FE00000000000F000880088008800F0008000D9
:103FF0008000800000000000000000003000480049
:104000008400840084008400580034000400000010
:104010000000000078004400440078005000480090
:104020004400420000000000000000007000880012
:104030008000700008008800880070000000000008
:1040400000000000F80020002000200020002000D8
:104050002000200000000000000000008400840018
:1040600084008400840084004800300000000000C8
:1040700000000000880088005000500050005000F0
:104080005000200000000000000000009200AA0084
:10409000AA00AA00AA00AA00AA004400000000008A
:1040A0000000000084004800480030003000480054
:1040B000480084000000000000000000880050005C
:1040C0005000200020002000200020000000000000
:1040D00000000000F8000800100020002000400050
:1040E0008000F8000000000000000000C000800018
:1040F0008000800080008000800080008000000040
:1041000000000000800080004000400040004000AF
:10411000200020000000000000000000C00040005F
:1041200040004000400040004000400040000000CF
:10413000000000004000A000A000A000000000005F
:10414000000000000000000000000000000000006F
:10415000000000000000000000000000F800000067
:10416000000000008000400000000000000000008F
:10417000000000000000000000000000000000003F
:10418000E00010007000900090007000000000003F
:104190000000000080008000A000D000900090008F
:1041A000D000A0000000000000000000000000009F
:1041B000600090008000800090006000000000001F
:1041C00000000000100010005000B00090009000AF
:1041D000B0005000000000000000000000000000DF
:1041E00060009000F000800090006000000000007F
:1041F00000000000C0008000C0008000800080003F
:1042000080008000000000000000000000000000AE
:104210005000B00090009000B0005000100000006E
:104220000000000080008000A000D00090009000FE
:1042300090009000000000000000000080000000DE
:10424000800080008000800080008000000000006E
:1042500000000000800000008000800080008000DE
:1042600080008000800000000000000080008000CE
:104270009000A000C000A00090009000000000008E
:10428000000000008000800080008000800080002E
:10429000800080000000000000000000000000001E
:1042A000A600DA0092009200920092000000000046
:1042B0000000000000000000A000D000900090006E
:1042C00090009000000000000000000000000000CE
:1042D00060009000900090009000600000000000DE
:1042E0000000000000000000A000D000900090003E
:1042F000D000A000800000000000000000000000CE
:104300005000B00090009000B0005000100000007D
:104310000000000000000000A000C000800080003D
:10432000800080000000000000000000000000008D
:10433000E0009000400020009000600000000000BD
:104340000000000080008000C0008000800080002D
:104350008000C0000000000000000000000000001D
:104360009000900090009000B0005000000000000D
:10437000000000000000000088008800500050008D
:1043800050002000000000000000000000000000BD
:104390009200AA00AA00AA00AA004400000000009F
:1043A00000000000000000008800500020002000F5
:1043B0005000880000000000000000000000000025
:1043C0008800500050005000200020002000000015
:1043D0000000000000000000F0001000200040007D
:1043E0008000F0000000000000000000C00080001D
:1043F00080008000000080008000800080000000BD
:1044000000000000800080008000800080008000AC
:10441000800080008000000000000000C00040001C
:1044200040004000200040004000400040000000EC
:1044300000000000000000000000E800B0000000E4
:104440000000000000000000000000000000E0008C
:10445000A000A000A000A000A000E000000000005C
:10446000000000000000000000000000000040000C
:104470004000400040004000400000004000A0001C
:10448000A000A000000000000000000000000000EC
:1044900024002400FE004800FC00480048003800CA
:1044A0005400500038001400140054003800440038
:1044B000A800A800500014001A002A0024001000D0
:1044C00028002800100074004C004C003000100040
:1044D00010001000000000000000000000000800B4
:1044E0001000100010001000100010000800100054
:1044F000080008000800080008000800100000007C
:104500000000240018003C001800240000000000F7
:104510000000100010007C001000100000000000DF
:10452000000000000000000008000800100000006B
:104530000000000000003C0000000000000000003F
:104540000000000000000000000018001800080033
:1045500008000800100010002000200020001800B3
:104560002400240024002400240024001800080053
:10457000180028000800080008000800080038009B
:104580004400000004000800100020007C00180017
:104590002400040018000400040024001800040093
:1045A0000C001400240044007E00040004003C00C1
:1045B0002000200038000400040024001800180027
:1045C00024002000380024002400240018003C00AF
:1045D0000400080008000800100010001000180077
:1045E00024002400180024002400240018001800CF
:1045F0002400240024001C000400240018000000F3
:10460000000010000000000010000000000000008A
:10461000000008000000000008001000000000007A
:104620000000040018002000180004000000000032
:10463000000000003C0000003C0000000000000002
:1046400000002000180004001800200000001800DE
:1046500024000400080010001000000010003C00BE
:1046600042009900A500A5009D00420038003800D6
:104670004400440044007C004400440044007800AE
:1046800044004400780044004400440078001C00CA
:104690002200420040004000420022001C00700046
:1046A00048004400440044004400480070007C007E
:1046B000400040007C004000400040007C003C0086
:1046C00020002000380020002000200020001C00D6
:1046D0002200420040004E00420022001C00440024
:1046E000440044007C0044004400440044001000A6
:1046F0001000100010001000100010001000040046
:1047000004000400040004002400240018004400F5
:10471000480050007000500048004800440020004D
:104720002000200020002000200020003C0082000B
:10473000C600C600AA00AA00AA00AA009200420071
:104740006200520052004A004A004600420018002F
:104750002400420042004200420024001800780079
:10476000440044004400780040004000400018002D
:10477000240042004200420042002C001A0078004F
:1047800044004400780050004800440042003800D3
:1047900044004000380004004400440038007C001D
:1047A0001000100010001000100010001000420057
:1047B000420042004200420042002400180044002F
:1047C000440028002800280028002800100092003B
:1047D000AA00AA00AA00AA00AA00AA004400420057
:1047E0002400240018001800240024004200440083
:1047F00028002800100010001000100010007C009D
:104800000400080010001000200040007C001C0084
:104810001000100010001000100010001C0010000C
:1048200010000800080008000800040004001C0034
:104830000400040004000400040004001C00100034
:1048400028004400000000000000000000000000FC
:104850000000000000000000000000000000200038
:104860001000100000000000000000000000000028
:104870000000180004001C00240024001C0020007C
:104880002000280034002400240034002800000008
:10489000000018002400200020002400180004005C
:1048A000040014002C00240024002C00140000003C
:1048B0000000180024003C00200024001800000024
:1048C0001800100010001800100010001000000068
:1048D0001800240024001800040024001800200000
:1048E00020002800340024002400240024001000AC
:1048F0000000100010001000100010001000080050
:10490000000008000800080008002800100020002F
:10491000200024002800300028002400240010007B
:104920001000100010001000100010001000000017
:104930000000A600DA0092009200920092000000AF
:10494000000028003400240024002400240000007B
:104950000000180024002400240024001800000097
:10496000280034002400380020002000200000002F
:1049700014002C0024001C000400040004000000AB
:1049800000002C003000200020002000200000004B
:104990000000180024001000080024001800000087
:1049A0001000380010001000100010001800000067
:1049B000000024002400240024002C001400000027
:1049C00000004400440028002800280010000000D7
:1049D00000009200AA00AA00AA00AA004400000059
:1049E00000004400280010001000280044000000CF
:1049F00028002800280010001000100010000000FF
:104A000000003C0004000800100020003C000000F2
:104A10000800100010002000100010000800100016
:104A20001000100010001000100010001000000016
:104A30001000080008000400080008001000000032
:104A400000000000600092000C0000000000FF0069
:104A5000FF00FF00FF00FF00FF00FF00FF0000005D
:104A6000000000000000010203040607080900001E
:104A70000000010203040000984A00080000002022
:104A800074000000E80100080C4B000874000020CE
:104A9000A4070000040200088E200008100018007F
:104AA0005E3200080C000C005E3B000808000C00A1
:104AB0005E44000808000800000000000000FFFF3E
:104AC000000000D000000000000000000000000016
:104AD00000000000000000000000000000000000D6
:104AE00000000000000000000000000000000000C6
:104AF00000000000000000000000000000000000B6
:0C4B000000000000000000000095BA0A50
:04000005080001AD41
:00000001FF
